{
	"contract-526c5b12e7.sol": {
		"SrZygon": {
			"abi": [
				{
					"inputs": [],
					"stateMutability": "nonpayable",
					"type": "constructor"
				},
				{
					"anonymous": false,
					"inputs": [
						{
							"indexed": true,
							"internalType": "address",
							"name": "owner",
							"type": "address"
						},
						{
							"indexed": true,
							"internalType": "address",
							"name": "spender",
							"type": "address"
						},
						{
							"indexed": false,
							"internalType": "uint256",
							"name": "value",
							"type": "uint256"
						}
					],
					"name": "Approval",
					"type": "event"
				},
				{
					"anonymous": false,
					"inputs": [
						{
							"indexed": true,
							"internalType": "address",
							"name": "previousOwner",
							"type": "address"
						},
						{
							"indexed": true,
							"internalType": "address",
							"name": "newOwner",
							"type": "address"
						}
					],
					"name": "OwnershipTransferred",
					"type": "event"
				},
				{
					"anonymous": false,
					"inputs": [
						{
							"indexed": false,
							"internalType": "address",
							"name": "account",
							"type": "address"
						}
					],
					"name": "Paused",
					"type": "event"
				},
				{
					"anonymous": false,
					"inputs": [
						{
							"indexed": true,
							"internalType": "address",
							"name": "from",
							"type": "address"
						},
						{
							"indexed": true,
							"internalType": "address",
							"name": "to",
							"type": "address"
						},
						{
							"indexed": false,
							"internalType": "uint256",
							"name": "value",
							"type": "uint256"
						}
					],
					"name": "Transfer",
					"type": "event"
				},
				{
					"anonymous": false,
					"inputs": [
						{
							"indexed": false,
							"internalType": "address",
							"name": "account",
							"type": "address"
						}
					],
					"name": "Unpaused",
					"type": "event"
				},
				{
					"inputs": [],
					"name": "DOMAIN_SEPARATOR",
					"outputs": [
						{
							"internalType": "bytes32",
							"name": "",
							"type": "bytes32"
						}
					],
					"stateMutability": "view",
					"type": "function"
				},
				{
					"inputs": [
						{
							"internalType": "address",
							"name": "owner",
							"type": "address"
						},
						{
							"internalType": "address",
							"name": "spender",
							"type": "address"
						}
					],
					"name": "allowance",
					"outputs": [
						{
							"internalType": "uint256",
							"name": "",
							"type": "uint256"
						}
					],
					"stateMutability": "view",
					"type": "function"
				},
				{
					"inputs": [
						{
							"internalType": "address",
							"name": "spender",
							"type": "address"
						},
						{
							"internalType": "uint256",
							"name": "amount",
							"type": "uint256"
						}
					],
					"name": "approve",
					"outputs": [
						{
							"internalType": "bool",
							"name": "",
							"type": "bool"
						}
					],
					"stateMutability": "nonpayable",
					"type": "function"
				},
				{
					"inputs": [
						{
							"internalType": "address",
							"name": "account",
							"type": "address"
						}
					],
					"name": "balanceOf",
					"outputs": [
						{
							"internalType": "uint256",
							"name": "",
							"type": "uint256"
						}
					],
					"stateMutability": "view",
					"type": "function"
				},
				{
					"inputs": [
						{
							"internalType": "uint256",
							"name": "amount",
							"type": "uint256"
						}
					],
					"name": "burn",
					"outputs": [],
					"stateMutability": "nonpayable",
					"type": "function"
				},
				{
					"inputs": [
						{
							"internalType": "address",
							"name": "account",
							"type": "address"
						},
						{
							"internalType": "uint256",
							"name": "amount",
							"type": "uint256"
						}
					],
					"name": "burnFrom",
					"outputs": [],
					"stateMutability": "nonpayable",
					"type": "function"
				},
				{
					"inputs": [],
					"name": "decimals",
					"outputs": [
						{
							"internalType": "uint8",
							"name": "",
							"type": "uint8"
						}
					],
					"stateMutability": "view",
					"type": "function"
				},
				{
					"inputs": [
						{
							"internalType": "address",
							"name": "spender",
							"type": "address"
						},
						{
							"internalType": "uint256",
							"name": "subtractedValue",
							"type": "uint256"
						}
					],
					"name": "decreaseAllowance",
					"outputs": [
						{
							"internalType": "bool",
							"name": "",
							"type": "bool"
						}
					],
					"stateMutability": "nonpayable",
					"type": "function"
				},
				{
					"inputs": [
						{
							"internalType": "address",
							"name": "spender",
							"type": "address"
						},
						{
							"internalType": "uint256",
							"name": "addedValue",
							"type": "uint256"
						}
					],
					"name": "increaseAllowance",
					"outputs": [
						{
							"internalType": "bool",
							"name": "",
							"type": "bool"
						}
					],
					"stateMutability": "nonpayable",
					"type": "function"
				},
				{
					"inputs": [
						{
							"internalType": "address",
							"name": "to",
							"type": "address"
						},
						{
							"internalType": "uint256",
							"name": "amount",
							"type": "uint256"
						}
					],
					"name": "mint",
					"outputs": [],
					"stateMutability": "nonpayable",
					"type": "function"
				},
				{
					"inputs": [],
					"name": "name",
					"outputs": [
						{
							"internalType": "string",
							"name": "",
							"type": "string"
						}
					],
					"stateMutability": "view",
					"type": "function"
				},
				{
					"inputs": [
						{
							"internalType": "address",
							"name": "owner",
							"type": "address"
						}
					],
					"name": "nonces",
					"outputs": [
						{
							"internalType": "uint256",
							"name": "",
							"type": "uint256"
						}
					],
					"stateMutability": "view",
					"type": "function"
				},
				{
					"inputs": [],
					"name": "owner",
					"outputs": [
						{
							"internalType": "address",
							"name": "",
							"type": "address"
						}
					],
					"stateMutability": "view",
					"type": "function"
				},
				{
					"inputs": [],
					"name": "pause",
					"outputs": [],
					"stateMutability": "nonpayable",
					"type": "function"
				},
				{
					"inputs": [],
					"name": "paused",
					"outputs": [
						{
							"internalType": "bool",
							"name": "",
							"type": "bool"
						}
					],
					"stateMutability": "view",
					"type": "function"
				},
				{
					"inputs": [
						{
							"internalType": "address",
							"name": "owner",
							"type": "address"
						},
						{
							"internalType": "address",
							"name": "spender",
							"type": "address"
						},
						{
							"internalType": "uint256",
							"name": "value",
							"type": "uint256"
						},
						{
							"internalType": "uint256",
							"name": "deadline",
							"type": "uint256"
						},
						{
							"internalType": "uint8",
							"name": "v",
							"type": "uint8"
						},
						{
							"internalType": "bytes32",
							"name": "r",
							"type": "bytes32"
						},
						{
							"internalType": "bytes32",
							"name": "s",
							"type": "bytes32"
						}
					],
					"name": "permit",
					"outputs": [],
					"stateMutability": "nonpayable",
					"type": "function"
				},
				{
					"inputs": [],
					"name": "renounceOwnership",
					"outputs": [],
					"stateMutability": "nonpayable",
					"type": "function"
				},
				{
					"inputs": [],
					"name": "symbol",
					"outputs": [
						{
							"internalType": "string",
							"name": "",
							"type": "string"
						}
					],
					"stateMutability": "view",
					"type": "function"
				},
				{
					"inputs": [],
					"name": "totalSupply",
					"outputs": [
						{
							"internalType": "uint256",
							"name": "",
							"type": "uint256"
						}
					],
					"stateMutability": "view",
					"type": "function"
				},
				{
					"inputs": [
						{
							"internalType": "address",
							"name": "to",
							"type": "address"
						},
						{
							"internalType": "uint256",
							"name": "amount",
							"type": "uint256"
						}
					],
					"name": "transfer",
					"outputs": [
						{
							"internalType": "bool",
							"name": "",
							"type": "bool"
						}
					],
					"stateMutability": "nonpayable",
					"type": "function"
				},
				{
					"inputs": [
						{
							"internalType": "address",
							"name": "from",
							"type": "address"
						},
						{
							"internalType": "address",
							"name": "to",
							"type": "address"
						},
						{
							"internalType": "uint256",
							"name": "amount",
							"type": "uint256"
						}
					],
					"name": "transferFrom",
					"outputs": [
						{
							"internalType": "bool",
							"name": "",
							"type": "bool"
						}
					],
					"stateMutability": "nonpayable",
					"type": "function"
				},
				{
					"inputs": [
						{
							"internalType": "address",
							"name": "newOwner",
							"type": "address"
						}
					],
					"name": "transferOwnership",
					"outputs": [],
					"stateMutability": "nonpayable",
					"type": "function"
				},
				{
					"inputs": [],
					"name": "unpause",
					"outputs": [],
					"stateMutability": "nonpayable",
					"type": "function"
				}
			],
			"devdoc": {
				"kind": "dev",
				"methods": {
					"DOMAIN_SEPARATOR()": {
						"details": "See {IERC20Permit-DOMAIN_SEPARATOR}."
					},
					"allowance(address,address)": {
						"details": "See {IERC20-allowance}."
					},
					"approve(address,uint256)": {
						"details": "See {IERC20-approve}. NOTE: If `amount` is the maximum `uint256`, the allowance is not updated on `transferFrom`. This is semantically equivalent to an infinite approval. Requirements: - `spender` cannot be the zero address."
					},
					"balanceOf(address)": {
						"details": "See {IERC20-balanceOf}."
					},
					"burn(uint256)": {
						"details": "Destroys `amount` tokens from the caller. See {ERC20-_burn}."
					},
					"burnFrom(address,uint256)": {
						"details": "Destroys `amount` tokens from `account`, deducting from the caller's allowance. See {ERC20-_burn} and {ERC20-allowance}. Requirements: - the caller must have allowance for ``accounts``'s tokens of at least `amount`."
					},
					"decimals()": {
						"details": "Returns the number of decimals used to get its user representation. For example, if `decimals` equals `2`, a balance of `505` tokens should be displayed to a user as `5.05` (`505 / 10 ** 2`). Tokens usually opt for a value of 18, imitating the relationship between Ether and Wei. This is the value {ERC20} uses, unless this function is overridden; NOTE: This information is only used for _display_ purposes: it in no way affects any of the arithmetic of the contract, including {IERC20-balanceOf} and {IERC20-transfer}."
					},
					"decreaseAllowance(address,uint256)": {
						"details": "Atomically decreases the allowance granted to `spender` by the caller. This is an alternative to {approve} that can be used as a mitigation for problems described in {IERC20-approve}. Emits an {Approval} event indicating the updated allowance. Requirements: - `spender` cannot be the zero address. - `spender` must have allowance for the caller of at least `subtractedValue`."
					},
					"increaseAllowance(address,uint256)": {
						"details": "Atomically increases the allowance granted to `spender` by the caller. This is an alternative to {approve} that can be used as a mitigation for problems described in {IERC20-approve}. Emits an {Approval} event indicating the updated allowance. Requirements: - `spender` cannot be the zero address."
					},
					"name()": {
						"details": "Returns the name of the token."
					},
					"nonces(address)": {
						"details": "See {IERC20Permit-nonces}."
					},
					"owner()": {
						"details": "Returns the address of the current owner."
					},
					"paused()": {
						"details": "Returns true if the contract is paused, and false otherwise."
					},
					"permit(address,address,uint256,uint256,uint8,bytes32,bytes32)": {
						"details": "See {IERC20Permit-permit}."
					},
					"renounceOwnership()": {
						"details": "Leaves the contract without owner. It will not be possible to call `onlyOwner` functions anymore. Can only be called by the current owner. NOTE: Renouncing ownership will leave the contract without an owner, thereby removing any functionality that is only available to the owner."
					},
					"symbol()": {
						"details": "Returns the symbol of the token, usually a shorter version of the name."
					},
					"totalSupply()": {
						"details": "See {IERC20-totalSupply}."
					},
					"transfer(address,uint256)": {
						"details": "See {IERC20-transfer}. Requirements: - `to` cannot be the zero address. - the caller must have a balance of at least `amount`."
					},
					"transferFrom(address,address,uint256)": {
						"details": "See {IERC20-transferFrom}. Emits an {Approval} event indicating the updated allowance. This is not required by the EIP. See the note at the beginning of {ERC20}. NOTE: Does not update the allowance if the current allowance is the maximum `uint256`. Requirements: - `from` and `to` cannot be the zero address. - `from` must have a balance of at least `amount`. - the caller must have allowance for ``from``'s tokens of at least `amount`."
					},
					"transferOwnership(address)": {
						"details": "Transfers ownership of the contract to a new account (`newOwner`). Can only be called by the current owner."
					}
				},
				"version": 1
			},
			"evm": {
				"assembly": "    /* \"contract-526c5b12e7.sol\":407:1041  contract SrZygon is ERC20, ERC20Burnable, Pausable, Ownable, ERC20Permit {... */\n  mstore(0x40, 0x0140)\n    /* \"contract-526c5b12e7.sol\":486:607  constructor() ERC20(\"SrZygon\", \"SrZ\") ERC20Permit(\"SrZygon\") {... */\n  callvalue\n  dup1\n  iszero\n  tag_1\n  jumpi\n  0x00\n  dup1\n  revert\ntag_1:\n  pop\n    /* \"@openzeppelin/contracts@4.7.3/token/ERC20/extensions/draft-ERC20Permit.sol\":1835:1887  constructor(string memory name) EIP712(name, \"1\") {} */\n  mload(0x40)\n  dup1\n  0x40\n  add\n  0x40\n  mstore\n  dup1\n  0x07\n  dup2\n  mstore\n  0x20\n  add\n  0x53725a79676f6e00000000000000000000000000000000000000000000000000\n  dup2\n  mstore\n  pop\n    /* \"@openzeppelin/contracts@4.7.3/token/ERC20/extensions/draft-ERC20Permit.sol\":1874:1878  name */\n  dup1\n    /* \"@openzeppelin/contracts@4.7.3/utils/cryptography/draft-EIP712.sol\":2455:3057  constructor(string memory name, string memory version) {... */\n  mload(0x40)\n  dup1\n  0x40\n  add\n  0x40\n  mstore\n  dup1\n  0x01\n  dup2\n  mstore\n  0x20\n  add\n  0x3100000000000000000000000000000000000000000000000000000000000000\n  dup2\n  mstore\n  pop\n    /* \"@openzeppelin/contracts@4.7.3/token/ERC20/ERC20.sol\":1978:2091  constructor(string memory name_, string memory symbol_) {... */\n  mload(0x40)\n  dup1\n  0x40\n  add\n  0x40\n  mstore\n  dup1\n  0x07\n  dup2\n  mstore\n  0x20\n  add\n  0x53725a79676f6e00000000000000000000000000000000000000000000000000\n  dup2\n  mstore\n  pop\n  mload(0x40)\n  dup1\n  0x40\n  add\n  0x40\n  mstore\n  dup1\n  0x03\n  dup2\n  mstore\n  0x20\n  add\n  0x53725a0000000000000000000000000000000000000000000000000000000000\n  dup2\n  mstore\n  pop\n    /* \"@openzeppelin/contracts@4.7.3/token/ERC20/ERC20.sol\":2052:2057  name_ */\n  dup2\n    /* \"@openzeppelin/contracts@4.7.3/token/ERC20/ERC20.sol\":2044:2049  _name */\n  0x03\n    /* \"@openzeppelin/contracts@4.7.3/token/ERC20/ERC20.sol\":2044:2057  _name = name_ */\n  swap1\n  dup1\n  mload\n  swap1\n  0x20\n  add\n  swap1\n  tag_9\n  swap3\n  swap2\n  swap1\n  tag_10\n  jump\t// in\ntag_9:\n  pop\n    /* \"@openzeppelin/contracts@4.7.3/token/ERC20/ERC20.sol\":2077:2084  symbol_ */\n  dup1\n    /* \"@openzeppelin/contracts@4.7.3/token/ERC20/ERC20.sol\":2067:2074  _symbol */\n  0x04\n    /* \"@openzeppelin/contracts@4.7.3/token/ERC20/ERC20.sol\":2067:2084  _symbol = symbol_ */\n  swap1\n  dup1\n  mload\n  swap1\n  0x20\n  add\n  swap1\n  tag_11\n  swap3\n  swap2\n  swap1\n  tag_10\n  jump\t// in\ntag_11:\n  pop\n    /* \"@openzeppelin/contracts@4.7.3/token/ERC20/ERC20.sol\":1978:2091  constructor(string memory name_, string memory symbol_) {... */\n  pop\n  pop\n    /* \"@openzeppelin/contracts@4.7.3/security/Pausable.sol\":1006:1011  false */\n  0x00\n    /* \"@openzeppelin/contracts@4.7.3/security/Pausable.sol\":996:1003  _paused */\n  0x05\n  0x00\n    /* \"@openzeppelin/contracts@4.7.3/security/Pausable.sol\":996:1011  _paused = false */\n  0x0100\n  exp\n  dup2\n  sload\n  dup2\n  0xff\n  mul\n  not\n  and\n  swap1\n  dup4\n  iszero\n  iszero\n  mul\n  or\n  swap1\n  sstore\n  pop\n    /* \"@openzeppelin/contracts@4.7.3/access/Ownable.sol\":936:968  _transferOwnership(_msgSender()) */\n  tag_14\n    /* \"@openzeppelin/contracts@4.7.3/access/Ownable.sol\":955:967  _msgSender() */\n  tag_15\n    /* \"@openzeppelin/contracts@4.7.3/access/Ownable.sol\":955:965  _msgSender */\n  shl(0x20, tag_16)\n    /* \"@openzeppelin/contracts@4.7.3/access/Ownable.sol\":955:967  _msgSender() */\n  0x20\n  shr\n  jump\t// in\ntag_15:\n    /* \"@openzeppelin/contracts@4.7.3/access/Ownable.sol\":936:954  _transferOwnership */\n  shl(0x20, tag_17)\n    /* \"@openzeppelin/contracts@4.7.3/access/Ownable.sol\":936:968  _transferOwnership(_msgSender()) */\n  0x20\n  shr\n  jump\t// in\ntag_14:\n    /* \"@openzeppelin/contracts@4.7.3/utils/cryptography/draft-EIP712.sol\":2520:2538  bytes32 hashedName */\n  0x00\n    /* \"@openzeppelin/contracts@4.7.3/utils/cryptography/draft-EIP712.sol\":2557:2561  name */\n  dup3\n    /* \"@openzeppelin/contracts@4.7.3/utils/cryptography/draft-EIP712.sol\":2541:2563  keccak256(bytes(name)) */\n  dup1\n  mload\n  swap1\n  0x20\n  add\n  keccak256\n    /* \"@openzeppelin/contracts@4.7.3/utils/cryptography/draft-EIP712.sol\":2520:2563  bytes32 hashedName = keccak256(bytes(name)) */\n  swap1\n  pop\n    /* \"@openzeppelin/contracts@4.7.3/utils/cryptography/draft-EIP712.sol\":2573:2594  bytes32 hashedVersion */\n  0x00\n    /* \"@openzeppelin/contracts@4.7.3/utils/cryptography/draft-EIP712.sol\":2613:2620  version */\n  dup3\n    /* \"@openzeppelin/contracts@4.7.3/utils/cryptography/draft-EIP712.sol\":2597:2622  keccak256(bytes(version)) */\n  dup1\n  mload\n  swap1\n  0x20\n  add\n  keccak256\n    /* \"@openzeppelin/contracts@4.7.3/utils/cryptography/draft-EIP712.sol\":2573:2622  bytes32 hashedVersion = keccak256(bytes(version)) */\n  swap1\n  pop\n    /* \"@openzeppelin/contracts@4.7.3/utils/cryptography/draft-EIP712.sol\":2632:2648  bytes32 typeHash */\n  0x00\n    /* \"@openzeppelin/contracts@4.7.3/utils/cryptography/draft-EIP712.sol\":2651:2768  keccak256(... */\n  0x8b73c3c69bb8fe3d512ecc4cf759cc79239f7b179b0ffacaa9a75d522b39400f\n    /* \"@openzeppelin/contracts@4.7.3/utils/cryptography/draft-EIP712.sol\":2632:2768  bytes32 typeHash = keccak256(... */\n  swap1\n  pop\n    /* \"@openzeppelin/contracts@4.7.3/utils/cryptography/draft-EIP712.sol\":2793:2803  hashedName */\n  dup3\n    /* \"@openzeppelin/contracts@4.7.3/utils/cryptography/draft-EIP712.sol\":2778:2803  _HASHED_NAME = hashedName */\n  0xe0\n  dup2\n  dup2\n  mstore\n  pop\n  pop\n    /* \"@openzeppelin/contracts@4.7.3/utils/cryptography/draft-EIP712.sol\":2831:2844  hashedVersion */\n  dup2\n    /* \"@openzeppelin/contracts@4.7.3/utils/cryptography/draft-EIP712.sol\":2813:2844  _HASHED_VERSION = hashedVersion */\n  0x0100\n  dup2\n  dup2\n  mstore\n  pop\n  pop\n    /* \"@openzeppelin/contracts@4.7.3/utils/cryptography/draft-EIP712.sol\":2873:2886  block.chainid */\n  chainid\n    /* \"@openzeppelin/contracts@4.7.3/utils/cryptography/draft-EIP712.sol\":2854:2886  _CACHED_CHAIN_ID = block.chainid */\n  0xa0\n  dup2\n  dup2\n  mstore\n  pop\n  pop\n    /* \"@openzeppelin/contracts@4.7.3/utils/cryptography/draft-EIP712.sol\":2923:2981  _buildDomainSeparator(typeHash, hashedName, hashedVersion) */\n  tag_19\n    /* \"@openzeppelin/contracts@4.7.3/utils/cryptography/draft-EIP712.sol\":2945:2953  typeHash */\n  dup2\n    /* \"@openzeppelin/contracts@4.7.3/utils/cryptography/draft-EIP712.sol\":2955:2965  hashedName */\n  dup5\n    /* \"@openzeppelin/contracts@4.7.3/utils/cryptography/draft-EIP712.sol\":2967:2980  hashedVersion */\n  dup5\n    /* \"@openzeppelin/contracts@4.7.3/utils/cryptography/draft-EIP712.sol\":2923:2944  _buildDomainSeparator */\n  shl(0x20, tag_20)\n    /* \"@openzeppelin/contracts@4.7.3/utils/cryptography/draft-EIP712.sol\":2923:2981  _buildDomainSeparator(typeHash, hashedName, hashedVersion) */\n  0x20\n  shr\n  jump\t// in\ntag_19:\n    /* \"@openzeppelin/contracts@4.7.3/utils/cryptography/draft-EIP712.sol\":2896:2981  _CACHED_DOMAIN_SEPARATOR = _buildDomainSeparator(typeHash, hashedName, hashedVersion) */\n  0x80\n  dup2\n  dup2\n  mstore\n  pop\n  pop\n    /* \"@openzeppelin/contracts@4.7.3/utils/cryptography/draft-EIP712.sol\":3014:3018  this */\n  address\n    /* \"@openzeppelin/contracts@4.7.3/utils/cryptography/draft-EIP712.sol\":2991:3019  _CACHED_THIS = address(this) */\n  0xffffffffffffffffffffffffffffffffffffffff\n  and\n  0xc0\n  dup2\n  0xffffffffffffffffffffffffffffffffffffffff\n  and\n  0x60\n  shl\n  dup2\n  mstore\n  pop\n  pop\n    /* \"@openzeppelin/contracts@4.7.3/utils/cryptography/draft-EIP712.sol\":3042:3050  typeHash */\n  dup1\n    /* \"@openzeppelin/contracts@4.7.3/utils/cryptography/draft-EIP712.sol\":3029:3050  _TYPE_HASH = typeHash */\n  0x0120\n  dup2\n  dup2\n  mstore\n  pop\n  pop\n    /* \"@openzeppelin/contracts@4.7.3/utils/cryptography/draft-EIP712.sol\":2455:3057  constructor(string memory name, string memory version) {... */\n  pop\n  pop\n  pop\n  pop\n  pop\n    /* \"@openzeppelin/contracts@4.7.3/token/ERC20/extensions/draft-ERC20Permit.sol\":1835:1887  constructor(string memory name) EIP712(name, \"1\") {} */\n  pop\n    /* \"contract-526c5b12e7.sol\":557:600  _mint(msg.sender, 10000 * 10 ** decimals()) */\n  tag_23\n    /* \"contract-526c5b12e7.sol\":563:573  msg.sender */\n  caller\n    /* \"contract-526c5b12e7.sol\":589:599  decimals() */\n  tag_24\n    /* \"contract-526c5b12e7.sol\":589:597  decimals */\n  shl(0x20, tag_25)\n    /* \"contract-526c5b12e7.sol\":589:599  decimals() */\n  0x20\n  shr\n  jump\t// in\ntag_24:\n    /* \"contract-526c5b12e7.sol\":583:585  10 */\n  0x0a\n    /* \"contract-526c5b12e7.sol\":583:599  10 ** decimals() */\n  tag_26\n  swap2\n  swap1\n  tag_27\n  jump\t// in\ntag_26:\n    /* \"contract-526c5b12e7.sol\":575:580  10000 */\n  0x2710\n    /* \"contract-526c5b12e7.sol\":575:599  10000 * 10 ** decimals() */\n  tag_28\n  swap2\n  swap1\n  tag_29\n  jump\t// in\ntag_28:\n    /* \"contract-526c5b12e7.sol\":557:562  _mint */\n  shl(0x20, tag_30)\n    /* \"contract-526c5b12e7.sol\":557:600  _mint(msg.sender, 10000 * 10 ** decimals()) */\n  0x20\n  shr\n  jump\t// in\ntag_23:\n    /* \"contract-526c5b12e7.sol\":407:1041  contract SrZygon is ERC20, ERC20Burnable, Pausable, Ownable, ERC20Permit {... */\n  jump(tag_31)\n    /* \"@openzeppelin/contracts@4.7.3/utils/Context.sol\":640:736  function _msgSender() internal view virtual returns (address) {... */\ntag_16:\n    /* \"@openzeppelin/contracts@4.7.3/utils/Context.sol\":693:700  address */\n  0x00\n    /* \"@openzeppelin/contracts@4.7.3/utils/Context.sol\":719:729  msg.sender */\n  caller\n    /* \"@openzeppelin/contracts@4.7.3/utils/Context.sol\":712:729  return msg.sender */\n  swap1\n  pop\n    /* \"@openzeppelin/contracts@4.7.3/utils/Context.sol\":640:736  function _msgSender() internal view virtual returns (address) {... */\n  swap1\n  jump\t// out\n    /* \"@openzeppelin/contracts@4.7.3/access/Ownable.sol\":2433:2620  function _transferOwnership(address newOwner) internal virtual {... */\ntag_17:\n    /* \"@openzeppelin/contracts@4.7.3/access/Ownable.sol\":2506:2522  address oldOwner */\n  0x00\n    /* \"@openzeppelin/contracts@4.7.3/access/Ownable.sol\":2525:2531  _owner */\n  0x05\n  0x01\n  swap1\n  sload\n  swap1\n  0x0100\n  exp\n  swap1\n  div\n  0xffffffffffffffffffffffffffffffffffffffff\n  and\n    /* \"@openzeppelin/contracts@4.7.3/access/Ownable.sol\":2506:2531  address oldOwner = _owner */\n  swap1\n  pop\n    /* \"@openzeppelin/contracts@4.7.3/access/Ownable.sol\":2550:2558  newOwner */\n  dup2\n    /* \"@openzeppelin/contracts@4.7.3/access/Ownable.sol\":2541:2547  _owner */\n  0x05\n  0x01\n    /* \"@openzeppelin/contracts@4.7.3/access/Ownable.sol\":2541:2558  _owner = newOwner */\n  0x0100\n  exp\n  dup2\n  sload\n  dup2\n  0xffffffffffffffffffffffffffffffffffffffff\n  mul\n  not\n  and\n  swap1\n  dup4\n  0xffffffffffffffffffffffffffffffffffffffff\n  and\n  mul\n  or\n  swap1\n  sstore\n  pop\n    /* \"@openzeppelin/contracts@4.7.3/access/Ownable.sol\":2604:2612  newOwner */\n  dup2\n    /* \"@openzeppelin/contracts@4.7.3/access/Ownable.sol\":2573:2613  OwnershipTransferred(oldOwner, newOwner) */\n  0xffffffffffffffffffffffffffffffffffffffff\n  and\n    /* \"@openzeppelin/contracts@4.7.3/access/Ownable.sol\":2594:2602  oldOwner */\n  dup2\n    /* \"@openzeppelin/contracts@4.7.3/access/Ownable.sol\":2573:2613  OwnershipTransferred(oldOwner, newOwner) */\n  0xffffffffffffffffffffffffffffffffffffffff\n  and\n  0x8be0079c531659141344cd1fd0a4f28419497f9722a3daafe3b4186f6b6457e0\n  mload(0x40)\n  mload(0x40)\n  dup1\n  swap2\n  sub\n  swap1\n  log3\n    /* \"@openzeppelin/contracts@4.7.3/access/Ownable.sol\":2433:2620  function _transferOwnership(address newOwner) internal virtual {... */\n  pop\n  pop\n  jump\t// out\n    /* \"@openzeppelin/contracts@4.7.3/utils/cryptography/draft-EIP712.sol\":3457:3714  function _buildDomainSeparator(... */\ntag_20:\n    /* \"@openzeppelin/contracts@4.7.3/utils/cryptography/draft-EIP712.sol\":3597:3604  bytes32 */\n  0x00\n    /* \"@openzeppelin/contracts@4.7.3/utils/cryptography/draft-EIP712.sol\":3644:3652  typeHash */\n  dup4\n    /* \"@openzeppelin/contracts@4.7.3/utils/cryptography/draft-EIP712.sol\":3654:3662  nameHash */\n  dup4\n    /* \"@openzeppelin/contracts@4.7.3/utils/cryptography/draft-EIP712.sol\":3664:3675  versionHash */\n  dup4\n    /* \"@openzeppelin/contracts@4.7.3/utils/cryptography/draft-EIP712.sol\":3677:3690  block.chainid */\n  chainid\n    /* \"@openzeppelin/contracts@4.7.3/utils/cryptography/draft-EIP712.sol\":3700:3704  this */\n  address\n    /* \"@openzeppelin/contracts@4.7.3/utils/cryptography/draft-EIP712.sol\":3633:3706  abi.encode(typeHash, nameHash, versionHash, block.chainid, address(this)) */\n  add(0x20, mload(0x40))\n  tag_35\n  swap6\n  swap5\n  swap4\n  swap3\n  swap2\n  swap1\n  tag_36\n  jump\t// in\ntag_35:\n  mload(0x40)\n  0x20\n  dup2\n  dup4\n  sub\n  sub\n  dup2\n  mstore\n  swap1\n  0x40\n  mstore\n    /* \"@openzeppelin/contracts@4.7.3/utils/cryptography/draft-EIP712.sol\":3623:3707  keccak256(abi.encode(typeHash, nameHash, versionHash, block.chainid, address(this))) */\n  dup1\n  mload\n  swap1\n  0x20\n  add\n  keccak256\n    /* \"@openzeppelin/contracts@4.7.3/utils/cryptography/draft-EIP712.sol\":3616:3707  return keccak256(abi.encode(typeHash, nameHash, versionHash, block.chainid, address(this))) */\n  swap1\n  pop\n    /* \"@openzeppelin/contracts@4.7.3/utils/cryptography/draft-EIP712.sol\":3457:3714  function _buildDomainSeparator(... */\n  swap4\n  swap3\n  pop\n  pop\n  pop\n  jump\t// out\n    /* \"@openzeppelin/contracts@4.7.3/token/ERC20/ERC20.sol\":3093:3184  function decimals() public view virtual override returns (uint8) {... */\ntag_25:\n    /* \"@openzeppelin/contracts@4.7.3/token/ERC20/ERC20.sol\":3151:3156  uint8 */\n  0x00\n    /* \"@openzeppelin/contracts@4.7.3/token/ERC20/ERC20.sol\":3175:3177  18 */\n  0x12\n    /* \"@openzeppelin/contracts@4.7.3/token/ERC20/ERC20.sol\":3168:3177  return 18 */\n  swap1\n  pop\n    /* \"@openzeppelin/contracts@4.7.3/token/ERC20/ERC20.sol\":3093:3184  function decimals() public view virtual override returns (uint8) {... */\n  swap1\n  jump\t// out\n    /* \"@openzeppelin/contracts@4.7.3/token/ERC20/ERC20.sol\":8402:8791  function _mint(address account, uint256 amount) internal virtual {... */\ntag_30:\n    /* \"@openzeppelin/contracts@4.7.3/token/ERC20/ERC20.sol\":8504:8505  0 */\n  0x00\n    /* \"@openzeppelin/contracts@4.7.3/token/ERC20/ERC20.sol\":8485:8506  account != address(0) */\n  0xffffffffffffffffffffffffffffffffffffffff\n  and\n    /* \"@openzeppelin/contracts@4.7.3/token/ERC20/ERC20.sol\":8485:8492  account */\n  dup3\n    /* \"@openzeppelin/contracts@4.7.3/token/ERC20/ERC20.sol\":8485:8506  account != address(0) */\n  0xffffffffffffffffffffffffffffffffffffffff\n  and\n  eq\n  iszero\n    /* \"@openzeppelin/contracts@4.7.3/token/ERC20/ERC20.sol\":8477:8542  require(account != address(0), \"ERC20: mint to the zero address\") */\n  tag_39\n  jumpi\n  mload(0x40)\n  0x08c379a000000000000000000000000000000000000000000000000000000000\n  dup2\n  mstore\n  0x04\n  add\n  tag_40\n  swap1\n  tag_41\n  jump\t// in\ntag_40:\n  mload(0x40)\n  dup1\n  swap2\n  sub\n  swap1\n  revert\ntag_39:\n    /* \"@openzeppelin/contracts@4.7.3/token/ERC20/ERC20.sol\":8553:8602  _beforeTokenTransfer(address(0), account, amount) */\n  tag_42\n    /* \"@openzeppelin/contracts@4.7.3/token/ERC20/ERC20.sol\":8582:8583  0 */\n  0x00\n    /* \"@openzeppelin/contracts@4.7.3/token/ERC20/ERC20.sol\":8586:8593  account */\n  dup4\n    /* \"@openzeppelin/contracts@4.7.3/token/ERC20/ERC20.sol\":8595:8601  amount */\n  dup4\n    /* \"@openzeppelin/contracts@4.7.3/token/ERC20/ERC20.sol\":8553:8573  _beforeTokenTransfer */\n  shl(0x20, tag_43)\n    /* \"@openzeppelin/contracts@4.7.3/token/ERC20/ERC20.sol\":8553:8602  _beforeTokenTransfer(address(0), account, amount) */\n  0x20\n  shr\n  jump\t// in\ntag_42:\n    /* \"@openzeppelin/contracts@4.7.3/token/ERC20/ERC20.sol\":8629:8635  amount */\n  dup1\n    /* \"@openzeppelin/contracts@4.7.3/token/ERC20/ERC20.sol\":8613:8625  _totalSupply */\n  0x02\n  0x00\n    /* \"@openzeppelin/contracts@4.7.3/token/ERC20/ERC20.sol\":8613:8635  _totalSupply += amount */\n  dup3\n  dup3\n  sload\n  tag_44\n  swap2\n  swap1\n  tag_45\n  jump\t// in\ntag_44:\n  swap3\n  pop\n  pop\n  dup2\n  swap1\n  sstore\n  pop\n    /* \"@openzeppelin/contracts@4.7.3/token/ERC20/ERC20.sol\":8667:8673  amount */\n  dup1\n    /* \"@openzeppelin/contracts@4.7.3/token/ERC20/ERC20.sol\":8645:8654  _balances */\n  0x00\n    /* \"@openzeppelin/contracts@4.7.3/token/ERC20/ERC20.sol\":8645:8663  _balances[account] */\n  dup1\n    /* \"@openzeppelin/contracts@4.7.3/token/ERC20/ERC20.sol\":8655:8662  account */\n  dup5\n    /* \"@openzeppelin/contracts@4.7.3/token/ERC20/ERC20.sol\":8645:8663  _balances[account] */\n  0xffffffffffffffffffffffffffffffffffffffff\n  and\n  0xffffffffffffffffffffffffffffffffffffffff\n  and\n  dup2\n  mstore\n  0x20\n  add\n  swap1\n  dup2\n  mstore\n  0x20\n  add\n  0x00\n  keccak256\n  0x00\n    /* \"@openzeppelin/contracts@4.7.3/token/ERC20/ERC20.sol\":8645:8673  _balances[account] += amount */\n  dup3\n  dup3\n  sload\n  tag_46\n  swap2\n  swap1\n  tag_45\n  jump\t// in\ntag_46:\n  swap3\n  pop\n  pop\n  dup2\n  swap1\n  sstore\n  pop\n    /* \"@openzeppelin/contracts@4.7.3/token/ERC20/ERC20.sol\":8709:8716  account */\n  dup2\n    /* \"@openzeppelin/contracts@4.7.3/token/ERC20/ERC20.sol\":8688:8725  Transfer(address(0), account, amount) */\n  0xffffffffffffffffffffffffffffffffffffffff\n  and\n    /* \"@openzeppelin/contracts@4.7.3/token/ERC20/ERC20.sol\":8705:8706  0 */\n  0x00\n    /* \"@openzeppelin/contracts@4.7.3/token/ERC20/ERC20.sol\":8688:8725  Transfer(address(0), account, amount) */\n  0xffffffffffffffffffffffffffffffffffffffff\n  and\n  0xddf252ad1be2c89b69c2b068fc378daa952ba7f163c4a11628f55a4df523b3ef\n    /* \"@openzeppelin/contracts@4.7.3/token/ERC20/ERC20.sol\":8718:8724  amount */\n  dup4\n    /* \"@openzeppelin/contracts@4.7.3/token/ERC20/ERC20.sol\":8688:8725  Transfer(address(0), account, amount) */\n  mload(0x40)\n  tag_47\n  swap2\n  swap1\n  tag_48\n  jump\t// in\ntag_47:\n  mload(0x40)\n  dup1\n  swap2\n  sub\n  swap1\n  log3\n    /* \"@openzeppelin/contracts@4.7.3/token/ERC20/ERC20.sol\":8736:8784  _afterTokenTransfer(address(0), account, amount) */\n  tag_49\n    /* \"@openzeppelin/contracts@4.7.3/token/ERC20/ERC20.sol\":8764:8765  0 */\n  0x00\n    /* \"@openzeppelin/contracts@4.7.3/token/ERC20/ERC20.sol\":8768:8775  account */\n  dup4\n    /* \"@openzeppelin/contracts@4.7.3/token/ERC20/ERC20.sol\":8777:8783  amount */\n  dup4\n    /* \"@openzeppelin/contracts@4.7.3/token/ERC20/ERC20.sol\":8736:8755  _afterTokenTransfer */\n  shl(0x20, tag_50)\n    /* \"@openzeppelin/contracts@4.7.3/token/ERC20/ERC20.sol\":8736:8784  _afterTokenTransfer(address(0), account, amount) */\n  0x20\n  shr\n  jump\t// in\ntag_49:\n    /* \"@openzeppelin/contracts@4.7.3/token/ERC20/ERC20.sol\":8402:8791  function _mint(address account, uint256 amount) internal virtual {... */\n  pop\n  pop\n  jump\t// out\n    /* \"contract-526c5b12e7.sol\":846:1039  function _beforeTokenTransfer(address from, address to, uint256 amount)... */\ntag_43:\n    /* \"@openzeppelin/contracts@4.7.3/security/Pausable.sol\":1239:1258  _requireNotPaused() */\n  tag_52\n    /* \"@openzeppelin/contracts@4.7.3/security/Pausable.sol\":1239:1256  _requireNotPaused */\n  shl(0x20, tag_53)\n    /* \"@openzeppelin/contracts@4.7.3/security/Pausable.sol\":1239:1258  _requireNotPaused() */\n  0x20\n  shr\n  jump\t// in\ntag_52:\n    /* \"contract-526c5b12e7.sol\":988:1032  super._beforeTokenTransfer(from, to, amount) */\n  tag_55\n    /* \"contract-526c5b12e7.sol\":1015:1019  from */\n  dup4\n    /* \"contract-526c5b12e7.sol\":1021:1023  to */\n  dup4\n    /* \"contract-526c5b12e7.sol\":1025:1031  amount */\n  dup4\n    /* \"contract-526c5b12e7.sol\":988:1014  super._beforeTokenTransfer */\n  or(tag_0_115, shl(0x20, tag_56))\n    /* \"contract-526c5b12e7.sol\":988:1032  super._beforeTokenTransfer(from, to, amount) */\n  0x20\n  shr\n  jump\t// in\ntag_55:\n    /* \"contract-526c5b12e7.sol\":846:1039  function _beforeTokenTransfer(address from, address to, uint256 amount)... */\n  pop\n  pop\n  pop\n  jump\t// out\n    /* \"@openzeppelin/contracts@4.7.3/token/ERC20/ERC20.sol\":12495:12615  function _afterTokenTransfer(... */\ntag_50:\n  pop\n  pop\n  pop\n  jump\t// out\n    /* \"@openzeppelin/contracts@4.7.3/security/Pausable.sol\":1767:1873  function _requireNotPaused() internal view virtual {... */\ntag_53:\n    /* \"@openzeppelin/contracts@4.7.3/security/Pausable.sol\":1837:1845  paused() */\n  tag_59\n    /* \"@openzeppelin/contracts@4.7.3/security/Pausable.sol\":1837:1843  paused */\n  shl(0x20, tag_60)\n    /* \"@openzeppelin/contracts@4.7.3/security/Pausable.sol\":1837:1845  paused() */\n  0x20\n  shr\n  jump\t// in\ntag_59:\n    /* \"@openzeppelin/contracts@4.7.3/security/Pausable.sol\":1836:1845  !paused() */\n  iszero\n    /* \"@openzeppelin/contracts@4.7.3/security/Pausable.sol\":1828:1866  require(!paused(), \"Pausable: paused\") */\n  tag_61\n  jumpi\n  mload(0x40)\n  0x08c379a000000000000000000000000000000000000000000000000000000000\n  dup2\n  mstore\n  0x04\n  add\n  tag_62\n  swap1\n  tag_63\n  jump\t// in\ntag_62:\n  mload(0x40)\n  dup1\n  swap2\n  sub\n  swap1\n  revert\ntag_61:\n    /* \"@openzeppelin/contracts@4.7.3/security/Pausable.sol\":1767:1873  function _requireNotPaused() internal view virtual {... */\n  jump\t// out\n    /* \"@openzeppelin/contracts@4.7.3/token/ERC20/ERC20.sol\":11786:11907  function _beforeTokenTransfer(... */\ntag_56:\n  pop\n  pop\n  pop\n  jump\t// out\n    /* \"@openzeppelin/contracts@4.7.3/security/Pausable.sol\":1615:1699  function paused() public view virtual returns (bool) {... */\ntag_60:\n    /* \"@openzeppelin/contracts@4.7.3/security/Pausable.sol\":1662:1666  bool */\n  0x00\n    /* \"@openzeppelin/contracts@4.7.3/security/Pausable.sol\":1685:1692  _paused */\n  0x05\n  0x00\n  swap1\n  sload\n  swap1\n  0x0100\n  exp\n  swap1\n  div\n  0xff\n  and\n    /* \"@openzeppelin/contracts@4.7.3/security/Pausable.sol\":1678:1692  return _paused */\n  swap1\n  pop\n    /* \"@openzeppelin/contracts@4.7.3/security/Pausable.sol\":1615:1699  function paused() public view virtual returns (bool) {... */\n  swap1\n  jump\t// out\n    /* \"contract-526c5b12e7.sol\":407:1041  contract SrZygon is ERC20, ERC20Burnable, Pausable, Ownable, ERC20Permit {... */\ntag_10:\n  dup3\n  dup1\n  sload\n  tag_66\n  swap1\n  tag_67\n  jump\t// in\ntag_66:\n  swap1\n  0x00\n  mstore\n  keccak256(0x00, 0x20)\n  swap1\n  0x1f\n  add\n  0x20\n  swap1\n  div\n  dup2\n  add\n  swap3\n  dup3\n  tag_69\n  jumpi\n  0x00\n  dup6\n  sstore\n  jump(tag_68)\ntag_69:\n  dup3\n  0x1f\n  lt\n  tag_70\n  jumpi\n  dup1\n  mload\n  not(0xff)\n  and\n  dup4\n  dup1\n  add\n  or\n  dup6\n  sstore\n  jump(tag_68)\ntag_70:\n  dup3\n  dup1\n  add\n  0x01\n  add\n  dup6\n  sstore\n  dup3\n  iszero\n  tag_68\n  jumpi\n  swap2\n  dup3\n  add\ntag_71:\n  dup3\n  dup2\n  gt\n  iszero\n  tag_72\n  jumpi\n  dup3\n  mload\n  dup3\n  sstore\n  swap2\n  0x20\n  add\n  swap2\n  swap1\n  0x01\n  add\n  swap1\n  jump(tag_71)\ntag_72:\ntag_68:\n  pop\n  swap1\n  pop\n  tag_73\n  swap2\n  swap1\n  tag_74\n  jump\t// in\ntag_73:\n  pop\n  swap1\n  jump\t// out\ntag_74:\ntag_75:\n  dup1\n  dup3\n  gt\n  iszero\n  tag_76\n  jumpi\n  0x00\n  dup2\n  0x00\n  swap1\n  sstore\n  pop\n  0x01\n  add\n  jump(tag_75)\ntag_76:\n  pop\n  swap1\n  jump\t// out\n    /* \"#utility.yul\":7:125   */\ntag_78:\n    /* \"#utility.yul\":94:118   */\n  tag_80\n    /* \"#utility.yul\":112:117   */\n  dup2\n    /* \"#utility.yul\":94:118   */\n  tag_81\n  jump\t// in\ntag_80:\n    /* \"#utility.yul\":89:92   */\n  dup3\n    /* \"#utility.yul\":82:119   */\n  mstore\n    /* \"#utility.yul\":72:125   */\n  pop\n  pop\n  jump\t// out\n    /* \"#utility.yul\":131:249   */\ntag_82:\n    /* \"#utility.yul\":218:242   */\n  tag_84\n    /* \"#utility.yul\":236:241   */\n  dup2\n    /* \"#utility.yul\":218:242   */\n  tag_85\n  jump\t// in\ntag_84:\n    /* \"#utility.yul\":213:216   */\n  dup3\n    /* \"#utility.yul\":206:243   */\n  mstore\n    /* \"#utility.yul\":196:249   */\n  pop\n  pop\n  jump\t// out\n    /* \"#utility.yul\":255:621   */\ntag_86:\n    /* \"#utility.yul\":397:400   */\n  0x00\n    /* \"#utility.yul\":418:485   */\n  tag_88\n    /* \"#utility.yul\":482:484   */\n  0x10\n    /* \"#utility.yul\":477:480   */\n  dup4\n    /* \"#utility.yul\":418:485   */\n  tag_89\n  jump\t// in\ntag_88:\n    /* \"#utility.yul\":411:485   */\n  swap2\n  pop\n    /* \"#utility.yul\":494:587   */\n  tag_90\n    /* \"#utility.yul\":583:586   */\n  dup3\n    /* \"#utility.yul\":494:587   */\n  tag_91\n  jump\t// in\ntag_90:\n    /* \"#utility.yul\":612:614   */\n  0x20\n    /* \"#utility.yul\":607:610   */\n  dup3\n    /* \"#utility.yul\":603:615   */\n  add\n    /* \"#utility.yul\":596:615   */\n  swap1\n  pop\n    /* \"#utility.yul\":401:621   */\n  swap2\n  swap1\n  pop\n  jump\t// out\n    /* \"#utility.yul\":627:993   */\ntag_92:\n    /* \"#utility.yul\":769:772   */\n  0x00\n    /* \"#utility.yul\":790:857   */\n  tag_94\n    /* \"#utility.yul\":854:856   */\n  0x1f\n    /* \"#utility.yul\":849:852   */\n  dup4\n    /* \"#utility.yul\":790:857   */\n  tag_89\n  jump\t// in\ntag_94:\n    /* \"#utility.yul\":783:857   */\n  swap2\n  pop\n    /* \"#utility.yul\":866:959   */\n  tag_95\n    /* \"#utility.yul\":955:958   */\n  dup3\n    /* \"#utility.yul\":866:959   */\n  tag_96\n  jump\t// in\ntag_95:\n    /* \"#utility.yul\":984:986   */\n  0x20\n    /* \"#utility.yul\":979:982   */\n  dup3\n    /* \"#utility.yul\":975:987   */\n  add\n    /* \"#utility.yul\":968:987   */\n  swap1\n  pop\n    /* \"#utility.yul\":773:993   */\n  swap2\n  swap1\n  pop\n  jump\t// out\n    /* \"#utility.yul\":999:1117   */\ntag_97:\n    /* \"#utility.yul\":1086:1110   */\n  tag_99\n    /* \"#utility.yul\":1104:1109   */\n  dup2\n    /* \"#utility.yul\":1086:1110   */\n  tag_100\n  jump\t// in\ntag_99:\n    /* \"#utility.yul\":1081:1084   */\n  dup3\n    /* \"#utility.yul\":1074:1111   */\n  mstore\n    /* \"#utility.yul\":1064:1117   */\n  pop\n  pop\n  jump\t// out\n    /* \"#utility.yul\":1123:1787   */\ntag_36:\n    /* \"#utility.yul\":1328:1332   */\n  0x00\n    /* \"#utility.yul\":1366:1369   */\n  0xa0\n    /* \"#utility.yul\":1355:1364   */\n  dup3\n    /* \"#utility.yul\":1351:1370   */\n  add\n    /* \"#utility.yul\":1343:1370   */\n  swap1\n  pop\n    /* \"#utility.yul\":1380:1451   */\n  tag_102\n    /* \"#utility.yul\":1448:1449   */\n  0x00\n    /* \"#utility.yul\":1437:1446   */\n  dup4\n    /* \"#utility.yul\":1433:1450   */\n  add\n    /* \"#utility.yul\":1424:1430   */\n  dup9\n    /* \"#utility.yul\":1380:1451   */\n  tag_82\n  jump\t// in\ntag_102:\n    /* \"#utility.yul\":1461:1533   */\n  tag_103\n    /* \"#utility.yul\":1529:1531   */\n  0x20\n    /* \"#utility.yul\":1518:1527   */\n  dup4\n    /* \"#utility.yul\":1514:1532   */\n  add\n    /* \"#utility.yul\":1505:1511   */\n  dup8\n    /* \"#utility.yul\":1461:1533   */\n  tag_82\n  jump\t// in\ntag_103:\n    /* \"#utility.yul\":1543:1615   */\n  tag_104\n    /* \"#utility.yul\":1611:1613   */\n  0x40\n    /* \"#utility.yul\":1600:1609   */\n  dup4\n    /* \"#utility.yul\":1596:1614   */\n  add\n    /* \"#utility.yul\":1587:1593   */\n  dup7\n    /* \"#utility.yul\":1543:1615   */\n  tag_82\n  jump\t// in\ntag_104:\n    /* \"#utility.yul\":1625:1697   */\n  tag_105\n    /* \"#utility.yul\":1693:1695   */\n  0x60\n    /* \"#utility.yul\":1682:1691   */\n  dup4\n    /* \"#utility.yul\":1678:1696   */\n  add\n    /* \"#utility.yul\":1669:1675   */\n  dup6\n    /* \"#utility.yul\":1625:1697   */\n  tag_97\n  jump\t// in\ntag_105:\n    /* \"#utility.yul\":1707:1780   */\n  tag_106\n    /* \"#utility.yul\":1775:1778   */\n  0x80\n    /* \"#utility.yul\":1764:1773   */\n  dup4\n    /* \"#utility.yul\":1760:1779   */\n  add\n    /* \"#utility.yul\":1751:1757   */\n  dup5\n    /* \"#utility.yul\":1707:1780   */\n  tag_78\n  jump\t// in\ntag_106:\n    /* \"#utility.yul\":1333:1787   */\n  swap7\n  swap6\n  pop\n  pop\n  pop\n  pop\n  pop\n  pop\n  jump\t// out\n    /* \"#utility.yul\":1793:2212   */\ntag_63:\n    /* \"#utility.yul\":1959:1963   */\n  0x00\n    /* \"#utility.yul\":1997:1999   */\n  0x20\n    /* \"#utility.yul\":1986:1995   */\n  dup3\n    /* \"#utility.yul\":1982:2000   */\n  add\n    /* \"#utility.yul\":1974:2000   */\n  swap1\n  pop\n    /* \"#utility.yul\":2046:2055   */\n  dup2\n    /* \"#utility.yul\":2040:2044   */\n  dup2\n    /* \"#utility.yul\":2036:2056   */\n  sub\n    /* \"#utility.yul\":2032:2033   */\n  0x00\n    /* \"#utility.yul\":2021:2030   */\n  dup4\n    /* \"#utility.yul\":2017:2034   */\n  add\n    /* \"#utility.yul\":2010:2057   */\n  mstore\n    /* \"#utility.yul\":2074:2205   */\n  tag_108\n    /* \"#utility.yul\":2200:2204   */\n  dup2\n    /* \"#utility.yul\":2074:2205   */\n  tag_86\n  jump\t// in\ntag_108:\n    /* \"#utility.yul\":2066:2205   */\n  swap1\n  pop\n    /* \"#utility.yul\":1964:2212   */\n  swap2\n  swap1\n  pop\n  jump\t// out\n    /* \"#utility.yul\":2218:2637   */\ntag_41:\n    /* \"#utility.yul\":2384:2388   */\n  0x00\n    /* \"#utility.yul\":2422:2424   */\n  0x20\n    /* \"#utility.yul\":2411:2420   */\n  dup3\n    /* \"#utility.yul\":2407:2425   */\n  add\n    /* \"#utility.yul\":2399:2425   */\n  swap1\n  pop\n    /* \"#utility.yul\":2471:2480   */\n  dup2\n    /* \"#utility.yul\":2465:2469   */\n  dup2\n    /* \"#utility.yul\":2461:2481   */\n  sub\n    /* \"#utility.yul\":2457:2458   */\n  0x00\n    /* \"#utility.yul\":2446:2455   */\n  dup4\n    /* \"#utility.yul\":2442:2459   */\n  add\n    /* \"#utility.yul\":2435:2482   */\n  mstore\n    /* \"#utility.yul\":2499:2630   */\n  tag_110\n    /* \"#utility.yul\":2625:2629   */\n  dup2\n    /* \"#utility.yul\":2499:2630   */\n  tag_92\n  jump\t// in\ntag_110:\n    /* \"#utility.yul\":2491:2630   */\n  swap1\n  pop\n    /* \"#utility.yul\":2389:2637   */\n  swap2\n  swap1\n  pop\n  jump\t// out\n    /* \"#utility.yul\":2643:2865   */\ntag_48:\n    /* \"#utility.yul\":2736:2740   */\n  0x00\n    /* \"#utility.yul\":2774:2776   */\n  0x20\n    /* \"#utility.yul\":2763:2772   */\n  dup3\n    /* \"#utility.yul\":2759:2777   */\n  add\n    /* \"#utility.yul\":2751:2777   */\n  swap1\n  pop\n    /* \"#utility.yul\":2787:2858   */\n  tag_112\n    /* \"#utility.yul\":2855:2856   */\n  0x00\n    /* \"#utility.yul\":2844:2853   */\n  dup4\n    /* \"#utility.yul\":2840:2857   */\n  add\n    /* \"#utility.yul\":2831:2837   */\n  dup5\n    /* \"#utility.yul\":2787:2858   */\n  tag_97\n  jump\t// in\ntag_112:\n    /* \"#utility.yul\":2741:2865   */\n  swap3\n  swap2\n  pop\n  pop\n  jump\t// out\n    /* \"#utility.yul\":2871:3040   */\ntag_89:\n    /* \"#utility.yul\":2955:2966   */\n  0x00\n    /* \"#utility.yul\":2989:2995   */\n  dup3\n    /* \"#utility.yul\":2984:2987   */\n  dup3\n    /* \"#utility.yul\":2977:2996   */\n  mstore\n    /* \"#utility.yul\":3029:3033   */\n  0x20\n    /* \"#utility.yul\":3024:3027   */\n  dup3\n    /* \"#utility.yul\":3020:3034   */\n  add\n    /* \"#utility.yul\":3005:3034   */\n  swap1\n  pop\n    /* \"#utility.yul\":2967:3040   */\n  swap3\n  swap2\n  pop\n  pop\n  jump\t// out\n    /* \"#utility.yul\":3046:3351   */\ntag_45:\n    /* \"#utility.yul\":3086:3089   */\n  0x00\n    /* \"#utility.yul\":3105:3125   */\n  tag_115\n    /* \"#utility.yul\":3123:3124   */\n  dup3\n    /* \"#utility.yul\":3105:3125   */\n  tag_100\n  jump\t// in\ntag_115:\n    /* \"#utility.yul\":3100:3125   */\n  swap2\n  pop\n    /* \"#utility.yul\":3139:3159   */\n  tag_116\n    /* \"#utility.yul\":3157:3158   */\n  dup4\n    /* \"#utility.yul\":3139:3159   */\n  tag_100\n  jump\t// in\ntag_116:\n    /* \"#utility.yul\":3134:3159   */\n  swap3\n  pop\n    /* \"#utility.yul\":3293:3294   */\n  dup3\n    /* \"#utility.yul\":3225:3291   */\n  0xffffffffffffffffffffffffffffffffffffffffffffffffffffffffffffffff\n    /* \"#utility.yul\":3221:3295   */\n  sub\n    /* \"#utility.yul\":3218:3219   */\n  dup3\n    /* \"#utility.yul\":3215:3296   */\n  gt\n    /* \"#utility.yul\":3212:3214   */\n  iszero\n  tag_117\n  jumpi\n    /* \"#utility.yul\":3299:3317   */\n  tag_118\n  tag_119\n  jump\t// in\ntag_118:\n    /* \"#utility.yul\":3212:3214   */\ntag_117:\n    /* \"#utility.yul\":3343:3344   */\n  dup3\n    /* \"#utility.yul\":3340:3341   */\n  dup3\n    /* \"#utility.yul\":3336:3345   */\n  add\n    /* \"#utility.yul\":3329:3345   */\n  swap1\n  pop\n    /* \"#utility.yul\":3090:3351   */\n  swap3\n  swap2\n  pop\n  pop\n  jump\t// out\n    /* \"#utility.yul\":3357:4205   */\ntag_120:\n    /* \"#utility.yul\":3418:3423   */\n  0x00\n    /* \"#utility.yul\":3425:3429   */\n  dup1\n    /* \"#utility.yul\":3449:3455   */\n  dup3\n    /* \"#utility.yul\":3440:3455   */\n  swap2\n  pop\n    /* \"#utility.yul\":3473:3478   */\n  dup4\n    /* \"#utility.yul\":3464:3478   */\n  swap1\n  pop\n    /* \"#utility.yul\":3487:4199   */\ntag_122:\n    /* \"#utility.yul\":3508:3509   */\n  0x01\n    /* \"#utility.yul\":3498:3506   */\n  dup6\n    /* \"#utility.yul\":3495:3510   */\n  gt\n    /* \"#utility.yul\":3487:4199   */\n  iszero\n  tag_124\n  jumpi\n    /* \"#utility.yul\":3603:3607   */\n  dup1\n    /* \"#utility.yul\":3598:3601   */\n  dup7\n    /* \"#utility.yul\":3594:3608   */\n  div\n    /* \"#utility.yul\":3588:3592   */\n  dup2\n    /* \"#utility.yul\":3585:3609   */\n  gt\n    /* \"#utility.yul\":3582:3584   */\n  iszero\n  tag_125\n  jumpi\n    /* \"#utility.yul\":3612:3630   */\n  tag_126\n  tag_119\n  jump\t// in\ntag_126:\n    /* \"#utility.yul\":3582:3584   */\ntag_125:\n    /* \"#utility.yul\":3662:3663   */\n  0x01\n    /* \"#utility.yul\":3652:3660   */\n  dup6\n    /* \"#utility.yul\":3648:3664   */\n  and\n    /* \"#utility.yul\":3645:3647   */\n  iszero\n  tag_127\n  jumpi\n    /* \"#utility.yul\":4077:4081   */\n  dup1\n    /* \"#utility.yul\":4070:4075   */\n  dup3\n    /* \"#utility.yul\":4066:4082   */\n  mul\n    /* \"#utility.yul\":4057:4082   */\n  swap2\n  pop\n    /* \"#utility.yul\":3645:3647   */\ntag_127:\n    /* \"#utility.yul\":4127:4131   */\n  dup1\n    /* \"#utility.yul\":4121:4125   */\n  dup2\n    /* \"#utility.yul\":4117:4132   */\n  mul\n    /* \"#utility.yul\":4109:4132   */\n  swap1\n  pop\n    /* \"#utility.yul\":4157:4189   */\n  tag_128\n    /* \"#utility.yul\":4180:4188   */\n  dup6\n    /* \"#utility.yul\":4157:4189   */\n  tag_129\n  jump\t// in\ntag_128:\n    /* \"#utility.yul\":4145:4189   */\n  swap5\n  pop\n    /* \"#utility.yul\":3487:4199   */\n  jump(tag_122)\ntag_124:\n    /* \"#utility.yul\":3430:4205   */\n  swap5\n  pop\n  swap5\n  swap3\n  pop\n  pop\n  pop\n  jump\t// out\n    /* \"#utility.yul\":4211:4492   */\ntag_27:\n    /* \"#utility.yul\":4269:4274   */\n  0x00\n    /* \"#utility.yul\":4293:4316   */\n  tag_131\n    /* \"#utility.yul\":4311:4315   */\n  dup3\n    /* \"#utility.yul\":4293:4316   */\n  tag_100\n  jump\t// in\ntag_131:\n    /* \"#utility.yul\":4285:4316   */\n  swap2\n  pop\n    /* \"#utility.yul\":4337:4362   */\n  tag_132\n    /* \"#utility.yul\":4353:4361   */\n  dup4\n    /* \"#utility.yul\":4337:4362   */\n  tag_133\n  jump\t// in\ntag_132:\n    /* \"#utility.yul\":4325:4362   */\n  swap3\n  pop\n    /* \"#utility.yul\":4381:4485   */\n  tag_134\n    /* \"#utility.yul\":4418:4484   */\n  0xffffffffffffffffffffffffffffffffffffffffffffffffffffffffffffffff\n    /* \"#utility.yul\":4408:4416   */\n  dup5\n    /* \"#utility.yul\":4402:4406   */\n  dup5\n    /* \"#utility.yul\":4381:4485   */\n  tag_135\n  jump\t// in\ntag_134:\n    /* \"#utility.yul\":4372:4485   */\n  swap1\n  pop\n    /* \"#utility.yul\":4275:4492   */\n  swap3\n  swap2\n  pop\n  pop\n  jump\t// out\n    /* \"#utility.yul\":4498:5571   */\ntag_135:\n    /* \"#utility.yul\":4552:4557   */\n  0x00\n    /* \"#utility.yul\":4743:4751   */\n  dup3\n    /* \"#utility.yul\":4733:4735   */\n  tag_137\n  jumpi\n    /* \"#utility.yul\":4764:4765   */\n  0x01\n    /* \"#utility.yul\":4755:4765   */\n  swap1\n  pop\n    /* \"#utility.yul\":4766:4771   */\n  jump(tag_136)\n    /* \"#utility.yul\":4733:4735   */\ntag_137:\n    /* \"#utility.yul\":4792:4796   */\n  dup2\n    /* \"#utility.yul\":4782:4784   */\n  tag_138\n  jumpi\n    /* \"#utility.yul\":4809:4810   */\n  0x00\n    /* \"#utility.yul\":4800:4810   */\n  swap1\n  pop\n    /* \"#utility.yul\":4811:4816   */\n  jump(tag_136)\n    /* \"#utility.yul\":4782:4784   */\ntag_138:\n    /* \"#utility.yul\":4878:4882   */\n  dup2\n    /* \"#utility.yul\":4926:4927   */\n  0x01\n    /* \"#utility.yul\":4921:4948   */\n  dup2\n  eq\n  tag_140\n  jumpi\n    /* \"#utility.yul\":4962:4963   */\n  0x02\n    /* \"#utility.yul\":4957:5148   */\n  dup2\n  eq\n  tag_141\n  jumpi\n    /* \"#utility.yul\":4871:5148   */\n  jump(tag_139)\n    /* \"#utility.yul\":4921:4948   */\ntag_140:\n    /* \"#utility.yul\":4939:4940   */\n  0x01\n    /* \"#utility.yul\":4930:4940   */\n  swap2\n  pop\n    /* \"#utility.yul\":4941:4946   */\n  pop\n  jump(tag_136)\n    /* \"#utility.yul\":4957:5148   */\ntag_141:\n    /* \"#utility.yul\":5002:5005   */\n  0xff\n    /* \"#utility.yul\":4992:5000   */\n  dup5\n    /* \"#utility.yul\":4989:5006   */\n  gt\n    /* \"#utility.yul\":4986:4988   */\n  iszero\n  tag_142\n  jumpi\n    /* \"#utility.yul\":5009:5027   */\n  tag_143\n  tag_119\n  jump\t// in\ntag_143:\n    /* \"#utility.yul\":4986:4988   */\ntag_142:\n    /* \"#utility.yul\":5058:5066   */\n  dup4\n    /* \"#utility.yul\":5055:5056   */\n  0x02\n    /* \"#utility.yul\":5051:5067   */\n  exp\n    /* \"#utility.yul\":5042:5067   */\n  swap2\n  pop\n    /* \"#utility.yul\":5093:5096   */\n  dup5\n    /* \"#utility.yul\":5086:5091   */\n  dup3\n    /* \"#utility.yul\":5083:5097   */\n  gt\n    /* \"#utility.yul\":5080:5082   */\n  iszero\n  tag_144\n  jumpi\n    /* \"#utility.yul\":5100:5118   */\n  tag_145\n  tag_119\n  jump\t// in\ntag_145:\n    /* \"#utility.yul\":5080:5082   */\ntag_144:\n    /* \"#utility.yul\":5133:5138   */\n  pop\n  jump(tag_136)\n    /* \"#utility.yul\":4871:5148   */\ntag_139:\n  pop\n    /* \"#utility.yul\":5257:5259   */\n  0x20\n    /* \"#utility.yul\":5247:5255   */\n  dup4\n    /* \"#utility.yul\":5244:5260   */\n  lt\n    /* \"#utility.yul\":5238:5241   */\n  0x0133\n    /* \"#utility.yul\":5232:5236   */\n  dup4\n    /* \"#utility.yul\":5229:5242   */\n  lt\n    /* \"#utility.yul\":5225:5261   */\n  and\n    /* \"#utility.yul\":5207:5209   */\n  0x4e\n    /* \"#utility.yul\":5197:5205   */\n  dup5\n    /* \"#utility.yul\":5194:5210   */\n  lt\n    /* \"#utility.yul\":5189:5191   */\n  0x0b\n    /* \"#utility.yul\":5183:5187   */\n  dup5\n    /* \"#utility.yul\":5180:5192   */\n  lt\n    /* \"#utility.yul\":5176:5211   */\n  and\n    /* \"#utility.yul\":5160:5271   */\n  or\n    /* \"#utility.yul\":5157:5159   */\n  iszero\n  tag_146\n  jumpi\n    /* \"#utility.yul\":5313:5321   */\n  dup3\n    /* \"#utility.yul\":5307:5311   */\n  dup3\n    /* \"#utility.yul\":5303:5322   */\n  exp\n    /* \"#utility.yul\":5294:5322   */\n  swap1\n  pop\n    /* \"#utility.yul\":5348:5351   */\n  dup4\n    /* \"#utility.yul\":5341:5346   */\n  dup2\n    /* \"#utility.yul\":5338:5352   */\n  gt\n    /* \"#utility.yul\":5335:5337   */\n  iszero\n  tag_147\n  jumpi\n    /* \"#utility.yul\":5355:5373   */\n  tag_148\n  tag_119\n  jump\t// in\ntag_148:\n    /* \"#utility.yul\":5335:5337   */\ntag_147:\n    /* \"#utility.yul\":5388:5393   */\n  jump(tag_136)\n    /* \"#utility.yul\":5157:5159   */\ntag_146:\n    /* \"#utility.yul\":5428:5470   */\n  tag_149\n    /* \"#utility.yul\":5466:5469   */\n  dup5\n    /* \"#utility.yul\":5456:5464   */\n  dup5\n    /* \"#utility.yul\":5450:5454   */\n  dup5\n    /* \"#utility.yul\":5447:5448   */\n  0x01\n    /* \"#utility.yul\":5428:5470   */\n  tag_120\n  jump\t// in\ntag_149:\n    /* \"#utility.yul\":5413:5470   */\n  swap3\n  pop\n  swap1\n  pop\n    /* \"#utility.yul\":5502:5506   */\n  dup2\n    /* \"#utility.yul\":5497:5500   */\n  dup5\n    /* \"#utility.yul\":5493:5507   */\n  div\n    /* \"#utility.yul\":5486:5491   */\n  dup2\n    /* \"#utility.yul\":5483:5508   */\n  gt\n    /* \"#utility.yul\":5480:5482   */\n  iszero\n  tag_150\n  jumpi\n    /* \"#utility.yul\":5511:5529   */\n  tag_151\n  tag_119\n  jump\t// in\ntag_151:\n    /* \"#utility.yul\":5480:5482   */\ntag_150:\n    /* \"#utility.yul\":5560:5564   */\n  dup2\n    /* \"#utility.yul\":5553:5558   */\n  dup2\n    /* \"#utility.yul\":5549:5565   */\n  mul\n    /* \"#utility.yul\":5540:5565   */\n  swap1\n  pop\n    /* \"#utility.yul\":4558:5571   */\ntag_136:\n  swap4\n  swap3\n  pop\n  pop\n  pop\n  jump\t// out\n    /* \"#utility.yul\":5577:5925   */\ntag_29:\n    /* \"#utility.yul\":5617:5624   */\n  0x00\n    /* \"#utility.yul\":5640:5660   */\n  tag_153\n    /* \"#utility.yul\":5658:5659   */\n  dup3\n    /* \"#utility.yul\":5640:5660   */\n  tag_100\n  jump\t// in\ntag_153:\n    /* \"#utility.yul\":5635:5660   */\n  swap2\n  pop\n    /* \"#utility.yul\":5674:5694   */\n  tag_154\n    /* \"#utility.yul\":5692:5693   */\n  dup4\n    /* \"#utility.yul\":5674:5694   */\n  tag_100\n  jump\t// in\ntag_154:\n    /* \"#utility.yul\":5669:5694   */\n  swap3\n  pop\n    /* \"#utility.yul\":5862:5863   */\n  dup2\n    /* \"#utility.yul\":5794:5860   */\n  0xffffffffffffffffffffffffffffffffffffffffffffffffffffffffffffffff\n    /* \"#utility.yul\":5790:5864   */\n  div\n    /* \"#utility.yul\":5787:5788   */\n  dup4\n    /* \"#utility.yul\":5784:5865   */\n  gt\n    /* \"#utility.yul\":5779:5780   */\n  dup3\n    /* \"#utility.yul\":5772:5781   */\n  iszero\n    /* \"#utility.yul\":5765:5782   */\n  iszero\n    /* \"#utility.yul\":5761:5866   */\n  and\n    /* \"#utility.yul\":5758:5760   */\n  iszero\n  tag_155\n  jumpi\n    /* \"#utility.yul\":5869:5887   */\n  tag_156\n  tag_119\n  jump\t// in\ntag_156:\n    /* \"#utility.yul\":5758:5760   */\ntag_155:\n    /* \"#utility.yul\":5917:5918   */\n  dup3\n    /* \"#utility.yul\":5914:5915   */\n  dup3\n    /* \"#utility.yul\":5910:5919   */\n  mul\n    /* \"#utility.yul\":5899:5919   */\n  swap1\n  pop\n    /* \"#utility.yul\":5625:5925   */\n  swap3\n  swap2\n  pop\n  pop\n  jump\t// out\n    /* \"#utility.yul\":5931:6027   */\ntag_81:\n    /* \"#utility.yul\":5968:5975   */\n  0x00\n    /* \"#utility.yul\":5997:6021   */\n  tag_158\n    /* \"#utility.yul\":6015:6020   */\n  dup3\n    /* \"#utility.yul\":5997:6021   */\n  tag_159\n  jump\t// in\ntag_158:\n    /* \"#utility.yul\":5986:6021   */\n  swap1\n  pop\n    /* \"#utility.yul\":5976:6027   */\n  swap2\n  swap1\n  pop\n  jump\t// out\n    /* \"#utility.yul\":6033:6110   */\ntag_85:\n    /* \"#utility.yul\":6070:6077   */\n  0x00\n    /* \"#utility.yul\":6099:6104   */\n  dup2\n    /* \"#utility.yul\":6088:6104   */\n  swap1\n  pop\n    /* \"#utility.yul\":6078:6110   */\n  swap2\n  swap1\n  pop\n  jump\t// out\n    /* \"#utility.yul\":6116:6242   */\ntag_159:\n    /* \"#utility.yul\":6153:6160   */\n  0x00\n    /* \"#utility.yul\":6193:6235   */\n  0xffffffffffffffffffffffffffffffffffffffff\n    /* \"#utility.yul\":6186:6191   */\n  dup3\n    /* \"#utility.yul\":6182:6236   */\n  and\n    /* \"#utility.yul\":6171:6236   */\n  swap1\n  pop\n    /* \"#utility.yul\":6161:6242   */\n  swap2\n  swap1\n  pop\n  jump\t// out\n    /* \"#utility.yul\":6248:6325   */\ntag_100:\n    /* \"#utility.yul\":6285:6292   */\n  0x00\n    /* \"#utility.yul\":6314:6319   */\n  dup2\n    /* \"#utility.yul\":6303:6319   */\n  swap1\n  pop\n    /* \"#utility.yul\":6293:6325   */\n  swap2\n  swap1\n  pop\n  jump\t// out\n    /* \"#utility.yul\":6331:6417   */\ntag_133:\n    /* \"#utility.yul\":6366:6373   */\n  0x00\n    /* \"#utility.yul\":6406:6410   */\n  0xff\n    /* \"#utility.yul\":6399:6404   */\n  dup3\n    /* \"#utility.yul\":6395:6411   */\n  and\n    /* \"#utility.yul\":6384:6411   */\n  swap1\n  pop\n    /* \"#utility.yul\":6374:6417   */\n  swap2\n  swap1\n  pop\n  jump\t// out\n    /* \"#utility.yul\":6423:6743   */\ntag_67:\n    /* \"#utility.yul\":6467:6473   */\n  0x00\n    /* \"#utility.yul\":6504:6505   */\n  0x02\n    /* \"#utility.yul\":6498:6502   */\n  dup3\n    /* \"#utility.yul\":6494:6506   */\n  div\n    /* \"#utility.yul\":6484:6506   */\n  swap1\n  pop\n    /* \"#utility.yul\":6551:6552   */\n  0x01\n    /* \"#utility.yul\":6545:6549   */\n  dup3\n    /* \"#utility.yul\":6541:6553   */\n  and\n    /* \"#utility.yul\":6572:6590   */\n  dup1\n    /* \"#utility.yul\":6562:6564   */\n  tag_165\n  jumpi\n    /* \"#utility.yul\":6628:6632   */\n  0x7f\n    /* \"#utility.yul\":6620:6626   */\n  dup3\n    /* \"#utility.yul\":6616:6633   */\n  and\n    /* \"#utility.yul\":6606:6633   */\n  swap2\n  pop\n    /* \"#utility.yul\":6562:6564   */\ntag_165:\n    /* \"#utility.yul\":6690:6692   */\n  0x20\n    /* \"#utility.yul\":6682:6688   */\n  dup3\n    /* \"#utility.yul\":6679:6693   */\n  lt\n    /* \"#utility.yul\":6659:6677   */\n  dup2\n    /* \"#utility.yul\":6656:6694   */\n  eq\n    /* \"#utility.yul\":6653:6655   */\n  iszero\n  tag_166\n  jumpi\n    /* \"#utility.yul\":6709:6727   */\n  tag_167\n  tag_168\n  jump\t// in\ntag_167:\n    /* \"#utility.yul\":6653:6655   */\ntag_166:\n    /* \"#utility.yul\":6474:6743   */\n  pop\n  swap2\n  swap1\n  pop\n  jump\t// out\n    /* \"#utility.yul\":6749:6929   */\ntag_119:\n    /* \"#utility.yul\":6797:6874   */\n  0x4e487b7100000000000000000000000000000000000000000000000000000000\n    /* \"#utility.yul\":6794:6795   */\n  0x00\n    /* \"#utility.yul\":6787:6875   */\n  mstore\n    /* \"#utility.yul\":6894:6898   */\n  0x11\n    /* \"#utility.yul\":6891:6892   */\n  0x04\n    /* \"#utility.yul\":6884:6899   */\n  mstore\n    /* \"#utility.yul\":6918:6922   */\n  0x24\n    /* \"#utility.yul\":6915:6916   */\n  0x00\n    /* \"#utility.yul\":6908:6923   */\n  revert\n    /* \"#utility.yul\":6935:7115   */\ntag_168:\n    /* \"#utility.yul\":6983:7060   */\n  0x4e487b7100000000000000000000000000000000000000000000000000000000\n    /* \"#utility.yul\":6980:6981   */\n  0x00\n    /* \"#utility.yul\":6973:7061   */\n  mstore\n    /* \"#utility.yul\":7080:7084   */\n  0x22\n    /* \"#utility.yul\":7077:7078   */\n  0x04\n    /* \"#utility.yul\":7070:7085   */\n  mstore\n    /* \"#utility.yul\":7104:7108   */\n  0x24\n    /* \"#utility.yul\":7101:7102   */\n  0x00\n    /* \"#utility.yul\":7094:7109   */\n  revert\n    /* \"#utility.yul\":7121:7223   */\ntag_129:\n    /* \"#utility.yul\":7163:7171   */\n  0x00\n    /* \"#utility.yul\":7210:7215   */\n  dup2\n    /* \"#utility.yul\":7207:7208   */\n  0x01\n    /* \"#utility.yul\":7203:7216   */\n  shr\n    /* \"#utility.yul\":7182:7216   */\n  swap1\n  pop\n    /* \"#utility.yul\":7172:7223   */\n  swap2\n  swap1\n  pop\n  jump\t// out\n    /* \"#utility.yul\":7229:7395   */\ntag_91:\n    /* \"#utility.yul\":7369:7387   */\n  0x5061757361626c653a2070617573656400000000000000000000000000000000\n    /* \"#utility.yul\":7365:7366   */\n  0x00\n    /* \"#utility.yul\":7357:7363   */\n  dup3\n    /* \"#utility.yul\":7353:7367   */\n  add\n    /* \"#utility.yul\":7346:7388   */\n  mstore\n    /* \"#utility.yul\":7335:7395   */\n  pop\n  jump\t// out\n    /* \"#utility.yul\":7401:7582   */\ntag_96:\n    /* \"#utility.yul\":7541:7574   */\n  0x45524332303a206d696e7420746f20746865207a65726f206164647265737300\n    /* \"#utility.yul\":7537:7538   */\n  0x00\n    /* \"#utility.yul\":7529:7535   */\n  dup3\n    /* \"#utility.yul\":7525:7539   */\n  add\n    /* \"#utility.yul\":7518:7575   */\n  mstore\n    /* \"#utility.yul\":7507:7582   */\n  pop\n  jump\t// out\n    /* \"contract-526c5b12e7.sol\":407:1041  contract SrZygon is ERC20, ERC20Burnable, Pausable, Ownable, ERC20Permit {... */\ntag_31:\n  mload(0x80)\n  mload(0xa0)\n  shr(0x60, mload(0xc0))\n  mload(0xe0)\n  mload(0x0100)\n  mload(0x0120)\n  codecopy(0x00, dataOffset(sub_0), dataSize(sub_0))\n  0x00\n  assignImmutable(\"0x8c2c54587967106aada40726d97869a68f1884315326f75aae38a5f14c8f0480\")\n  0x00\n  assignImmutable(\"0x9bf5de43c707337727317b1eb41eb24f3b57501b732ba6b9f8a6e59f8e2124d5\")\n  0x00\n  assignImmutable(\"0x07ac0c5d8088a739bcb4908eb6aa67ad83c795ff92b205d9f57b6d07690f5cbf\")\n  0x00\n  assignImmutable(\"0xe02cb3fdbbd2afb9a2d9b64c3250fe005c3b9649f25fb61eaba0b1e1e4ff8734\")\n  0x00\n  assignImmutable(\"0x5354828b2b0e0bd6dae87d4ed5f4a7e140d065ddf2f9d419af396ba4c6ab3c25\")\n  0x00\n  assignImmutable(\"0x306cbfa12b90322aabdab717c2f65d08213df53b47ac2cda8d0f6c08497de25b\")\n  return(0x00, dataSize(sub_0))\nstop\n\nsub_0: assembly {\n        /* \"contract-526c5b12e7.sol\":407:1041  contract SrZygon is ERC20, ERC20Burnable, Pausable, Ownable, ERC20Permit {... */\n      mstore(0x40, 0x80)\n      callvalue\n      dup1\n      iszero\n      tag_1\n      jumpi\n      0x00\n      dup1\n      revert\n    tag_1:\n      pop\n      jumpi(tag_2, lt(calldatasize, 0x04))\n      shr(0xe0, calldataload(0x00))\n      dup1\n      0x70a08231\n      gt\n      tag_26\n      jumpi\n      dup1\n      0x95d89b41\n      gt\n      tag_27\n      jumpi\n      dup1\n      0x95d89b41\n      eq\n      tag_20\n      jumpi\n      dup1\n      0xa457c2d7\n      eq\n      tag_21\n      jumpi\n      dup1\n      0xa9059cbb\n      eq\n      tag_22\n      jumpi\n      dup1\n      0xd505accf\n      eq\n      tag_23\n      jumpi\n      dup1\n      0xdd62ed3e\n      eq\n      tag_24\n      jumpi\n      dup1\n      0xf2fde38b\n      eq\n      tag_25\n      jumpi\n      jump(tag_2)\n    tag_27:\n      dup1\n      0x70a08231\n      eq\n      tag_14\n      jumpi\n      dup1\n      0x715018a6\n      eq\n      tag_15\n      jumpi\n      dup1\n      0x79cc6790\n      eq\n      tag_16\n      jumpi\n      dup1\n      0x7ecebe00\n      eq\n      tag_17\n      jumpi\n      dup1\n      0x8456cb59\n      eq\n      tag_18\n      jumpi\n      dup1\n      0x8da5cb5b\n      eq\n      tag_19\n      jumpi\n      jump(tag_2)\n    tag_26:\n      dup1\n      0x3644e515\n      gt\n      tag_28\n      jumpi\n      dup1\n      0x3644e515\n      eq\n      tag_8\n      jumpi\n      dup1\n      0x39509351\n      eq\n      tag_9\n      jumpi\n      dup1\n      0x3f4ba83a\n      eq\n      tag_10\n      jumpi\n      dup1\n      0x40c10f19\n      eq\n      tag_11\n      jumpi\n      dup1\n      0x42966c68\n      eq\n      tag_12\n      jumpi\n      dup1\n      0x5c975abb\n      eq\n      tag_13\n      jumpi\n      jump(tag_2)\n    tag_28:\n      dup1\n      0x06fdde03\n      eq\n      tag_3\n      jumpi\n      dup1\n      0x095ea7b3\n      eq\n      tag_4\n      jumpi\n      dup1\n      0x18160ddd\n      eq\n      tag_5\n      jumpi\n      dup1\n      0x23b872dd\n      eq\n      tag_6\n      jumpi\n      dup1\n      0x313ce567\n      eq\n      tag_7\n      jumpi\n    tag_2:\n      0x00\n      dup1\n      revert\n        /* \"@openzeppelin/contracts@4.7.3/token/ERC20/ERC20.sol\":2156:2254  function name() public view virtual override returns (string memory) {... */\n    tag_3:\n      tag_29\n      tag_30\n      jump\t// in\n    tag_29:\n      mload(0x40)\n      tag_31\n      swap2\n      swap1\n      tag_32\n      jump\t// in\n    tag_31:\n      mload(0x40)\n      dup1\n      swap2\n      sub\n      swap1\n      return\n        /* \"@openzeppelin/contracts@4.7.3/token/ERC20/ERC20.sol\":4433:4630  function approve(address spender, uint256 amount) public virtual override returns (bool) {... */\n    tag_4:\n      tag_33\n      0x04\n      dup1\n      calldatasize\n      sub\n      dup2\n      add\n      swap1\n      tag_34\n      swap2\n      swap1\n      tag_35\n      jump\t// in\n    tag_34:\n      tag_36\n      jump\t// in\n    tag_33:\n      mload(0x40)\n      tag_37\n      swap2\n      swap1\n      tag_38\n      jump\t// in\n    tag_37:\n      mload(0x40)\n      dup1\n      swap2\n      sub\n      swap1\n      return\n        /* \"@openzeppelin/contracts@4.7.3/token/ERC20/ERC20.sol\":3244:3350  function totalSupply() public view virtual override returns (uint256) {... */\n    tag_5:\n      tag_39\n      tag_40\n      jump\t// in\n    tag_39:\n      mload(0x40)\n      tag_41\n      swap2\n      swap1\n      tag_42\n      jump\t// in\n    tag_41:\n      mload(0x40)\n      dup1\n      swap2\n      sub\n      swap1\n      return\n        /* \"@openzeppelin/contracts@4.7.3/token/ERC20/ERC20.sol\":5192:5478  function transferFrom(... */\n    tag_6:\n      tag_43\n      0x04\n      dup1\n      calldatasize\n      sub\n      dup2\n      add\n      swap1\n      tag_44\n      swap2\n      swap1\n      tag_45\n      jump\t// in\n    tag_44:\n      tag_46\n      jump\t// in\n    tag_43:\n      mload(0x40)\n      tag_47\n      swap2\n      swap1\n      tag_38\n      jump\t// in\n    tag_47:\n      mload(0x40)\n      dup1\n      swap2\n      sub\n      swap1\n      return\n        /* \"@openzeppelin/contracts@4.7.3/token/ERC20/ERC20.sol\":3093:3184  function decimals() public view virtual override returns (uint8) {... */\n    tag_7:\n      tag_48\n      tag_49\n      jump\t// in\n    tag_48:\n      mload(0x40)\n      tag_50\n      swap2\n      swap1\n      tag_51\n      jump\t// in\n    tag_50:\n      mload(0x40)\n      dup1\n      swap2\n      sub\n      swap1\n      return\n        /* \"@openzeppelin/contracts@4.7.3/token/ERC20/extensions/draft-ERC20Permit.sol\":2885:2998  function DOMAIN_SEPARATOR() external view override returns (bytes32) {... */\n    tag_8:\n      tag_52\n      tag_53\n      jump\t// in\n    tag_52:\n      mload(0x40)\n      tag_54\n      swap2\n      swap1\n      tag_55\n      jump\t// in\n    tag_54:\n      mload(0x40)\n      dup1\n      swap2\n      sub\n      swap1\n      return\n        /* \"@openzeppelin/contracts@4.7.3/token/ERC20/ERC20.sol\":5873:6107  function increaseAllowance(address spender, uint256 addedValue) public virtual returns (bool) {... */\n    tag_9:\n      tag_56\n      0x04\n      dup1\n      calldatasize\n      sub\n      dup2\n      add\n      swap1\n      tag_57\n      swap2\n      swap1\n      tag_35\n      jump\t// in\n    tag_57:\n      tag_58\n      jump\t// in\n    tag_56:\n      mload(0x40)\n      tag_59\n      swap2\n      swap1\n      tag_38\n      jump\t// in\n    tag_59:\n      mload(0x40)\n      dup1\n      swap2\n      sub\n      swap1\n      return\n        /* \"contract-526c5b12e7.sol\":678:741  function unpause() public onlyOwner {... */\n    tag_10:\n      tag_60\n      tag_61\n      jump\t// in\n    tag_60:\n      stop\n        /* \"contract-526c5b12e7.sol\":747:840  function mint(address to, uint256 amount) public onlyOwner {... */\n    tag_11:\n      tag_62\n      0x04\n      dup1\n      calldatasize\n      sub\n      dup2\n      add\n      swap1\n      tag_63\n      swap2\n      swap1\n      tag_35\n      jump\t// in\n    tag_63:\n      tag_64\n      jump\t// in\n    tag_62:\n      stop\n        /* \"@openzeppelin/contracts@4.7.3/token/ERC20/extensions/ERC20Burnable.sol\":578:667  function burn(uint256 amount) public virtual {... */\n    tag_12:\n      tag_65\n      0x04\n      dup1\n      calldatasize\n      sub\n      dup2\n      add\n      swap1\n      tag_66\n      swap2\n      swap1\n      tag_67\n      jump\t// in\n    tag_66:\n      tag_68\n      jump\t// in\n    tag_65:\n      stop\n        /* \"@openzeppelin/contracts@4.7.3/security/Pausable.sol\":1615:1699  function paused() public view virtual returns (bool) {... */\n    tag_13:\n      tag_69\n      tag_70\n      jump\t// in\n    tag_69:\n      mload(0x40)\n      tag_71\n      swap2\n      swap1\n      tag_38\n      jump\t// in\n    tag_71:\n      mload(0x40)\n      dup1\n      swap2\n      sub\n      swap1\n      return\n        /* \"@openzeppelin/contracts@4.7.3/token/ERC20/ERC20.sol\":3408:3533  function balanceOf(address account) public view virtual override returns (uint256) {... */\n    tag_14:\n      tag_72\n      0x04\n      dup1\n      calldatasize\n      sub\n      dup2\n      add\n      swap1\n      tag_73\n      swap2\n      swap1\n      tag_74\n      jump\t// in\n    tag_73:\n      tag_75\n      jump\t// in\n    tag_72:\n      mload(0x40)\n      tag_76\n      swap2\n      swap1\n      tag_42\n      jump\t// in\n    tag_76:\n      mload(0x40)\n      dup1\n      swap2\n      sub\n      swap1\n      return\n        /* \"@openzeppelin/contracts@4.7.3/access/Ownable.sol\":1831:1932  function renounceOwnership() public virtual onlyOwner {... */\n    tag_15:\n      tag_77\n      tag_78\n      jump\t// in\n    tag_77:\n      stop\n        /* \"@openzeppelin/contracts@4.7.3/token/ERC20/extensions/ERC20Burnable.sol\":973:1134  function burnFrom(address account, uint256 amount) public virtual {... */\n    tag_16:\n      tag_79\n      0x04\n      dup1\n      calldatasize\n      sub\n      dup2\n      add\n      swap1\n      tag_80\n      swap2\n      swap1\n      tag_35\n      jump\t// in\n    tag_80:\n      tag_81\n      jump\t// in\n    tag_79:\n      stop\n        /* \"@openzeppelin/contracts@4.7.3/token/ERC20/extensions/draft-ERC20Permit.sol\":2635:2761  function nonces(address owner) public view virtual override returns (uint256) {... */\n    tag_17:\n      tag_82\n      0x04\n      dup1\n      calldatasize\n      sub\n      dup2\n      add\n      swap1\n      tag_83\n      swap2\n      swap1\n      tag_74\n      jump\t// in\n    tag_83:\n      tag_84\n      jump\t// in\n    tag_82:\n      mload(0x40)\n      tag_85\n      swap2\n      swap1\n      tag_42\n      jump\t// in\n    tag_85:\n      mload(0x40)\n      dup1\n      swap2\n      sub\n      swap1\n      return\n        /* \"contract-526c5b12e7.sol\":613:672  function pause() public onlyOwner {... */\n    tag_18:\n      tag_86\n      tag_87\n      jump\t// in\n    tag_86:\n      stop\n        /* \"@openzeppelin/contracts@4.7.3/access/Ownable.sol\":1201:1286  function owner() public view virtual returns (address) {... */\n    tag_19:\n      tag_88\n      tag_89\n      jump\t// in\n    tag_88:\n      mload(0x40)\n      tag_90\n      swap2\n      swap1\n      tag_91\n      jump\t// in\n    tag_90:\n      mload(0x40)\n      dup1\n      swap2\n      sub\n      swap1\n      return\n        /* \"@openzeppelin/contracts@4.7.3/token/ERC20/ERC20.sol\":2367:2469  function symbol() public view virtual override returns (string memory) {... */\n    tag_20:\n      tag_92\n      tag_93\n      jump\t// in\n    tag_92:\n      mload(0x40)\n      tag_94\n      swap2\n      swap1\n      tag_32\n      jump\t// in\n    tag_94:\n      mload(0x40)\n      dup1\n      swap2\n      sub\n      swap1\n      return\n        /* \"@openzeppelin/contracts@4.7.3/token/ERC20/ERC20.sol\":6594:7021  function decreaseAllowance(address spender, uint256 subtractedValue) public virtual returns (bool) {... */\n    tag_21:\n      tag_95\n      0x04\n      dup1\n      calldatasize\n      sub\n      dup2\n      add\n      swap1\n      tag_96\n      swap2\n      swap1\n      tag_35\n      jump\t// in\n    tag_96:\n      tag_97\n      jump\t// in\n    tag_95:\n      mload(0x40)\n      tag_98\n      swap2\n      swap1\n      tag_38\n      jump\t// in\n    tag_98:\n      mload(0x40)\n      dup1\n      swap2\n      sub\n      swap1\n      return\n        /* \"@openzeppelin/contracts@4.7.3/token/ERC20/ERC20.sol\":3729:3918  function transfer(address to, uint256 amount) public virtual override returns (bool) {... */\n    tag_22:\n      tag_99\n      0x04\n      dup1\n      calldatasize\n      sub\n      dup2\n      add\n      swap1\n      tag_100\n      swap2\n      swap1\n      tag_35\n      jump\t// in\n    tag_100:\n      tag_101\n      jump\t// in\n    tag_99:\n      mload(0x40)\n      tag_102\n      swap2\n      swap1\n      tag_38\n      jump\t// in\n    tag_102:\n      mload(0x40)\n      dup1\n      swap2\n      sub\n      swap1\n      return\n        /* \"@openzeppelin/contracts@4.7.3/token/ERC20/extensions/draft-ERC20Permit.sol\":1948:2574  function permit(... */\n    tag_23:\n      tag_103\n      0x04\n      dup1\n      calldatasize\n      sub\n      dup2\n      add\n      swap1\n      tag_104\n      swap2\n      swap1\n      tag_105\n      jump\t// in\n    tag_104:\n      tag_106\n      jump\t// in\n    tag_103:\n      stop\n        /* \"@openzeppelin/contracts@4.7.3/token/ERC20/ERC20.sol\":3976:4125  function allowance(address owner, address spender) public view virtual override returns (uint256) {... */\n    tag_24:\n      tag_107\n      0x04\n      dup1\n      calldatasize\n      sub\n      dup2\n      add\n      swap1\n      tag_108\n      swap2\n      swap1\n      tag_109\n      jump\t// in\n    tag_108:\n      tag_110\n      jump\t// in\n    tag_107:\n      mload(0x40)\n      tag_111\n      swap2\n      swap1\n      tag_42\n      jump\t// in\n    tag_111:\n      mload(0x40)\n      dup1\n      swap2\n      sub\n      swap1\n      return\n        /* \"@openzeppelin/contracts@4.7.3/access/Ownable.sol\":2081:2279  function transferOwnership(address newOwner) public virtual onlyOwner {... */\n    tag_25:\n      tag_112\n      0x04\n      dup1\n      calldatasize\n      sub\n      dup2\n      add\n      swap1\n      tag_113\n      swap2\n      swap1\n      tag_74\n      jump\t// in\n    tag_113:\n      tag_114\n      jump\t// in\n    tag_112:\n      stop\n        /* \"@openzeppelin/contracts@4.7.3/token/ERC20/ERC20.sol\":2156:2254  function name() public view virtual override returns (string memory) {... */\n    tag_30:\n        /* \"@openzeppelin/contracts@4.7.3/token/ERC20/ERC20.sol\":2210:2223  string memory */\n      0x60\n        /* \"@openzeppelin/contracts@4.7.3/token/ERC20/ERC20.sol\":2242:2247  _name */\n      0x03\n        /* \"@openzeppelin/contracts@4.7.3/token/ERC20/ERC20.sol\":2235:2247  return _name */\n      dup1\n      sload\n      tag_117\n      swap1\n      tag_118\n      jump\t// in\n    tag_117:\n      dup1\n      0x1f\n      add\n      0x20\n      dup1\n      swap2\n      div\n      mul\n      0x20\n      add\n      mload(0x40)\n      swap1\n      dup2\n      add\n      0x40\n      mstore\n      dup1\n      swap3\n      swap2\n      swap1\n      dup2\n      dup2\n      mstore\n      0x20\n      add\n      dup3\n      dup1\n      sload\n      tag_119\n      swap1\n      tag_118\n      jump\t// in\n    tag_119:\n      dup1\n      iszero\n      tag_120\n      jumpi\n      dup1\n      0x1f\n      lt\n      tag_121\n      jumpi\n      0x0100\n      dup1\n      dup4\n      sload\n      div\n      mul\n      dup4\n      mstore\n      swap2\n      0x20\n      add\n      swap2\n      jump(tag_120)\n    tag_121:\n      dup3\n      add\n      swap2\n      swap1\n      0x00\n      mstore\n      keccak256(0x00, 0x20)\n      swap1\n    tag_122:\n      dup2\n      sload\n      dup2\n      mstore\n      swap1\n      0x01\n      add\n      swap1\n      0x20\n      add\n      dup1\n      dup4\n      gt\n      tag_122\n      jumpi\n      dup3\n      swap1\n      sub\n      0x1f\n      and\n      dup3\n      add\n      swap2\n    tag_120:\n      pop\n      pop\n      pop\n      pop\n      pop\n      swap1\n      pop\n        /* \"@openzeppelin/contracts@4.7.3/token/ERC20/ERC20.sol\":2156:2254  function name() public view virtual override returns (string memory) {... */\n      swap1\n      jump\t// out\n        /* \"@openzeppelin/contracts@4.7.3/token/ERC20/ERC20.sol\":4433:4630  function approve(address spender, uint256 amount) public virtual override returns (bool) {... */\n    tag_36:\n        /* \"@openzeppelin/contracts@4.7.3/token/ERC20/ERC20.sol\":4516:4520  bool */\n      0x00\n        /* \"@openzeppelin/contracts@4.7.3/token/ERC20/ERC20.sol\":4532:4545  address owner */\n      dup1\n        /* \"@openzeppelin/contracts@4.7.3/token/ERC20/ERC20.sol\":4548:4560  _msgSender() */\n      tag_124\n        /* \"@openzeppelin/contracts@4.7.3/token/ERC20/ERC20.sol\":4548:4558  _msgSender */\n      tag_125\n        /* \"@openzeppelin/contracts@4.7.3/token/ERC20/ERC20.sol\":4548:4560  _msgSender() */\n      jump\t// in\n    tag_124:\n        /* \"@openzeppelin/contracts@4.7.3/token/ERC20/ERC20.sol\":4532:4560  address owner = _msgSender() */\n      swap1\n      pop\n        /* \"@openzeppelin/contracts@4.7.3/token/ERC20/ERC20.sol\":4570:4602  _approve(owner, spender, amount) */\n      tag_126\n        /* \"@openzeppelin/contracts@4.7.3/token/ERC20/ERC20.sol\":4579:4584  owner */\n      dup2\n        /* \"@openzeppelin/contracts@4.7.3/token/ERC20/ERC20.sol\":4586:4593  spender */\n      dup6\n        /* \"@openzeppelin/contracts@4.7.3/token/ERC20/ERC20.sol\":4595:4601  amount */\n      dup6\n        /* \"@openzeppelin/contracts@4.7.3/token/ERC20/ERC20.sol\":4570:4578  _approve */\n      tag_127\n        /* \"@openzeppelin/contracts@4.7.3/token/ERC20/ERC20.sol\":4570:4602  _approve(owner, spender, amount) */\n      jump\t// in\n    tag_126:\n        /* \"@openzeppelin/contracts@4.7.3/token/ERC20/ERC20.sol\":4619:4623  true */\n      0x01\n        /* \"@openzeppelin/contracts@4.7.3/token/ERC20/ERC20.sol\":4612:4623  return true */\n      swap2\n      pop\n      pop\n        /* \"@openzeppelin/contracts@4.7.3/token/ERC20/ERC20.sol\":4433:4630  function approve(address spender, uint256 amount) public virtual override returns (bool) {... */\n      swap3\n      swap2\n      pop\n      pop\n      jump\t// out\n        /* \"@openzeppelin/contracts@4.7.3/token/ERC20/ERC20.sol\":3244:3350  function totalSupply() public view virtual override returns (uint256) {... */\n    tag_40:\n        /* \"@openzeppelin/contracts@4.7.3/token/ERC20/ERC20.sol\":3305:3312  uint256 */\n      0x00\n        /* \"@openzeppelin/contracts@4.7.3/token/ERC20/ERC20.sol\":3331:3343  _totalSupply */\n      sload(0x02)\n        /* \"@openzeppelin/contracts@4.7.3/token/ERC20/ERC20.sol\":3324:3343  return _totalSupply */\n      swap1\n      pop\n        /* \"@openzeppelin/contracts@4.7.3/token/ERC20/ERC20.sol\":3244:3350  function totalSupply() public view virtual override returns (uint256) {... */\n      swap1\n      jump\t// out\n        /* \"@openzeppelin/contracts@4.7.3/token/ERC20/ERC20.sol\":5192:5478  function transferFrom(... */\n    tag_46:\n        /* \"@openzeppelin/contracts@4.7.3/token/ERC20/ERC20.sol\":5319:5323  bool */\n      0x00\n        /* \"@openzeppelin/contracts@4.7.3/token/ERC20/ERC20.sol\":5335:5350  address spender */\n      dup1\n        /* \"@openzeppelin/contracts@4.7.3/token/ERC20/ERC20.sol\":5353:5365  _msgSender() */\n      tag_130\n        /* \"@openzeppelin/contracts@4.7.3/token/ERC20/ERC20.sol\":5353:5363  _msgSender */\n      tag_125\n        /* \"@openzeppelin/contracts@4.7.3/token/ERC20/ERC20.sol\":5353:5365  _msgSender() */\n      jump\t// in\n    tag_130:\n        /* \"@openzeppelin/contracts@4.7.3/token/ERC20/ERC20.sol\":5335:5365  address spender = _msgSender() */\n      swap1\n      pop\n        /* \"@openzeppelin/contracts@4.7.3/token/ERC20/ERC20.sol\":5375:5413  _spendAllowance(from, spender, amount) */\n      tag_131\n        /* \"@openzeppelin/contracts@4.7.3/token/ERC20/ERC20.sol\":5391:5395  from */\n      dup6\n        /* \"@openzeppelin/contracts@4.7.3/token/ERC20/ERC20.sol\":5397:5404  spender */\n      dup3\n        /* \"@openzeppelin/contracts@4.7.3/token/ERC20/ERC20.sol\":5406:5412  amount */\n      dup6\n        /* \"@openzeppelin/contracts@4.7.3/token/ERC20/ERC20.sol\":5375:5390  _spendAllowance */\n      tag_132\n        /* \"@openzeppelin/contracts@4.7.3/token/ERC20/ERC20.sol\":5375:5413  _spendAllowance(from, spender, amount) */\n      jump\t// in\n    tag_131:\n        /* \"@openzeppelin/contracts@4.7.3/token/ERC20/ERC20.sol\":5423:5450  _transfer(from, to, amount) */\n      tag_133\n        /* \"@openzeppelin/contracts@4.7.3/token/ERC20/ERC20.sol\":5433:5437  from */\n      dup6\n        /* \"@openzeppelin/contracts@4.7.3/token/ERC20/ERC20.sol\":5439:5441  to */\n      dup6\n        /* \"@openzeppelin/contracts@4.7.3/token/ERC20/ERC20.sol\":5443:5449  amount */\n      dup6\n        /* \"@openzeppelin/contracts@4.7.3/token/ERC20/ERC20.sol\":5423:5432  _transfer */\n      tag_134\n        /* \"@openzeppelin/contracts@4.7.3/token/ERC20/ERC20.sol\":5423:5450  _transfer(from, to, amount) */\n      jump\t// in\n    tag_133:\n        /* \"@openzeppelin/contracts@4.7.3/token/ERC20/ERC20.sol\":5467:5471  true */\n      0x01\n        /* \"@openzeppelin/contracts@4.7.3/token/ERC20/ERC20.sol\":5460:5471  return true */\n      swap2\n      pop\n      pop\n        /* \"@openzeppelin/contracts@4.7.3/token/ERC20/ERC20.sol\":5192:5478  function transferFrom(... */\n      swap4\n      swap3\n      pop\n      pop\n      pop\n      jump\t// out\n        /* \"@openzeppelin/contracts@4.7.3/token/ERC20/ERC20.sol\":3093:3184  function decimals() public view virtual override returns (uint8) {... */\n    tag_49:\n        /* \"@openzeppelin/contracts@4.7.3/token/ERC20/ERC20.sol\":3151:3156  uint8 */\n      0x00\n        /* \"@openzeppelin/contracts@4.7.3/token/ERC20/ERC20.sol\":3175:3177  18 */\n      0x12\n        /* \"@openzeppelin/contracts@4.7.3/token/ERC20/ERC20.sol\":3168:3177  return 18 */\n      swap1\n      pop\n        /* \"@openzeppelin/contracts@4.7.3/token/ERC20/ERC20.sol\":3093:3184  function decimals() public view virtual override returns (uint8) {... */\n      swap1\n      jump\t// out\n        /* \"@openzeppelin/contracts@4.7.3/token/ERC20/extensions/draft-ERC20Permit.sol\":2885:2998  function DOMAIN_SEPARATOR() external view override returns (bytes32) {... */\n    tag_53:\n        /* \"@openzeppelin/contracts@4.7.3/token/ERC20/extensions/draft-ERC20Permit.sol\":2945:2952  bytes32 */\n      0x00\n        /* \"@openzeppelin/contracts@4.7.3/token/ERC20/extensions/draft-ERC20Permit.sol\":2971:2991  _domainSeparatorV4() */\n      tag_137\n        /* \"@openzeppelin/contracts@4.7.3/token/ERC20/extensions/draft-ERC20Permit.sol\":2971:2989  _domainSeparatorV4 */\n      tag_138\n        /* \"@openzeppelin/contracts@4.7.3/token/ERC20/extensions/draft-ERC20Permit.sol\":2971:2991  _domainSeparatorV4() */\n      jump\t// in\n    tag_137:\n        /* \"@openzeppelin/contracts@4.7.3/token/ERC20/extensions/draft-ERC20Permit.sol\":2964:2991  return _domainSeparatorV4() */\n      swap1\n      pop\n        /* \"@openzeppelin/contracts@4.7.3/token/ERC20/extensions/draft-ERC20Permit.sol\":2885:2998  function DOMAIN_SEPARATOR() external view override returns (bytes32) {... */\n      swap1\n      jump\t// out\n        /* \"@openzeppelin/contracts@4.7.3/token/ERC20/ERC20.sol\":5873:6107  function increaseAllowance(address spender, uint256 addedValue) public virtual returns (bool) {... */\n    tag_58:\n        /* \"@openzeppelin/contracts@4.7.3/token/ERC20/ERC20.sol\":5961:5965  bool */\n      0x00\n        /* \"@openzeppelin/contracts@4.7.3/token/ERC20/ERC20.sol\":5977:5990  address owner */\n      dup1\n        /* \"@openzeppelin/contracts@4.7.3/token/ERC20/ERC20.sol\":5993:6005  _msgSender() */\n      tag_140\n        /* \"@openzeppelin/contracts@4.7.3/token/ERC20/ERC20.sol\":5993:6003  _msgSender */\n      tag_125\n        /* \"@openzeppelin/contracts@4.7.3/token/ERC20/ERC20.sol\":5993:6005  _msgSender() */\n      jump\t// in\n    tag_140:\n        /* \"@openzeppelin/contracts@4.7.3/token/ERC20/ERC20.sol\":5977:6005  address owner = _msgSender() */\n      swap1\n      pop\n        /* \"@openzeppelin/contracts@4.7.3/token/ERC20/ERC20.sol\":6015:6079  _approve(owner, spender, allowance(owner, spender) + addedValue) */\n      tag_141\n        /* \"@openzeppelin/contracts@4.7.3/token/ERC20/ERC20.sol\":6024:6029  owner */\n      dup2\n        /* \"@openzeppelin/contracts@4.7.3/token/ERC20/ERC20.sol\":6031:6038  spender */\n      dup6\n        /* \"@openzeppelin/contracts@4.7.3/token/ERC20/ERC20.sol\":6068:6078  addedValue */\n      dup6\n        /* \"@openzeppelin/contracts@4.7.3/token/ERC20/ERC20.sol\":6040:6065  allowance(owner, spender) */\n      tag_142\n        /* \"@openzeppelin/contracts@4.7.3/token/ERC20/ERC20.sol\":6050:6055  owner */\n      dup6\n        /* \"@openzeppelin/contracts@4.7.3/token/ERC20/ERC20.sol\":6057:6064  spender */\n      dup10\n        /* \"@openzeppelin/contracts@4.7.3/token/ERC20/ERC20.sol\":6040:6049  allowance */\n      tag_110\n        /* \"@openzeppelin/contracts@4.7.3/token/ERC20/ERC20.sol\":6040:6065  allowance(owner, spender) */\n      jump\t// in\n    tag_142:\n        /* \"@openzeppelin/contracts@4.7.3/token/ERC20/ERC20.sol\":6040:6078  allowance(owner, spender) + addedValue */\n      tag_143\n      swap2\n      swap1\n      tag_144\n      jump\t// in\n    tag_143:\n        /* \"@openzeppelin/contracts@4.7.3/token/ERC20/ERC20.sol\":6015:6023  _approve */\n      tag_127\n        /* \"@openzeppelin/contracts@4.7.3/token/ERC20/ERC20.sol\":6015:6079  _approve(owner, spender, allowance(owner, spender) + addedValue) */\n      jump\t// in\n    tag_141:\n        /* \"@openzeppelin/contracts@4.7.3/token/ERC20/ERC20.sol\":6096:6100  true */\n      0x01\n        /* \"@openzeppelin/contracts@4.7.3/token/ERC20/ERC20.sol\":6089:6100  return true */\n      swap2\n      pop\n      pop\n        /* \"@openzeppelin/contracts@4.7.3/token/ERC20/ERC20.sol\":5873:6107  function increaseAllowance(address spender, uint256 addedValue) public virtual returns (bool) {... */\n      swap3\n      swap2\n      pop\n      pop\n      jump\t// out\n        /* \"contract-526c5b12e7.sol\":678:741  function unpause() public onlyOwner {... */\n    tag_61:\n        /* \"@openzeppelin/contracts@4.7.3/access/Ownable.sol\":1094:1107  _checkOwner() */\n      tag_146\n        /* \"@openzeppelin/contracts@4.7.3/access/Ownable.sol\":1094:1105  _checkOwner */\n      tag_147\n        /* \"@openzeppelin/contracts@4.7.3/access/Ownable.sol\":1094:1107  _checkOwner() */\n      jump\t// in\n    tag_146:\n        /* \"contract-526c5b12e7.sol\":724:734  _unpause() */\n      tag_149\n        /* \"contract-526c5b12e7.sol\":724:732  _unpause */\n      tag_150\n        /* \"contract-526c5b12e7.sol\":724:734  _unpause() */\n      jump\t// in\n    tag_149:\n        /* \"contract-526c5b12e7.sol\":678:741  function unpause() public onlyOwner {... */\n      jump\t// out\n        /* \"contract-526c5b12e7.sol\":747:840  function mint(address to, uint256 amount) public onlyOwner {... */\n    tag_64:\n        /* \"@openzeppelin/contracts@4.7.3/access/Ownable.sol\":1094:1107  _checkOwner() */\n      tag_152\n        /* \"@openzeppelin/contracts@4.7.3/access/Ownable.sol\":1094:1105  _checkOwner */\n      tag_147\n        /* \"@openzeppelin/contracts@4.7.3/access/Ownable.sol\":1094:1107  _checkOwner() */\n      jump\t// in\n    tag_152:\n        /* \"contract-526c5b12e7.sol\":816:833  _mint(to, amount) */\n      tag_154\n        /* \"contract-526c5b12e7.sol\":822:824  to */\n      dup3\n        /* \"contract-526c5b12e7.sol\":826:832  amount */\n      dup3\n        /* \"contract-526c5b12e7.sol\":816:821  _mint */\n      tag_155\n        /* \"contract-526c5b12e7.sol\":816:833  _mint(to, amount) */\n      jump\t// in\n    tag_154:\n        /* \"contract-526c5b12e7.sol\":747:840  function mint(address to, uint256 amount) public onlyOwner {... */\n      pop\n      pop\n      jump\t// out\n        /* \"@openzeppelin/contracts@4.7.3/token/ERC20/extensions/ERC20Burnable.sol\":578:667  function burn(uint256 amount) public virtual {... */\n    tag_68:\n        /* \"@openzeppelin/contracts@4.7.3/token/ERC20/extensions/ERC20Burnable.sol\":633:660  _burn(_msgSender(), amount) */\n      tag_157\n        /* \"@openzeppelin/contracts@4.7.3/token/ERC20/extensions/ERC20Burnable.sol\":639:651  _msgSender() */\n      tag_158\n        /* \"@openzeppelin/contracts@4.7.3/token/ERC20/extensions/ERC20Burnable.sol\":639:649  _msgSender */\n      tag_125\n        /* \"@openzeppelin/contracts@4.7.3/token/ERC20/extensions/ERC20Burnable.sol\":639:651  _msgSender() */\n      jump\t// in\n    tag_158:\n        /* \"@openzeppelin/contracts@4.7.3/token/ERC20/extensions/ERC20Burnable.sol\":653:659  amount */\n      dup3\n        /* \"@openzeppelin/contracts@4.7.3/token/ERC20/extensions/ERC20Burnable.sol\":633:638  _burn */\n      tag_159\n        /* \"@openzeppelin/contracts@4.7.3/token/ERC20/extensions/ERC20Burnable.sol\":633:660  _burn(_msgSender(), amount) */\n      jump\t// in\n    tag_157:\n        /* \"@openzeppelin/contracts@4.7.3/token/ERC20/extensions/ERC20Burnable.sol\":578:667  function burn(uint256 amount) public virtual {... */\n      pop\n      jump\t// out\n        /* \"@openzeppelin/contracts@4.7.3/security/Pausable.sol\":1615:1699  function paused() public view virtual returns (bool) {... */\n    tag_70:\n        /* \"@openzeppelin/contracts@4.7.3/security/Pausable.sol\":1662:1666  bool */\n      0x00\n        /* \"@openzeppelin/contracts@4.7.3/security/Pausable.sol\":1685:1692  _paused */\n      0x05\n      0x00\n      swap1\n      sload\n      swap1\n      0x0100\n      exp\n      swap1\n      div\n      0xff\n      and\n        /* \"@openzeppelin/contracts@4.7.3/security/Pausable.sol\":1678:1692  return _paused */\n      swap1\n      pop\n        /* \"@openzeppelin/contracts@4.7.3/security/Pausable.sol\":1615:1699  function paused() public view virtual returns (bool) {... */\n      swap1\n      jump\t// out\n        /* \"@openzeppelin/contracts@4.7.3/token/ERC20/ERC20.sol\":3408:3533  function balanceOf(address account) public view virtual override returns (uint256) {... */\n    tag_75:\n        /* \"@openzeppelin/contracts@4.7.3/token/ERC20/ERC20.sol\":3482:3489  uint256 */\n      0x00\n        /* \"@openzeppelin/contracts@4.7.3/token/ERC20/ERC20.sol\":3508:3517  _balances */\n      dup1\n        /* \"@openzeppelin/contracts@4.7.3/token/ERC20/ERC20.sol\":3508:3526  _balances[account] */\n      0x00\n        /* \"@openzeppelin/contracts@4.7.3/token/ERC20/ERC20.sol\":3518:3525  account */\n      dup4\n        /* \"@openzeppelin/contracts@4.7.3/token/ERC20/ERC20.sol\":3508:3526  _balances[account] */\n      0xffffffffffffffffffffffffffffffffffffffff\n      and\n      0xffffffffffffffffffffffffffffffffffffffff\n      and\n      dup2\n      mstore\n      0x20\n      add\n      swap1\n      dup2\n      mstore\n      0x20\n      add\n      0x00\n      keccak256\n      sload\n        /* \"@openzeppelin/contracts@4.7.3/token/ERC20/ERC20.sol\":3501:3526  return _balances[account] */\n      swap1\n      pop\n        /* \"@openzeppelin/contracts@4.7.3/token/ERC20/ERC20.sol\":3408:3533  function balanceOf(address account) public view virtual override returns (uint256) {... */\n      swap2\n      swap1\n      pop\n      jump\t// out\n        /* \"@openzeppelin/contracts@4.7.3/access/Ownable.sol\":1831:1932  function renounceOwnership() public virtual onlyOwner {... */\n    tag_78:\n        /* \"@openzeppelin/contracts@4.7.3/access/Ownable.sol\":1094:1107  _checkOwner() */\n      tag_163\n        /* \"@openzeppelin/contracts@4.7.3/access/Ownable.sol\":1094:1105  _checkOwner */\n      tag_147\n        /* \"@openzeppelin/contracts@4.7.3/access/Ownable.sol\":1094:1107  _checkOwner() */\n      jump\t// in\n    tag_163:\n        /* \"@openzeppelin/contracts@4.7.3/access/Ownable.sol\":1895:1925  _transferOwnership(address(0)) */\n      tag_165\n        /* \"@openzeppelin/contracts@4.7.3/access/Ownable.sol\":1922:1923  0 */\n      0x00\n        /* \"@openzeppelin/contracts@4.7.3/access/Ownable.sol\":1895:1913  _transferOwnership */\n      tag_166\n        /* \"@openzeppelin/contracts@4.7.3/access/Ownable.sol\":1895:1925  _transferOwnership(address(0)) */\n      jump\t// in\n    tag_165:\n        /* \"@openzeppelin/contracts@4.7.3/access/Ownable.sol\":1831:1932  function renounceOwnership() public virtual onlyOwner {... */\n      jump\t// out\n        /* \"@openzeppelin/contracts@4.7.3/token/ERC20/extensions/ERC20Burnable.sol\":973:1134  function burnFrom(address account, uint256 amount) public virtual {... */\n    tag_81:\n        /* \"@openzeppelin/contracts@4.7.3/token/ERC20/extensions/ERC20Burnable.sol\":1049:1095  _spendAllowance(account, _msgSender(), amount) */\n      tag_168\n        /* \"@openzeppelin/contracts@4.7.3/token/ERC20/extensions/ERC20Burnable.sol\":1065:1072  account */\n      dup3\n        /* \"@openzeppelin/contracts@4.7.3/token/ERC20/extensions/ERC20Burnable.sol\":1074:1086  _msgSender() */\n      tag_169\n        /* \"@openzeppelin/contracts@4.7.3/token/ERC20/extensions/ERC20Burnable.sol\":1074:1084  _msgSender */\n      tag_125\n        /* \"@openzeppelin/contracts@4.7.3/token/ERC20/extensions/ERC20Burnable.sol\":1074:1086  _msgSender() */\n      jump\t// in\n    tag_169:\n        /* \"@openzeppelin/contracts@4.7.3/token/ERC20/extensions/ERC20Burnable.sol\":1088:1094  amount */\n      dup4\n        /* \"@openzeppelin/contracts@4.7.3/token/ERC20/extensions/ERC20Burnable.sol\":1049:1064  _spendAllowance */\n      tag_132\n        /* \"@openzeppelin/contracts@4.7.3/token/ERC20/extensions/ERC20Burnable.sol\":1049:1095  _spendAllowance(account, _msgSender(), amount) */\n      jump\t// in\n    tag_168:\n        /* \"@openzeppelin/contracts@4.7.3/token/ERC20/extensions/ERC20Burnable.sol\":1105:1127  _burn(account, amount) */\n      tag_170\n        /* \"@openzeppelin/contracts@4.7.3/token/ERC20/extensions/ERC20Burnable.sol\":1111:1118  account */\n      dup3\n        /* \"@openzeppelin/contracts@4.7.3/token/ERC20/extensions/ERC20Burnable.sol\":1120:1126  amount */\n      dup3\n        /* \"@openzeppelin/contracts@4.7.3/token/ERC20/extensions/ERC20Burnable.sol\":1105:1110  _burn */\n      tag_159\n        /* \"@openzeppelin/contracts@4.7.3/token/ERC20/extensions/ERC20Burnable.sol\":1105:1127  _burn(account, amount) */\n      jump\t// in\n    tag_170:\n        /* \"@openzeppelin/contracts@4.7.3/token/ERC20/extensions/ERC20Burnable.sol\":973:1134  function burnFrom(address account, uint256 amount) public virtual {... */\n      pop\n      pop\n      jump\t// out\n        /* \"@openzeppelin/contracts@4.7.3/token/ERC20/extensions/draft-ERC20Permit.sol\":2635:2761  function nonces(address owner) public view virtual override returns (uint256) {... */\n    tag_84:\n        /* \"@openzeppelin/contracts@4.7.3/token/ERC20/extensions/draft-ERC20Permit.sol\":2704:2711  uint256 */\n      0x00\n        /* \"@openzeppelin/contracts@4.7.3/token/ERC20/extensions/draft-ERC20Permit.sol\":2730:2754  _nonces[owner].current() */\n      tag_172\n        /* \"@openzeppelin/contracts@4.7.3/token/ERC20/extensions/draft-ERC20Permit.sol\":2730:2737  _nonces */\n      0x06\n        /* \"@openzeppelin/contracts@4.7.3/token/ERC20/extensions/draft-ERC20Permit.sol\":2730:2744  _nonces[owner] */\n      0x00\n        /* \"@openzeppelin/contracts@4.7.3/token/ERC20/extensions/draft-ERC20Permit.sol\":2738:2743  owner */\n      dup5\n        /* \"@openzeppelin/contracts@4.7.3/token/ERC20/extensions/draft-ERC20Permit.sol\":2730:2744  _nonces[owner] */\n      0xffffffffffffffffffffffffffffffffffffffff\n      and\n      0xffffffffffffffffffffffffffffffffffffffff\n      and\n      dup2\n      mstore\n      0x20\n      add\n      swap1\n      dup2\n      mstore\n      0x20\n      add\n      0x00\n      keccak256\n        /* \"@openzeppelin/contracts@4.7.3/token/ERC20/extensions/draft-ERC20Permit.sol\":2730:2752  _nonces[owner].current */\n      tag_173\n        /* \"@openzeppelin/contracts@4.7.3/token/ERC20/extensions/draft-ERC20Permit.sol\":2730:2754  _nonces[owner].current() */\n      jump\t// in\n    tag_172:\n        /* \"@openzeppelin/contracts@4.7.3/token/ERC20/extensions/draft-ERC20Permit.sol\":2723:2754  return _nonces[owner].current() */\n      swap1\n      pop\n        /* \"@openzeppelin/contracts@4.7.3/token/ERC20/extensions/draft-ERC20Permit.sol\":2635:2761  function nonces(address owner) public view virtual override returns (uint256) {... */\n      swap2\n      swap1\n      pop\n      jump\t// out\n        /* \"contract-526c5b12e7.sol\":613:672  function pause() public onlyOwner {... */\n    tag_87:\n        /* \"@openzeppelin/contracts@4.7.3/access/Ownable.sol\":1094:1107  _checkOwner() */\n      tag_175\n        /* \"@openzeppelin/contracts@4.7.3/access/Ownable.sol\":1094:1105  _checkOwner */\n      tag_147\n        /* \"@openzeppelin/contracts@4.7.3/access/Ownable.sol\":1094:1107  _checkOwner() */\n      jump\t// in\n    tag_175:\n        /* \"contract-526c5b12e7.sol\":657:665  _pause() */\n      tag_177\n        /* \"contract-526c5b12e7.sol\":657:663  _pause */\n      tag_178\n        /* \"contract-526c5b12e7.sol\":657:665  _pause() */\n      jump\t// in\n    tag_177:\n        /* \"contract-526c5b12e7.sol\":613:672  function pause() public onlyOwner {... */\n      jump\t// out\n        /* \"@openzeppelin/contracts@4.7.3/access/Ownable.sol\":1201:1286  function owner() public view virtual returns (address) {... */\n    tag_89:\n        /* \"@openzeppelin/contracts@4.7.3/access/Ownable.sol\":1247:1254  address */\n      0x00\n        /* \"@openzeppelin/contracts@4.7.3/access/Ownable.sol\":1273:1279  _owner */\n      0x05\n      0x01\n      swap1\n      sload\n      swap1\n      0x0100\n      exp\n      swap1\n      div\n      0xffffffffffffffffffffffffffffffffffffffff\n      and\n        /* \"@openzeppelin/contracts@4.7.3/access/Ownable.sol\":1266:1279  return _owner */\n      swap1\n      pop\n        /* \"@openzeppelin/contracts@4.7.3/access/Ownable.sol\":1201:1286  function owner() public view virtual returns (address) {... */\n      swap1\n      jump\t// out\n        /* \"@openzeppelin/contracts@4.7.3/token/ERC20/ERC20.sol\":2367:2469  function symbol() public view virtual override returns (string memory) {... */\n    tag_93:\n        /* \"@openzeppelin/contracts@4.7.3/token/ERC20/ERC20.sol\":2423:2436  string memory */\n      0x60\n        /* \"@openzeppelin/contracts@4.7.3/token/ERC20/ERC20.sol\":2455:2462  _symbol */\n      0x04\n        /* \"@openzeppelin/contracts@4.7.3/token/ERC20/ERC20.sol\":2448:2462  return _symbol */\n      dup1\n      sload\n      tag_181\n      swap1\n      tag_118\n      jump\t// in\n    tag_181:\n      dup1\n      0x1f\n      add\n      0x20\n      dup1\n      swap2\n      div\n      mul\n      0x20\n      add\n      mload(0x40)\n      swap1\n      dup2\n      add\n      0x40\n      mstore\n      dup1\n      swap3\n      swap2\n      swap1\n      dup2\n      dup2\n      mstore\n      0x20\n      add\n      dup3\n      dup1\n      sload\n      tag_182\n      swap1\n      tag_118\n      jump\t// in\n    tag_182:\n      dup1\n      iszero\n      tag_183\n      jumpi\n      dup1\n      0x1f\n      lt\n      tag_184\n      jumpi\n      0x0100\n      dup1\n      dup4\n      sload\n      div\n      mul\n      dup4\n      mstore\n      swap2\n      0x20\n      add\n      swap2\n      jump(tag_183)\n    tag_184:\n      dup3\n      add\n      swap2\n      swap1\n      0x00\n      mstore\n      keccak256(0x00, 0x20)\n      swap1\n    tag_185:\n      dup2\n      sload\n      dup2\n      mstore\n      swap1\n      0x01\n      add\n      swap1\n      0x20\n      add\n      dup1\n      dup4\n      gt\n      tag_185\n      jumpi\n      dup3\n      swap1\n      sub\n      0x1f\n      and\n      dup3\n      add\n      swap2\n    tag_183:\n      pop\n      pop\n      pop\n      pop\n      pop\n      swap1\n      pop\n        /* \"@openzeppelin/contracts@4.7.3/token/ERC20/ERC20.sol\":2367:2469  function symbol() public view virtual override returns (string memory) {... */\n      swap1\n      jump\t// out\n        /* \"@openzeppelin/contracts@4.7.3/token/ERC20/ERC20.sol\":6594:7021  function decreaseAllowance(address spender, uint256 subtractedValue) public virtual returns (bool) {... */\n    tag_97:\n        /* \"@openzeppelin/contracts@4.7.3/token/ERC20/ERC20.sol\":6687:6691  bool */\n      0x00\n        /* \"@openzeppelin/contracts@4.7.3/token/ERC20/ERC20.sol\":6703:6716  address owner */\n      dup1\n        /* \"@openzeppelin/contracts@4.7.3/token/ERC20/ERC20.sol\":6719:6731  _msgSender() */\n      tag_187\n        /* \"@openzeppelin/contracts@4.7.3/token/ERC20/ERC20.sol\":6719:6729  _msgSender */\n      tag_125\n        /* \"@openzeppelin/contracts@4.7.3/token/ERC20/ERC20.sol\":6719:6731  _msgSender() */\n      jump\t// in\n    tag_187:\n        /* \"@openzeppelin/contracts@4.7.3/token/ERC20/ERC20.sol\":6703:6731  address owner = _msgSender() */\n      swap1\n      pop\n        /* \"@openzeppelin/contracts@4.7.3/token/ERC20/ERC20.sol\":6741:6765  uint256 currentAllowance */\n      0x00\n        /* \"@openzeppelin/contracts@4.7.3/token/ERC20/ERC20.sol\":6768:6793  allowance(owner, spender) */\n      tag_188\n        /* \"@openzeppelin/contracts@4.7.3/token/ERC20/ERC20.sol\":6778:6783  owner */\n      dup3\n        /* \"@openzeppelin/contracts@4.7.3/token/ERC20/ERC20.sol\":6785:6792  spender */\n      dup7\n        /* \"@openzeppelin/contracts@4.7.3/token/ERC20/ERC20.sol\":6768:6777  allowance */\n      tag_110\n        /* \"@openzeppelin/contracts@4.7.3/token/ERC20/ERC20.sol\":6768:6793  allowance(owner, spender) */\n      jump\t// in\n    tag_188:\n        /* \"@openzeppelin/contracts@4.7.3/token/ERC20/ERC20.sol\":6741:6793  uint256 currentAllowance = allowance(owner, spender) */\n      swap1\n      pop\n        /* \"@openzeppelin/contracts@4.7.3/token/ERC20/ERC20.sol\":6831:6846  subtractedValue */\n      dup4\n        /* \"@openzeppelin/contracts@4.7.3/token/ERC20/ERC20.sol\":6811:6827  currentAllowance */\n      dup2\n        /* \"@openzeppelin/contracts@4.7.3/token/ERC20/ERC20.sol\":6811:6846  currentAllowance >= subtractedValue */\n      lt\n      iszero\n        /* \"@openzeppelin/contracts@4.7.3/token/ERC20/ERC20.sol\":6803:6888  require(currentAllowance >= subtractedValue, \"ERC20: decreased allowance below zero\") */\n      tag_189\n      jumpi\n      mload(0x40)\n      0x08c379a000000000000000000000000000000000000000000000000000000000\n      dup2\n      mstore\n      0x04\n      add\n      tag_190\n      swap1\n      tag_191\n      jump\t// in\n    tag_190:\n      mload(0x40)\n      dup1\n      swap2\n      sub\n      swap1\n      revert\n    tag_189:\n        /* \"@openzeppelin/contracts@4.7.3/token/ERC20/ERC20.sol\":6922:6982  _approve(owner, spender, currentAllowance - subtractedValue) */\n      tag_192\n        /* \"@openzeppelin/contracts@4.7.3/token/ERC20/ERC20.sol\":6931:6936  owner */\n      dup3\n        /* \"@openzeppelin/contracts@4.7.3/token/ERC20/ERC20.sol\":6938:6945  spender */\n      dup7\n        /* \"@openzeppelin/contracts@4.7.3/token/ERC20/ERC20.sol\":6966:6981  subtractedValue */\n      dup7\n        /* \"@openzeppelin/contracts@4.7.3/token/ERC20/ERC20.sol\":6947:6963  currentAllowance */\n      dup5\n        /* \"@openzeppelin/contracts@4.7.3/token/ERC20/ERC20.sol\":6947:6981  currentAllowance - subtractedValue */\n      sub\n        /* \"@openzeppelin/contracts@4.7.3/token/ERC20/ERC20.sol\":6922:6930  _approve */\n      tag_127\n        /* \"@openzeppelin/contracts@4.7.3/token/ERC20/ERC20.sol\":6922:6982  _approve(owner, spender, currentAllowance - subtractedValue) */\n      jump\t// in\n    tag_192:\n        /* \"@openzeppelin/contracts@4.7.3/token/ERC20/ERC20.sol\":7010:7014  true */\n      0x01\n        /* \"@openzeppelin/contracts@4.7.3/token/ERC20/ERC20.sol\":7003:7014  return true */\n      swap3\n      pop\n      pop\n      pop\n        /* \"@openzeppelin/contracts@4.7.3/token/ERC20/ERC20.sol\":6594:7021  function decreaseAllowance(address spender, uint256 subtractedValue) public virtual returns (bool) {... */\n      swap3\n      swap2\n      pop\n      pop\n      jump\t// out\n        /* \"@openzeppelin/contracts@4.7.3/token/ERC20/ERC20.sol\":3729:3918  function transfer(address to, uint256 amount) public virtual override returns (bool) {... */\n    tag_101:\n        /* \"@openzeppelin/contracts@4.7.3/token/ERC20/ERC20.sol\":3808:3812  bool */\n      0x00\n        /* \"@openzeppelin/contracts@4.7.3/token/ERC20/ERC20.sol\":3824:3837  address owner */\n      dup1\n        /* \"@openzeppelin/contracts@4.7.3/token/ERC20/ERC20.sol\":3840:3852  _msgSender() */\n      tag_194\n        /* \"@openzeppelin/contracts@4.7.3/token/ERC20/ERC20.sol\":3840:3850  _msgSender */\n      tag_125\n        /* \"@openzeppelin/contracts@4.7.3/token/ERC20/ERC20.sol\":3840:3852  _msgSender() */\n      jump\t// in\n    tag_194:\n        /* \"@openzeppelin/contracts@4.7.3/token/ERC20/ERC20.sol\":3824:3852  address owner = _msgSender() */\n      swap1\n      pop\n        /* \"@openzeppelin/contracts@4.7.3/token/ERC20/ERC20.sol\":3862:3890  _transfer(owner, to, amount) */\n      tag_195\n        /* \"@openzeppelin/contracts@4.7.3/token/ERC20/ERC20.sol\":3872:3877  owner */\n      dup2\n        /* \"@openzeppelin/contracts@4.7.3/token/ERC20/ERC20.sol\":3879:3881  to */\n      dup6\n        /* \"@openzeppelin/contracts@4.7.3/token/ERC20/ERC20.sol\":3883:3889  amount */\n      dup6\n        /* \"@openzeppelin/contracts@4.7.3/token/ERC20/ERC20.sol\":3862:3871  _transfer */\n      tag_134\n        /* \"@openzeppelin/contracts@4.7.3/token/ERC20/ERC20.sol\":3862:3890  _transfer(owner, to, amount) */\n      jump\t// in\n    tag_195:\n        /* \"@openzeppelin/contracts@4.7.3/token/ERC20/ERC20.sol\":3907:3911  true */\n      0x01\n        /* \"@openzeppelin/contracts@4.7.3/token/ERC20/ERC20.sol\":3900:3911  return true */\n      swap2\n      pop\n      pop\n        /* \"@openzeppelin/contracts@4.7.3/token/ERC20/ERC20.sol\":3729:3918  function transfer(address to, uint256 amount) public virtual override returns (bool) {... */\n      swap3\n      swap2\n      pop\n      pop\n      jump\t// out\n        /* \"@openzeppelin/contracts@4.7.3/token/ERC20/extensions/draft-ERC20Permit.sol\":1948:2574  function permit(... */\n    tag_106:\n        /* \"@openzeppelin/contracts@4.7.3/token/ERC20/extensions/draft-ERC20Permit.sol\":2183:2191  deadline */\n      dup4\n        /* \"@openzeppelin/contracts@4.7.3/token/ERC20/extensions/draft-ERC20Permit.sol\":2164:2179  block.timestamp */\n      timestamp\n        /* \"@openzeppelin/contracts@4.7.3/token/ERC20/extensions/draft-ERC20Permit.sol\":2164:2191  block.timestamp <= deadline */\n      gt\n      iszero\n        /* \"@openzeppelin/contracts@4.7.3/token/ERC20/extensions/draft-ERC20Permit.sol\":2156:2225  require(block.timestamp <= deadline, \"ERC20Permit: expired deadline\") */\n      tag_197\n      jumpi\n      mload(0x40)\n      0x08c379a000000000000000000000000000000000000000000000000000000000\n      dup2\n      mstore\n      0x04\n      add\n      tag_198\n      swap1\n      tag_199\n      jump\t// in\n    tag_198:\n      mload(0x40)\n      dup1\n      swap2\n      sub\n      swap1\n      revert\n    tag_197:\n        /* \"@openzeppelin/contracts@4.7.3/token/ERC20/extensions/draft-ERC20Permit.sol\":2236:2254  bytes32 structHash */\n      0x00\n        /* \"@openzeppelin/contracts@4.7.3/token/ERC20/extensions/draft-ERC20Permit.sol\":1143:1238  keccak256(\"Permit(address owner,address spender,uint256 value,uint256 nonce,uint256 deadline)\") */\n      0x6e71edae12b1b97f4d1f60370fef10105fa2faae0126114a169c64845d6126c9\n        /* \"@openzeppelin/contracts@4.7.3/token/ERC20/extensions/draft-ERC20Permit.sol\":2296:2301  owner */\n      dup9\n        /* \"@openzeppelin/contracts@4.7.3/token/ERC20/extensions/draft-ERC20Permit.sol\":2303:2310  spender */\n      dup9\n        /* \"@openzeppelin/contracts@4.7.3/token/ERC20/extensions/draft-ERC20Permit.sol\":2312:2317  value */\n      dup9\n        /* \"@openzeppelin/contracts@4.7.3/token/ERC20/extensions/draft-ERC20Permit.sol\":2319:2335  _useNonce(owner) */\n      tag_200\n        /* \"@openzeppelin/contracts@4.7.3/token/ERC20/extensions/draft-ERC20Permit.sol\":2329:2334  owner */\n      dup13\n        /* \"@openzeppelin/contracts@4.7.3/token/ERC20/extensions/draft-ERC20Permit.sol\":2319:2328  _useNonce */\n      tag_201\n        /* \"@openzeppelin/contracts@4.7.3/token/ERC20/extensions/draft-ERC20Permit.sol\":2319:2335  _useNonce(owner) */\n      jump\t// in\n    tag_200:\n        /* \"@openzeppelin/contracts@4.7.3/token/ERC20/extensions/draft-ERC20Permit.sol\":2337:2345  deadline */\n      dup10\n        /* \"@openzeppelin/contracts@4.7.3/token/ERC20/extensions/draft-ERC20Permit.sol\":2267:2346  abi.encode(_PERMIT_TYPEHASH, owner, spender, value, _useNonce(owner), deadline) */\n      add(0x20, mload(0x40))\n      tag_202\n      swap7\n      swap6\n      swap5\n      swap4\n      swap3\n      swap2\n      swap1\n      tag_203\n      jump\t// in\n    tag_202:\n      mload(0x40)\n      0x20\n      dup2\n      dup4\n      sub\n      sub\n      dup2\n      mstore\n      swap1\n      0x40\n      mstore\n        /* \"@openzeppelin/contracts@4.7.3/token/ERC20/extensions/draft-ERC20Permit.sol\":2257:2347  keccak256(abi.encode(_PERMIT_TYPEHASH, owner, spender, value, _useNonce(owner), deadline)) */\n      dup1\n      mload\n      swap1\n      0x20\n      add\n      keccak256\n        /* \"@openzeppelin/contracts@4.7.3/token/ERC20/extensions/draft-ERC20Permit.sol\":2236:2347  bytes32 structHash = keccak256(abi.encode(_PERMIT_TYPEHASH, owner, spender, value, _useNonce(owner), deadline)) */\n      swap1\n      pop\n        /* \"@openzeppelin/contracts@4.7.3/token/ERC20/extensions/draft-ERC20Permit.sol\":2358:2370  bytes32 hash */\n      0x00\n        /* \"@openzeppelin/contracts@4.7.3/token/ERC20/extensions/draft-ERC20Permit.sol\":2373:2401  _hashTypedDataV4(structHash) */\n      tag_204\n        /* \"@openzeppelin/contracts@4.7.3/token/ERC20/extensions/draft-ERC20Permit.sol\":2390:2400  structHash */\n      dup3\n        /* \"@openzeppelin/contracts@4.7.3/token/ERC20/extensions/draft-ERC20Permit.sol\":2373:2389  _hashTypedDataV4 */\n      tag_205\n        /* \"@openzeppelin/contracts@4.7.3/token/ERC20/extensions/draft-ERC20Permit.sol\":2373:2401  _hashTypedDataV4(structHash) */\n      jump\t// in\n    tag_204:\n        /* \"@openzeppelin/contracts@4.7.3/token/ERC20/extensions/draft-ERC20Permit.sol\":2358:2401  bytes32 hash = _hashTypedDataV4(structHash) */\n      swap1\n      pop\n        /* \"@openzeppelin/contracts@4.7.3/token/ERC20/extensions/draft-ERC20Permit.sol\":2412:2426  address signer */\n      0x00\n        /* \"@openzeppelin/contracts@4.7.3/token/ERC20/extensions/draft-ERC20Permit.sol\":2429:2457  ECDSA.recover(hash, v, r, s) */\n      tag_206\n        /* \"@openzeppelin/contracts@4.7.3/token/ERC20/extensions/draft-ERC20Permit.sol\":2443:2447  hash */\n      dup3\n        /* \"@openzeppelin/contracts@4.7.3/token/ERC20/extensions/draft-ERC20Permit.sol\":2449:2450  v */\n      dup8\n        /* \"@openzeppelin/contracts@4.7.3/token/ERC20/extensions/draft-ERC20Permit.sol\":2452:2453  r */\n      dup8\n        /* \"@openzeppelin/contracts@4.7.3/token/ERC20/extensions/draft-ERC20Permit.sol\":2455:2456  s */\n      dup8\n        /* \"@openzeppelin/contracts@4.7.3/token/ERC20/extensions/draft-ERC20Permit.sol\":2429:2442  ECDSA.recover */\n      tag_207\n        /* \"@openzeppelin/contracts@4.7.3/token/ERC20/extensions/draft-ERC20Permit.sol\":2429:2457  ECDSA.recover(hash, v, r, s) */\n      jump\t// in\n    tag_206:\n        /* \"@openzeppelin/contracts@4.7.3/token/ERC20/extensions/draft-ERC20Permit.sol\":2412:2457  address signer = ECDSA.recover(hash, v, r, s) */\n      swap1\n      pop\n        /* \"@openzeppelin/contracts@4.7.3/token/ERC20/extensions/draft-ERC20Permit.sol\":2485:2490  owner */\n      dup10\n        /* \"@openzeppelin/contracts@4.7.3/token/ERC20/extensions/draft-ERC20Permit.sol\":2475:2490  signer == owner */\n      0xffffffffffffffffffffffffffffffffffffffff\n      and\n        /* \"@openzeppelin/contracts@4.7.3/token/ERC20/extensions/draft-ERC20Permit.sol\":2475:2481  signer */\n      dup2\n        /* \"@openzeppelin/contracts@4.7.3/token/ERC20/extensions/draft-ERC20Permit.sol\":2475:2490  signer == owner */\n      0xffffffffffffffffffffffffffffffffffffffff\n      and\n      eq\n        /* \"@openzeppelin/contracts@4.7.3/token/ERC20/extensions/draft-ERC20Permit.sol\":2467:2525  require(signer == owner, \"ERC20Permit: invalid signature\") */\n      tag_208\n      jumpi\n      mload(0x40)\n      0x08c379a000000000000000000000000000000000000000000000000000000000\n      dup2\n      mstore\n      0x04\n      add\n      tag_209\n      swap1\n      tag_210\n      jump\t// in\n    tag_209:\n      mload(0x40)\n      dup1\n      swap2\n      sub\n      swap1\n      revert\n    tag_208:\n        /* \"@openzeppelin/contracts@4.7.3/token/ERC20/extensions/draft-ERC20Permit.sol\":2536:2567  _approve(owner, spender, value) */\n      tag_211\n        /* \"@openzeppelin/contracts@4.7.3/token/ERC20/extensions/draft-ERC20Permit.sol\":2545:2550  owner */\n      dup11\n        /* \"@openzeppelin/contracts@4.7.3/token/ERC20/extensions/draft-ERC20Permit.sol\":2552:2559  spender */\n      dup11\n        /* \"@openzeppelin/contracts@4.7.3/token/ERC20/extensions/draft-ERC20Permit.sol\":2561:2566  value */\n      dup11\n        /* \"@openzeppelin/contracts@4.7.3/token/ERC20/extensions/draft-ERC20Permit.sol\":2536:2544  _approve */\n      tag_127\n        /* \"@openzeppelin/contracts@4.7.3/token/ERC20/extensions/draft-ERC20Permit.sol\":2536:2567  _approve(owner, spender, value) */\n      jump\t// in\n    tag_211:\n        /* \"@openzeppelin/contracts@4.7.3/token/ERC20/extensions/draft-ERC20Permit.sol\":1948:2574  function permit(... */\n      pop\n      pop\n      pop\n      pop\n      pop\n      pop\n      pop\n      pop\n      pop\n      pop\n      jump\t// out\n        /* \"@openzeppelin/contracts@4.7.3/token/ERC20/ERC20.sol\":3976:4125  function allowance(address owner, address spender) public view virtual override returns (uint256) {... */\n    tag_110:\n        /* \"@openzeppelin/contracts@4.7.3/token/ERC20/ERC20.sol\":4065:4072  uint256 */\n      0x00\n        /* \"@openzeppelin/contracts@4.7.3/token/ERC20/ERC20.sol\":4091:4102  _allowances */\n      0x01\n        /* \"@openzeppelin/contracts@4.7.3/token/ERC20/ERC20.sol\":4091:4109  _allowances[owner] */\n      0x00\n        /* \"@openzeppelin/contracts@4.7.3/token/ERC20/ERC20.sol\":4103:4108  owner */\n      dup5\n        /* \"@openzeppelin/contracts@4.7.3/token/ERC20/ERC20.sol\":4091:4109  _allowances[owner] */\n      0xffffffffffffffffffffffffffffffffffffffff\n      and\n      0xffffffffffffffffffffffffffffffffffffffff\n      and\n      dup2\n      mstore\n      0x20\n      add\n      swap1\n      dup2\n      mstore\n      0x20\n      add\n      0x00\n      keccak256\n        /* \"@openzeppelin/contracts@4.7.3/token/ERC20/ERC20.sol\":4091:4118  _allowances[owner][spender] */\n      0x00\n        /* \"@openzeppelin/contracts@4.7.3/token/ERC20/ERC20.sol\":4110:4117  spender */\n      dup4\n        /* \"@openzeppelin/contracts@4.7.3/token/ERC20/ERC20.sol\":4091:4118  _allowances[owner][spender] */\n      0xffffffffffffffffffffffffffffffffffffffff\n      and\n      0xffffffffffffffffffffffffffffffffffffffff\n      and\n      dup2\n      mstore\n      0x20\n      add\n      swap1\n      dup2\n      mstore\n      0x20\n      add\n      0x00\n      keccak256\n      sload\n        /* \"@openzeppelin/contracts@4.7.3/token/ERC20/ERC20.sol\":4084:4118  return _allowances[owner][spender] */\n      swap1\n      pop\n        /* \"@openzeppelin/contracts@4.7.3/token/ERC20/ERC20.sol\":3976:4125  function allowance(address owner, address spender) public view virtual override returns (uint256) {... */\n      swap3\n      swap2\n      pop\n      pop\n      jump\t// out\n        /* \"@openzeppelin/contracts@4.7.3/access/Ownable.sol\":2081:2279  function transferOwnership(address newOwner) public virtual onlyOwner {... */\n    tag_114:\n        /* \"@openzeppelin/contracts@4.7.3/access/Ownable.sol\":1094:1107  _checkOwner() */\n      tag_214\n        /* \"@openzeppelin/contracts@4.7.3/access/Ownable.sol\":1094:1105  _checkOwner */\n      tag_147\n        /* \"@openzeppelin/contracts@4.7.3/access/Ownable.sol\":1094:1107  _checkOwner() */\n      jump\t// in\n    tag_214:\n        /* \"@openzeppelin/contracts@4.7.3/access/Ownable.sol\":2189:2190  0 */\n      0x00\n        /* \"@openzeppelin/contracts@4.7.3/access/Ownable.sol\":2169:2191  newOwner != address(0) */\n      0xffffffffffffffffffffffffffffffffffffffff\n      and\n        /* \"@openzeppelin/contracts@4.7.3/access/Ownable.sol\":2169:2177  newOwner */\n      dup2\n        /* \"@openzeppelin/contracts@4.7.3/access/Ownable.sol\":2169:2191  newOwner != address(0) */\n      0xffffffffffffffffffffffffffffffffffffffff\n      and\n      eq\n      iszero\n        /* \"@openzeppelin/contracts@4.7.3/access/Ownable.sol\":2161:2234  require(newOwner != address(0), \"Ownable: new owner is the zero address\") */\n      tag_216\n      jumpi\n      mload(0x40)\n      0x08c379a000000000000000000000000000000000000000000000000000000000\n      dup2\n      mstore\n      0x04\n      add\n      tag_217\n      swap1\n      tag_218\n      jump\t// in\n    tag_217:\n      mload(0x40)\n      dup1\n      swap2\n      sub\n      swap1\n      revert\n    tag_216:\n        /* \"@openzeppelin/contracts@4.7.3/access/Ownable.sol\":2244:2272  _transferOwnership(newOwner) */\n      tag_219\n        /* \"@openzeppelin/contracts@4.7.3/access/Ownable.sol\":2263:2271  newOwner */\n      dup2\n        /* \"@openzeppelin/contracts@4.7.3/access/Ownable.sol\":2244:2262  _transferOwnership */\n      tag_166\n        /* \"@openzeppelin/contracts@4.7.3/access/Ownable.sol\":2244:2272  _transferOwnership(newOwner) */\n      jump\t// in\n    tag_219:\n        /* \"@openzeppelin/contracts@4.7.3/access/Ownable.sol\":2081:2279  function transferOwnership(address newOwner) public virtual onlyOwner {... */\n      pop\n      jump\t// out\n        /* \"@openzeppelin/contracts@4.7.3/token/ERC20/ERC20.sol\":11786:11907  function _beforeTokenTransfer(... */\n    tag_115:\n      pop\n      pop\n      pop\n      jump\t// out\n        /* \"@openzeppelin/contracts@4.7.3/utils/Context.sol\":640:736  function _msgSender() internal view virtual returns (address) {... */\n    tag_125:\n        /* \"@openzeppelin/contracts@4.7.3/utils/Context.sol\":693:700  address */\n      0x00\n        /* \"@openzeppelin/contracts@4.7.3/utils/Context.sol\":719:729  msg.sender */\n      caller\n        /* \"@openzeppelin/contracts@4.7.3/utils/Context.sol\":712:729  return msg.sender */\n      swap1\n      pop\n        /* \"@openzeppelin/contracts@4.7.3/utils/Context.sol\":640:736  function _msgSender() internal view virtual returns (address) {... */\n      swap1\n      jump\t// out\n        /* \"@openzeppelin/contracts@4.7.3/token/ERC20/ERC20.sol\":10110:10480  function _approve(... */\n    tag_127:\n        /* \"@openzeppelin/contracts@4.7.3/token/ERC20/ERC20.sol\":10258:10259  0 */\n      0x00\n        /* \"@openzeppelin/contracts@4.7.3/token/ERC20/ERC20.sol\":10241:10260  owner != address(0) */\n      0xffffffffffffffffffffffffffffffffffffffff\n      and\n        /* \"@openzeppelin/contracts@4.7.3/token/ERC20/ERC20.sol\":10241:10246  owner */\n      dup4\n        /* \"@openzeppelin/contracts@4.7.3/token/ERC20/ERC20.sol\":10241:10260  owner != address(0) */\n      0xffffffffffffffffffffffffffffffffffffffff\n      and\n      eq\n      iszero\n        /* \"@openzeppelin/contracts@4.7.3/token/ERC20/ERC20.sol\":10233:10301  require(owner != address(0), \"ERC20: approve from the zero address\") */\n      tag_223\n      jumpi\n      mload(0x40)\n      0x08c379a000000000000000000000000000000000000000000000000000000000\n      dup2\n      mstore\n      0x04\n      add\n      tag_224\n      swap1\n      tag_225\n      jump\t// in\n    tag_224:\n      mload(0x40)\n      dup1\n      swap2\n      sub\n      swap1\n      revert\n    tag_223:\n        /* \"@openzeppelin/contracts@4.7.3/token/ERC20/ERC20.sol\":10338:10339  0 */\n      0x00\n        /* \"@openzeppelin/contracts@4.7.3/token/ERC20/ERC20.sol\":10319:10340  spender != address(0) */\n      0xffffffffffffffffffffffffffffffffffffffff\n      and\n        /* \"@openzeppelin/contracts@4.7.3/token/ERC20/ERC20.sol\":10319:10326  spender */\n      dup3\n        /* \"@openzeppelin/contracts@4.7.3/token/ERC20/ERC20.sol\":10319:10340  spender != address(0) */\n      0xffffffffffffffffffffffffffffffffffffffff\n      and\n      eq\n      iszero\n        /* \"@openzeppelin/contracts@4.7.3/token/ERC20/ERC20.sol\":10311:10379  require(spender != address(0), \"ERC20: approve to the zero address\") */\n      tag_226\n      jumpi\n      mload(0x40)\n      0x08c379a000000000000000000000000000000000000000000000000000000000\n      dup2\n      mstore\n      0x04\n      add\n      tag_227\n      swap1\n      tag_228\n      jump\t// in\n    tag_227:\n      mload(0x40)\n      dup1\n      swap2\n      sub\n      swap1\n      revert\n    tag_226:\n        /* \"@openzeppelin/contracts@4.7.3/token/ERC20/ERC20.sol\":10420:10426  amount */\n      dup1\n        /* \"@openzeppelin/contracts@4.7.3/token/ERC20/ERC20.sol\":10390:10401  _allowances */\n      0x01\n        /* \"@openzeppelin/contracts@4.7.3/token/ERC20/ERC20.sol\":10390:10408  _allowances[owner] */\n      0x00\n        /* \"@openzeppelin/contracts@4.7.3/token/ERC20/ERC20.sol\":10402:10407  owner */\n      dup6\n        /* \"@openzeppelin/contracts@4.7.3/token/ERC20/ERC20.sol\":10390:10408  _allowances[owner] */\n      0xffffffffffffffffffffffffffffffffffffffff\n      and\n      0xffffffffffffffffffffffffffffffffffffffff\n      and\n      dup2\n      mstore\n      0x20\n      add\n      swap1\n      dup2\n      mstore\n      0x20\n      add\n      0x00\n      keccak256\n        /* \"@openzeppelin/contracts@4.7.3/token/ERC20/ERC20.sol\":10390:10417  _allowances[owner][spender] */\n      0x00\n        /* \"@openzeppelin/contracts@4.7.3/token/ERC20/ERC20.sol\":10409:10416  spender */\n      dup5\n        /* \"@openzeppelin/contracts@4.7.3/token/ERC20/ERC20.sol\":10390:10417  _allowances[owner][spender] */\n      0xffffffffffffffffffffffffffffffffffffffff\n      and\n      0xffffffffffffffffffffffffffffffffffffffff\n      and\n      dup2\n      mstore\n      0x20\n      add\n      swap1\n      dup2\n      mstore\n      0x20\n      add\n      0x00\n      keccak256\n        /* \"@openzeppelin/contracts@4.7.3/token/ERC20/ERC20.sol\":10390:10426  _allowances[owner][spender] = amount */\n      dup2\n      swap1\n      sstore\n      pop\n        /* \"@openzeppelin/contracts@4.7.3/token/ERC20/ERC20.sol\":10457:10464  spender */\n      dup2\n        /* \"@openzeppelin/contracts@4.7.3/token/ERC20/ERC20.sol\":10441:10473  Approval(owner, spender, amount) */\n      0xffffffffffffffffffffffffffffffffffffffff\n      and\n        /* \"@openzeppelin/contracts@4.7.3/token/ERC20/ERC20.sol\":10450:10455  owner */\n      dup4\n        /* \"@openzeppelin/contracts@4.7.3/token/ERC20/ERC20.sol\":10441:10473  Approval(owner, spender, amount) */\n      0xffffffffffffffffffffffffffffffffffffffff\n      and\n      0x8c5be1e5ebec7d5bd14f71427d1e84f3dd0314c0f7b2291e5b200ac8c7c3b925\n        /* \"@openzeppelin/contracts@4.7.3/token/ERC20/ERC20.sol\":10466:10472  amount */\n      dup4\n        /* \"@openzeppelin/contracts@4.7.3/token/ERC20/ERC20.sol\":10441:10473  Approval(owner, spender, amount) */\n      mload(0x40)\n      tag_229\n      swap2\n      swap1\n      tag_42\n      jump\t// in\n    tag_229:\n      mload(0x40)\n      dup1\n      swap2\n      sub\n      swap1\n      log3\n        /* \"@openzeppelin/contracts@4.7.3/token/ERC20/ERC20.sol\":10110:10480  function _approve(... */\n      pop\n      pop\n      pop\n      jump\t// out\n        /* \"@openzeppelin/contracts@4.7.3/token/ERC20/ERC20.sol\":10761:11202  function _spendAllowance(... */\n    tag_132:\n        /* \"@openzeppelin/contracts@4.7.3/token/ERC20/ERC20.sol\":10891:10915  uint256 currentAllowance */\n      0x00\n        /* \"@openzeppelin/contracts@4.7.3/token/ERC20/ERC20.sol\":10918:10943  allowance(owner, spender) */\n      tag_231\n        /* \"@openzeppelin/contracts@4.7.3/token/ERC20/ERC20.sol\":10928:10933  owner */\n      dup5\n        /* \"@openzeppelin/contracts@4.7.3/token/ERC20/ERC20.sol\":10935:10942  spender */\n      dup5\n        /* \"@openzeppelin/contracts@4.7.3/token/ERC20/ERC20.sol\":10918:10927  allowance */\n      tag_110\n        /* \"@openzeppelin/contracts@4.7.3/token/ERC20/ERC20.sol\":10918:10943  allowance(owner, spender) */\n      jump\t// in\n    tag_231:\n        /* \"@openzeppelin/contracts@4.7.3/token/ERC20/ERC20.sol\":10891:10943  uint256 currentAllowance = allowance(owner, spender) */\n      swap1\n      pop\n        /* \"@openzeppelin/contracts@4.7.3/token/ERC20/ERC20.sol\":10977:10994  type(uint256).max */\n      0xffffffffffffffffffffffffffffffffffffffffffffffffffffffffffffffff\n        /* \"@openzeppelin/contracts@4.7.3/token/ERC20/ERC20.sol\":10957:10973  currentAllowance */\n      dup2\n        /* \"@openzeppelin/contracts@4.7.3/token/ERC20/ERC20.sol\":10957:10994  currentAllowance != type(uint256).max */\n      eq\n        /* \"@openzeppelin/contracts@4.7.3/token/ERC20/ERC20.sol\":10953:11196  if (currentAllowance != type(uint256).max) {... */\n      tag_232\n      jumpi\n        /* \"@openzeppelin/contracts@4.7.3/token/ERC20/ERC20.sol\":11038:11044  amount */\n      dup2\n        /* \"@openzeppelin/contracts@4.7.3/token/ERC20/ERC20.sol\":11018:11034  currentAllowance */\n      dup2\n        /* \"@openzeppelin/contracts@4.7.3/token/ERC20/ERC20.sol\":11018:11044  currentAllowance >= amount */\n      lt\n      iszero\n        /* \"@openzeppelin/contracts@4.7.3/token/ERC20/ERC20.sol\":11010:11078  require(currentAllowance >= amount, \"ERC20: insufficient allowance\") */\n      tag_233\n      jumpi\n      mload(0x40)\n      0x08c379a000000000000000000000000000000000000000000000000000000000\n      dup2\n      mstore\n      0x04\n      add\n      tag_234\n      swap1\n      tag_235\n      jump\t// in\n    tag_234:\n      mload(0x40)\n      dup1\n      swap2\n      sub\n      swap1\n      revert\n    tag_233:\n        /* \"@openzeppelin/contracts@4.7.3/token/ERC20/ERC20.sol\":11120:11171  _approve(owner, spender, currentAllowance - amount) */\n      tag_236\n        /* \"@openzeppelin/contracts@4.7.3/token/ERC20/ERC20.sol\":11129:11134  owner */\n      dup5\n        /* \"@openzeppelin/contracts@4.7.3/token/ERC20/ERC20.sol\":11136:11143  spender */\n      dup5\n        /* \"@openzeppelin/contracts@4.7.3/token/ERC20/ERC20.sol\":11164:11170  amount */\n      dup5\n        /* \"@openzeppelin/contracts@4.7.3/token/ERC20/ERC20.sol\":11145:11161  currentAllowance */\n      dup5\n        /* \"@openzeppelin/contracts@4.7.3/token/ERC20/ERC20.sol\":11145:11170  currentAllowance - amount */\n      sub\n        /* \"@openzeppelin/contracts@4.7.3/token/ERC20/ERC20.sol\":11120:11128  _approve */\n      tag_127\n        /* \"@openzeppelin/contracts@4.7.3/token/ERC20/ERC20.sol\":11120:11171  _approve(owner, spender, currentAllowance - amount) */\n      jump\t// in\n    tag_236:\n        /* \"@openzeppelin/contracts@4.7.3/token/ERC20/ERC20.sol\":10953:11196  if (currentAllowance != type(uint256).max) {... */\n    tag_232:\n        /* \"@openzeppelin/contracts@4.7.3/token/ERC20/ERC20.sol\":10761:11202  function _spendAllowance(... */\n      pop\n      pop\n      pop\n      pop\n      jump\t// out\n        /* \"@openzeppelin/contracts@4.7.3/token/ERC20/ERC20.sol\":7475:8126  function _transfer(... */\n    tag_134:\n        /* \"@openzeppelin/contracts@4.7.3/token/ERC20/ERC20.sol\":7617:7618  0 */\n      0x00\n        /* \"@openzeppelin/contracts@4.7.3/token/ERC20/ERC20.sol\":7601:7619  from != address(0) */\n      0xffffffffffffffffffffffffffffffffffffffff\n      and\n        /* \"@openzeppelin/contracts@4.7.3/token/ERC20/ERC20.sol\":7601:7605  from */\n      dup4\n        /* \"@openzeppelin/contracts@4.7.3/token/ERC20/ERC20.sol\":7601:7619  from != address(0) */\n      0xffffffffffffffffffffffffffffffffffffffff\n      and\n      eq\n      iszero\n        /* \"@openzeppelin/contracts@4.7.3/token/ERC20/ERC20.sol\":7593:7661  require(from != address(0), \"ERC20: transfer from the zero address\") */\n      tag_238\n      jumpi\n      mload(0x40)\n      0x08c379a000000000000000000000000000000000000000000000000000000000\n      dup2\n      mstore\n      0x04\n      add\n      tag_239\n      swap1\n      tag_240\n      jump\t// in\n    tag_239:\n      mload(0x40)\n      dup1\n      swap2\n      sub\n      swap1\n      revert\n    tag_238:\n        /* \"@openzeppelin/contracts@4.7.3/token/ERC20/ERC20.sol\":7693:7694  0 */\n      0x00\n        /* \"@openzeppelin/contracts@4.7.3/token/ERC20/ERC20.sol\":7679:7695  to != address(0) */\n      0xffffffffffffffffffffffffffffffffffffffff\n      and\n        /* \"@openzeppelin/contracts@4.7.3/token/ERC20/ERC20.sol\":7679:7681  to */\n      dup3\n        /* \"@openzeppelin/contracts@4.7.3/token/ERC20/ERC20.sol\":7679:7695  to != address(0) */\n      0xffffffffffffffffffffffffffffffffffffffff\n      and\n      eq\n      iszero\n        /* \"@openzeppelin/contracts@4.7.3/token/ERC20/ERC20.sol\":7671:7735  require(to != address(0), \"ERC20: transfer to the zero address\") */\n      tag_241\n      jumpi\n      mload(0x40)\n      0x08c379a000000000000000000000000000000000000000000000000000000000\n      dup2\n      mstore\n      0x04\n      add\n      tag_242\n      swap1\n      tag_243\n      jump\t// in\n    tag_242:\n      mload(0x40)\n      dup1\n      swap2\n      sub\n      swap1\n      revert\n    tag_241:\n        /* \"@openzeppelin/contracts@4.7.3/token/ERC20/ERC20.sol\":7746:7784  _beforeTokenTransfer(from, to, amount) */\n      tag_244\n        /* \"@openzeppelin/contracts@4.7.3/token/ERC20/ERC20.sol\":7767:7771  from */\n      dup4\n        /* \"@openzeppelin/contracts@4.7.3/token/ERC20/ERC20.sol\":7773:7775  to */\n      dup4\n        /* \"@openzeppelin/contracts@4.7.3/token/ERC20/ERC20.sol\":7777:7783  amount */\n      dup4\n        /* \"@openzeppelin/contracts@4.7.3/token/ERC20/ERC20.sol\":7746:7766  _beforeTokenTransfer */\n      tag_245\n        /* \"@openzeppelin/contracts@4.7.3/token/ERC20/ERC20.sol\":7746:7784  _beforeTokenTransfer(from, to, amount) */\n      jump\t// in\n    tag_244:\n        /* \"@openzeppelin/contracts@4.7.3/token/ERC20/ERC20.sol\":7795:7814  uint256 fromBalance */\n      0x00\n        /* \"@openzeppelin/contracts@4.7.3/token/ERC20/ERC20.sol\":7817:7826  _balances */\n      dup1\n        /* \"@openzeppelin/contracts@4.7.3/token/ERC20/ERC20.sol\":7817:7832  _balances[from] */\n      0x00\n        /* \"@openzeppelin/contracts@4.7.3/token/ERC20/ERC20.sol\":7827:7831  from */\n      dup6\n        /* \"@openzeppelin/contracts@4.7.3/token/ERC20/ERC20.sol\":7817:7832  _balances[from] */\n      0xffffffffffffffffffffffffffffffffffffffff\n      and\n      0xffffffffffffffffffffffffffffffffffffffff\n      and\n      dup2\n      mstore\n      0x20\n      add\n      swap1\n      dup2\n      mstore\n      0x20\n      add\n      0x00\n      keccak256\n      sload\n        /* \"@openzeppelin/contracts@4.7.3/token/ERC20/ERC20.sol\":7795:7832  uint256 fromBalance = _balances[from] */\n      swap1\n      pop\n        /* \"@openzeppelin/contracts@4.7.3/token/ERC20/ERC20.sol\":7865:7871  amount */\n      dup2\n        /* \"@openzeppelin/contracts@4.7.3/token/ERC20/ERC20.sol\":7850:7861  fromBalance */\n      dup2\n        /* \"@openzeppelin/contracts@4.7.3/token/ERC20/ERC20.sol\":7850:7871  fromBalance >= amount */\n      lt\n      iszero\n        /* \"@openzeppelin/contracts@4.7.3/token/ERC20/ERC20.sol\":7842:7914  require(fromBalance >= amount, \"ERC20: transfer amount exceeds balance\") */\n      tag_246\n      jumpi\n      mload(0x40)\n      0x08c379a000000000000000000000000000000000000000000000000000000000\n      dup2\n      mstore\n      0x04\n      add\n      tag_247\n      swap1\n      tag_248\n      jump\t// in\n    tag_247:\n      mload(0x40)\n      dup1\n      swap2\n      sub\n      swap1\n      revert\n    tag_246:\n        /* \"@openzeppelin/contracts@4.7.3/token/ERC20/ERC20.sol\":7980:7986  amount */\n      dup2\n        /* \"@openzeppelin/contracts@4.7.3/token/ERC20/ERC20.sol\":7966:7977  fromBalance */\n      dup2\n        /* \"@openzeppelin/contracts@4.7.3/token/ERC20/ERC20.sol\":7966:7986  fromBalance - amount */\n      sub\n        /* \"@openzeppelin/contracts@4.7.3/token/ERC20/ERC20.sol\":7948:7957  _balances */\n      0x00\n        /* \"@openzeppelin/contracts@4.7.3/token/ERC20/ERC20.sol\":7948:7963  _balances[from] */\n      dup1\n        /* \"@openzeppelin/contracts@4.7.3/token/ERC20/ERC20.sol\":7958:7962  from */\n      dup7\n        /* \"@openzeppelin/contracts@4.7.3/token/ERC20/ERC20.sol\":7948:7963  _balances[from] */\n      0xffffffffffffffffffffffffffffffffffffffff\n      and\n      0xffffffffffffffffffffffffffffffffffffffff\n      and\n      dup2\n      mstore\n      0x20\n      add\n      swap1\n      dup2\n      mstore\n      0x20\n      add\n      0x00\n      keccak256\n        /* \"@openzeppelin/contracts@4.7.3/token/ERC20/ERC20.sol\":7948:7986  _balances[from] = fromBalance - amount */\n      dup2\n      swap1\n      sstore\n      pop\n        /* \"@openzeppelin/contracts@4.7.3/token/ERC20/ERC20.sol\":8023:8029  amount */\n      dup2\n        /* \"@openzeppelin/contracts@4.7.3/token/ERC20/ERC20.sol\":8006:8015  _balances */\n      0x00\n        /* \"@openzeppelin/contracts@4.7.3/token/ERC20/ERC20.sol\":8006:8019  _balances[to] */\n      dup1\n        /* \"@openzeppelin/contracts@4.7.3/token/ERC20/ERC20.sol\":8016:8018  to */\n      dup6\n        /* \"@openzeppelin/contracts@4.7.3/token/ERC20/ERC20.sol\":8006:8019  _balances[to] */\n      0xffffffffffffffffffffffffffffffffffffffff\n      and\n      0xffffffffffffffffffffffffffffffffffffffff\n      and\n      dup2\n      mstore\n      0x20\n      add\n      swap1\n      dup2\n      mstore\n      0x20\n      add\n      0x00\n      keccak256\n      0x00\n        /* \"@openzeppelin/contracts@4.7.3/token/ERC20/ERC20.sol\":8006:8029  _balances[to] += amount */\n      dup3\n      dup3\n      sload\n      tag_249\n      swap2\n      swap1\n      tag_144\n      jump\t// in\n    tag_249:\n      swap3\n      pop\n      pop\n      dup2\n      swap1\n      sstore\n      pop\n        /* \"@openzeppelin/contracts@4.7.3/token/ERC20/ERC20.sol\":8060:8062  to */\n      dup3\n        /* \"@openzeppelin/contracts@4.7.3/token/ERC20/ERC20.sol\":8045:8071  Transfer(from, to, amount) */\n      0xffffffffffffffffffffffffffffffffffffffff\n      and\n        /* \"@openzeppelin/contracts@4.7.3/token/ERC20/ERC20.sol\":8054:8058  from */\n      dup5\n        /* \"@openzeppelin/contracts@4.7.3/token/ERC20/ERC20.sol\":8045:8071  Transfer(from, to, amount) */\n      0xffffffffffffffffffffffffffffffffffffffff\n      and\n      0xddf252ad1be2c89b69c2b068fc378daa952ba7f163c4a11628f55a4df523b3ef\n        /* \"@openzeppelin/contracts@4.7.3/token/ERC20/ERC20.sol\":8064:8070  amount */\n      dup5\n        /* \"@openzeppelin/contracts@4.7.3/token/ERC20/ERC20.sol\":8045:8071  Transfer(from, to, amount) */\n      mload(0x40)\n      tag_250\n      swap2\n      swap1\n      tag_42\n      jump\t// in\n    tag_250:\n      mload(0x40)\n      dup1\n      swap2\n      sub\n      swap1\n      log3\n        /* \"@openzeppelin/contracts@4.7.3/token/ERC20/ERC20.sol\":8082:8119  _afterTokenTransfer(from, to, amount) */\n      tag_251\n        /* \"@openzeppelin/contracts@4.7.3/token/ERC20/ERC20.sol\":8102:8106  from */\n      dup5\n        /* \"@openzeppelin/contracts@4.7.3/token/ERC20/ERC20.sol\":8108:8110  to */\n      dup5\n        /* \"@openzeppelin/contracts@4.7.3/token/ERC20/ERC20.sol\":8112:8118  amount */\n      dup5\n        /* \"@openzeppelin/contracts@4.7.3/token/ERC20/ERC20.sol\":8082:8101  _afterTokenTransfer */\n      tag_252\n        /* \"@openzeppelin/contracts@4.7.3/token/ERC20/ERC20.sol\":8082:8119  _afterTokenTransfer(from, to, amount) */\n      jump\t// in\n    tag_251:\n        /* \"@openzeppelin/contracts@4.7.3/token/ERC20/ERC20.sol\":7475:8126  function _transfer(... */\n      pop\n      pop\n      pop\n      pop\n      jump\t// out\n        /* \"@openzeppelin/contracts@4.7.3/utils/cryptography/draft-EIP712.sol\":3143:3451  function _domainSeparatorV4() internal view returns (bytes32) {... */\n    tag_138:\n        /* \"@openzeppelin/contracts@4.7.3/utils/cryptography/draft-EIP712.sol\":3196:3203  bytes32 */\n      0x00\n        /* \"@openzeppelin/contracts@4.7.3/utils/cryptography/draft-EIP712.sol\":3236:3248  _CACHED_THIS */\n      immutable(\"0xe02cb3fdbbd2afb9a2d9b64c3250fe005c3b9649f25fb61eaba0b1e1e4ff8734\")\n        /* \"@openzeppelin/contracts@4.7.3/utils/cryptography/draft-EIP712.sol\":3219:3248  address(this) == _CACHED_THIS */\n      0xffffffffffffffffffffffffffffffffffffffff\n      and\n        /* \"@openzeppelin/contracts@4.7.3/utils/cryptography/draft-EIP712.sol\":3227:3231  this */\n      address\n        /* \"@openzeppelin/contracts@4.7.3/utils/cryptography/draft-EIP712.sol\":3219:3248  address(this) == _CACHED_THIS */\n      0xffffffffffffffffffffffffffffffffffffffff\n      and\n      eq\n        /* \"@openzeppelin/contracts@4.7.3/utils/cryptography/draft-EIP712.sol\":3219:3285  address(this) == _CACHED_THIS && block.chainid == _CACHED_CHAIN_ID */\n      dup1\n      iszero\n      tag_254\n      jumpi\n      pop\n        /* \"@openzeppelin/contracts@4.7.3/utils/cryptography/draft-EIP712.sol\":3269:3285  _CACHED_CHAIN_ID */\n      immutable(\"0x5354828b2b0e0bd6dae87d4ed5f4a7e140d065ddf2f9d419af396ba4c6ab3c25\")\n        /* \"@openzeppelin/contracts@4.7.3/utils/cryptography/draft-EIP712.sol\":3252:3265  block.chainid */\n      chainid\n        /* \"@openzeppelin/contracts@4.7.3/utils/cryptography/draft-EIP712.sol\":3252:3285  block.chainid == _CACHED_CHAIN_ID */\n      eq\n        /* \"@openzeppelin/contracts@4.7.3/utils/cryptography/draft-EIP712.sol\":3219:3285  address(this) == _CACHED_THIS && block.chainid == _CACHED_CHAIN_ID */\n    tag_254:\n        /* \"@openzeppelin/contracts@4.7.3/utils/cryptography/draft-EIP712.sol\":3215:3445  if (address(this) == _CACHED_THIS && block.chainid == _CACHED_CHAIN_ID) {... */\n      iszero\n      tag_255\n      jumpi\n        /* \"@openzeppelin/contracts@4.7.3/utils/cryptography/draft-EIP712.sol\":3308:3332  _CACHED_DOMAIN_SEPARATOR */\n      immutable(\"0x306cbfa12b90322aabdab717c2f65d08213df53b47ac2cda8d0f6c08497de25b\")\n        /* \"@openzeppelin/contracts@4.7.3/utils/cryptography/draft-EIP712.sol\":3301:3332  return _CACHED_DOMAIN_SEPARATOR */\n      swap1\n      pop\n      jump(tag_253)\n        /* \"@openzeppelin/contracts@4.7.3/utils/cryptography/draft-EIP712.sol\":3215:3445  if (address(this) == _CACHED_THIS && block.chainid == _CACHED_CHAIN_ID) {... */\n    tag_255:\n        /* \"@openzeppelin/contracts@4.7.3/utils/cryptography/draft-EIP712.sol\":3370:3434  _buildDomainSeparator(_TYPE_HASH, _HASHED_NAME, _HASHED_VERSION) */\n      tag_257\n        /* \"@openzeppelin/contracts@4.7.3/utils/cryptography/draft-EIP712.sol\":3392:3402  _TYPE_HASH */\n      immutable(\"0x8c2c54587967106aada40726d97869a68f1884315326f75aae38a5f14c8f0480\")\n        /* \"@openzeppelin/contracts@4.7.3/utils/cryptography/draft-EIP712.sol\":3404:3416  _HASHED_NAME */\n      immutable(\"0x07ac0c5d8088a739bcb4908eb6aa67ad83c795ff92b205d9f57b6d07690f5cbf\")\n        /* \"@openzeppelin/contracts@4.7.3/utils/cryptography/draft-EIP712.sol\":3418:3433  _HASHED_VERSION */\n      immutable(\"0x9bf5de43c707337727317b1eb41eb24f3b57501b732ba6b9f8a6e59f8e2124d5\")\n        /* \"@openzeppelin/contracts@4.7.3/utils/cryptography/draft-EIP712.sol\":3370:3391  _buildDomainSeparator */\n      tag_258\n        /* \"@openzeppelin/contracts@4.7.3/utils/cryptography/draft-EIP712.sol\":3370:3434  _buildDomainSeparator(_TYPE_HASH, _HASHED_NAME, _HASHED_VERSION) */\n      jump\t// in\n    tag_257:\n        /* \"@openzeppelin/contracts@4.7.3/utils/cryptography/draft-EIP712.sol\":3363:3434  return _buildDomainSeparator(_TYPE_HASH, _HASHED_NAME, _HASHED_VERSION) */\n      swap1\n      pop\n        /* \"@openzeppelin/contracts@4.7.3/utils/cryptography/draft-EIP712.sol\":3143:3451  function _domainSeparatorV4() internal view returns (bytes32) {... */\n    tag_253:\n      swap1\n      jump\t// out\n        /* \"@openzeppelin/contracts@4.7.3/access/Ownable.sol\":1359:1489  function _checkOwner() internal view virtual {... */\n    tag_147:\n        /* \"@openzeppelin/contracts@4.7.3/access/Ownable.sol\":1433:1445  _msgSender() */\n      tag_260\n        /* \"@openzeppelin/contracts@4.7.3/access/Ownable.sol\":1433:1443  _msgSender */\n      tag_125\n        /* \"@openzeppelin/contracts@4.7.3/access/Ownable.sol\":1433:1445  _msgSender() */\n      jump\t// in\n    tag_260:\n        /* \"@openzeppelin/contracts@4.7.3/access/Ownable.sol\":1422:1445  owner() == _msgSender() */\n      0xffffffffffffffffffffffffffffffffffffffff\n      and\n        /* \"@openzeppelin/contracts@4.7.3/access/Ownable.sol\":1422:1429  owner() */\n      tag_261\n        /* \"@openzeppelin/contracts@4.7.3/access/Ownable.sol\":1422:1427  owner */\n      tag_89\n        /* \"@openzeppelin/contracts@4.7.3/access/Ownable.sol\":1422:1429  owner() */\n      jump\t// in\n    tag_261:\n        /* \"@openzeppelin/contracts@4.7.3/access/Ownable.sol\":1422:1445  owner() == _msgSender() */\n      0xffffffffffffffffffffffffffffffffffffffff\n      and\n      eq\n        /* \"@openzeppelin/contracts@4.7.3/access/Ownable.sol\":1414:1482  require(owner() == _msgSender(), \"Ownable: caller is not the owner\") */\n      tag_262\n      jumpi\n      mload(0x40)\n      0x08c379a000000000000000000000000000000000000000000000000000000000\n      dup2\n      mstore\n      0x04\n      add\n      tag_263\n      swap1\n      tag_264\n      jump\t// in\n    tag_263:\n      mload(0x40)\n      dup1\n      swap2\n      sub\n      swap1\n      revert\n    tag_262:\n        /* \"@openzeppelin/contracts@4.7.3/access/Ownable.sol\":1359:1489  function _checkOwner() internal view virtual {... */\n      jump\t// out\n        /* \"@openzeppelin/contracts@4.7.3/security/Pausable.sol\":2433:2550  function _unpause() internal virtual whenPaused {... */\n    tag_150:\n        /* \"@openzeppelin/contracts@4.7.3/security/Pausable.sol\":1486:1502  _requirePaused() */\n      tag_266\n        /* \"@openzeppelin/contracts@4.7.3/security/Pausable.sol\":1486:1500  _requirePaused */\n      tag_267\n        /* \"@openzeppelin/contracts@4.7.3/security/Pausable.sol\":1486:1502  _requirePaused() */\n      jump\t// in\n    tag_266:\n        /* \"@openzeppelin/contracts@4.7.3/security/Pausable.sol\":2501:2506  false */\n      0x00\n        /* \"@openzeppelin/contracts@4.7.3/security/Pausable.sol\":2491:2498  _paused */\n      0x05\n      0x00\n        /* \"@openzeppelin/contracts@4.7.3/security/Pausable.sol\":2491:2506  _paused = false */\n      0x0100\n      exp\n      dup2\n      sload\n      dup2\n      0xff\n      mul\n      not\n      and\n      swap1\n      dup4\n      iszero\n      iszero\n      mul\n      or\n      swap1\n      sstore\n      pop\n        /* \"@openzeppelin/contracts@4.7.3/security/Pausable.sol\":2521:2543  Unpaused(_msgSender()) */\n      0x5db9ee0a495bf2e6ff9c91a7834c1ba4fdd244a5e8aa4e537bd38aeae4b073aa\n        /* \"@openzeppelin/contracts@4.7.3/security/Pausable.sol\":2530:2542  _msgSender() */\n      tag_269\n        /* \"@openzeppelin/contracts@4.7.3/security/Pausable.sol\":2530:2540  _msgSender */\n      tag_125\n        /* \"@openzeppelin/contracts@4.7.3/security/Pausable.sol\":2530:2542  _msgSender() */\n      jump\t// in\n    tag_269:\n        /* \"@openzeppelin/contracts@4.7.3/security/Pausable.sol\":2521:2543  Unpaused(_msgSender()) */\n      mload(0x40)\n      tag_270\n      swap2\n      swap1\n      tag_91\n      jump\t// in\n    tag_270:\n      mload(0x40)\n      dup1\n      swap2\n      sub\n      swap1\n      log1\n        /* \"@openzeppelin/contracts@4.7.3/security/Pausable.sol\":2433:2550  function _unpause() internal virtual whenPaused {... */\n      jump\t// out\n        /* \"@openzeppelin/contracts@4.7.3/token/ERC20/ERC20.sol\":8402:8791  function _mint(address account, uint256 amount) internal virtual {... */\n    tag_155:\n        /* \"@openzeppelin/contracts@4.7.3/token/ERC20/ERC20.sol\":8504:8505  0 */\n      0x00\n        /* \"@openzeppelin/contracts@4.7.3/token/ERC20/ERC20.sol\":8485:8506  account != address(0) */\n      0xffffffffffffffffffffffffffffffffffffffff\n      and\n        /* \"@openzeppelin/contracts@4.7.3/token/ERC20/ERC20.sol\":8485:8492  account */\n      dup3\n        /* \"@openzeppelin/contracts@4.7.3/token/ERC20/ERC20.sol\":8485:8506  account != address(0) */\n      0xffffffffffffffffffffffffffffffffffffffff\n      and\n      eq\n      iszero\n        /* \"@openzeppelin/contracts@4.7.3/token/ERC20/ERC20.sol\":8477:8542  require(account != address(0), \"ERC20: mint to the zero address\") */\n      tag_272\n      jumpi\n      mload(0x40)\n      0x08c379a000000000000000000000000000000000000000000000000000000000\n      dup2\n      mstore\n      0x04\n      add\n      tag_273\n      swap1\n      tag_274\n      jump\t// in\n    tag_273:\n      mload(0x40)\n      dup1\n      swap2\n      sub\n      swap1\n      revert\n    tag_272:\n        /* \"@openzeppelin/contracts@4.7.3/token/ERC20/ERC20.sol\":8553:8602  _beforeTokenTransfer(address(0), account, amount) */\n      tag_275\n        /* \"@openzeppelin/contracts@4.7.3/token/ERC20/ERC20.sol\":8582:8583  0 */\n      0x00\n        /* \"@openzeppelin/contracts@4.7.3/token/ERC20/ERC20.sol\":8586:8593  account */\n      dup4\n        /* \"@openzeppelin/contracts@4.7.3/token/ERC20/ERC20.sol\":8595:8601  amount */\n      dup4\n        /* \"@openzeppelin/contracts@4.7.3/token/ERC20/ERC20.sol\":8553:8573  _beforeTokenTransfer */\n      tag_245\n        /* \"@openzeppelin/contracts@4.7.3/token/ERC20/ERC20.sol\":8553:8602  _beforeTokenTransfer(address(0), account, amount) */\n      jump\t// in\n    tag_275:\n        /* \"@openzeppelin/contracts@4.7.3/token/ERC20/ERC20.sol\":8629:8635  amount */\n      dup1\n        /* \"@openzeppelin/contracts@4.7.3/token/ERC20/ERC20.sol\":8613:8625  _totalSupply */\n      0x02\n      0x00\n        /* \"@openzeppelin/contracts@4.7.3/token/ERC20/ERC20.sol\":8613:8635  _totalSupply += amount */\n      dup3\n      dup3\n      sload\n      tag_276\n      swap2\n      swap1\n      tag_144\n      jump\t// in\n    tag_276:\n      swap3\n      pop\n      pop\n      dup2\n      swap1\n      sstore\n      pop\n        /* \"@openzeppelin/contracts@4.7.3/token/ERC20/ERC20.sol\":8667:8673  amount */\n      dup1\n        /* \"@openzeppelin/contracts@4.7.3/token/ERC20/ERC20.sol\":8645:8654  _balances */\n      0x00\n        /* \"@openzeppelin/contracts@4.7.3/token/ERC20/ERC20.sol\":8645:8663  _balances[account] */\n      dup1\n        /* \"@openzeppelin/contracts@4.7.3/token/ERC20/ERC20.sol\":8655:8662  account */\n      dup5\n        /* \"@openzeppelin/contracts@4.7.3/token/ERC20/ERC20.sol\":8645:8663  _balances[account] */\n      0xffffffffffffffffffffffffffffffffffffffff\n      and\n      0xffffffffffffffffffffffffffffffffffffffff\n      and\n      dup2\n      mstore\n      0x20\n      add\n      swap1\n      dup2\n      mstore\n      0x20\n      add\n      0x00\n      keccak256\n      0x00\n        /* \"@openzeppelin/contracts@4.7.3/token/ERC20/ERC20.sol\":8645:8673  _balances[account] += amount */\n      dup3\n      dup3\n      sload\n      tag_277\n      swap2\n      swap1\n      tag_144\n      jump\t// in\n    tag_277:\n      swap3\n      pop\n      pop\n      dup2\n      swap1\n      sstore\n      pop\n        /* \"@openzeppelin/contracts@4.7.3/token/ERC20/ERC20.sol\":8709:8716  account */\n      dup2\n        /* \"@openzeppelin/contracts@4.7.3/token/ERC20/ERC20.sol\":8688:8725  Transfer(address(0), account, amount) */\n      0xffffffffffffffffffffffffffffffffffffffff\n      and\n        /* \"@openzeppelin/contracts@4.7.3/token/ERC20/ERC20.sol\":8705:8706  0 */\n      0x00\n        /* \"@openzeppelin/contracts@4.7.3/token/ERC20/ERC20.sol\":8688:8725  Transfer(address(0), account, amount) */\n      0xffffffffffffffffffffffffffffffffffffffff\n      and\n      0xddf252ad1be2c89b69c2b068fc378daa952ba7f163c4a11628f55a4df523b3ef\n        /* \"@openzeppelin/contracts@4.7.3/token/ERC20/ERC20.sol\":8718:8724  amount */\n      dup4\n        /* \"@openzeppelin/contracts@4.7.3/token/ERC20/ERC20.sol\":8688:8725  Transfer(address(0), account, amount) */\n      mload(0x40)\n      tag_278\n      swap2\n      swap1\n      tag_42\n      jump\t// in\n    tag_278:\n      mload(0x40)\n      dup1\n      swap2\n      sub\n      swap1\n      log3\n        /* \"@openzeppelin/contracts@4.7.3/token/ERC20/ERC20.sol\":8736:8784  _afterTokenTransfer(address(0), account, amount) */\n      tag_279\n        /* \"@openzeppelin/contracts@4.7.3/token/ERC20/ERC20.sol\":8764:8765  0 */\n      0x00\n        /* \"@openzeppelin/contracts@4.7.3/token/ERC20/ERC20.sol\":8768:8775  account */\n      dup4\n        /* \"@openzeppelin/contracts@4.7.3/token/ERC20/ERC20.sol\":8777:8783  amount */\n      dup4\n        /* \"@openzeppelin/contracts@4.7.3/token/ERC20/ERC20.sol\":8736:8755  _afterTokenTransfer */\n      tag_252\n        /* \"@openzeppelin/contracts@4.7.3/token/ERC20/ERC20.sol\":8736:8784  _afterTokenTransfer(address(0), account, amount) */\n      jump\t// in\n    tag_279:\n        /* \"@openzeppelin/contracts@4.7.3/token/ERC20/ERC20.sol\":8402:8791  function _mint(address account, uint256 amount) internal virtual {... */\n      pop\n      pop\n      jump\t// out\n        /* \"@openzeppelin/contracts@4.7.3/token/ERC20/ERC20.sol\":9111:9687  function _burn(address account, uint256 amount) internal virtual {... */\n    tag_159:\n        /* \"@openzeppelin/contracts@4.7.3/token/ERC20/ERC20.sol\":9213:9214  0 */\n      0x00\n        /* \"@openzeppelin/contracts@4.7.3/token/ERC20/ERC20.sol\":9194:9215  account != address(0) */\n      0xffffffffffffffffffffffffffffffffffffffff\n      and\n        /* \"@openzeppelin/contracts@4.7.3/token/ERC20/ERC20.sol\":9194:9201  account */\n      dup3\n        /* \"@openzeppelin/contracts@4.7.3/token/ERC20/ERC20.sol\":9194:9215  account != address(0) */\n      0xffffffffffffffffffffffffffffffffffffffff\n      and\n      eq\n      iszero\n        /* \"@openzeppelin/contracts@4.7.3/token/ERC20/ERC20.sol\":9186:9253  require(account != address(0), \"ERC20: burn from the zero address\") */\n      tag_281\n      jumpi\n      mload(0x40)\n      0x08c379a000000000000000000000000000000000000000000000000000000000\n      dup2\n      mstore\n      0x04\n      add\n      tag_282\n      swap1\n      tag_283\n      jump\t// in\n    tag_282:\n      mload(0x40)\n      dup1\n      swap2\n      sub\n      swap1\n      revert\n    tag_281:\n        /* \"@openzeppelin/contracts@4.7.3/token/ERC20/ERC20.sol\":9264:9313  _beforeTokenTransfer(account, address(0), amount) */\n      tag_284\n        /* \"@openzeppelin/contracts@4.7.3/token/ERC20/ERC20.sol\":9285:9292  account */\n      dup3\n        /* \"@openzeppelin/contracts@4.7.3/token/ERC20/ERC20.sol\":9302:9303  0 */\n      0x00\n        /* \"@openzeppelin/contracts@4.7.3/token/ERC20/ERC20.sol\":9306:9312  amount */\n      dup4\n        /* \"@openzeppelin/contracts@4.7.3/token/ERC20/ERC20.sol\":9264:9284  _beforeTokenTransfer */\n      tag_245\n        /* \"@openzeppelin/contracts@4.7.3/token/ERC20/ERC20.sol\":9264:9313  _beforeTokenTransfer(account, address(0), amount) */\n      jump\t// in\n    tag_284:\n        /* \"@openzeppelin/contracts@4.7.3/token/ERC20/ERC20.sol\":9324:9346  uint256 accountBalance */\n      0x00\n        /* \"@openzeppelin/contracts@4.7.3/token/ERC20/ERC20.sol\":9349:9358  _balances */\n      dup1\n        /* \"@openzeppelin/contracts@4.7.3/token/ERC20/ERC20.sol\":9349:9367  _balances[account] */\n      0x00\n        /* \"@openzeppelin/contracts@4.7.3/token/ERC20/ERC20.sol\":9359:9366  account */\n      dup5\n        /* \"@openzeppelin/contracts@4.7.3/token/ERC20/ERC20.sol\":9349:9367  _balances[account] */\n      0xffffffffffffffffffffffffffffffffffffffff\n      and\n      0xffffffffffffffffffffffffffffffffffffffff\n      and\n      dup2\n      mstore\n      0x20\n      add\n      swap1\n      dup2\n      mstore\n      0x20\n      add\n      0x00\n      keccak256\n      sload\n        /* \"@openzeppelin/contracts@4.7.3/token/ERC20/ERC20.sol\":9324:9367  uint256 accountBalance = _balances[account] */\n      swap1\n      pop\n        /* \"@openzeppelin/contracts@4.7.3/token/ERC20/ERC20.sol\":9403:9409  amount */\n      dup2\n        /* \"@openzeppelin/contracts@4.7.3/token/ERC20/ERC20.sol\":9385:9399  accountBalance */\n      dup2\n        /* \"@openzeppelin/contracts@4.7.3/token/ERC20/ERC20.sol\":9385:9409  accountBalance >= amount */\n      lt\n      iszero\n        /* \"@openzeppelin/contracts@4.7.3/token/ERC20/ERC20.sol\":9377:9448  require(accountBalance >= amount, \"ERC20: burn amount exceeds balance\") */\n      tag_285\n      jumpi\n      mload(0x40)\n      0x08c379a000000000000000000000000000000000000000000000000000000000\n      dup2\n      mstore\n      0x04\n      add\n      tag_286\n      swap1\n      tag_287\n      jump\t// in\n    tag_286:\n      mload(0x40)\n      dup1\n      swap2\n      sub\n      swap1\n      revert\n    tag_285:\n        /* \"@openzeppelin/contracts@4.7.3/token/ERC20/ERC20.sol\":9520:9526  amount */\n      dup2\n        /* \"@openzeppelin/contracts@4.7.3/token/ERC20/ERC20.sol\":9503:9517  accountBalance */\n      dup2\n        /* \"@openzeppelin/contracts@4.7.3/token/ERC20/ERC20.sol\":9503:9526  accountBalance - amount */\n      sub\n        /* \"@openzeppelin/contracts@4.7.3/token/ERC20/ERC20.sol\":9482:9491  _balances */\n      0x00\n        /* \"@openzeppelin/contracts@4.7.3/token/ERC20/ERC20.sol\":9482:9500  _balances[account] */\n      dup1\n        /* \"@openzeppelin/contracts@4.7.3/token/ERC20/ERC20.sol\":9492:9499  account */\n      dup6\n        /* \"@openzeppelin/contracts@4.7.3/token/ERC20/ERC20.sol\":9482:9500  _balances[account] */\n      0xffffffffffffffffffffffffffffffffffffffff\n      and\n      0xffffffffffffffffffffffffffffffffffffffff\n      and\n      dup2\n      mstore\n      0x20\n      add\n      swap1\n      dup2\n      mstore\n      0x20\n      add\n      0x00\n      keccak256\n        /* \"@openzeppelin/contracts@4.7.3/token/ERC20/ERC20.sol\":9482:9526  _balances[account] = accountBalance - amount */\n      dup2\n      swap1\n      sstore\n      pop\n        /* \"@openzeppelin/contracts@4.7.3/token/ERC20/ERC20.sol\":9562:9568  amount */\n      dup2\n        /* \"@openzeppelin/contracts@4.7.3/token/ERC20/ERC20.sol\":9546:9558  _totalSupply */\n      0x02\n      0x00\n        /* \"@openzeppelin/contracts@4.7.3/token/ERC20/ERC20.sol\":9546:9568  _totalSupply -= amount */\n      dup3\n      dup3\n      sload\n      tag_288\n      swap2\n      swap1\n      tag_289\n      jump\t// in\n    tag_288:\n      swap3\n      pop\n      pop\n      dup2\n      swap1\n      sstore\n      pop\n        /* \"@openzeppelin/contracts@4.7.3/token/ERC20/ERC20.sol\":9610:9611  0 */\n      0x00\n        /* \"@openzeppelin/contracts@4.7.3/token/ERC20/ERC20.sol\":9584:9621  Transfer(account, address(0), amount) */\n      0xffffffffffffffffffffffffffffffffffffffff\n      and\n        /* \"@openzeppelin/contracts@4.7.3/token/ERC20/ERC20.sol\":9593:9600  account */\n      dup4\n        /* \"@openzeppelin/contracts@4.7.3/token/ERC20/ERC20.sol\":9584:9621  Transfer(account, address(0), amount) */\n      0xffffffffffffffffffffffffffffffffffffffff\n      and\n      0xddf252ad1be2c89b69c2b068fc378daa952ba7f163c4a11628f55a4df523b3ef\n        /* \"@openzeppelin/contracts@4.7.3/token/ERC20/ERC20.sol\":9614:9620  amount */\n      dup5\n        /* \"@openzeppelin/contracts@4.7.3/token/ERC20/ERC20.sol\":9584:9621  Transfer(account, address(0), amount) */\n      mload(0x40)\n      tag_290\n      swap2\n      swap1\n      tag_42\n      jump\t// in\n    tag_290:\n      mload(0x40)\n      dup1\n      swap2\n      sub\n      swap1\n      log3\n        /* \"@openzeppelin/contracts@4.7.3/token/ERC20/ERC20.sol\":9632:9680  _afterTokenTransfer(account, address(0), amount) */\n      tag_291\n        /* \"@openzeppelin/contracts@4.7.3/token/ERC20/ERC20.sol\":9652:9659  account */\n      dup4\n        /* \"@openzeppelin/contracts@4.7.3/token/ERC20/ERC20.sol\":9669:9670  0 */\n      0x00\n        /* \"@openzeppelin/contracts@4.7.3/token/ERC20/ERC20.sol\":9673:9679  amount */\n      dup5\n        /* \"@openzeppelin/contracts@4.7.3/token/ERC20/ERC20.sol\":9632:9651  _afterTokenTransfer */\n      tag_252\n        /* \"@openzeppelin/contracts@4.7.3/token/ERC20/ERC20.sol\":9632:9680  _afterTokenTransfer(account, address(0), amount) */\n      jump\t// in\n    tag_291:\n        /* \"@openzeppelin/contracts@4.7.3/token/ERC20/ERC20.sol\":9111:9687  function _burn(address account, uint256 amount) internal virtual {... */\n      pop\n      pop\n      pop\n      jump\t// out\n        /* \"@openzeppelin/contracts@4.7.3/access/Ownable.sol\":2433:2620  function _transferOwnership(address newOwner) internal virtual {... */\n    tag_166:\n        /* \"@openzeppelin/contracts@4.7.3/access/Ownable.sol\":2506:2522  address oldOwner */\n      0x00\n        /* \"@openzeppelin/contracts@4.7.3/access/Ownable.sol\":2525:2531  _owner */\n      0x05\n      0x01\n      swap1\n      sload\n      swap1\n      0x0100\n      exp\n      swap1\n      div\n      0xffffffffffffffffffffffffffffffffffffffff\n      and\n        /* \"@openzeppelin/contracts@4.7.3/access/Ownable.sol\":2506:2531  address oldOwner = _owner */\n      swap1\n      pop\n        /* \"@openzeppelin/contracts@4.7.3/access/Ownable.sol\":2550:2558  newOwner */\n      dup2\n        /* \"@openzeppelin/contracts@4.7.3/access/Ownable.sol\":2541:2547  _owner */\n      0x05\n      0x01\n        /* \"@openzeppelin/contracts@4.7.3/access/Ownable.sol\":2541:2558  _owner = newOwner */\n      0x0100\n      exp\n      dup2\n      sload\n      dup2\n      0xffffffffffffffffffffffffffffffffffffffff\n      mul\n      not\n      and\n      swap1\n      dup4\n      0xffffffffffffffffffffffffffffffffffffffff\n      and\n      mul\n      or\n      swap1\n      sstore\n      pop\n        /* \"@openzeppelin/contracts@4.7.3/access/Ownable.sol\":2604:2612  newOwner */\n      dup2\n        /* \"@openzeppelin/contracts@4.7.3/access/Ownable.sol\":2573:2613  OwnershipTransferred(oldOwner, newOwner) */\n      0xffffffffffffffffffffffffffffffffffffffff\n      and\n        /* \"@openzeppelin/contracts@4.7.3/access/Ownable.sol\":2594:2602  oldOwner */\n      dup2\n        /* \"@openzeppelin/contracts@4.7.3/access/Ownable.sol\":2573:2613  OwnershipTransferred(oldOwner, newOwner) */\n      0xffffffffffffffffffffffffffffffffffffffff\n      and\n      0x8be0079c531659141344cd1fd0a4f28419497f9722a3daafe3b4186f6b6457e0\n      mload(0x40)\n      mload(0x40)\n      dup1\n      swap2\n      sub\n      swap1\n      log3\n        /* \"@openzeppelin/contracts@4.7.3/access/Ownable.sol\":2433:2620  function _transferOwnership(address newOwner) internal virtual {... */\n      pop\n      pop\n      jump\t// out\n        /* \"@openzeppelin/contracts@4.7.3/utils/Counters.sol\":827:939  function current(Counter storage counter) internal view returns (uint256) {... */\n    tag_173:\n        /* \"@openzeppelin/contracts@4.7.3/utils/Counters.sol\":892:899  uint256 */\n      0x00\n        /* \"@openzeppelin/contracts@4.7.3/utils/Counters.sol\":918:925  counter */\n      dup2\n        /* \"@openzeppelin/contracts@4.7.3/utils/Counters.sol\":918:932  counter._value */\n      0x00\n      add\n      sload\n        /* \"@openzeppelin/contracts@4.7.3/utils/Counters.sol\":911:932  return counter._value */\n      swap1\n      pop\n        /* \"@openzeppelin/contracts@4.7.3/utils/Counters.sol\":827:939  function current(Counter storage counter) internal view returns (uint256) {... */\n      swap2\n      swap1\n      pop\n      jump\t// out\n        /* \"@openzeppelin/contracts@4.7.3/security/Pausable.sol\":2186:2301  function _pause() internal virtual whenNotPaused {... */\n    tag_178:\n        /* \"@openzeppelin/contracts@4.7.3/security/Pausable.sol\":1239:1258  _requireNotPaused() */\n      tag_295\n        /* \"@openzeppelin/contracts@4.7.3/security/Pausable.sol\":1239:1256  _requireNotPaused */\n      tag_296\n        /* \"@openzeppelin/contracts@4.7.3/security/Pausable.sol\":1239:1258  _requireNotPaused() */\n      jump\t// in\n    tag_295:\n        /* \"@openzeppelin/contracts@4.7.3/security/Pausable.sol\":2255:2259  true */\n      0x01\n        /* \"@openzeppelin/contracts@4.7.3/security/Pausable.sol\":2245:2252  _paused */\n      0x05\n      0x00\n        /* \"@openzeppelin/contracts@4.7.3/security/Pausable.sol\":2245:2259  _paused = true */\n      0x0100\n      exp\n      dup2\n      sload\n      dup2\n      0xff\n      mul\n      not\n      and\n      swap1\n      dup4\n      iszero\n      iszero\n      mul\n      or\n      swap1\n      sstore\n      pop\n        /* \"@openzeppelin/contracts@4.7.3/security/Pausable.sol\":2274:2294  Paused(_msgSender()) */\n      0x62e78cea01bee320cd4e420270b5ea74000d11b0c9f74754ebdbfc544b05a258\n        /* \"@openzeppelin/contracts@4.7.3/security/Pausable.sol\":2281:2293  _msgSender() */\n      tag_298\n        /* \"@openzeppelin/contracts@4.7.3/security/Pausable.sol\":2281:2291  _msgSender */\n      tag_125\n        /* \"@openzeppelin/contracts@4.7.3/security/Pausable.sol\":2281:2293  _msgSender() */\n      jump\t// in\n    tag_298:\n        /* \"@openzeppelin/contracts@4.7.3/security/Pausable.sol\":2274:2294  Paused(_msgSender()) */\n      mload(0x40)\n      tag_299\n      swap2\n      swap1\n      tag_91\n      jump\t// in\n    tag_299:\n      mload(0x40)\n      dup1\n      swap2\n      sub\n      swap1\n      log1\n        /* \"@openzeppelin/contracts@4.7.3/security/Pausable.sol\":2186:2301  function _pause() internal virtual whenNotPaused {... */\n      jump\t// out\n        /* \"@openzeppelin/contracts@4.7.3/token/ERC20/extensions/draft-ERC20Permit.sol\":3129:3332  function _useNonce(address owner) internal virtual returns (uint256 current) {... */\n    tag_201:\n        /* \"@openzeppelin/contracts@4.7.3/token/ERC20/extensions/draft-ERC20Permit.sol\":3189:3204  uint256 current */\n      0x00\n        /* \"@openzeppelin/contracts@4.7.3/token/ERC20/extensions/draft-ERC20Permit.sol\":3216:3246  Counters.Counter storage nonce */\n      dup1\n        /* \"@openzeppelin/contracts@4.7.3/token/ERC20/extensions/draft-ERC20Permit.sol\":3249:3256  _nonces */\n      0x06\n        /* \"@openzeppelin/contracts@4.7.3/token/ERC20/extensions/draft-ERC20Permit.sol\":3249:3263  _nonces[owner] */\n      0x00\n        /* \"@openzeppelin/contracts@4.7.3/token/ERC20/extensions/draft-ERC20Permit.sol\":3257:3262  owner */\n      dup5\n        /* \"@openzeppelin/contracts@4.7.3/token/ERC20/extensions/draft-ERC20Permit.sol\":3249:3263  _nonces[owner] */\n      0xffffffffffffffffffffffffffffffffffffffff\n      and\n      0xffffffffffffffffffffffffffffffffffffffff\n      and\n      dup2\n      mstore\n      0x20\n      add\n      swap1\n      dup2\n      mstore\n      0x20\n      add\n      0x00\n      keccak256\n        /* \"@openzeppelin/contracts@4.7.3/token/ERC20/extensions/draft-ERC20Permit.sol\":3216:3263  Counters.Counter storage nonce = _nonces[owner] */\n      swap1\n      pop\n        /* \"@openzeppelin/contracts@4.7.3/token/ERC20/extensions/draft-ERC20Permit.sol\":3283:3298  nonce.current() */\n      tag_301\n        /* \"@openzeppelin/contracts@4.7.3/token/ERC20/extensions/draft-ERC20Permit.sol\":3283:3288  nonce */\n      dup2\n        /* \"@openzeppelin/contracts@4.7.3/token/ERC20/extensions/draft-ERC20Permit.sol\":3283:3296  nonce.current */\n      tag_173\n        /* \"@openzeppelin/contracts@4.7.3/token/ERC20/extensions/draft-ERC20Permit.sol\":3283:3298  nonce.current() */\n      jump\t// in\n    tag_301:\n        /* \"@openzeppelin/contracts@4.7.3/token/ERC20/extensions/draft-ERC20Permit.sol\":3273:3298  current = nonce.current() */\n      swap2\n      pop\n        /* \"@openzeppelin/contracts@4.7.3/token/ERC20/extensions/draft-ERC20Permit.sol\":3308:3325  nonce.increment() */\n      tag_302\n        /* \"@openzeppelin/contracts@4.7.3/token/ERC20/extensions/draft-ERC20Permit.sol\":3308:3313  nonce */\n      dup2\n        /* \"@openzeppelin/contracts@4.7.3/token/ERC20/extensions/draft-ERC20Permit.sol\":3308:3323  nonce.increment */\n      tag_303\n        /* \"@openzeppelin/contracts@4.7.3/token/ERC20/extensions/draft-ERC20Permit.sol\":3308:3325  nonce.increment() */\n      jump\t// in\n    tag_302:\n        /* \"@openzeppelin/contracts@4.7.3/token/ERC20/extensions/draft-ERC20Permit.sol\":3129:3332  function _useNonce(address owner) internal virtual returns (uint256 current) {... */\n      pop\n      swap2\n      swap1\n      pop\n      jump\t// out\n        /* \"@openzeppelin/contracts@4.7.3/utils/cryptography/draft-EIP712.sol\":4339:4504  function _hashTypedDataV4(bytes32 structHash) internal view virtual returns (bytes32) {... */\n    tag_205:\n        /* \"@openzeppelin/contracts@4.7.3/utils/cryptography/draft-EIP712.sol\":4416:4423  bytes32 */\n      0x00\n        /* \"@openzeppelin/contracts@4.7.3/utils/cryptography/draft-EIP712.sol\":4442:4497  ECDSA.toTypedDataHash(_domainSeparatorV4(), structHash) */\n      tag_305\n        /* \"@openzeppelin/contracts@4.7.3/utils/cryptography/draft-EIP712.sol\":4464:4484  _domainSeparatorV4() */\n      tag_306\n        /* \"@openzeppelin/contracts@4.7.3/utils/cryptography/draft-EIP712.sol\":4464:4482  _domainSeparatorV4 */\n      tag_138\n        /* \"@openzeppelin/contracts@4.7.3/utils/cryptography/draft-EIP712.sol\":4464:4484  _domainSeparatorV4() */\n      jump\t// in\n    tag_306:\n        /* \"@openzeppelin/contracts@4.7.3/utils/cryptography/draft-EIP712.sol\":4486:4496  structHash */\n      dup4\n        /* \"@openzeppelin/contracts@4.7.3/utils/cryptography/draft-EIP712.sol\":4442:4463  ECDSA.toTypedDataHash */\n      tag_307\n        /* \"@openzeppelin/contracts@4.7.3/utils/cryptography/draft-EIP712.sol\":4442:4497  ECDSA.toTypedDataHash(_domainSeparatorV4(), structHash) */\n      jump\t// in\n    tag_305:\n        /* \"@openzeppelin/contracts@4.7.3/utils/cryptography/draft-EIP712.sol\":4435:4497  return ECDSA.toTypedDataHash(_domainSeparatorV4(), structHash) */\n      swap1\n      pop\n        /* \"@openzeppelin/contracts@4.7.3/utils/cryptography/draft-EIP712.sol\":4339:4504  function _hashTypedDataV4(bytes32 structHash) internal view virtual returns (bytes32) {... */\n      swap2\n      swap1\n      pop\n      jump\t// out\n        /* \"@openzeppelin/contracts@4.7.3/utils/cryptography/ECDSA.sol\":6903:7173  function recover(... */\n    tag_207:\n        /* \"@openzeppelin/contracts@4.7.3/utils/cryptography/ECDSA.sol\":7026:7033  address */\n      0x00\n        /* \"@openzeppelin/contracts@4.7.3/utils/cryptography/ECDSA.sol\":7046:7063  address recovered */\n      dup1\n        /* \"@openzeppelin/contracts@4.7.3/utils/cryptography/ECDSA.sol\":7065:7083  RecoverError error */\n      0x00\n        /* \"@openzeppelin/contracts@4.7.3/utils/cryptography/ECDSA.sol\":7087:7112  tryRecover(hash, v, r, s) */\n      tag_309\n        /* \"@openzeppelin/contracts@4.7.3/utils/cryptography/ECDSA.sol\":7098:7102  hash */\n      dup8\n        /* \"@openzeppelin/contracts@4.7.3/utils/cryptography/ECDSA.sol\":7104:7105  v */\n      dup8\n        /* \"@openzeppelin/contracts@4.7.3/utils/cryptography/ECDSA.sol\":7107:7108  r */\n      dup8\n        /* \"@openzeppelin/contracts@4.7.3/utils/cryptography/ECDSA.sol\":7110:7111  s */\n      dup8\n        /* \"@openzeppelin/contracts@4.7.3/utils/cryptography/ECDSA.sol\":7087:7097  tryRecover */\n      tag_310\n        /* \"@openzeppelin/contracts@4.7.3/utils/cryptography/ECDSA.sol\":7087:7112  tryRecover(hash, v, r, s) */\n      jump\t// in\n    tag_309:\n        /* \"@openzeppelin/contracts@4.7.3/utils/cryptography/ECDSA.sol\":7045:7112  (address recovered, RecoverError error) = tryRecover(hash, v, r, s) */\n      swap2\n      pop\n      swap2\n      pop\n        /* \"@openzeppelin/contracts@4.7.3/utils/cryptography/ECDSA.sol\":7122:7140  _throwError(error) */\n      tag_311\n        /* \"@openzeppelin/contracts@4.7.3/utils/cryptography/ECDSA.sol\":7134:7139  error */\n      dup2\n        /* \"@openzeppelin/contracts@4.7.3/utils/cryptography/ECDSA.sol\":7122:7133  _throwError */\n      tag_312\n        /* \"@openzeppelin/contracts@4.7.3/utils/cryptography/ECDSA.sol\":7122:7140  _throwError(error) */\n      jump\t// in\n    tag_311:\n        /* \"@openzeppelin/contracts@4.7.3/utils/cryptography/ECDSA.sol\":7157:7166  recovered */\n      dup2\n        /* \"@openzeppelin/contracts@4.7.3/utils/cryptography/ECDSA.sol\":7150:7166  return recovered */\n      swap3\n      pop\n      pop\n      pop\n        /* \"@openzeppelin/contracts@4.7.3/utils/cryptography/ECDSA.sol\":6903:7173  function recover(... */\n      swap5\n      swap4\n      pop\n      pop\n      pop\n      pop\n      jump\t// out\n        /* \"contract-526c5b12e7.sol\":846:1039  function _beforeTokenTransfer(address from, address to, uint256 amount)... */\n    tag_245:\n        /* \"@openzeppelin/contracts@4.7.3/security/Pausable.sol\":1239:1258  _requireNotPaused() */\n      tag_314\n        /* \"@openzeppelin/contracts@4.7.3/security/Pausable.sol\":1239:1256  _requireNotPaused */\n      tag_296\n        /* \"@openzeppelin/contracts@4.7.3/security/Pausable.sol\":1239:1258  _requireNotPaused() */\n      jump\t// in\n    tag_314:\n        /* \"contract-526c5b12e7.sol\":988:1032  super._beforeTokenTransfer(from, to, amount) */\n      tag_316\n        /* \"contract-526c5b12e7.sol\":1015:1019  from */\n      dup4\n        /* \"contract-526c5b12e7.sol\":1021:1023  to */\n      dup4\n        /* \"contract-526c5b12e7.sol\":1025:1031  amount */\n      dup4\n        /* \"contract-526c5b12e7.sol\":988:1014  super._beforeTokenTransfer */\n      tag_115\n        /* \"contract-526c5b12e7.sol\":988:1032  super._beforeTokenTransfer(from, to, amount) */\n      jump\t// in\n    tag_316:\n        /* \"contract-526c5b12e7.sol\":846:1039  function _beforeTokenTransfer(address from, address to, uint256 amount)... */\n      pop\n      pop\n      pop\n      jump\t// out\n        /* \"@openzeppelin/contracts@4.7.3/token/ERC20/ERC20.sol\":12495:12615  function _afterTokenTransfer(... */\n    tag_252:\n      pop\n      pop\n      pop\n      jump\t// out\n        /* \"@openzeppelin/contracts@4.7.3/utils/cryptography/draft-EIP712.sol\":3457:3714  function _buildDomainSeparator(... */\n    tag_258:\n        /* \"@openzeppelin/contracts@4.7.3/utils/cryptography/draft-EIP712.sol\":3597:3604  bytes32 */\n      0x00\n        /* \"@openzeppelin/contracts@4.7.3/utils/cryptography/draft-EIP712.sol\":3644:3652  typeHash */\n      dup4\n        /* \"@openzeppelin/contracts@4.7.3/utils/cryptography/draft-EIP712.sol\":3654:3662  nameHash */\n      dup4\n        /* \"@openzeppelin/contracts@4.7.3/utils/cryptography/draft-EIP712.sol\":3664:3675  versionHash */\n      dup4\n        /* \"@openzeppelin/contracts@4.7.3/utils/cryptography/draft-EIP712.sol\":3677:3690  block.chainid */\n      chainid\n        /* \"@openzeppelin/contracts@4.7.3/utils/cryptography/draft-EIP712.sol\":3700:3704  this */\n      address\n        /* \"@openzeppelin/contracts@4.7.3/utils/cryptography/draft-EIP712.sol\":3633:3706  abi.encode(typeHash, nameHash, versionHash, block.chainid, address(this)) */\n      add(0x20, mload(0x40))\n      tag_319\n      swap6\n      swap5\n      swap4\n      swap3\n      swap2\n      swap1\n      tag_320\n      jump\t// in\n    tag_319:\n      mload(0x40)\n      0x20\n      dup2\n      dup4\n      sub\n      sub\n      dup2\n      mstore\n      swap1\n      0x40\n      mstore\n        /* \"@openzeppelin/contracts@4.7.3/utils/cryptography/draft-EIP712.sol\":3623:3707  keccak256(abi.encode(typeHash, nameHash, versionHash, block.chainid, address(this))) */\n      dup1\n      mload\n      swap1\n      0x20\n      add\n      keccak256\n        /* \"@openzeppelin/contracts@4.7.3/utils/cryptography/draft-EIP712.sol\":3616:3707  return keccak256(abi.encode(typeHash, nameHash, versionHash, block.chainid, address(this))) */\n      swap1\n      pop\n        /* \"@openzeppelin/contracts@4.7.3/utils/cryptography/draft-EIP712.sol\":3457:3714  function _buildDomainSeparator(... */\n      swap4\n      swap3\n      pop\n      pop\n      pop\n      jump\t// out\n        /* \"@openzeppelin/contracts@4.7.3/security/Pausable.sol\":1945:2051  function _requirePaused() internal view virtual {... */\n    tag_267:\n        /* \"@openzeppelin/contracts@4.7.3/security/Pausable.sol\":2011:2019  paused() */\n      tag_322\n        /* \"@openzeppelin/contracts@4.7.3/security/Pausable.sol\":2011:2017  paused */\n      tag_70\n        /* \"@openzeppelin/contracts@4.7.3/security/Pausable.sol\":2011:2019  paused() */\n      jump\t// in\n    tag_322:\n        /* \"@openzeppelin/contracts@4.7.3/security/Pausable.sol\":2003:2044  require(paused(), \"Pausable: not paused\") */\n      tag_323\n      jumpi\n      mload(0x40)\n      0x08c379a000000000000000000000000000000000000000000000000000000000\n      dup2\n      mstore\n      0x04\n      add\n      tag_324\n      swap1\n      tag_325\n      jump\t// in\n    tag_324:\n      mload(0x40)\n      dup1\n      swap2\n      sub\n      swap1\n      revert\n    tag_323:\n        /* \"@openzeppelin/contracts@4.7.3/security/Pausable.sol\":1945:2051  function _requirePaused() internal view virtual {... */\n      jump\t// out\n        /* \"@openzeppelin/contracts@4.7.3/security/Pausable.sol\":1767:1873  function _requireNotPaused() internal view virtual {... */\n    tag_296:\n        /* \"@openzeppelin/contracts@4.7.3/security/Pausable.sol\":1837:1845  paused() */\n      tag_327\n        /* \"@openzeppelin/contracts@4.7.3/security/Pausable.sol\":1837:1843  paused */\n      tag_70\n        /* \"@openzeppelin/contracts@4.7.3/security/Pausable.sol\":1837:1845  paused() */\n      jump\t// in\n    tag_327:\n        /* \"@openzeppelin/contracts@4.7.3/security/Pausable.sol\":1836:1845  !paused() */\n      iszero\n        /* \"@openzeppelin/contracts@4.7.3/security/Pausable.sol\":1828:1866  require(!paused(), \"Pausable: paused\") */\n      tag_328\n      jumpi\n      mload(0x40)\n      0x08c379a000000000000000000000000000000000000000000000000000000000\n      dup2\n      mstore\n      0x04\n      add\n      tag_329\n      swap1\n      tag_330\n      jump\t// in\n    tag_329:\n      mload(0x40)\n      dup1\n      swap2\n      sub\n      swap1\n      revert\n    tag_328:\n        /* \"@openzeppelin/contracts@4.7.3/security/Pausable.sol\":1767:1873  function _requireNotPaused() internal view virtual {... */\n      jump\t// out\n        /* \"@openzeppelin/contracts@4.7.3/utils/Counters.sol\":945:1068  function increment(Counter storage counter) internal {... */\n    tag_303:\n        /* \"@openzeppelin/contracts@4.7.3/utils/Counters.sol\":1050:1051  1 */\n      0x01\n        /* \"@openzeppelin/contracts@4.7.3/utils/Counters.sol\":1032:1039  counter */\n      dup2\n        /* \"@openzeppelin/contracts@4.7.3/utils/Counters.sol\":1032:1046  counter._value */\n      0x00\n      add\n      0x00\n        /* \"@openzeppelin/contracts@4.7.3/utils/Counters.sol\":1032:1051  counter._value += 1 */\n      dup3\n      dup3\n      sload\n      add\n      swap3\n      pop\n      pop\n      dup2\n      swap1\n      sstore\n      pop\n        /* \"@openzeppelin/contracts@4.7.3/utils/Counters.sol\":945:1068  function increment(Counter storage counter) internal {... */\n      pop\n      jump\t// out\n        /* \"@openzeppelin/contracts@4.7.3/utils/cryptography/ECDSA.sol\":8548:8742  function toTypedDataHash(bytes32 domainSeparator, bytes32 structHash) internal pure returns (bytes32) {... */\n    tag_307:\n        /* \"@openzeppelin/contracts@4.7.3/utils/cryptography/ECDSA.sol\":8641:8648  bytes32 */\n      0x00\n        /* \"@openzeppelin/contracts@4.7.3/utils/cryptography/ECDSA.sol\":8706:8721  domainSeparator */\n      dup3\n        /* \"@openzeppelin/contracts@4.7.3/utils/cryptography/ECDSA.sol\":8723:8733  structHash */\n      dup3\n        /* \"@openzeppelin/contracts@4.7.3/utils/cryptography/ECDSA.sol\":8677:8734  abi.encodePacked(\"\\x19\\x01\", domainSeparator, structHash) */\n      add(0x20, mload(0x40))\n      tag_333\n      swap3\n      swap2\n      swap1\n      tag_334\n      jump\t// in\n    tag_333:\n      mload(0x40)\n      0x20\n      dup2\n      dup4\n      sub\n      sub\n      dup2\n      mstore\n      swap1\n      0x40\n      mstore\n        /* \"@openzeppelin/contracts@4.7.3/utils/cryptography/ECDSA.sol\":8667:8735  keccak256(abi.encodePacked(\"\\x19\\x01\", domainSeparator, structHash)) */\n      dup1\n      mload\n      swap1\n      0x20\n      add\n      keccak256\n        /* \"@openzeppelin/contracts@4.7.3/utils/cryptography/ECDSA.sol\":8660:8735  return keccak256(abi.encodePacked(\"\\x19\\x01\", domainSeparator, structHash)) */\n      swap1\n      pop\n        /* \"@openzeppelin/contracts@4.7.3/utils/cryptography/ECDSA.sol\":8548:8742  function toTypedDataHash(bytes32 domainSeparator, bytes32 structHash) internal pure returns (bytes32) {... */\n      swap3\n      swap2\n      pop\n      pop\n      jump\t// out\n        /* \"@openzeppelin/contracts@4.7.3/utils/cryptography/ECDSA.sol\":5167:6770  function tryRecover(... */\n    tag_310:\n        /* \"@openzeppelin/contracts@4.7.3/utils/cryptography/ECDSA.sol\":5293:5300  address */\n      0x00\n        /* \"@openzeppelin/contracts@4.7.3/utils/cryptography/ECDSA.sol\":5302:5314  RecoverError */\n      dup1\n        /* \"@openzeppelin/contracts@4.7.3/utils/cryptography/ECDSA.sol\":6217:6283  0x7FFFFFFFFFFFFFFFFFFFFFFFFFFFFFFF5D576E7357A4501DDFE92F46681B20A0 */\n      0x7fffffffffffffffffffffffffffffff5d576e7357a4501ddfe92f46681b20a0\n        /* \"@openzeppelin/contracts@4.7.3/utils/cryptography/ECDSA.sol\":6212:6213  s */\n      dup4\n        /* \"@openzeppelin/contracts@4.7.3/utils/cryptography/ECDSA.sol\":6204:6214  uint256(s) */\n      0x00\n      shr\n        /* \"@openzeppelin/contracts@4.7.3/utils/cryptography/ECDSA.sol\":6204:6283  uint256(s) > 0x7FFFFFFFFFFFFFFFFFFFFFFFFFFFFFFF5D576E7357A4501DDFE92F46681B20A0 */\n      gt\n        /* \"@openzeppelin/contracts@4.7.3/utils/cryptography/ECDSA.sol\":6200:6361  if (uint256(s) > 0x7FFFFFFFFFFFFFFFFFFFFFFFFFFFFFFF5D576E7357A4501DDFE92F46681B20A0) {... */\n      iszero\n      tag_336\n      jumpi\n        /* \"@openzeppelin/contracts@4.7.3/utils/cryptography/ECDSA.sol\":6315:6316  0 */\n      0x00\n        /* \"@openzeppelin/contracts@4.7.3/utils/cryptography/ECDSA.sol\":6319:6349  RecoverError.InvalidSignatureS */\n      0x03\n        /* \"@openzeppelin/contracts@4.7.3/utils/cryptography/ECDSA.sol\":6299:6350  return (address(0), RecoverError.InvalidSignatureS) */\n      swap2\n      pop\n      swap2\n      pop\n      jump(tag_335)\n        /* \"@openzeppelin/contracts@4.7.3/utils/cryptography/ECDSA.sol\":6200:6361  if (uint256(s) > 0x7FFFFFFFFFFFFFFFFFFFFFFFFFFFFFFF5D576E7357A4501DDFE92F46681B20A0) {... */\n    tag_336:\n        /* \"@openzeppelin/contracts@4.7.3/utils/cryptography/ECDSA.sol\":6379:6381  27 */\n      0x1b\n        /* \"@openzeppelin/contracts@4.7.3/utils/cryptography/ECDSA.sol\":6374:6375  v */\n      dup6\n        /* \"@openzeppelin/contracts@4.7.3/utils/cryptography/ECDSA.sol\":6374:6381  v != 27 */\n      0xff\n      and\n      eq\n      iszero\n        /* \"@openzeppelin/contracts@4.7.3/utils/cryptography/ECDSA.sol\":6374:6392  v != 27 && v != 28 */\n      dup1\n      iszero\n      tag_337\n      jumpi\n      pop\n        /* \"@openzeppelin/contracts@4.7.3/utils/cryptography/ECDSA.sol\":6390:6392  28 */\n      0x1c\n        /* \"@openzeppelin/contracts@4.7.3/utils/cryptography/ECDSA.sol\":6385:6386  v */\n      dup6\n        /* \"@openzeppelin/contracts@4.7.3/utils/cryptography/ECDSA.sol\":6385:6392  v != 28 */\n      0xff\n      and\n      eq\n      iszero\n        /* \"@openzeppelin/contracts@4.7.3/utils/cryptography/ECDSA.sol\":6374:6392  v != 27 && v != 28 */\n    tag_337:\n        /* \"@openzeppelin/contracts@4.7.3/utils/cryptography/ECDSA.sol\":6370:6470  if (v != 27 && v != 28) {... */\n      iszero\n      tag_338\n      jumpi\n        /* \"@openzeppelin/contracts@4.7.3/utils/cryptography/ECDSA.sol\":6424:6425  0 */\n      0x00\n        /* \"@openzeppelin/contracts@4.7.3/utils/cryptography/ECDSA.sol\":6428:6458  RecoverError.InvalidSignatureV */\n      0x04\n        /* \"@openzeppelin/contracts@4.7.3/utils/cryptography/ECDSA.sol\":6408:6459  return (address(0), RecoverError.InvalidSignatureV) */\n      swap2\n      pop\n      swap2\n      pop\n      jump(tag_335)\n        /* \"@openzeppelin/contracts@4.7.3/utils/cryptography/ECDSA.sol\":6370:6470  if (v != 27 && v != 28) {... */\n    tag_338:\n        /* \"@openzeppelin/contracts@4.7.3/utils/cryptography/ECDSA.sol\":6564:6578  address signer */\n      0x00\n        /* \"@openzeppelin/contracts@4.7.3/utils/cryptography/ECDSA.sol\":6581:6605  ecrecover(hash, v, r, s) */\n      0x01\n        /* \"@openzeppelin/contracts@4.7.3/utils/cryptography/ECDSA.sol\":6591:6595  hash */\n      dup8\n        /* \"@openzeppelin/contracts@4.7.3/utils/cryptography/ECDSA.sol\":6597:6598  v */\n      dup8\n        /* \"@openzeppelin/contracts@4.7.3/utils/cryptography/ECDSA.sol\":6600:6601  r */\n      dup8\n        /* \"@openzeppelin/contracts@4.7.3/utils/cryptography/ECDSA.sol\":6603:6604  s */\n      dup8\n        /* \"@openzeppelin/contracts@4.7.3/utils/cryptography/ECDSA.sol\":6581:6605  ecrecover(hash, v, r, s) */\n      mload(0x40)\n      0x00\n      dup2\n      mstore\n      0x20\n      add\n      0x40\n      mstore\n      mload(0x40)\n      tag_339\n      swap5\n      swap4\n      swap3\n      swap2\n      swap1\n      tag_340\n      jump\t// in\n    tag_339:\n      0x20\n      mload(0x40)\n      0x20\n      dup2\n      sub\n      swap1\n      dup1\n      dup5\n      sub\n      swap1\n      dup6\n      gas\n      staticcall\n      iszero\n      dup1\n      iszero\n      tag_342\n      jumpi\n      returndatasize\n      0x00\n      dup1\n      returndatacopy\n      revert(0x00, returndatasize)\n    tag_342:\n      pop\n      pop\n      pop\n      mload(sub(mload(0x40), 0x20))\n        /* \"@openzeppelin/contracts@4.7.3/utils/cryptography/ECDSA.sol\":6564:6605  address signer = ecrecover(hash, v, r, s) */\n      swap1\n      pop\n        /* \"@openzeppelin/contracts@4.7.3/utils/cryptography/ECDSA.sol\":6637:6638  0 */\n      0x00\n        /* \"@openzeppelin/contracts@4.7.3/utils/cryptography/ECDSA.sol\":6619:6639  signer == address(0) */\n      0xffffffffffffffffffffffffffffffffffffffff\n      and\n        /* \"@openzeppelin/contracts@4.7.3/utils/cryptography/ECDSA.sol\":6619:6625  signer */\n      dup2\n        /* \"@openzeppelin/contracts@4.7.3/utils/cryptography/ECDSA.sol\":6619:6639  signer == address(0) */\n      0xffffffffffffffffffffffffffffffffffffffff\n      and\n      eq\n        /* \"@openzeppelin/contracts@4.7.3/utils/cryptography/ECDSA.sol\":6615:6716  if (signer == address(0)) {... */\n      iszero\n      tag_343\n      jumpi\n        /* \"@openzeppelin/contracts@4.7.3/utils/cryptography/ECDSA.sol\":6671:6672  0 */\n      0x00\n        /* \"@openzeppelin/contracts@4.7.3/utils/cryptography/ECDSA.sol\":6675:6704  RecoverError.InvalidSignature */\n      0x01\n        /* \"@openzeppelin/contracts@4.7.3/utils/cryptography/ECDSA.sol\":6655:6705  return (address(0), RecoverError.InvalidSignature) */\n      swap3\n      pop\n      swap3\n      pop\n      pop\n      jump(tag_335)\n        /* \"@openzeppelin/contracts@4.7.3/utils/cryptography/ECDSA.sol\":6615:6716  if (signer == address(0)) {... */\n    tag_343:\n        /* \"@openzeppelin/contracts@4.7.3/utils/cryptography/ECDSA.sol\":6734:6740  signer */\n      dup1\n        /* \"@openzeppelin/contracts@4.7.3/utils/cryptography/ECDSA.sol\":6742:6762  RecoverError.NoError */\n      0x00\n        /* \"@openzeppelin/contracts@4.7.3/utils/cryptography/ECDSA.sol\":6726:6763  return (signer, RecoverError.NoError) */\n      swap3\n      pop\n      swap3\n      pop\n      pop\n        /* \"@openzeppelin/contracts@4.7.3/utils/cryptography/ECDSA.sol\":5167:6770  function tryRecover(... */\n    tag_335:\n      swap5\n      pop\n      swap5\n      swap3\n      pop\n      pop\n      pop\n      jump\t// out\n        /* \"@openzeppelin/contracts@4.7.3/utils/cryptography/ECDSA.sol\":548:1179  function _throwError(RecoverError error) private pure {... */\n    tag_312:\n        /* \"@openzeppelin/contracts@4.7.3/utils/cryptography/ECDSA.sol\":625:645  RecoverError.NoError */\n      0x00\n        /* \"@openzeppelin/contracts@4.7.3/utils/cryptography/ECDSA.sol\":616:645  error == RecoverError.NoError */\n      0x04\n      dup2\n      gt\n      iszero\n      tag_345\n      jumpi\n      mstore(0x00, 0x4e487b7100000000000000000000000000000000000000000000000000000000)\n      mstore(0x04, 0x21)\n      revert(0x00, 0x24)\n    tag_345:\n        /* \"@openzeppelin/contracts@4.7.3/utils/cryptography/ECDSA.sol\":616:621  error */\n      dup2\n        /* \"@openzeppelin/contracts@4.7.3/utils/cryptography/ECDSA.sol\":616:645  error == RecoverError.NoError */\n      0x04\n      dup2\n      gt\n      iszero\n      tag_346\n      jumpi\n      mstore(0x00, 0x4e487b7100000000000000000000000000000000000000000000000000000000)\n      mstore(0x04, 0x21)\n      revert(0x00, 0x24)\n    tag_346:\n      eq\n        /* \"@openzeppelin/contracts@4.7.3/utils/cryptography/ECDSA.sol\":612:1173  if (error == RecoverError.NoError) {... */\n      iszero\n      tag_347\n      jumpi\n        /* \"@openzeppelin/contracts@4.7.3/utils/cryptography/ECDSA.sol\":661:668  return; */\n      jump(tag_344)\n        /* \"@openzeppelin/contracts@4.7.3/utils/cryptography/ECDSA.sol\":612:1173  if (error == RecoverError.NoError) {... */\n    tag_347:\n        /* \"@openzeppelin/contracts@4.7.3/utils/cryptography/ECDSA.sol\":721:750  RecoverError.InvalidSignature */\n      0x01\n        /* \"@openzeppelin/contracts@4.7.3/utils/cryptography/ECDSA.sol\":712:750  error == RecoverError.InvalidSignature */\n      0x04\n      dup2\n      gt\n      iszero\n      tag_349\n      jumpi\n      mstore(0x00, 0x4e487b7100000000000000000000000000000000000000000000000000000000)\n      mstore(0x04, 0x21)\n      revert(0x00, 0x24)\n    tag_349:\n        /* \"@openzeppelin/contracts@4.7.3/utils/cryptography/ECDSA.sol\":712:717  error */\n      dup2\n        /* \"@openzeppelin/contracts@4.7.3/utils/cryptography/ECDSA.sol\":712:750  error == RecoverError.InvalidSignature */\n      0x04\n      dup2\n      gt\n      iszero\n      tag_350\n      jumpi\n      mstore(0x00, 0x4e487b7100000000000000000000000000000000000000000000000000000000)\n      mstore(0x04, 0x21)\n      revert(0x00, 0x24)\n    tag_350:\n      eq\n        /* \"@openzeppelin/contracts@4.7.3/utils/cryptography/ECDSA.sol\":708:1173  if (error == RecoverError.InvalidSignature) {... */\n      iszero\n      tag_351\n      jumpi\n        /* \"@openzeppelin/contracts@4.7.3/utils/cryptography/ECDSA.sol\":766:800  revert(\"ECDSA: invalid signature\") */\n      mload(0x40)\n      0x08c379a000000000000000000000000000000000000000000000000000000000\n      dup2\n      mstore\n      0x04\n      add\n      tag_352\n      swap1\n      tag_353\n      jump\t// in\n    tag_352:\n      mload(0x40)\n      dup1\n      swap2\n      sub\n      swap1\n      revert\n        /* \"@openzeppelin/contracts@4.7.3/utils/cryptography/ECDSA.sol\":708:1173  if (error == RecoverError.InvalidSignature) {... */\n    tag_351:\n        /* \"@openzeppelin/contracts@4.7.3/utils/cryptography/ECDSA.sol\":830:865  RecoverError.InvalidSignatureLength */\n      0x02\n        /* \"@openzeppelin/contracts@4.7.3/utils/cryptography/ECDSA.sol\":821:865  error == RecoverError.InvalidSignatureLength */\n      0x04\n      dup2\n      gt\n      iszero\n      tag_355\n      jumpi\n      mstore(0x00, 0x4e487b7100000000000000000000000000000000000000000000000000000000)\n      mstore(0x04, 0x21)\n      revert(0x00, 0x24)\n    tag_355:\n        /* \"@openzeppelin/contracts@4.7.3/utils/cryptography/ECDSA.sol\":821:826  error */\n      dup2\n        /* \"@openzeppelin/contracts@4.7.3/utils/cryptography/ECDSA.sol\":821:865  error == RecoverError.InvalidSignatureLength */\n      0x04\n      dup2\n      gt\n      iszero\n      tag_356\n      jumpi\n      mstore(0x00, 0x4e487b7100000000000000000000000000000000000000000000000000000000)\n      mstore(0x04, 0x21)\n      revert(0x00, 0x24)\n    tag_356:\n      eq\n        /* \"@openzeppelin/contracts@4.7.3/utils/cryptography/ECDSA.sol\":817:1173  if (error == RecoverError.InvalidSignatureLength) {... */\n      iszero\n      tag_357\n      jumpi\n        /* \"@openzeppelin/contracts@4.7.3/utils/cryptography/ECDSA.sol\":881:922  revert(\"ECDSA: invalid signature length\") */\n      mload(0x40)\n      0x08c379a000000000000000000000000000000000000000000000000000000000\n      dup2\n      mstore\n      0x04\n      add\n      tag_358\n      swap1\n      tag_359\n      jump\t// in\n    tag_358:\n      mload(0x40)\n      dup1\n      swap2\n      sub\n      swap1\n      revert\n        /* \"@openzeppelin/contracts@4.7.3/utils/cryptography/ECDSA.sol\":817:1173  if (error == RecoverError.InvalidSignatureLength) {... */\n    tag_357:\n        /* \"@openzeppelin/contracts@4.7.3/utils/cryptography/ECDSA.sol\":952:982  RecoverError.InvalidSignatureS */\n      0x03\n        /* \"@openzeppelin/contracts@4.7.3/utils/cryptography/ECDSA.sol\":943:982  error == RecoverError.InvalidSignatureS */\n      0x04\n      dup2\n      gt\n      iszero\n      tag_361\n      jumpi\n      mstore(0x00, 0x4e487b7100000000000000000000000000000000000000000000000000000000)\n      mstore(0x04, 0x21)\n      revert(0x00, 0x24)\n    tag_361:\n        /* \"@openzeppelin/contracts@4.7.3/utils/cryptography/ECDSA.sol\":943:948  error */\n      dup2\n        /* \"@openzeppelin/contracts@4.7.3/utils/cryptography/ECDSA.sol\":943:982  error == RecoverError.InvalidSignatureS */\n      0x04\n      dup2\n      gt\n      iszero\n      tag_362\n      jumpi\n      mstore(0x00, 0x4e487b7100000000000000000000000000000000000000000000000000000000)\n      mstore(0x04, 0x21)\n      revert(0x00, 0x24)\n    tag_362:\n      eq\n        /* \"@openzeppelin/contracts@4.7.3/utils/cryptography/ECDSA.sol\":939:1173  if (error == RecoverError.InvalidSignatureS) {... */\n      iszero\n      tag_363\n      jumpi\n        /* \"@openzeppelin/contracts@4.7.3/utils/cryptography/ECDSA.sol\":998:1042  revert(\"ECDSA: invalid signature 's' value\") */\n      mload(0x40)\n      0x08c379a000000000000000000000000000000000000000000000000000000000\n      dup2\n      mstore\n      0x04\n      add\n      tag_364\n      swap1\n      tag_365\n      jump\t// in\n    tag_364:\n      mload(0x40)\n      dup1\n      swap2\n      sub\n      swap1\n      revert\n        /* \"@openzeppelin/contracts@4.7.3/utils/cryptography/ECDSA.sol\":939:1173  if (error == RecoverError.InvalidSignatureS) {... */\n    tag_363:\n        /* \"@openzeppelin/contracts@4.7.3/utils/cryptography/ECDSA.sol\":1072:1102  RecoverError.InvalidSignatureV */\n      0x04\n        /* \"@openzeppelin/contracts@4.7.3/utils/cryptography/ECDSA.sol\":1063:1102  error == RecoverError.InvalidSignatureV */\n      dup1\n      dup2\n      gt\n      iszero\n      tag_367\n      jumpi\n      mstore(0x00, 0x4e487b7100000000000000000000000000000000000000000000000000000000)\n      mstore(0x04, 0x21)\n      revert(0x00, 0x24)\n    tag_367:\n        /* \"@openzeppelin/contracts@4.7.3/utils/cryptography/ECDSA.sol\":1063:1068  error */\n      dup2\n        /* \"@openzeppelin/contracts@4.7.3/utils/cryptography/ECDSA.sol\":1063:1102  error == RecoverError.InvalidSignatureV */\n      0x04\n      dup2\n      gt\n      iszero\n      tag_368\n      jumpi\n      mstore(0x00, 0x4e487b7100000000000000000000000000000000000000000000000000000000)\n      mstore(0x04, 0x21)\n      revert(0x00, 0x24)\n    tag_368:\n      eq\n        /* \"@openzeppelin/contracts@4.7.3/utils/cryptography/ECDSA.sol\":1059:1173  if (error == RecoverError.InvalidSignatureV) {... */\n      iszero\n      tag_369\n      jumpi\n        /* \"@openzeppelin/contracts@4.7.3/utils/cryptography/ECDSA.sol\":1118:1162  revert(\"ECDSA: invalid signature 'v' value\") */\n      mload(0x40)\n      0x08c379a000000000000000000000000000000000000000000000000000000000\n      dup2\n      mstore\n      0x04\n      add\n      tag_370\n      swap1\n      tag_371\n      jump\t// in\n    tag_370:\n      mload(0x40)\n      dup1\n      swap2\n      sub\n      swap1\n      revert\n        /* \"@openzeppelin/contracts@4.7.3/utils/cryptography/ECDSA.sol\":1059:1173  if (error == RecoverError.InvalidSignatureV) {... */\n    tag_369:\n        /* \"@openzeppelin/contracts@4.7.3/utils/cryptography/ECDSA.sol\":548:1179  function _throwError(RecoverError error) private pure {... */\n    tag_344:\n      pop\n      jump\t// out\n        /* \"#utility.yul\":7:146   */\n    tag_373:\n        /* \"#utility.yul\":53:58   */\n      0x00\n        /* \"#utility.yul\":91:97   */\n      dup2\n        /* \"#utility.yul\":78:98   */\n      calldataload\n        /* \"#utility.yul\":69:98   */\n      swap1\n      pop\n        /* \"#utility.yul\":107:140   */\n      tag_375\n        /* \"#utility.yul\":134:139   */\n      dup2\n        /* \"#utility.yul\":107:140   */\n      tag_376\n      jump\t// in\n    tag_375:\n        /* \"#utility.yul\":59:146   */\n      swap3\n      swap2\n      pop\n      pop\n      jump\t// out\n        /* \"#utility.yul\":152:291   */\n    tag_377:\n        /* \"#utility.yul\":198:203   */\n      0x00\n        /* \"#utility.yul\":236:242   */\n      dup2\n        /* \"#utility.yul\":223:243   */\n      calldataload\n        /* \"#utility.yul\":214:243   */\n      swap1\n      pop\n        /* \"#utility.yul\":252:285   */\n      tag_379\n        /* \"#utility.yul\":279:284   */\n      dup2\n        /* \"#utility.yul\":252:285   */\n      tag_380\n      jump\t// in\n    tag_379:\n        /* \"#utility.yul\":204:291   */\n      swap3\n      swap2\n      pop\n      pop\n      jump\t// out\n        /* \"#utility.yul\":297:436   */\n    tag_381:\n        /* \"#utility.yul\":343:348   */\n      0x00\n        /* \"#utility.yul\":381:387   */\n      dup2\n        /* \"#utility.yul\":368:388   */\n      calldataload\n        /* \"#utility.yul\":359:388   */\n      swap1\n      pop\n        /* \"#utility.yul\":397:430   */\n      tag_383\n        /* \"#utility.yul\":424:429   */\n      dup2\n        /* \"#utility.yul\":397:430   */\n      tag_384\n      jump\t// in\n    tag_383:\n        /* \"#utility.yul\":349:436   */\n      swap3\n      swap2\n      pop\n      pop\n      jump\t// out\n        /* \"#utility.yul\":442:577   */\n    tag_385:\n        /* \"#utility.yul\":486:491   */\n      0x00\n        /* \"#utility.yul\":524:530   */\n      dup2\n        /* \"#utility.yul\":511:531   */\n      calldataload\n        /* \"#utility.yul\":502:531   */\n      swap1\n      pop\n        /* \"#utility.yul\":540:571   */\n      tag_387\n        /* \"#utility.yul\":565:570   */\n      dup2\n        /* \"#utility.yul\":540:571   */\n      tag_388\n      jump\t// in\n    tag_387:\n        /* \"#utility.yul\":492:577   */\n      swap3\n      swap2\n      pop\n      pop\n      jump\t// out\n        /* \"#utility.yul\":583:845   */\n    tag_74:\n        /* \"#utility.yul\":642:648   */\n      0x00\n        /* \"#utility.yul\":691:693   */\n      0x20\n        /* \"#utility.yul\":679:688   */\n      dup3\n        /* \"#utility.yul\":670:677   */\n      dup5\n        /* \"#utility.yul\":666:689   */\n      sub\n        /* \"#utility.yul\":662:694   */\n      slt\n        /* \"#utility.yul\":659:661   */\n      iszero\n      tag_390\n      jumpi\n        /* \"#utility.yul\":707:708   */\n      0x00\n        /* \"#utility.yul\":704:705   */\n      dup1\n        /* \"#utility.yul\":697:709   */\n      revert\n        /* \"#utility.yul\":659:661   */\n    tag_390:\n        /* \"#utility.yul\":750:751   */\n      0x00\n        /* \"#utility.yul\":775:828   */\n      tag_391\n        /* \"#utility.yul\":820:827   */\n      dup5\n        /* \"#utility.yul\":811:817   */\n      dup3\n        /* \"#utility.yul\":800:809   */\n      dup6\n        /* \"#utility.yul\":796:818   */\n      add\n        /* \"#utility.yul\":775:828   */\n      tag_373\n      jump\t// in\n    tag_391:\n        /* \"#utility.yul\":765:828   */\n      swap2\n      pop\n        /* \"#utility.yul\":721:838   */\n      pop\n        /* \"#utility.yul\":649:845   */\n      swap3\n      swap2\n      pop\n      pop\n      jump\t// out\n        /* \"#utility.yul\":851:1258   */\n    tag_109:\n        /* \"#utility.yul\":919:925   */\n      0x00\n        /* \"#utility.yul\":927:933   */\n      dup1\n        /* \"#utility.yul\":976:978   */\n      0x40\n        /* \"#utility.yul\":964:973   */\n      dup4\n        /* \"#utility.yul\":955:962   */\n      dup6\n        /* \"#utility.yul\":951:974   */\n      sub\n        /* \"#utility.yul\":947:979   */\n      slt\n        /* \"#utility.yul\":944:946   */\n      iszero\n      tag_393\n      jumpi\n        /* \"#utility.yul\":992:993   */\n      0x00\n        /* \"#utility.yul\":989:990   */\n      dup1\n        /* \"#utility.yul\":982:994   */\n      revert\n        /* \"#utility.yul\":944:946   */\n    tag_393:\n        /* \"#utility.yul\":1035:1036   */\n      0x00\n        /* \"#utility.yul\":1060:1113   */\n      tag_394\n        /* \"#utility.yul\":1105:1112   */\n      dup6\n        /* \"#utility.yul\":1096:1102   */\n      dup3\n        /* \"#utility.yul\":1085:1094   */\n      dup7\n        /* \"#utility.yul\":1081:1103   */\n      add\n        /* \"#utility.yul\":1060:1113   */\n      tag_373\n      jump\t// in\n    tag_394:\n        /* \"#utility.yul\":1050:1113   */\n      swap3\n      pop\n        /* \"#utility.yul\":1006:1123   */\n      pop\n        /* \"#utility.yul\":1162:1164   */\n      0x20\n        /* \"#utility.yul\":1188:1241   */\n      tag_395\n        /* \"#utility.yul\":1233:1240   */\n      dup6\n        /* \"#utility.yul\":1224:1230   */\n      dup3\n        /* \"#utility.yul\":1213:1222   */\n      dup7\n        /* \"#utility.yul\":1209:1231   */\n      add\n        /* \"#utility.yul\":1188:1241   */\n      tag_373\n      jump\t// in\n    tag_395:\n        /* \"#utility.yul\":1178:1241   */\n      swap2\n      pop\n        /* \"#utility.yul\":1133:1251   */\n      pop\n        /* \"#utility.yul\":934:1258   */\n      swap3\n      pop\n      swap3\n      swap1\n      pop\n      jump\t// out\n        /* \"#utility.yul\":1264:1816   */\n    tag_45:\n        /* \"#utility.yul\":1341:1347   */\n      0x00\n        /* \"#utility.yul\":1349:1355   */\n      dup1\n        /* \"#utility.yul\":1357:1363   */\n      0x00\n        /* \"#utility.yul\":1406:1408   */\n      0x60\n        /* \"#utility.yul\":1394:1403   */\n      dup5\n        /* \"#utility.yul\":1385:1392   */\n      dup7\n        /* \"#utility.yul\":1381:1404   */\n      sub\n        /* \"#utility.yul\":1377:1409   */\n      slt\n        /* \"#utility.yul\":1374:1376   */\n      iszero\n      tag_397\n      jumpi\n        /* \"#utility.yul\":1422:1423   */\n      0x00\n        /* \"#utility.yul\":1419:1420   */\n      dup1\n        /* \"#utility.yul\":1412:1424   */\n      revert\n        /* \"#utility.yul\":1374:1376   */\n    tag_397:\n        /* \"#utility.yul\":1465:1466   */\n      0x00\n        /* \"#utility.yul\":1490:1543   */\n      tag_398\n        /* \"#utility.yul\":1535:1542   */\n      dup7\n        /* \"#utility.yul\":1526:1532   */\n      dup3\n        /* \"#utility.yul\":1515:1524   */\n      dup8\n        /* \"#utility.yul\":1511:1533   */\n      add\n        /* \"#utility.yul\":1490:1543   */\n      tag_373\n      jump\t// in\n    tag_398:\n        /* \"#utility.yul\":1480:1543   */\n      swap4\n      pop\n        /* \"#utility.yul\":1436:1553   */\n      pop\n        /* \"#utility.yul\":1592:1594   */\n      0x20\n        /* \"#utility.yul\":1618:1671   */\n      tag_399\n        /* \"#utility.yul\":1663:1670   */\n      dup7\n        /* \"#utility.yul\":1654:1660   */\n      dup3\n        /* \"#utility.yul\":1643:1652   */\n      dup8\n        /* \"#utility.yul\":1639:1661   */\n      add\n        /* \"#utility.yul\":1618:1671   */\n      tag_373\n      jump\t// in\n    tag_399:\n        /* \"#utility.yul\":1608:1671   */\n      swap3\n      pop\n        /* \"#utility.yul\":1563:1681   */\n      pop\n        /* \"#utility.yul\":1720:1722   */\n      0x40\n        /* \"#utility.yul\":1746:1799   */\n      tag_400\n        /* \"#utility.yul\":1791:1798   */\n      dup7\n        /* \"#utility.yul\":1782:1788   */\n      dup3\n        /* \"#utility.yul\":1771:1780   */\n      dup8\n        /* \"#utility.yul\":1767:1789   */\n      add\n        /* \"#utility.yul\":1746:1799   */\n      tag_381\n      jump\t// in\n    tag_400:\n        /* \"#utility.yul\":1736:1799   */\n      swap2\n      pop\n        /* \"#utility.yul\":1691:1809   */\n      pop\n        /* \"#utility.yul\":1364:1816   */\n      swap3\n      pop\n      swap3\n      pop\n      swap3\n      jump\t// out\n        /* \"#utility.yul\":1822:2954   */\n    tag_105:\n        /* \"#utility.yul\":1933:1939   */\n      0x00\n        /* \"#utility.yul\":1941:1947   */\n      dup1\n        /* \"#utility.yul\":1949:1955   */\n      0x00\n        /* \"#utility.yul\":1957:1963   */\n      dup1\n        /* \"#utility.yul\":1965:1971   */\n      0x00\n        /* \"#utility.yul\":1973:1979   */\n      dup1\n        /* \"#utility.yul\":1981:1987   */\n      0x00\n        /* \"#utility.yul\":2030:2033   */\n      0xe0\n        /* \"#utility.yul\":2018:2027   */\n      dup9\n        /* \"#utility.yul\":2009:2016   */\n      dup11\n        /* \"#utility.yul\":2005:2028   */\n      sub\n        /* \"#utility.yul\":2001:2034   */\n      slt\n        /* \"#utility.yul\":1998:2000   */\n      iszero\n      tag_402\n      jumpi\n        /* \"#utility.yul\":2047:2048   */\n      0x00\n        /* \"#utility.yul\":2044:2045   */\n      dup1\n        /* \"#utility.yul\":2037:2049   */\n      revert\n        /* \"#utility.yul\":1998:2000   */\n    tag_402:\n        /* \"#utility.yul\":2090:2091   */\n      0x00\n        /* \"#utility.yul\":2115:2168   */\n      tag_403\n        /* \"#utility.yul\":2160:2167   */\n      dup11\n        /* \"#utility.yul\":2151:2157   */\n      dup3\n        /* \"#utility.yul\":2140:2149   */\n      dup12\n        /* \"#utility.yul\":2136:2158   */\n      add\n        /* \"#utility.yul\":2115:2168   */\n      tag_373\n      jump\t// in\n    tag_403:\n        /* \"#utility.yul\":2105:2168   */\n      swap8\n      pop\n        /* \"#utility.yul\":2061:2178   */\n      pop\n        /* \"#utility.yul\":2217:2219   */\n      0x20\n        /* \"#utility.yul\":2243:2296   */\n      tag_404\n        /* \"#utility.yul\":2288:2295   */\n      dup11\n        /* \"#utility.yul\":2279:2285   */\n      dup3\n        /* \"#utility.yul\":2268:2277   */\n      dup12\n        /* \"#utility.yul\":2264:2286   */\n      add\n        /* \"#utility.yul\":2243:2296   */\n      tag_373\n      jump\t// in\n    tag_404:\n        /* \"#utility.yul\":2233:2296   */\n      swap7\n      pop\n        /* \"#utility.yul\":2188:2306   */\n      pop\n        /* \"#utility.yul\":2345:2347   */\n      0x40\n        /* \"#utility.yul\":2371:2424   */\n      tag_405\n        /* \"#utility.yul\":2416:2423   */\n      dup11\n        /* \"#utility.yul\":2407:2413   */\n      dup3\n        /* \"#utility.yul\":2396:2405   */\n      dup12\n        /* \"#utility.yul\":2392:2414   */\n      add\n        /* \"#utility.yul\":2371:2424   */\n      tag_381\n      jump\t// in\n    tag_405:\n        /* \"#utility.yul\":2361:2424   */\n      swap6\n      pop\n        /* \"#utility.yul\":2316:2434   */\n      pop\n        /* \"#utility.yul\":2473:2475   */\n      0x60\n        /* \"#utility.yul\":2499:2552   */\n      tag_406\n        /* \"#utility.yul\":2544:2551   */\n      dup11\n        /* \"#utility.yul\":2535:2541   */\n      dup3\n        /* \"#utility.yul\":2524:2533   */\n      dup12\n        /* \"#utility.yul\":2520:2542   */\n      add\n        /* \"#utility.yul\":2499:2552   */\n      tag_381\n      jump\t// in\n    tag_406:\n        /* \"#utility.yul\":2489:2552   */\n      swap5\n      pop\n        /* \"#utility.yul\":2444:2562   */\n      pop\n        /* \"#utility.yul\":2601:2604   */\n      0x80\n        /* \"#utility.yul\":2628:2679   */\n      tag_407\n        /* \"#utility.yul\":2671:2678   */\n      dup11\n        /* \"#utility.yul\":2662:2668   */\n      dup3\n        /* \"#utility.yul\":2651:2660   */\n      dup12\n        /* \"#utility.yul\":2647:2669   */\n      add\n        /* \"#utility.yul\":2628:2679   */\n      tag_385\n      jump\t// in\n    tag_407:\n        /* \"#utility.yul\":2618:2679   */\n      swap4\n      pop\n        /* \"#utility.yul\":2572:2689   */\n      pop\n        /* \"#utility.yul\":2728:2731   */\n      0xa0\n        /* \"#utility.yul\":2755:2808   */\n      tag_408\n        /* \"#utility.yul\":2800:2807   */\n      dup11\n        /* \"#utility.yul\":2791:2797   */\n      dup3\n        /* \"#utility.yul\":2780:2789   */\n      dup12\n        /* \"#utility.yul\":2776:2798   */\n      add\n        /* \"#utility.yul\":2755:2808   */\n      tag_377\n      jump\t// in\n    tag_408:\n        /* \"#utility.yul\":2745:2808   */\n      swap3\n      pop\n        /* \"#utility.yul\":2699:2818   */\n      pop\n        /* \"#utility.yul\":2857:2860   */\n      0xc0\n        /* \"#utility.yul\":2884:2937   */\n      tag_409\n        /* \"#utility.yul\":2929:2936   */\n      dup11\n        /* \"#utility.yul\":2920:2926   */\n      dup3\n        /* \"#utility.yul\":2909:2918   */\n      dup12\n        /* \"#utility.yul\":2905:2927   */\n      add\n        /* \"#utility.yul\":2884:2937   */\n      tag_377\n      jump\t// in\n    tag_409:\n        /* \"#utility.yul\":2874:2937   */\n      swap2\n      pop\n        /* \"#utility.yul\":2828:2947   */\n      pop\n        /* \"#utility.yul\":1988:2954   */\n      swap3\n      swap6\n      swap9\n      swap2\n      swap5\n      swap8\n      pop\n      swap3\n      swap6\n      pop\n      jump\t// out\n        /* \"#utility.yul\":2960:3367   */\n    tag_35:\n        /* \"#utility.yul\":3028:3034   */\n      0x00\n        /* \"#utility.yul\":3036:3042   */\n      dup1\n        /* \"#utility.yul\":3085:3087   */\n      0x40\n        /* \"#utility.yul\":3073:3082   */\n      dup4\n        /* \"#utility.yul\":3064:3071   */\n      dup6\n        /* \"#utility.yul\":3060:3083   */\n      sub\n        /* \"#utility.yul\":3056:3088   */\n      slt\n        /* \"#utility.yul\":3053:3055   */\n      iszero\n      tag_411\n      jumpi\n        /* \"#utility.yul\":3101:3102   */\n      0x00\n        /* \"#utility.yul\":3098:3099   */\n      dup1\n        /* \"#utility.yul\":3091:3103   */\n      revert\n        /* \"#utility.yul\":3053:3055   */\n    tag_411:\n        /* \"#utility.yul\":3144:3145   */\n      0x00\n        /* \"#utility.yul\":3169:3222   */\n      tag_412\n        /* \"#utility.yul\":3214:3221   */\n      dup6\n        /* \"#utility.yul\":3205:3211   */\n      dup3\n        /* \"#utility.yul\":3194:3203   */\n      dup7\n        /* \"#utility.yul\":3190:3212   */\n      add\n        /* \"#utility.yul\":3169:3222   */\n      tag_373\n      jump\t// in\n    tag_412:\n        /* \"#utility.yul\":3159:3222   */\n      swap3\n      pop\n        /* \"#utility.yul\":3115:3232   */\n      pop\n        /* \"#utility.yul\":3271:3273   */\n      0x20\n        /* \"#utility.yul\":3297:3350   */\n      tag_413\n        /* \"#utility.yul\":3342:3349   */\n      dup6\n        /* \"#utility.yul\":3333:3339   */\n      dup3\n        /* \"#utility.yul\":3322:3331   */\n      dup7\n        /* \"#utility.yul\":3318:3340   */\n      add\n        /* \"#utility.yul\":3297:3350   */\n      tag_381\n      jump\t// in\n    tag_413:\n        /* \"#utility.yul\":3287:3350   */\n      swap2\n      pop\n        /* \"#utility.yul\":3242:3360   */\n      pop\n        /* \"#utility.yul\":3043:3367   */\n      swap3\n      pop\n      swap3\n      swap1\n      pop\n      jump\t// out\n        /* \"#utility.yul\":3373:3635   */\n    tag_67:\n        /* \"#utility.yul\":3432:3438   */\n      0x00\n        /* \"#utility.yul\":3481:3483   */\n      0x20\n        /* \"#utility.yul\":3469:3478   */\n      dup3\n        /* \"#utility.yul\":3460:3467   */\n      dup5\n        /* \"#utility.yul\":3456:3479   */\n      sub\n        /* \"#utility.yul\":3452:3484   */\n      slt\n        /* \"#utility.yul\":3449:3451   */\n      iszero\n      tag_415\n      jumpi\n        /* \"#utility.yul\":3497:3498   */\n      0x00\n        /* \"#utility.yul\":3494:3495   */\n      dup1\n        /* \"#utility.yul\":3487:3499   */\n      revert\n        /* \"#utility.yul\":3449:3451   */\n    tag_415:\n        /* \"#utility.yul\":3540:3541   */\n      0x00\n        /* \"#utility.yul\":3565:3618   */\n      tag_416\n        /* \"#utility.yul\":3610:3617   */\n      dup5\n        /* \"#utility.yul\":3601:3607   */\n      dup3\n        /* \"#utility.yul\":3590:3599   */\n      dup6\n        /* \"#utility.yul\":3586:3608   */\n      add\n        /* \"#utility.yul\":3565:3618   */\n      tag_381\n      jump\t// in\n    tag_416:\n        /* \"#utility.yul\":3555:3618   */\n      swap2\n      pop\n        /* \"#utility.yul\":3511:3628   */\n      pop\n        /* \"#utility.yul\":3439:3635   */\n      swap3\n      swap2\n      pop\n      pop\n      jump\t// out\n        /* \"#utility.yul\":3641:3759   */\n    tag_417:\n        /* \"#utility.yul\":3728:3752   */\n      tag_419\n        /* \"#utility.yul\":3746:3751   */\n      dup2\n        /* \"#utility.yul\":3728:3752   */\n      tag_420\n      jump\t// in\n    tag_419:\n        /* \"#utility.yul\":3723:3726   */\n      dup3\n        /* \"#utility.yul\":3716:3753   */\n      mstore\n        /* \"#utility.yul\":3706:3759   */\n      pop\n      pop\n      jump\t// out\n        /* \"#utility.yul\":3765:3874   */\n    tag_421:\n        /* \"#utility.yul\":3846:3867   */\n      tag_423\n        /* \"#utility.yul\":3861:3866   */\n      dup2\n        /* \"#utility.yul\":3846:3867   */\n      tag_424\n      jump\t// in\n    tag_423:\n        /* \"#utility.yul\":3841:3844   */\n      dup3\n        /* \"#utility.yul\":3834:3868   */\n      mstore\n        /* \"#utility.yul\":3824:3874   */\n      pop\n      pop\n      jump\t// out\n        /* \"#utility.yul\":3880:3998   */\n    tag_425:\n        /* \"#utility.yul\":3967:3991   */\n      tag_427\n        /* \"#utility.yul\":3985:3990   */\n      dup2\n        /* \"#utility.yul\":3967:3991   */\n      tag_428\n      jump\t// in\n    tag_427:\n        /* \"#utility.yul\":3962:3965   */\n      dup3\n        /* \"#utility.yul\":3955:3992   */\n      mstore\n        /* \"#utility.yul\":3945:3998   */\n      pop\n      pop\n      jump\t// out\n        /* \"#utility.yul\":4004:4161   */\n    tag_429:\n        /* \"#utility.yul\":4109:4154   */\n      tag_431\n        /* \"#utility.yul\":4129:4153   */\n      tag_432\n        /* \"#utility.yul\":4147:4152   */\n      dup3\n        /* \"#utility.yul\":4129:4153   */\n      tag_428\n      jump\t// in\n    tag_432:\n        /* \"#utility.yul\":4109:4154   */\n      tag_433\n      jump\t// in\n    tag_431:\n        /* \"#utility.yul\":4104:4107   */\n      dup3\n        /* \"#utility.yul\":4097:4155   */\n      mstore\n        /* \"#utility.yul\":4087:4161   */\n      pop\n      pop\n      jump\t// out\n        /* \"#utility.yul\":4167:4531   */\n    tag_434:\n        /* \"#utility.yul\":4255:4258   */\n      0x00\n        /* \"#utility.yul\":4283:4322   */\n      tag_436\n        /* \"#utility.yul\":4316:4321   */\n      dup3\n        /* \"#utility.yul\":4283:4322   */\n      tag_437\n      jump\t// in\n    tag_436:\n        /* \"#utility.yul\":4338:4409   */\n      tag_438\n        /* \"#utility.yul\":4402:4408   */\n      dup2\n        /* \"#utility.yul\":4397:4400   */\n      dup6\n        /* \"#utility.yul\":4338:4409   */\n      tag_439\n      jump\t// in\n    tag_438:\n        /* \"#utility.yul\":4331:4409   */\n      swap4\n      pop\n        /* \"#utility.yul\":4418:4470   */\n      tag_440\n        /* \"#utility.yul\":4463:4469   */\n      dup2\n        /* \"#utility.yul\":4458:4461   */\n      dup6\n        /* \"#utility.yul\":4451:4455   */\n      0x20\n        /* \"#utility.yul\":4444:4449   */\n      dup7\n        /* \"#utility.yul\":4440:4456   */\n      add\n        /* \"#utility.yul\":4418:4470   */\n      tag_441\n      jump\t// in\n    tag_440:\n        /* \"#utility.yul\":4495:4524   */\n      tag_442\n        /* \"#utility.yul\":4517:4523   */\n      dup2\n        /* \"#utility.yul\":4495:4524   */\n      tag_443\n      jump\t// in\n    tag_442:\n        /* \"#utility.yul\":4490:4493   */\n      dup5\n        /* \"#utility.yul\":4486:4525   */\n      add\n        /* \"#utility.yul\":4479:4525   */\n      swap2\n      pop\n        /* \"#utility.yul\":4259:4531   */\n      pop\n      swap3\n      swap2\n      pop\n      pop\n      jump\t// out\n        /* \"#utility.yul\":4537:4903   */\n    tag_444:\n        /* \"#utility.yul\":4679:4682   */\n      0x00\n        /* \"#utility.yul\":4700:4767   */\n      tag_446\n        /* \"#utility.yul\":4764:4766   */\n      0x18\n        /* \"#utility.yul\":4759:4762   */\n      dup4\n        /* \"#utility.yul\":4700:4767   */\n      tag_439\n      jump\t// in\n    tag_446:\n        /* \"#utility.yul\":4693:4767   */\n      swap2\n      pop\n        /* \"#utility.yul\":4776:4869   */\n      tag_447\n        /* \"#utility.yul\":4865:4868   */\n      dup3\n        /* \"#utility.yul\":4776:4869   */\n      tag_448\n      jump\t// in\n    tag_447:\n        /* \"#utility.yul\":4894:4896   */\n      0x20\n        /* \"#utility.yul\":4889:4892   */\n      dup3\n        /* \"#utility.yul\":4885:4897   */\n      add\n        /* \"#utility.yul\":4878:4897   */\n      swap1\n      pop\n        /* \"#utility.yul\":4683:4903   */\n      swap2\n      swap1\n      pop\n      jump\t// out\n        /* \"#utility.yul\":4909:5275   */\n    tag_449:\n        /* \"#utility.yul\":5051:5054   */\n      0x00\n        /* \"#utility.yul\":5072:5139   */\n      tag_451\n        /* \"#utility.yul\":5136:5138   */\n      0x23\n        /* \"#utility.yul\":5131:5134   */\n      dup4\n        /* \"#utility.yul\":5072:5139   */\n      tag_439\n      jump\t// in\n    tag_451:\n        /* \"#utility.yul\":5065:5139   */\n      swap2\n      pop\n        /* \"#utility.yul\":5148:5241   */\n      tag_452\n        /* \"#utility.yul\":5237:5240   */\n      dup3\n        /* \"#utility.yul\":5148:5241   */\n      tag_453\n      jump\t// in\n    tag_452:\n        /* \"#utility.yul\":5266:5268   */\n      0x40\n        /* \"#utility.yul\":5261:5264   */\n      dup3\n        /* \"#utility.yul\":5257:5269   */\n      add\n        /* \"#utility.yul\":5250:5269   */\n      swap1\n      pop\n        /* \"#utility.yul\":5055:5275   */\n      swap2\n      swap1\n      pop\n      jump\t// out\n        /* \"#utility.yul\":5281:5647   */\n    tag_454:\n        /* \"#utility.yul\":5423:5426   */\n      0x00\n        /* \"#utility.yul\":5444:5511   */\n      tag_456\n        /* \"#utility.yul\":5508:5510   */\n      0x14\n        /* \"#utility.yul\":5503:5506   */\n      dup4\n        /* \"#utility.yul\":5444:5511   */\n      tag_439\n      jump\t// in\n    tag_456:\n        /* \"#utility.yul\":5437:5511   */\n      swap2\n      pop\n        /* \"#utility.yul\":5520:5613   */\n      tag_457\n        /* \"#utility.yul\":5609:5612   */\n      dup3\n        /* \"#utility.yul\":5520:5613   */\n      tag_458\n      jump\t// in\n    tag_457:\n        /* \"#utility.yul\":5638:5640   */\n      0x20\n        /* \"#utility.yul\":5633:5636   */\n      dup3\n        /* \"#utility.yul\":5629:5641   */\n      add\n        /* \"#utility.yul\":5622:5641   */\n      swap1\n      pop\n        /* \"#utility.yul\":5427:5647   */\n      swap2\n      swap1\n      pop\n      jump\t// out\n        /* \"#utility.yul\":5653:6019   */\n    tag_459:\n        /* \"#utility.yul\":5795:5798   */\n      0x00\n        /* \"#utility.yul\":5816:5883   */\n      tag_461\n        /* \"#utility.yul\":5880:5882   */\n      0x22\n        /* \"#utility.yul\":5875:5878   */\n      dup4\n        /* \"#utility.yul\":5816:5883   */\n      tag_439\n      jump\t// in\n    tag_461:\n        /* \"#utility.yul\":5809:5883   */\n      swap2\n      pop\n        /* \"#utility.yul\":5892:5985   */\n      tag_462\n        /* \"#utility.yul\":5981:5984   */\n      dup3\n        /* \"#utility.yul\":5892:5985   */\n      tag_463\n      jump\t// in\n    tag_462:\n        /* \"#utility.yul\":6010:6012   */\n      0x40\n        /* \"#utility.yul\":6005:6008   */\n      dup3\n        /* \"#utility.yul\":6001:6013   */\n      add\n        /* \"#utility.yul\":5994:6013   */\n      swap1\n      pop\n        /* \"#utility.yul\":5799:6019   */\n      swap2\n      swap1\n      pop\n      jump\t// out\n        /* \"#utility.yul\":6025:6391   */\n    tag_464:\n        /* \"#utility.yul\":6167:6170   */\n      0x00\n        /* \"#utility.yul\":6188:6255   */\n      tag_466\n        /* \"#utility.yul\":6252:6254   */\n      0x1f\n        /* \"#utility.yul\":6247:6250   */\n      dup4\n        /* \"#utility.yul\":6188:6255   */\n      tag_439\n      jump\t// in\n    tag_466:\n        /* \"#utility.yul\":6181:6255   */\n      swap2\n      pop\n        /* \"#utility.yul\":6264:6357   */\n      tag_467\n        /* \"#utility.yul\":6353:6356   */\n      dup3\n        /* \"#utility.yul\":6264:6357   */\n      tag_468\n      jump\t// in\n    tag_467:\n        /* \"#utility.yul\":6382:6384   */\n      0x20\n        /* \"#utility.yul\":6377:6380   */\n      dup3\n        /* \"#utility.yul\":6373:6385   */\n      add\n        /* \"#utility.yul\":6366:6385   */\n      swap1\n      pop\n        /* \"#utility.yul\":6171:6391   */\n      swap2\n      swap1\n      pop\n      jump\t// out\n        /* \"#utility.yul\":6397:6763   */\n    tag_469:\n        /* \"#utility.yul\":6539:6542   */\n      0x00\n        /* \"#utility.yul\":6560:6627   */\n      tag_471\n        /* \"#utility.yul\":6624:6626   */\n      0x26\n        /* \"#utility.yul\":6619:6622   */\n      dup4\n        /* \"#utility.yul\":6560:6627   */\n      tag_439\n      jump\t// in\n    tag_471:\n        /* \"#utility.yul\":6553:6627   */\n      swap2\n      pop\n        /* \"#utility.yul\":6636:6729   */\n      tag_472\n        /* \"#utility.yul\":6725:6728   */\n      dup3\n        /* \"#utility.yul\":6636:6729   */\n      tag_473\n      jump\t// in\n    tag_472:\n        /* \"#utility.yul\":6754:6756   */\n      0x40\n        /* \"#utility.yul\":6749:6752   */\n      dup3\n        /* \"#utility.yul\":6745:6757   */\n      add\n        /* \"#utility.yul\":6738:6757   */\n      swap1\n      pop\n        /* \"#utility.yul\":6543:6763   */\n      swap2\n      swap1\n      pop\n      jump\t// out\n        /* \"#utility.yul\":6769:7135   */\n    tag_474:\n        /* \"#utility.yul\":6911:6914   */\n      0x00\n        /* \"#utility.yul\":6932:6999   */\n      tag_476\n        /* \"#utility.yul\":6996:6998   */\n      0x22\n        /* \"#utility.yul\":6991:6994   */\n      dup4\n        /* \"#utility.yul\":6932:6999   */\n      tag_439\n      jump\t// in\n    tag_476:\n        /* \"#utility.yul\":6925:6999   */\n      swap2\n      pop\n        /* \"#utility.yul\":7008:7101   */\n      tag_477\n        /* \"#utility.yul\":7097:7100   */\n      dup3\n        /* \"#utility.yul\":7008:7101   */\n      tag_478\n      jump\t// in\n    tag_477:\n        /* \"#utility.yul\":7126:7128   */\n      0x40\n        /* \"#utility.yul\":7121:7124   */\n      dup3\n        /* \"#utility.yul\":7117:7129   */\n      add\n        /* \"#utility.yul\":7110:7129   */\n      swap1\n      pop\n        /* \"#utility.yul\":6915:7135   */\n      swap2\n      swap1\n      pop\n      jump\t// out\n        /* \"#utility.yul\":7141:7541   */\n    tag_479:\n        /* \"#utility.yul\":7301:7304   */\n      0x00\n        /* \"#utility.yul\":7322:7406   */\n      tag_481\n        /* \"#utility.yul\":7404:7405   */\n      0x02\n        /* \"#utility.yul\":7399:7402   */\n      dup4\n        /* \"#utility.yul\":7322:7406   */\n      tag_482\n      jump\t// in\n    tag_481:\n        /* \"#utility.yul\":7315:7406   */\n      swap2\n      pop\n        /* \"#utility.yul\":7415:7508   */\n      tag_483\n        /* \"#utility.yul\":7504:7507   */\n      dup3\n        /* \"#utility.yul\":7415:7508   */\n      tag_484\n      jump\t// in\n    tag_483:\n        /* \"#utility.yul\":7533:7534   */\n      0x02\n        /* \"#utility.yul\":7528:7531   */\n      dup3\n        /* \"#utility.yul\":7524:7535   */\n      add\n        /* \"#utility.yul\":7517:7535   */\n      swap1\n      pop\n        /* \"#utility.yul\":7305:7541   */\n      swap2\n      swap1\n      pop\n      jump\t// out\n        /* \"#utility.yul\":7547:7913   */\n    tag_485:\n        /* \"#utility.yul\":7689:7692   */\n      0x00\n        /* \"#utility.yul\":7710:7777   */\n      tag_487\n        /* \"#utility.yul\":7774:7776   */\n      0x1d\n        /* \"#utility.yul\":7769:7772   */\n      dup4\n        /* \"#utility.yul\":7710:7777   */\n      tag_439\n      jump\t// in\n    tag_487:\n        /* \"#utility.yul\":7703:7777   */\n      swap2\n      pop\n        /* \"#utility.yul\":7786:7879   */\n      tag_488\n        /* \"#utility.yul\":7875:7878   */\n      dup3\n        /* \"#utility.yul\":7786:7879   */\n      tag_489\n      jump\t// in\n    tag_488:\n        /* \"#utility.yul\":7904:7906   */\n      0x20\n        /* \"#utility.yul\":7899:7902   */\n      dup3\n        /* \"#utility.yul\":7895:7907   */\n      add\n        /* \"#utility.yul\":7888:7907   */\n      swap1\n      pop\n        /* \"#utility.yul\":7693:7913   */\n      swap2\n      swap1\n      pop\n      jump\t// out\n        /* \"#utility.yul\":7919:8285   */\n    tag_490:\n        /* \"#utility.yul\":8061:8064   */\n      0x00\n        /* \"#utility.yul\":8082:8149   */\n      tag_492\n        /* \"#utility.yul\":8146:8148   */\n      0x1d\n        /* \"#utility.yul\":8141:8144   */\n      dup4\n        /* \"#utility.yul\":8082:8149   */\n      tag_439\n      jump\t// in\n    tag_492:\n        /* \"#utility.yul\":8075:8149   */\n      swap2\n      pop\n        /* \"#utility.yul\":8158:8251   */\n      tag_493\n        /* \"#utility.yul\":8247:8250   */\n      dup3\n        /* \"#utility.yul\":8158:8251   */\n      tag_494\n      jump\t// in\n    tag_493:\n        /* \"#utility.yul\":8276:8278   */\n      0x20\n        /* \"#utility.yul\":8271:8274   */\n      dup3\n        /* \"#utility.yul\":8267:8279   */\n      add\n        /* \"#utility.yul\":8260:8279   */\n      swap1\n      pop\n        /* \"#utility.yul\":8065:8285   */\n      swap2\n      swap1\n      pop\n      jump\t// out\n        /* \"#utility.yul\":8291:8657   */\n    tag_495:\n        /* \"#utility.yul\":8433:8436   */\n      0x00\n        /* \"#utility.yul\":8454:8521   */\n      tag_497\n        /* \"#utility.yul\":8518:8520   */\n      0x26\n        /* \"#utility.yul\":8513:8516   */\n      dup4\n        /* \"#utility.yul\":8454:8521   */\n      tag_439\n      jump\t// in\n    tag_497:\n        /* \"#utility.yul\":8447:8521   */\n      swap2\n      pop\n        /* \"#utility.yul\":8530:8623   */\n      tag_498\n        /* \"#utility.yul\":8619:8622   */\n      dup3\n        /* \"#utility.yul\":8530:8623   */\n      tag_499\n      jump\t// in\n    tag_498:\n        /* \"#utility.yul\":8648:8650   */\n      0x40\n        /* \"#utility.yul\":8643:8646   */\n      dup3\n        /* \"#utility.yul\":8639:8651   */\n      add\n        /* \"#utility.yul\":8632:8651   */\n      swap1\n      pop\n        /* \"#utility.yul\":8437:8657   */\n      swap2\n      swap1\n      pop\n      jump\t// out\n        /* \"#utility.yul\":8663:9029   */\n    tag_500:\n        /* \"#utility.yul\":8805:8808   */\n      0x00\n        /* \"#utility.yul\":8826:8893   */\n      tag_502\n        /* \"#utility.yul\":8890:8892   */\n      0x22\n        /* \"#utility.yul\":8885:8888   */\n      dup4\n        /* \"#utility.yul\":8826:8893   */\n      tag_439\n      jump\t// in\n    tag_502:\n        /* \"#utility.yul\":8819:8893   */\n      swap2\n      pop\n        /* \"#utility.yul\":8902:8995   */\n      tag_503\n        /* \"#utility.yul\":8991:8994   */\n      dup3\n        /* \"#utility.yul\":8902:8995   */\n      tag_504\n      jump\t// in\n    tag_503:\n        /* \"#utility.yul\":9020:9022   */\n      0x40\n        /* \"#utility.yul\":9015:9018   */\n      dup3\n        /* \"#utility.yul\":9011:9023   */\n      add\n        /* \"#utility.yul\":9004:9023   */\n      swap1\n      pop\n        /* \"#utility.yul\":8809:9029   */\n      swap2\n      swap1\n      pop\n      jump\t// out\n        /* \"#utility.yul\":9035:9401   */\n    tag_505:\n        /* \"#utility.yul\":9177:9180   */\n      0x00\n        /* \"#utility.yul\":9198:9265   */\n      tag_507\n        /* \"#utility.yul\":9262:9264   */\n      0x10\n        /* \"#utility.yul\":9257:9260   */\n      dup4\n        /* \"#utility.yul\":9198:9265   */\n      tag_439\n      jump\t// in\n    tag_507:\n        /* \"#utility.yul\":9191:9265   */\n      swap2\n      pop\n        /* \"#utility.yul\":9274:9367   */\n      tag_508\n        /* \"#utility.yul\":9363:9366   */\n      dup3\n        /* \"#utility.yul\":9274:9367   */\n      tag_509\n      jump\t// in\n    tag_508:\n        /* \"#utility.yul\":9392:9394   */\n      0x20\n        /* \"#utility.yul\":9387:9390   */\n      dup3\n        /* \"#utility.yul\":9383:9395   */\n      add\n        /* \"#utility.yul\":9376:9395   */\n      swap1\n      pop\n        /* \"#utility.yul\":9181:9401   */\n      swap2\n      swap1\n      pop\n      jump\t// out\n        /* \"#utility.yul\":9407:9773   */\n    tag_510:\n        /* \"#utility.yul\":9549:9552   */\n      0x00\n        /* \"#utility.yul\":9570:9637   */\n      tag_512\n        /* \"#utility.yul\":9634:9636   */\n      0x22\n        /* \"#utility.yul\":9629:9632   */\n      dup4\n        /* \"#utility.yul\":9570:9637   */\n      tag_439\n      jump\t// in\n    tag_512:\n        /* \"#utility.yul\":9563:9637   */\n      swap2\n      pop\n        /* \"#utility.yul\":9646:9739   */\n      tag_513\n        /* \"#utility.yul\":9735:9738   */\n      dup3\n        /* \"#utility.yul\":9646:9739   */\n      tag_514\n      jump\t// in\n    tag_513:\n        /* \"#utility.yul\":9764:9766   */\n      0x40\n        /* \"#utility.yul\":9759:9762   */\n      dup3\n        /* \"#utility.yul\":9755:9767   */\n      add\n        /* \"#utility.yul\":9748:9767   */\n      swap1\n      pop\n        /* \"#utility.yul\":9553:9773   */\n      swap2\n      swap1\n      pop\n      jump\t// out\n        /* \"#utility.yul\":9779:10145   */\n    tag_515:\n        /* \"#utility.yul\":9921:9924   */\n      0x00\n        /* \"#utility.yul\":9942:10009   */\n      tag_517\n        /* \"#utility.yul\":10006:10008   */\n      0x1e\n        /* \"#utility.yul\":10001:10004   */\n      dup4\n        /* \"#utility.yul\":9942:10009   */\n      tag_439\n      jump\t// in\n    tag_517:\n        /* \"#utility.yul\":9935:10009   */\n      swap2\n      pop\n        /* \"#utility.yul\":10018:10111   */\n      tag_518\n        /* \"#utility.yul\":10107:10110   */\n      dup3\n        /* \"#utility.yul\":10018:10111   */\n      tag_519\n      jump\t// in\n    tag_518:\n        /* \"#utility.yul\":10136:10138   */\n      0x20\n        /* \"#utility.yul\":10131:10134   */\n      dup3\n        /* \"#utility.yul\":10127:10139   */\n      add\n        /* \"#utility.yul\":10120:10139   */\n      swap1\n      pop\n        /* \"#utility.yul\":9925:10145   */\n      swap2\n      swap1\n      pop\n      jump\t// out\n        /* \"#utility.yul\":10151:10517   */\n    tag_520:\n        /* \"#utility.yul\":10293:10296   */\n      0x00\n        /* \"#utility.yul\":10314:10381   */\n      tag_522\n        /* \"#utility.yul\":10378:10380   */\n      0x20\n        /* \"#utility.yul\":10373:10376   */\n      dup4\n        /* \"#utility.yul\":10314:10381   */\n      tag_439\n      jump\t// in\n    tag_522:\n        /* \"#utility.yul\":10307:10381   */\n      swap2\n      pop\n        /* \"#utility.yul\":10390:10483   */\n      tag_523\n        /* \"#utility.yul\":10479:10482   */\n      dup3\n        /* \"#utility.yul\":10390:10483   */\n      tag_524\n      jump\t// in\n    tag_523:\n        /* \"#utility.yul\":10508:10510   */\n      0x20\n        /* \"#utility.yul\":10503:10506   */\n      dup3\n        /* \"#utility.yul\":10499:10511   */\n      add\n        /* \"#utility.yul\":10492:10511   */\n      swap1\n      pop\n        /* \"#utility.yul\":10297:10517   */\n      swap2\n      swap1\n      pop\n      jump\t// out\n        /* \"#utility.yul\":10523:10889   */\n    tag_525:\n        /* \"#utility.yul\":10665:10668   */\n      0x00\n        /* \"#utility.yul\":10686:10753   */\n      tag_527\n        /* \"#utility.yul\":10750:10752   */\n      0x21\n        /* \"#utility.yul\":10745:10748   */\n      dup4\n        /* \"#utility.yul\":10686:10753   */\n      tag_439\n      jump\t// in\n    tag_527:\n        /* \"#utility.yul\":10679:10753   */\n      swap2\n      pop\n        /* \"#utility.yul\":10762:10855   */\n      tag_528\n        /* \"#utility.yul\":10851:10854   */\n      dup3\n        /* \"#utility.yul\":10762:10855   */\n      tag_529\n      jump\t// in\n    tag_528:\n        /* \"#utility.yul\":10880:10882   */\n      0x40\n        /* \"#utility.yul\":10875:10878   */\n      dup3\n        /* \"#utility.yul\":10871:10883   */\n      add\n        /* \"#utility.yul\":10864:10883   */\n      swap1\n      pop\n        /* \"#utility.yul\":10669:10889   */\n      swap2\n      swap1\n      pop\n      jump\t// out\n        /* \"#utility.yul\":10895:11261   */\n    tag_530:\n        /* \"#utility.yul\":11037:11040   */\n      0x00\n        /* \"#utility.yul\":11058:11125   */\n      tag_532\n        /* \"#utility.yul\":11122:11124   */\n      0x25\n        /* \"#utility.yul\":11117:11120   */\n      dup4\n        /* \"#utility.yul\":11058:11125   */\n      tag_439\n      jump\t// in\n    tag_532:\n        /* \"#utility.yul\":11051:11125   */\n      swap2\n      pop\n        /* \"#utility.yul\":11134:11227   */\n      tag_533\n        /* \"#utility.yul\":11223:11226   */\n      dup3\n        /* \"#utility.yul\":11134:11227   */\n      tag_534\n      jump\t// in\n    tag_533:\n        /* \"#utility.yul\":11252:11254   */\n      0x40\n        /* \"#utility.yul\":11247:11250   */\n      dup3\n        /* \"#utility.yul\":11243:11255   */\n      add\n        /* \"#utility.yul\":11236:11255   */\n      swap1\n      pop\n        /* \"#utility.yul\":11041:11261   */\n      swap2\n      swap1\n      pop\n      jump\t// out\n        /* \"#utility.yul\":11267:11633   */\n    tag_535:\n        /* \"#utility.yul\":11409:11412   */\n      0x00\n        /* \"#utility.yul\":11430:11497   */\n      tag_537\n        /* \"#utility.yul\":11494:11496   */\n      0x24\n        /* \"#utility.yul\":11489:11492   */\n      dup4\n        /* \"#utility.yul\":11430:11497   */\n      tag_439\n      jump\t// in\n    tag_537:\n        /* \"#utility.yul\":11423:11497   */\n      swap2\n      pop\n        /* \"#utility.yul\":11506:11599   */\n      tag_538\n        /* \"#utility.yul\":11595:11598   */\n      dup3\n        /* \"#utility.yul\":11506:11599   */\n      tag_539\n      jump\t// in\n    tag_538:\n        /* \"#utility.yul\":11624:11626   */\n      0x40\n        /* \"#utility.yul\":11619:11622   */\n      dup3\n        /* \"#utility.yul\":11615:11627   */\n      add\n        /* \"#utility.yul\":11608:11627   */\n      swap1\n      pop\n        /* \"#utility.yul\":11413:11633   */\n      swap2\n      swap1\n      pop\n      jump\t// out\n        /* \"#utility.yul\":11639:12005   */\n    tag_540:\n        /* \"#utility.yul\":11781:11784   */\n      0x00\n        /* \"#utility.yul\":11802:11869   */\n      tag_542\n        /* \"#utility.yul\":11866:11868   */\n      0x25\n        /* \"#utility.yul\":11861:11864   */\n      dup4\n        /* \"#utility.yul\":11802:11869   */\n      tag_439\n      jump\t// in\n    tag_542:\n        /* \"#utility.yul\":11795:11869   */\n      swap2\n      pop\n        /* \"#utility.yul\":11878:11971   */\n      tag_543\n        /* \"#utility.yul\":11967:11970   */\n      dup3\n        /* \"#utility.yul\":11878:11971   */\n      tag_544\n      jump\t// in\n    tag_543:\n        /* \"#utility.yul\":11996:11998   */\n      0x40\n        /* \"#utility.yul\":11991:11994   */\n      dup3\n        /* \"#utility.yul\":11987:11999   */\n      add\n        /* \"#utility.yul\":11980:11999   */\n      swap1\n      pop\n        /* \"#utility.yul\":11785:12005   */\n      swap2\n      swap1\n      pop\n      jump\t// out\n        /* \"#utility.yul\":12011:12377   */\n    tag_545:\n        /* \"#utility.yul\":12153:12156   */\n      0x00\n        /* \"#utility.yul\":12174:12241   */\n      tag_547\n        /* \"#utility.yul\":12238:12240   */\n      0x1f\n        /* \"#utility.yul\":12233:12236   */\n      dup4\n        /* \"#utility.yul\":12174:12241   */\n      tag_439\n      jump\t// in\n    tag_547:\n        /* \"#utility.yul\":12167:12241   */\n      swap2\n      pop\n        /* \"#utility.yul\":12250:12343   */\n      tag_548\n        /* \"#utility.yul\":12339:12342   */\n      dup3\n        /* \"#utility.yul\":12250:12343   */\n      tag_549\n      jump\t// in\n    tag_548:\n        /* \"#utility.yul\":12368:12370   */\n      0x20\n        /* \"#utility.yul\":12363:12366   */\n      dup3\n        /* \"#utility.yul\":12359:12371   */\n      add\n        /* \"#utility.yul\":12352:12371   */\n      swap1\n      pop\n        /* \"#utility.yul\":12157:12377   */\n      swap2\n      swap1\n      pop\n      jump\t// out\n        /* \"#utility.yul\":12383:12501   */\n    tag_550:\n        /* \"#utility.yul\":12470:12494   */\n      tag_552\n        /* \"#utility.yul\":12488:12493   */\n      dup2\n        /* \"#utility.yul\":12470:12494   */\n      tag_553\n      jump\t// in\n    tag_552:\n        /* \"#utility.yul\":12465:12468   */\n      dup3\n        /* \"#utility.yul\":12458:12495   */\n      mstore\n        /* \"#utility.yul\":12448:12501   */\n      pop\n      pop\n      jump\t// out\n        /* \"#utility.yul\":12507:12619   */\n    tag_554:\n        /* \"#utility.yul\":12590:12612   */\n      tag_556\n        /* \"#utility.yul\":12606:12611   */\n      dup2\n        /* \"#utility.yul\":12590:12612   */\n      tag_557\n      jump\t// in\n    tag_556:\n        /* \"#utility.yul\":12585:12588   */\n      dup3\n        /* \"#utility.yul\":12578:12613   */\n      mstore\n        /* \"#utility.yul\":12568:12619   */\n      pop\n      pop\n      jump\t// out\n        /* \"#utility.yul\":12625:13288   */\n    tag_334:\n        /* \"#utility.yul\":12866:12869   */\n      0x00\n        /* \"#utility.yul\":12888:13036   */\n      tag_559\n        /* \"#utility.yul\":13032:13035   */\n      dup3\n        /* \"#utility.yul\":12888:13036   */\n      tag_479\n      jump\t// in\n    tag_559:\n        /* \"#utility.yul\":12881:13036   */\n      swap2\n      pop\n        /* \"#utility.yul\":13046:13121   */\n      tag_560\n        /* \"#utility.yul\":13117:13120   */\n      dup3\n        /* \"#utility.yul\":13108:13114   */\n      dup6\n        /* \"#utility.yul\":13046:13121   */\n      tag_429\n      jump\t// in\n    tag_560:\n        /* \"#utility.yul\":13146:13148   */\n      0x20\n        /* \"#utility.yul\":13141:13144   */\n      dup3\n        /* \"#utility.yul\":13137:13149   */\n      add\n        /* \"#utility.yul\":13130:13149   */\n      swap2\n      pop\n        /* \"#utility.yul\":13159:13234   */\n      tag_561\n        /* \"#utility.yul\":13230:13233   */\n      dup3\n        /* \"#utility.yul\":13221:13227   */\n      dup5\n        /* \"#utility.yul\":13159:13234   */\n      tag_429\n      jump\t// in\n    tag_561:\n        /* \"#utility.yul\":13259:13261   */\n      0x20\n        /* \"#utility.yul\":13254:13257   */\n      dup3\n        /* \"#utility.yul\":13250:13262   */\n      add\n        /* \"#utility.yul\":13243:13262   */\n      swap2\n      pop\n        /* \"#utility.yul\":13279:13282   */\n      dup2\n        /* \"#utility.yul\":13272:13282   */\n      swap1\n      pop\n        /* \"#utility.yul\":12870:13288   */\n      swap4\n      swap3\n      pop\n      pop\n      pop\n      jump\t// out\n        /* \"#utility.yul\":13294:13516   */\n    tag_91:\n        /* \"#utility.yul\":13387:13391   */\n      0x00\n        /* \"#utility.yul\":13425:13427   */\n      0x20\n        /* \"#utility.yul\":13414:13423   */\n      dup3\n        /* \"#utility.yul\":13410:13428   */\n      add\n        /* \"#utility.yul\":13402:13428   */\n      swap1\n      pop\n        /* \"#utility.yul\":13438:13509   */\n      tag_563\n        /* \"#utility.yul\":13506:13507   */\n      0x00\n        /* \"#utility.yul\":13495:13504   */\n      dup4\n        /* \"#utility.yul\":13491:13508   */\n      add\n        /* \"#utility.yul\":13482:13488   */\n      dup5\n        /* \"#utility.yul\":13438:13509   */\n      tag_417\n      jump\t// in\n    tag_563:\n        /* \"#utility.yul\":13392:13516   */\n      swap3\n      swap2\n      pop\n      pop\n      jump\t// out\n        /* \"#utility.yul\":13522:13732   */\n    tag_38:\n        /* \"#utility.yul\":13609:13613   */\n      0x00\n        /* \"#utility.yul\":13647:13649   */\n      0x20\n        /* \"#utility.yul\":13636:13645   */\n      dup3\n        /* \"#utility.yul\":13632:13650   */\n      add\n        /* \"#utility.yul\":13624:13650   */\n      swap1\n      pop\n        /* \"#utility.yul\":13660:13725   */\n      tag_565\n        /* \"#utility.yul\":13722:13723   */\n      0x00\n        /* \"#utility.yul\":13711:13720   */\n      dup4\n        /* \"#utility.yul\":13707:13724   */\n      add\n        /* \"#utility.yul\":13698:13704   */\n      dup5\n        /* \"#utility.yul\":13660:13725   */\n      tag_421\n      jump\t// in\n    tag_565:\n        /* \"#utility.yul\":13614:13732   */\n      swap3\n      swap2\n      pop\n      pop\n      jump\t// out\n        /* \"#utility.yul\":13738:13960   */\n    tag_55:\n        /* \"#utility.yul\":13831:13835   */\n      0x00\n        /* \"#utility.yul\":13869:13871   */\n      0x20\n        /* \"#utility.yul\":13858:13867   */\n      dup3\n        /* \"#utility.yul\":13854:13872   */\n      add\n        /* \"#utility.yul\":13846:13872   */\n      swap1\n      pop\n        /* \"#utility.yul\":13882:13953   */\n      tag_567\n        /* \"#utility.yul\":13950:13951   */\n      0x00\n        /* \"#utility.yul\":13939:13948   */\n      dup4\n        /* \"#utility.yul\":13935:13952   */\n      add\n        /* \"#utility.yul\":13926:13932   */\n      dup5\n        /* \"#utility.yul\":13882:13953   */\n      tag_425\n      jump\t// in\n    tag_567:\n        /* \"#utility.yul\":13836:13960   */\n      swap3\n      swap2\n      pop\n      pop\n      jump\t// out\n        /* \"#utility.yul\":13966:14741   */\n    tag_203:\n        /* \"#utility.yul\":14199:14203   */\n      0x00\n        /* \"#utility.yul\":14237:14240   */\n      0xc0\n        /* \"#utility.yul\":14226:14235   */\n      dup3\n        /* \"#utility.yul\":14222:14241   */\n      add\n        /* \"#utility.yul\":14214:14241   */\n      swap1\n      pop\n        /* \"#utility.yul\":14251:14322   */\n      tag_569\n        /* \"#utility.yul\":14319:14320   */\n      0x00\n        /* \"#utility.yul\":14308:14317   */\n      dup4\n        /* \"#utility.yul\":14304:14321   */\n      add\n        /* \"#utility.yul\":14295:14301   */\n      dup10\n        /* \"#utility.yul\":14251:14322   */\n      tag_425\n      jump\t// in\n    tag_569:\n        /* \"#utility.yul\":14332:14404   */\n      tag_570\n        /* \"#utility.yul\":14400:14402   */\n      0x20\n        /* \"#utility.yul\":14389:14398   */\n      dup4\n        /* \"#utility.yul\":14385:14403   */\n      add\n        /* \"#utility.yul\":14376:14382   */\n      dup9\n        /* \"#utility.yul\":14332:14404   */\n      tag_417\n      jump\t// in\n    tag_570:\n        /* \"#utility.yul\":14414:14486   */\n      tag_571\n        /* \"#utility.yul\":14482:14484   */\n      0x40\n        /* \"#utility.yul\":14471:14480   */\n      dup4\n        /* \"#utility.yul\":14467:14485   */\n      add\n        /* \"#utility.yul\":14458:14464   */\n      dup8\n        /* \"#utility.yul\":14414:14486   */\n      tag_417\n      jump\t// in\n    tag_571:\n        /* \"#utility.yul\":14496:14568   */\n      tag_572\n        /* \"#utility.yul\":14564:14566   */\n      0x60\n        /* \"#utility.yul\":14553:14562   */\n      dup4\n        /* \"#utility.yul\":14549:14567   */\n      add\n        /* \"#utility.yul\":14540:14546   */\n      dup7\n        /* \"#utility.yul\":14496:14568   */\n      tag_550\n      jump\t// in\n    tag_572:\n        /* \"#utility.yul\":14578:14651   */\n      tag_573\n        /* \"#utility.yul\":14646:14649   */\n      0x80\n        /* \"#utility.yul\":14635:14644   */\n      dup4\n        /* \"#utility.yul\":14631:14650   */\n      add\n        /* \"#utility.yul\":14622:14628   */\n      dup6\n        /* \"#utility.yul\":14578:14651   */\n      tag_550\n      jump\t// in\n    tag_573:\n        /* \"#utility.yul\":14661:14734   */\n      tag_574\n        /* \"#utility.yul\":14729:14732   */\n      0xa0\n        /* \"#utility.yul\":14718:14727   */\n      dup4\n        /* \"#utility.yul\":14714:14733   */\n      add\n        /* \"#utility.yul\":14705:14711   */\n      dup5\n        /* \"#utility.yul\":14661:14734   */\n      tag_550\n      jump\t// in\n    tag_574:\n        /* \"#utility.yul\":14204:14741   */\n      swap8\n      swap7\n      pop\n      pop\n      pop\n      pop\n      pop\n      pop\n      pop\n      jump\t// out\n        /* \"#utility.yul\":14747:15411   */\n    tag_320:\n        /* \"#utility.yul\":14952:14956   */\n      0x00\n        /* \"#utility.yul\":14990:14993   */\n      0xa0\n        /* \"#utility.yul\":14979:14988   */\n      dup3\n        /* \"#utility.yul\":14975:14994   */\n      add\n        /* \"#utility.yul\":14967:14994   */\n      swap1\n      pop\n        /* \"#utility.yul\":15004:15075   */\n      tag_576\n        /* \"#utility.yul\":15072:15073   */\n      0x00\n        /* \"#utility.yul\":15061:15070   */\n      dup4\n        /* \"#utility.yul\":15057:15074   */\n      add\n        /* \"#utility.yul\":15048:15054   */\n      dup9\n        /* \"#utility.yul\":15004:15075   */\n      tag_425\n      jump\t// in\n    tag_576:\n        /* \"#utility.yul\":15085:15157   */\n      tag_577\n        /* \"#utility.yul\":15153:15155   */\n      0x20\n        /* \"#utility.yul\":15142:15151   */\n      dup4\n        /* \"#utility.yul\":15138:15156   */\n      add\n        /* \"#utility.yul\":15129:15135   */\n      dup8\n        /* \"#utility.yul\":15085:15157   */\n      tag_425\n      jump\t// in\n    tag_577:\n        /* \"#utility.yul\":15167:15239   */\n      tag_578\n        /* \"#utility.yul\":15235:15237   */\n      0x40\n        /* \"#utility.yul\":15224:15233   */\n      dup4\n        /* \"#utility.yul\":15220:15238   */\n      add\n        /* \"#utility.yul\":15211:15217   */\n      dup7\n        /* \"#utility.yul\":15167:15239   */\n      tag_425\n      jump\t// in\n    tag_578:\n        /* \"#utility.yul\":15249:15321   */\n      tag_579\n        /* \"#utility.yul\":15317:15319   */\n      0x60\n        /* \"#utility.yul\":15306:15315   */\n      dup4\n        /* \"#utility.yul\":15302:15320   */\n      add\n        /* \"#utility.yul\":15293:15299   */\n      dup6\n        /* \"#utility.yul\":15249:15321   */\n      tag_550\n      jump\t// in\n    tag_579:\n        /* \"#utility.yul\":15331:15404   */\n      tag_580\n        /* \"#utility.yul\":15399:15402   */\n      0x80\n        /* \"#utility.yul\":15388:15397   */\n      dup4\n        /* \"#utility.yul\":15384:15403   */\n      add\n        /* \"#utility.yul\":15375:15381   */\n      dup5\n        /* \"#utility.yul\":15331:15404   */\n      tag_417\n      jump\t// in\n    tag_580:\n        /* \"#utility.yul\":14957:15411   */\n      swap7\n      swap6\n      pop\n      pop\n      pop\n      pop\n      pop\n      pop\n      jump\t// out\n        /* \"#utility.yul\":15417:15962   */\n    tag_340:\n        /* \"#utility.yul\":15590:15594   */\n      0x00\n        /* \"#utility.yul\":15628:15631   */\n      0x80\n        /* \"#utility.yul\":15617:15626   */\n      dup3\n        /* \"#utility.yul\":15613:15632   */\n      add\n        /* \"#utility.yul\":15605:15632   */\n      swap1\n      pop\n        /* \"#utility.yul\":15642:15713   */\n      tag_582\n        /* \"#utility.yul\":15710:15711   */\n      0x00\n        /* \"#utility.yul\":15699:15708   */\n      dup4\n        /* \"#utility.yul\":15695:15712   */\n      add\n        /* \"#utility.yul\":15686:15692   */\n      dup8\n        /* \"#utility.yul\":15642:15713   */\n      tag_425\n      jump\t// in\n    tag_582:\n        /* \"#utility.yul\":15723:15791   */\n      tag_583\n        /* \"#utility.yul\":15787:15789   */\n      0x20\n        /* \"#utility.yul\":15776:15785   */\n      dup4\n        /* \"#utility.yul\":15772:15790   */\n      add\n        /* \"#utility.yul\":15763:15769   */\n      dup7\n        /* \"#utility.yul\":15723:15791   */\n      tag_554\n      jump\t// in\n    tag_583:\n        /* \"#utility.yul\":15801:15873   */\n      tag_584\n        /* \"#utility.yul\":15869:15871   */\n      0x40\n        /* \"#utility.yul\":15858:15867   */\n      dup4\n        /* \"#utility.yul\":15854:15872   */\n      add\n        /* \"#utility.yul\":15845:15851   */\n      dup6\n        /* \"#utility.yul\":15801:15873   */\n      tag_425\n      jump\t// in\n    tag_584:\n        /* \"#utility.yul\":15883:15955   */\n      tag_585\n        /* \"#utility.yul\":15951:15953   */\n      0x60\n        /* \"#utility.yul\":15940:15949   */\n      dup4\n        /* \"#utility.yul\":15936:15954   */\n      add\n        /* \"#utility.yul\":15927:15933   */\n      dup5\n        /* \"#utility.yul\":15883:15955   */\n      tag_425\n      jump\t// in\n    tag_585:\n        /* \"#utility.yul\":15595:15962   */\n      swap6\n      swap5\n      pop\n      pop\n      pop\n      pop\n      pop\n      jump\t// out\n        /* \"#utility.yul\":15968:16281   */\n    tag_32:\n        /* \"#utility.yul\":16081:16085   */\n      0x00\n        /* \"#utility.yul\":16119:16121   */\n      0x20\n        /* \"#utility.yul\":16108:16117   */\n      dup3\n        /* \"#utility.yul\":16104:16122   */\n      add\n        /* \"#utility.yul\":16096:16122   */\n      swap1\n      pop\n        /* \"#utility.yul\":16168:16177   */\n      dup2\n        /* \"#utility.yul\":16162:16166   */\n      dup2\n        /* \"#utility.yul\":16158:16178   */\n      sub\n        /* \"#utility.yul\":16154:16155   */\n      0x00\n        /* \"#utility.yul\":16143:16152   */\n      dup4\n        /* \"#utility.yul\":16139:16156   */\n      add\n        /* \"#utility.yul\":16132:16179   */\n      mstore\n        /* \"#utility.yul\":16196:16274   */\n      tag_587\n        /* \"#utility.yul\":16269:16273   */\n      dup2\n        /* \"#utility.yul\":16260:16266   */\n      dup5\n        /* \"#utility.yul\":16196:16274   */\n      tag_434\n      jump\t// in\n    tag_587:\n        /* \"#utility.yul\":16188:16274   */\n      swap1\n      pop\n        /* \"#utility.yul\":16086:16281   */\n      swap3\n      swap2\n      pop\n      pop\n      jump\t// out\n        /* \"#utility.yul\":16287:16706   */\n    tag_353:\n        /* \"#utility.yul\":16453:16457   */\n      0x00\n        /* \"#utility.yul\":16491:16493   */\n      0x20\n        /* \"#utility.yul\":16480:16489   */\n      dup3\n        /* \"#utility.yul\":16476:16494   */\n      add\n        /* \"#utility.yul\":16468:16494   */\n      swap1\n      pop\n        /* \"#utility.yul\":16540:16549   */\n      dup2\n        /* \"#utility.yul\":16534:16538   */\n      dup2\n        /* \"#utility.yul\":16530:16550   */\n      sub\n        /* \"#utility.yul\":16526:16527   */\n      0x00\n        /* \"#utility.yul\":16515:16524   */\n      dup4\n        /* \"#utility.yul\":16511:16528   */\n      add\n        /* \"#utility.yul\":16504:16551   */\n      mstore\n        /* \"#utility.yul\":16568:16699   */\n      tag_589\n        /* \"#utility.yul\":16694:16698   */\n      dup2\n        /* \"#utility.yul\":16568:16699   */\n      tag_444\n      jump\t// in\n    tag_589:\n        /* \"#utility.yul\":16560:16699   */\n      swap1\n      pop\n        /* \"#utility.yul\":16458:16706   */\n      swap2\n      swap1\n      pop\n      jump\t// out\n        /* \"#utility.yul\":16712:17131   */\n    tag_243:\n        /* \"#utility.yul\":16878:16882   */\n      0x00\n        /* \"#utility.yul\":16916:16918   */\n      0x20\n        /* \"#utility.yul\":16905:16914   */\n      dup3\n        /* \"#utility.yul\":16901:16919   */\n      add\n        /* \"#utility.yul\":16893:16919   */\n      swap1\n      pop\n        /* \"#utility.yul\":16965:16974   */\n      dup2\n        /* \"#utility.yul\":16959:16963   */\n      dup2\n        /* \"#utility.yul\":16955:16975   */\n      sub\n        /* \"#utility.yul\":16951:16952   */\n      0x00\n        /* \"#utility.yul\":16940:16949   */\n      dup4\n        /* \"#utility.yul\":16936:16953   */\n      add\n        /* \"#utility.yul\":16929:16976   */\n      mstore\n        /* \"#utility.yul\":16993:17124   */\n      tag_591\n        /* \"#utility.yul\":17119:17123   */\n      dup2\n        /* \"#utility.yul\":16993:17124   */\n      tag_449\n      jump\t// in\n    tag_591:\n        /* \"#utility.yul\":16985:17124   */\n      swap1\n      pop\n        /* \"#utility.yul\":16883:17131   */\n      swap2\n      swap1\n      pop\n      jump\t// out\n        /* \"#utility.yul\":17137:17556   */\n    tag_325:\n        /* \"#utility.yul\":17303:17307   */\n      0x00\n        /* \"#utility.yul\":17341:17343   */\n      0x20\n        /* \"#utility.yul\":17330:17339   */\n      dup3\n        /* \"#utility.yul\":17326:17344   */\n      add\n        /* \"#utility.yul\":17318:17344   */\n      swap1\n      pop\n        /* \"#utility.yul\":17390:17399   */\n      dup2\n        /* \"#utility.yul\":17384:17388   */\n      dup2\n        /* \"#utility.yul\":17380:17400   */\n      sub\n        /* \"#utility.yul\":17376:17377   */\n      0x00\n        /* \"#utility.yul\":17365:17374   */\n      dup4\n        /* \"#utility.yul\":17361:17378   */\n      add\n        /* \"#utility.yul\":17354:17401   */\n      mstore\n        /* \"#utility.yul\":17418:17549   */\n      tag_593\n        /* \"#utility.yul\":17544:17548   */\n      dup2\n        /* \"#utility.yul\":17418:17549   */\n      tag_454\n      jump\t// in\n    tag_593:\n        /* \"#utility.yul\":17410:17549   */\n      swap1\n      pop\n        /* \"#utility.yul\":17308:17556   */\n      swap2\n      swap1\n      pop\n      jump\t// out\n        /* \"#utility.yul\":17562:17981   */\n    tag_287:\n        /* \"#utility.yul\":17728:17732   */\n      0x00\n        /* \"#utility.yul\":17766:17768   */\n      0x20\n        /* \"#utility.yul\":17755:17764   */\n      dup3\n        /* \"#utility.yul\":17751:17769   */\n      add\n        /* \"#utility.yul\":17743:17769   */\n      swap1\n      pop\n        /* \"#utility.yul\":17815:17824   */\n      dup2\n        /* \"#utility.yul\":17809:17813   */\n      dup2\n        /* \"#utility.yul\":17805:17825   */\n      sub\n        /* \"#utility.yul\":17801:17802   */\n      0x00\n        /* \"#utility.yul\":17790:17799   */\n      dup4\n        /* \"#utility.yul\":17786:17803   */\n      add\n        /* \"#utility.yul\":17779:17826   */\n      mstore\n        /* \"#utility.yul\":17843:17974   */\n      tag_595\n        /* \"#utility.yul\":17969:17973   */\n      dup2\n        /* \"#utility.yul\":17843:17974   */\n      tag_459\n      jump\t// in\n    tag_595:\n        /* \"#utility.yul\":17835:17974   */\n      swap1\n      pop\n        /* \"#utility.yul\":17733:17981   */\n      swap2\n      swap1\n      pop\n      jump\t// out\n        /* \"#utility.yul\":17987:18406   */\n    tag_359:\n        /* \"#utility.yul\":18153:18157   */\n      0x00\n        /* \"#utility.yul\":18191:18193   */\n      0x20\n        /* \"#utility.yul\":18180:18189   */\n      dup3\n        /* \"#utility.yul\":18176:18194   */\n      add\n        /* \"#utility.yul\":18168:18194   */\n      swap1\n      pop\n        /* \"#utility.yul\":18240:18249   */\n      dup2\n        /* \"#utility.yul\":18234:18238   */\n      dup2\n        /* \"#utility.yul\":18230:18250   */\n      sub\n        /* \"#utility.yul\":18226:18227   */\n      0x00\n        /* \"#utility.yul\":18215:18224   */\n      dup4\n        /* \"#utility.yul\":18211:18228   */\n      add\n        /* \"#utility.yul\":18204:18251   */\n      mstore\n        /* \"#utility.yul\":18268:18399   */\n      tag_597\n        /* \"#utility.yul\":18394:18398   */\n      dup2\n        /* \"#utility.yul\":18268:18399   */\n      tag_464\n      jump\t// in\n    tag_597:\n        /* \"#utility.yul\":18260:18399   */\n      swap1\n      pop\n        /* \"#utility.yul\":18158:18406   */\n      swap2\n      swap1\n      pop\n      jump\t// out\n        /* \"#utility.yul\":18412:18831   */\n    tag_218:\n        /* \"#utility.yul\":18578:18582   */\n      0x00\n        /* \"#utility.yul\":18616:18618   */\n      0x20\n        /* \"#utility.yul\":18605:18614   */\n      dup3\n        /* \"#utility.yul\":18601:18619   */\n      add\n        /* \"#utility.yul\":18593:18619   */\n      swap1\n      pop\n        /* \"#utility.yul\":18665:18674   */\n      dup2\n        /* \"#utility.yul\":18659:18663   */\n      dup2\n        /* \"#utility.yul\":18655:18675   */\n      sub\n        /* \"#utility.yul\":18651:18652   */\n      0x00\n        /* \"#utility.yul\":18640:18649   */\n      dup4\n        /* \"#utility.yul\":18636:18653   */\n      add\n        /* \"#utility.yul\":18629:18676   */\n      mstore\n        /* \"#utility.yul\":18693:18824   */\n      tag_599\n        /* \"#utility.yul\":18819:18823   */\n      dup2\n        /* \"#utility.yul\":18693:18824   */\n      tag_469\n      jump\t// in\n    tag_599:\n        /* \"#utility.yul\":18685:18824   */\n      swap1\n      pop\n        /* \"#utility.yul\":18583:18831   */\n      swap2\n      swap1\n      pop\n      jump\t// out\n        /* \"#utility.yul\":18837:19256   */\n    tag_228:\n        /* \"#utility.yul\":19003:19007   */\n      0x00\n        /* \"#utility.yul\":19041:19043   */\n      0x20\n        /* \"#utility.yul\":19030:19039   */\n      dup3\n        /* \"#utility.yul\":19026:19044   */\n      add\n        /* \"#utility.yul\":19018:19044   */\n      swap1\n      pop\n        /* \"#utility.yul\":19090:19099   */\n      dup2\n        /* \"#utility.yul\":19084:19088   */\n      dup2\n        /* \"#utility.yul\":19080:19100   */\n      sub\n        /* \"#utility.yul\":19076:19077   */\n      0x00\n        /* \"#utility.yul\":19065:19074   */\n      dup4\n        /* \"#utility.yul\":19061:19078   */\n      add\n        /* \"#utility.yul\":19054:19101   */\n      mstore\n        /* \"#utility.yul\":19118:19249   */\n      tag_601\n        /* \"#utility.yul\":19244:19248   */\n      dup2\n        /* \"#utility.yul\":19118:19249   */\n      tag_474\n      jump\t// in\n    tag_601:\n        /* \"#utility.yul\":19110:19249   */\n      swap1\n      pop\n        /* \"#utility.yul\":19008:19256   */\n      swap2\n      swap1\n      pop\n      jump\t// out\n        /* \"#utility.yul\":19262:19681   */\n    tag_235:\n        /* \"#utility.yul\":19428:19432   */\n      0x00\n        /* \"#utility.yul\":19466:19468   */\n      0x20\n        /* \"#utility.yul\":19455:19464   */\n      dup3\n        /* \"#utility.yul\":19451:19469   */\n      add\n        /* \"#utility.yul\":19443:19469   */\n      swap1\n      pop\n        /* \"#utility.yul\":19515:19524   */\n      dup2\n        /* \"#utility.yul\":19509:19513   */\n      dup2\n        /* \"#utility.yul\":19505:19525   */\n      sub\n        /* \"#utility.yul\":19501:19502   */\n      0x00\n        /* \"#utility.yul\":19490:19499   */\n      dup4\n        /* \"#utility.yul\":19486:19503   */\n      add\n        /* \"#utility.yul\":19479:19526   */\n      mstore\n        /* \"#utility.yul\":19543:19674   */\n      tag_603\n        /* \"#utility.yul\":19669:19673   */\n      dup2\n        /* \"#utility.yul\":19543:19674   */\n      tag_485\n      jump\t// in\n    tag_603:\n        /* \"#utility.yul\":19535:19674   */\n      swap1\n      pop\n        /* \"#utility.yul\":19433:19681   */\n      swap2\n      swap1\n      pop\n      jump\t// out\n        /* \"#utility.yul\":19687:20106   */\n    tag_199:\n        /* \"#utility.yul\":19853:19857   */\n      0x00\n        /* \"#utility.yul\":19891:19893   */\n      0x20\n        /* \"#utility.yul\":19880:19889   */\n      dup3\n        /* \"#utility.yul\":19876:19894   */\n      add\n        /* \"#utility.yul\":19868:19894   */\n      swap1\n      pop\n        /* \"#utility.yul\":19940:19949   */\n      dup2\n        /* \"#utility.yul\":19934:19938   */\n      dup2\n        /* \"#utility.yul\":19930:19950   */\n      sub\n        /* \"#utility.yul\":19926:19927   */\n      0x00\n        /* \"#utility.yul\":19915:19924   */\n      dup4\n        /* \"#utility.yul\":19911:19928   */\n      add\n        /* \"#utility.yul\":19904:19951   */\n      mstore\n        /* \"#utility.yul\":19968:20099   */\n      tag_605\n        /* \"#utility.yul\":20094:20098   */\n      dup2\n        /* \"#utility.yul\":19968:20099   */\n      tag_490\n      jump\t// in\n    tag_605:\n        /* \"#utility.yul\":19960:20099   */\n      swap1\n      pop\n        /* \"#utility.yul\":19858:20106   */\n      swap2\n      swap1\n      pop\n      jump\t// out\n        /* \"#utility.yul\":20112:20531   */\n    tag_248:\n        /* \"#utility.yul\":20278:20282   */\n      0x00\n        /* \"#utility.yul\":20316:20318   */\n      0x20\n        /* \"#utility.yul\":20305:20314   */\n      dup3\n        /* \"#utility.yul\":20301:20319   */\n      add\n        /* \"#utility.yul\":20293:20319   */\n      swap1\n      pop\n        /* \"#utility.yul\":20365:20374   */\n      dup2\n        /* \"#utility.yul\":20359:20363   */\n      dup2\n        /* \"#utility.yul\":20355:20375   */\n      sub\n        /* \"#utility.yul\":20351:20352   */\n      0x00\n        /* \"#utility.yul\":20340:20349   */\n      dup4\n        /* \"#utility.yul\":20336:20353   */\n      add\n        /* \"#utility.yul\":20329:20376   */\n      mstore\n        /* \"#utility.yul\":20393:20524   */\n      tag_607\n        /* \"#utility.yul\":20519:20523   */\n      dup2\n        /* \"#utility.yul\":20393:20524   */\n      tag_495\n      jump\t// in\n    tag_607:\n        /* \"#utility.yul\":20385:20524   */\n      swap1\n      pop\n        /* \"#utility.yul\":20283:20531   */\n      swap2\n      swap1\n      pop\n      jump\t// out\n        /* \"#utility.yul\":20537:20956   */\n    tag_365:\n        /* \"#utility.yul\":20703:20707   */\n      0x00\n        /* \"#utility.yul\":20741:20743   */\n      0x20\n        /* \"#utility.yul\":20730:20739   */\n      dup3\n        /* \"#utility.yul\":20726:20744   */\n      add\n        /* \"#utility.yul\":20718:20744   */\n      swap1\n      pop\n        /* \"#utility.yul\":20790:20799   */\n      dup2\n        /* \"#utility.yul\":20784:20788   */\n      dup2\n        /* \"#utility.yul\":20780:20800   */\n      sub\n        /* \"#utility.yul\":20776:20777   */\n      0x00\n        /* \"#utility.yul\":20765:20774   */\n      dup4\n        /* \"#utility.yul\":20761:20778   */\n      add\n        /* \"#utility.yul\":20754:20801   */\n      mstore\n        /* \"#utility.yul\":20818:20949   */\n      tag_609\n        /* \"#utility.yul\":20944:20948   */\n      dup2\n        /* \"#utility.yul\":20818:20949   */\n      tag_500\n      jump\t// in\n    tag_609:\n        /* \"#utility.yul\":20810:20949   */\n      swap1\n      pop\n        /* \"#utility.yul\":20708:20956   */\n      swap2\n      swap1\n      pop\n      jump\t// out\n        /* \"#utility.yul\":20962:21381   */\n    tag_330:\n        /* \"#utility.yul\":21128:21132   */\n      0x00\n        /* \"#utility.yul\":21166:21168   */\n      0x20\n        /* \"#utility.yul\":21155:21164   */\n      dup3\n        /* \"#utility.yul\":21151:21169   */\n      add\n        /* \"#utility.yul\":21143:21169   */\n      swap1\n      pop\n        /* \"#utility.yul\":21215:21224   */\n      dup2\n        /* \"#utility.yul\":21209:21213   */\n      dup2\n        /* \"#utility.yul\":21205:21225   */\n      sub\n        /* \"#utility.yul\":21201:21202   */\n      0x00\n        /* \"#utility.yul\":21190:21199   */\n      dup4\n        /* \"#utility.yul\":21186:21203   */\n      add\n        /* \"#utility.yul\":21179:21226   */\n      mstore\n        /* \"#utility.yul\":21243:21374   */\n      tag_611\n        /* \"#utility.yul\":21369:21373   */\n      dup2\n        /* \"#utility.yul\":21243:21374   */\n      tag_505\n      jump\t// in\n    tag_611:\n        /* \"#utility.yul\":21235:21374   */\n      swap1\n      pop\n        /* \"#utility.yul\":21133:21381   */\n      swap2\n      swap1\n      pop\n      jump\t// out\n        /* \"#utility.yul\":21387:21806   */\n    tag_371:\n        /* \"#utility.yul\":21553:21557   */\n      0x00\n        /* \"#utility.yul\":21591:21593   */\n      0x20\n        /* \"#utility.yul\":21580:21589   */\n      dup3\n        /* \"#utility.yul\":21576:21594   */\n      add\n        /* \"#utility.yul\":21568:21594   */\n      swap1\n      pop\n        /* \"#utility.yul\":21640:21649   */\n      dup2\n        /* \"#utility.yul\":21634:21638   */\n      dup2\n        /* \"#utility.yul\":21630:21650   */\n      sub\n        /* \"#utility.yul\":21626:21627   */\n      0x00\n        /* \"#utility.yul\":21615:21624   */\n      dup4\n        /* \"#utility.yul\":21611:21628   */\n      add\n        /* \"#utility.yul\":21604:21651   */\n      mstore\n        /* \"#utility.yul\":21668:21799   */\n      tag_613\n        /* \"#utility.yul\":21794:21798   */\n      dup2\n        /* \"#utility.yul\":21668:21799   */\n      tag_510\n      jump\t// in\n    tag_613:\n        /* \"#utility.yul\":21660:21799   */\n      swap1\n      pop\n        /* \"#utility.yul\":21558:21806   */\n      swap2\n      swap1\n      pop\n      jump\t// out\n        /* \"#utility.yul\":21812:22231   */\n    tag_210:\n        /* \"#utility.yul\":21978:21982   */\n      0x00\n        /* \"#utility.yul\":22016:22018   */\n      0x20\n        /* \"#utility.yul\":22005:22014   */\n      dup3\n        /* \"#utility.yul\":22001:22019   */\n      add\n        /* \"#utility.yul\":21993:22019   */\n      swap1\n      pop\n        /* \"#utility.yul\":22065:22074   */\n      dup2\n        /* \"#utility.yul\":22059:22063   */\n      dup2\n        /* \"#utility.yul\":22055:22075   */\n      sub\n        /* \"#utility.yul\":22051:22052   */\n      0x00\n        /* \"#utility.yul\":22040:22049   */\n      dup4\n        /* \"#utility.yul\":22036:22053   */\n      add\n        /* \"#utility.yul\":22029:22076   */\n      mstore\n        /* \"#utility.yul\":22093:22224   */\n      tag_615\n        /* \"#utility.yul\":22219:22223   */\n      dup2\n        /* \"#utility.yul\":22093:22224   */\n      tag_515\n      jump\t// in\n    tag_615:\n        /* \"#utility.yul\":22085:22224   */\n      swap1\n      pop\n        /* \"#utility.yul\":21983:22231   */\n      swap2\n      swap1\n      pop\n      jump\t// out\n        /* \"#utility.yul\":22237:22656   */\n    tag_264:\n        /* \"#utility.yul\":22403:22407   */\n      0x00\n        /* \"#utility.yul\":22441:22443   */\n      0x20\n        /* \"#utility.yul\":22430:22439   */\n      dup3\n        /* \"#utility.yul\":22426:22444   */\n      add\n        /* \"#utility.yul\":22418:22444   */\n      swap1\n      pop\n        /* \"#utility.yul\":22490:22499   */\n      dup2\n        /* \"#utility.yul\":22484:22488   */\n      dup2\n        /* \"#utility.yul\":22480:22500   */\n      sub\n        /* \"#utility.yul\":22476:22477   */\n      0x00\n        /* \"#utility.yul\":22465:22474   */\n      dup4\n        /* \"#utility.yul\":22461:22478   */\n      add\n        /* \"#utility.yul\":22454:22501   */\n      mstore\n        /* \"#utility.yul\":22518:22649   */\n      tag_617\n        /* \"#utility.yul\":22644:22648   */\n      dup2\n        /* \"#utility.yul\":22518:22649   */\n      tag_520\n      jump\t// in\n    tag_617:\n        /* \"#utility.yul\":22510:22649   */\n      swap1\n      pop\n        /* \"#utility.yul\":22408:22656   */\n      swap2\n      swap1\n      pop\n      jump\t// out\n        /* \"#utility.yul\":22662:23081   */\n    tag_283:\n        /* \"#utility.yul\":22828:22832   */\n      0x00\n        /* \"#utility.yul\":22866:22868   */\n      0x20\n        /* \"#utility.yul\":22855:22864   */\n      dup3\n        /* \"#utility.yul\":22851:22869   */\n      add\n        /* \"#utility.yul\":22843:22869   */\n      swap1\n      pop\n        /* \"#utility.yul\":22915:22924   */\n      dup2\n        /* \"#utility.yul\":22909:22913   */\n      dup2\n        /* \"#utility.yul\":22905:22925   */\n      sub\n        /* \"#utility.yul\":22901:22902   */\n      0x00\n        /* \"#utility.yul\":22890:22899   */\n      dup4\n        /* \"#utility.yul\":22886:22903   */\n      add\n        /* \"#utility.yul\":22879:22926   */\n      mstore\n        /* \"#utility.yul\":22943:23074   */\n      tag_619\n        /* \"#utility.yul\":23069:23073   */\n      dup2\n        /* \"#utility.yul\":22943:23074   */\n      tag_525\n      jump\t// in\n    tag_619:\n        /* \"#utility.yul\":22935:23074   */\n      swap1\n      pop\n        /* \"#utility.yul\":22833:23081   */\n      swap2\n      swap1\n      pop\n      jump\t// out\n        /* \"#utility.yul\":23087:23506   */\n    tag_240:\n        /* \"#utility.yul\":23253:23257   */\n      0x00\n        /* \"#utility.yul\":23291:23293   */\n      0x20\n        /* \"#utility.yul\":23280:23289   */\n      dup3\n        /* \"#utility.yul\":23276:23294   */\n      add\n        /* \"#utility.yul\":23268:23294   */\n      swap1\n      pop\n        /* \"#utility.yul\":23340:23349   */\n      dup2\n        /* \"#utility.yul\":23334:23338   */\n      dup2\n        /* \"#utility.yul\":23330:23350   */\n      sub\n        /* \"#utility.yul\":23326:23327   */\n      0x00\n        /* \"#utility.yul\":23315:23324   */\n      dup4\n        /* \"#utility.yul\":23311:23328   */\n      add\n        /* \"#utility.yul\":23304:23351   */\n      mstore\n        /* \"#utility.yul\":23368:23499   */\n      tag_621\n        /* \"#utility.yul\":23494:23498   */\n      dup2\n        /* \"#utility.yul\":23368:23499   */\n      tag_530\n      jump\t// in\n    tag_621:\n        /* \"#utility.yul\":23360:23499   */\n      swap1\n      pop\n        /* \"#utility.yul\":23258:23506   */\n      swap2\n      swap1\n      pop\n      jump\t// out\n        /* \"#utility.yul\":23512:23931   */\n    tag_225:\n        /* \"#utility.yul\":23678:23682   */\n      0x00\n        /* \"#utility.yul\":23716:23718   */\n      0x20\n        /* \"#utility.yul\":23705:23714   */\n      dup3\n        /* \"#utility.yul\":23701:23719   */\n      add\n        /* \"#utility.yul\":23693:23719   */\n      swap1\n      pop\n        /* \"#utility.yul\":23765:23774   */\n      dup2\n        /* \"#utility.yul\":23759:23763   */\n      dup2\n        /* \"#utility.yul\":23755:23775   */\n      sub\n        /* \"#utility.yul\":23751:23752   */\n      0x00\n        /* \"#utility.yul\":23740:23749   */\n      dup4\n        /* \"#utility.yul\":23736:23753   */\n      add\n        /* \"#utility.yul\":23729:23776   */\n      mstore\n        /* \"#utility.yul\":23793:23924   */\n      tag_623\n        /* \"#utility.yul\":23919:23923   */\n      dup2\n        /* \"#utility.yul\":23793:23924   */\n      tag_535\n      jump\t// in\n    tag_623:\n        /* \"#utility.yul\":23785:23924   */\n      swap1\n      pop\n        /* \"#utility.yul\":23683:23931   */\n      swap2\n      swap1\n      pop\n      jump\t// out\n        /* \"#utility.yul\":23937:24356   */\n    tag_191:\n        /* \"#utility.yul\":24103:24107   */\n      0x00\n        /* \"#utility.yul\":24141:24143   */\n      0x20\n        /* \"#utility.yul\":24130:24139   */\n      dup3\n        /* \"#utility.yul\":24126:24144   */\n      add\n        /* \"#utility.yul\":24118:24144   */\n      swap1\n      pop\n        /* \"#utility.yul\":24190:24199   */\n      dup2\n        /* \"#utility.yul\":24184:24188   */\n      dup2\n        /* \"#utility.yul\":24180:24200   */\n      sub\n        /* \"#utility.yul\":24176:24177   */\n      0x00\n        /* \"#utility.yul\":24165:24174   */\n      dup4\n        /* \"#utility.yul\":24161:24178   */\n      add\n        /* \"#utility.yul\":24154:24201   */\n      mstore\n        /* \"#utility.yul\":24218:24349   */\n      tag_625\n        /* \"#utility.yul\":24344:24348   */\n      dup2\n        /* \"#utility.yul\":24218:24349   */\n      tag_540\n      jump\t// in\n    tag_625:\n        /* \"#utility.yul\":24210:24349   */\n      swap1\n      pop\n        /* \"#utility.yul\":24108:24356   */\n      swap2\n      swap1\n      pop\n      jump\t// out\n        /* \"#utility.yul\":24362:24781   */\n    tag_274:\n        /* \"#utility.yul\":24528:24532   */\n      0x00\n        /* \"#utility.yul\":24566:24568   */\n      0x20\n        /* \"#utility.yul\":24555:24564   */\n      dup3\n        /* \"#utility.yul\":24551:24569   */\n      add\n        /* \"#utility.yul\":24543:24569   */\n      swap1\n      pop\n        /* \"#utility.yul\":24615:24624   */\n      dup2\n        /* \"#utility.yul\":24609:24613   */\n      dup2\n        /* \"#utility.yul\":24605:24625   */\n      sub\n        /* \"#utility.yul\":24601:24602   */\n      0x00\n        /* \"#utility.yul\":24590:24599   */\n      dup4\n        /* \"#utility.yul\":24586:24603   */\n      add\n        /* \"#utility.yul\":24579:24626   */\n      mstore\n        /* \"#utility.yul\":24643:24774   */\n      tag_627\n        /* \"#utility.yul\":24769:24773   */\n      dup2\n        /* \"#utility.yul\":24643:24774   */\n      tag_545\n      jump\t// in\n    tag_627:\n        /* \"#utility.yul\":24635:24774   */\n      swap1\n      pop\n        /* \"#utility.yul\":24533:24781   */\n      swap2\n      swap1\n      pop\n      jump\t// out\n        /* \"#utility.yul\":24787:25009   */\n    tag_42:\n        /* \"#utility.yul\":24880:24884   */\n      0x00\n        /* \"#utility.yul\":24918:24920   */\n      0x20\n        /* \"#utility.yul\":24907:24916   */\n      dup3\n        /* \"#utility.yul\":24903:24921   */\n      add\n        /* \"#utility.yul\":24895:24921   */\n      swap1\n      pop\n        /* \"#utility.yul\":24931:25002   */\n      tag_629\n        /* \"#utility.yul\":24999:25000   */\n      0x00\n        /* \"#utility.yul\":24988:24997   */\n      dup4\n        /* \"#utility.yul\":24984:25001   */\n      add\n        /* \"#utility.yul\":24975:24981   */\n      dup5\n        /* \"#utility.yul\":24931:25002   */\n      tag_550\n      jump\t// in\n    tag_629:\n        /* \"#utility.yul\":24885:25009   */\n      swap3\n      swap2\n      pop\n      pop\n      jump\t// out\n        /* \"#utility.yul\":25015:25229   */\n    tag_51:\n        /* \"#utility.yul\":25104:25108   */\n      0x00\n        /* \"#utility.yul\":25142:25144   */\n      0x20\n        /* \"#utility.yul\":25131:25140   */\n      dup3\n        /* \"#utility.yul\":25127:25145   */\n      add\n        /* \"#utility.yul\":25119:25145   */\n      swap1\n      pop\n        /* \"#utility.yul\":25155:25222   */\n      tag_631\n        /* \"#utility.yul\":25219:25220   */\n      0x00\n        /* \"#utility.yul\":25208:25217   */\n      dup4\n        /* \"#utility.yul\":25204:25221   */\n      add\n        /* \"#utility.yul\":25195:25201   */\n      dup5\n        /* \"#utility.yul\":25155:25222   */\n      tag_554\n      jump\t// in\n    tag_631:\n        /* \"#utility.yul\":25109:25229   */\n      swap3\n      swap2\n      pop\n      pop\n      jump\t// out\n        /* \"#utility.yul\":25235:25334   */\n    tag_437:\n        /* \"#utility.yul\":25287:25293   */\n      0x00\n        /* \"#utility.yul\":25321:25326   */\n      dup2\n        /* \"#utility.yul\":25315:25327   */\n      mload\n        /* \"#utility.yul\":25305:25327   */\n      swap1\n      pop\n        /* \"#utility.yul\":25294:25334   */\n      swap2\n      swap1\n      pop\n      jump\t// out\n        /* \"#utility.yul\":25340:25509   */\n    tag_439:\n        /* \"#utility.yul\":25424:25435   */\n      0x00\n        /* \"#utility.yul\":25458:25464   */\n      dup3\n        /* \"#utility.yul\":25453:25456   */\n      dup3\n        /* \"#utility.yul\":25446:25465   */\n      mstore\n        /* \"#utility.yul\":25498:25502   */\n      0x20\n        /* \"#utility.yul\":25493:25496   */\n      dup3\n        /* \"#utility.yul\":25489:25503   */\n      add\n        /* \"#utility.yul\":25474:25503   */\n      swap1\n      pop\n        /* \"#utility.yul\":25436:25509   */\n      swap3\n      swap2\n      pop\n      pop\n      jump\t// out\n        /* \"#utility.yul\":25515:25663   */\n    tag_482:\n        /* \"#utility.yul\":25617:25628   */\n      0x00\n        /* \"#utility.yul\":25654:25657   */\n      dup2\n        /* \"#utility.yul\":25639:25657   */\n      swap1\n      pop\n        /* \"#utility.yul\":25629:25663   */\n      swap3\n      swap2\n      pop\n      pop\n      jump\t// out\n        /* \"#utility.yul\":25669:25974   */\n    tag_144:\n        /* \"#utility.yul\":25709:25712   */\n      0x00\n        /* \"#utility.yul\":25728:25748   */\n      tag_636\n        /* \"#utility.yul\":25746:25747   */\n      dup3\n        /* \"#utility.yul\":25728:25748   */\n      tag_553\n      jump\t// in\n    tag_636:\n        /* \"#utility.yul\":25723:25748   */\n      swap2\n      pop\n        /* \"#utility.yul\":25762:25782   */\n      tag_637\n        /* \"#utility.yul\":25780:25781   */\n      dup4\n        /* \"#utility.yul\":25762:25782   */\n      tag_553\n      jump\t// in\n    tag_637:\n        /* \"#utility.yul\":25757:25782   */\n      swap3\n      pop\n        /* \"#utility.yul\":25916:25917   */\n      dup3\n        /* \"#utility.yul\":25848:25914   */\n      0xffffffffffffffffffffffffffffffffffffffffffffffffffffffffffffffff\n        /* \"#utility.yul\":25844:25918   */\n      sub\n        /* \"#utility.yul\":25841:25842   */\n      dup3\n        /* \"#utility.yul\":25838:25919   */\n      gt\n        /* \"#utility.yul\":25835:25837   */\n      iszero\n      tag_638\n      jumpi\n        /* \"#utility.yul\":25922:25940   */\n      tag_639\n      tag_640\n      jump\t// in\n    tag_639:\n        /* \"#utility.yul\":25835:25837   */\n    tag_638:\n        /* \"#utility.yul\":25966:25967   */\n      dup3\n        /* \"#utility.yul\":25963:25964   */\n      dup3\n        /* \"#utility.yul\":25959:25968   */\n      add\n        /* \"#utility.yul\":25952:25968   */\n      swap1\n      pop\n        /* \"#utility.yul\":25713:25974   */\n      swap3\n      swap2\n      pop\n      pop\n      jump\t// out\n        /* \"#utility.yul\":25980:26171   */\n    tag_289:\n        /* \"#utility.yul\":26020:26024   */\n      0x00\n        /* \"#utility.yul\":26040:26060   */\n      tag_642\n        /* \"#utility.yul\":26058:26059   */\n      dup3\n        /* \"#utility.yul\":26040:26060   */\n      tag_553\n      jump\t// in\n    tag_642:\n        /* \"#utility.yul\":26035:26060   */\n      swap2\n      pop\n        /* \"#utility.yul\":26074:26094   */\n      tag_643\n        /* \"#utility.yul\":26092:26093   */\n      dup4\n        /* \"#utility.yul\":26074:26094   */\n      tag_553\n      jump\t// in\n    tag_643:\n        /* \"#utility.yul\":26069:26094   */\n      swap3\n      pop\n        /* \"#utility.yul\":26113:26114   */\n      dup3\n        /* \"#utility.yul\":26110:26111   */\n      dup3\n        /* \"#utility.yul\":26107:26115   */\n      lt\n        /* \"#utility.yul\":26104:26106   */\n      iszero\n      tag_644\n      jumpi\n        /* \"#utility.yul\":26118:26136   */\n      tag_645\n      tag_640\n      jump\t// in\n    tag_645:\n        /* \"#utility.yul\":26104:26106   */\n    tag_644:\n        /* \"#utility.yul\":26163:26164   */\n      dup3\n        /* \"#utility.yul\":26160:26161   */\n      dup3\n        /* \"#utility.yul\":26156:26165   */\n      sub\n        /* \"#utility.yul\":26148:26165   */\n      swap1\n      pop\n        /* \"#utility.yul\":26025:26171   */\n      swap3\n      swap2\n      pop\n      pop\n      jump\t// out\n        /* \"#utility.yul\":26177:26273   */\n    tag_420:\n        /* \"#utility.yul\":26214:26221   */\n      0x00\n        /* \"#utility.yul\":26243:26267   */\n      tag_647\n        /* \"#utility.yul\":26261:26266   */\n      dup3\n        /* \"#utility.yul\":26243:26267   */\n      tag_648\n      jump\t// in\n    tag_647:\n        /* \"#utility.yul\":26232:26267   */\n      swap1\n      pop\n        /* \"#utility.yul\":26222:26273   */\n      swap2\n      swap1\n      pop\n      jump\t// out\n        /* \"#utility.yul\":26279:26369   */\n    tag_424:\n        /* \"#utility.yul\":26313:26320   */\n      0x00\n        /* \"#utility.yul\":26356:26361   */\n      dup2\n        /* \"#utility.yul\":26349:26362   */\n      iszero\n        /* \"#utility.yul\":26342:26363   */\n      iszero\n        /* \"#utility.yul\":26331:26363   */\n      swap1\n      pop\n        /* \"#utility.yul\":26321:26369   */\n      swap2\n      swap1\n      pop\n      jump\t// out\n        /* \"#utility.yul\":26375:26452   */\n    tag_428:\n        /* \"#utility.yul\":26412:26419   */\n      0x00\n        /* \"#utility.yul\":26441:26446   */\n      dup2\n        /* \"#utility.yul\":26430:26446   */\n      swap1\n      pop\n        /* \"#utility.yul\":26420:26452   */\n      swap2\n      swap1\n      pop\n      jump\t// out\n        /* \"#utility.yul\":26458:26584   */\n    tag_648:\n        /* \"#utility.yul\":26495:26502   */\n      0x00\n        /* \"#utility.yul\":26535:26577   */\n      0xffffffffffffffffffffffffffffffffffffffff\n        /* \"#utility.yul\":26528:26533   */\n      dup3\n        /* \"#utility.yul\":26524:26578   */\n      and\n        /* \"#utility.yul\":26513:26578   */\n      swap1\n      pop\n        /* \"#utility.yul\":26503:26584   */\n      swap2\n      swap1\n      pop\n      jump\t// out\n        /* \"#utility.yul\":26590:26667   */\n    tag_553:\n        /* \"#utility.yul\":26627:26634   */\n      0x00\n        /* \"#utility.yul\":26656:26661   */\n      dup2\n        /* \"#utility.yul\":26645:26661   */\n      swap1\n      pop\n        /* \"#utility.yul\":26635:26667   */\n      swap2\n      swap1\n      pop\n      jump\t// out\n        /* \"#utility.yul\":26673:26759   */\n    tag_557:\n        /* \"#utility.yul\":26708:26715   */\n      0x00\n        /* \"#utility.yul\":26748:26752   */\n      0xff\n        /* \"#utility.yul\":26741:26746   */\n      dup3\n        /* \"#utility.yul\":26737:26753   */\n      and\n        /* \"#utility.yul\":26726:26753   */\n      swap1\n      pop\n        /* \"#utility.yul\":26716:26759   */\n      swap2\n      swap1\n      pop\n      jump\t// out\n        /* \"#utility.yul\":26765:27072   */\n    tag_441:\n        /* \"#utility.yul\":26833:26834   */\n      0x00\n        /* \"#utility.yul\":26843:26956   */\n    tag_655:\n        /* \"#utility.yul\":26857:26863   */\n      dup4\n        /* \"#utility.yul\":26854:26855   */\n      dup2\n        /* \"#utility.yul\":26851:26864   */\n      lt\n        /* \"#utility.yul\":26843:26956   */\n      iszero\n      tag_657\n      jumpi\n        /* \"#utility.yul\":26942:26943   */\n      dup1\n        /* \"#utility.yul\":26937:26940   */\n      dup3\n        /* \"#utility.yul\":26933:26944   */\n      add\n        /* \"#utility.yul\":26927:26945   */\n      mload\n        /* \"#utility.yul\":26923:26924   */\n      dup2\n        /* \"#utility.yul\":26918:26921   */\n      dup5\n        /* \"#utility.yul\":26914:26925   */\n      add\n        /* \"#utility.yul\":26907:26946   */\n      mstore\n        /* \"#utility.yul\":26879:26881   */\n      0x20\n        /* \"#utility.yul\":26876:26877   */\n      dup2\n        /* \"#utility.yul\":26872:26882   */\n      add\n        /* \"#utility.yul\":26867:26882   */\n      swap1\n      pop\n        /* \"#utility.yul\":26843:26956   */\n      jump(tag_655)\n    tag_657:\n        /* \"#utility.yul\":26974:26980   */\n      dup4\n        /* \"#utility.yul\":26971:26972   */\n      dup2\n        /* \"#utility.yul\":26968:26981   */\n      gt\n        /* \"#utility.yul\":26965:26967   */\n      iszero\n      tag_658\n      jumpi\n        /* \"#utility.yul\":27054:27055   */\n      0x00\n        /* \"#utility.yul\":27045:27051   */\n      dup5\n        /* \"#utility.yul\":27040:27043   */\n      dup5\n        /* \"#utility.yul\":27036:27052   */\n      add\n        /* \"#utility.yul\":27029:27056   */\n      mstore\n        /* \"#utility.yul\":26965:26967   */\n    tag_658:\n        /* \"#utility.yul\":26814:27072   */\n      pop\n      pop\n      pop\n      pop\n      jump\t// out\n        /* \"#utility.yul\":27078:27398   */\n    tag_118:\n        /* \"#utility.yul\":27122:27128   */\n      0x00\n        /* \"#utility.yul\":27159:27160   */\n      0x02\n        /* \"#utility.yul\":27153:27157   */\n      dup3\n        /* \"#utility.yul\":27149:27161   */\n      div\n        /* \"#utility.yul\":27139:27161   */\n      swap1\n      pop\n        /* \"#utility.yul\":27206:27207   */\n      0x01\n        /* \"#utility.yul\":27200:27204   */\n      dup3\n        /* \"#utility.yul\":27196:27208   */\n      and\n        /* \"#utility.yul\":27227:27245   */\n      dup1\n        /* \"#utility.yul\":27217:27219   */\n      tag_660\n      jumpi\n        /* \"#utility.yul\":27283:27287   */\n      0x7f\n        /* \"#utility.yul\":27275:27281   */\n      dup3\n        /* \"#utility.yul\":27271:27288   */\n      and\n        /* \"#utility.yul\":27261:27288   */\n      swap2\n      pop\n        /* \"#utility.yul\":27217:27219   */\n    tag_660:\n        /* \"#utility.yul\":27345:27347   */\n      0x20\n        /* \"#utility.yul\":27337:27343   */\n      dup3\n        /* \"#utility.yul\":27334:27348   */\n      lt\n        /* \"#utility.yul\":27314:27332   */\n      dup2\n        /* \"#utility.yul\":27311:27349   */\n      eq\n        /* \"#utility.yul\":27308:27310   */\n      iszero\n      tag_661\n      jumpi\n        /* \"#utility.yul\":27364:27382   */\n      tag_662\n      tag_663\n      jump\t// in\n    tag_662:\n        /* \"#utility.yul\":27308:27310   */\n    tag_661:\n        /* \"#utility.yul\":27129:27398   */\n      pop\n      swap2\n      swap1\n      pop\n      jump\t// out\n        /* \"#utility.yul\":27404:27483   */\n    tag_433:\n        /* \"#utility.yul\":27443:27450   */\n      0x00\n        /* \"#utility.yul\":27472:27477   */\n      dup2\n        /* \"#utility.yul\":27461:27477   */\n      swap1\n      pop\n        /* \"#utility.yul\":27451:27483   */\n      swap2\n      swap1\n      pop\n      jump\t// out\n        /* \"#utility.yul\":27489:27669   */\n    tag_640:\n        /* \"#utility.yul\":27537:27614   */\n      0x4e487b7100000000000000000000000000000000000000000000000000000000\n        /* \"#utility.yul\":27534:27535   */\n      0x00\n        /* \"#utility.yul\":27527:27615   */\n      mstore\n        /* \"#utility.yul\":27634:27638   */\n      0x11\n        /* \"#utility.yul\":27631:27632   */\n      0x04\n        /* \"#utility.yul\":27624:27639   */\n      mstore\n        /* \"#utility.yul\":27658:27662   */\n      0x24\n        /* \"#utility.yul\":27655:27656   */\n      0x00\n        /* \"#utility.yul\":27648:27663   */\n      revert\n        /* \"#utility.yul\":27675:27855   */\n    tag_663:\n        /* \"#utility.yul\":27723:27800   */\n      0x4e487b7100000000000000000000000000000000000000000000000000000000\n        /* \"#utility.yul\":27720:27721   */\n      0x00\n        /* \"#utility.yul\":27713:27801   */\n      mstore\n        /* \"#utility.yul\":27820:27824   */\n      0x22\n        /* \"#utility.yul\":27817:27818   */\n      0x04\n        /* \"#utility.yul\":27810:27825   */\n      mstore\n        /* \"#utility.yul\":27844:27848   */\n      0x24\n        /* \"#utility.yul\":27841:27842   */\n      0x00\n        /* \"#utility.yul\":27834:27849   */\n      revert\n        /* \"#utility.yul\":27861:27963   */\n    tag_443:\n        /* \"#utility.yul\":27902:27908   */\n      0x00\n        /* \"#utility.yul\":27953:27955   */\n      0x1f\n        /* \"#utility.yul\":27949:27956   */\n      not\n        /* \"#utility.yul\":27944:27946   */\n      0x1f\n        /* \"#utility.yul\":27937:27942   */\n      dup4\n        /* \"#utility.yul\":27933:27947   */\n      add\n        /* \"#utility.yul\":27929:27957   */\n      and\n        /* \"#utility.yul\":27919:27957   */\n      swap1\n      pop\n        /* \"#utility.yul\":27909:27963   */\n      swap2\n      swap1\n      pop\n      jump\t// out\n        /* \"#utility.yul\":27969:28143   */\n    tag_448:\n        /* \"#utility.yul\":28109:28135   */\n      0x45434453413a20696e76616c6964207369676e61747572650000000000000000\n        /* \"#utility.yul\":28105:28106   */\n      0x00\n        /* \"#utility.yul\":28097:28103   */\n      dup3\n        /* \"#utility.yul\":28093:28107   */\n      add\n        /* \"#utility.yul\":28086:28136   */\n      mstore\n        /* \"#utility.yul\":28075:28143   */\n      pop\n      jump\t// out\n        /* \"#utility.yul\":28149:28371   */\n    tag_453:\n        /* \"#utility.yul\":28289:28323   */\n      0x45524332303a207472616e7366657220746f20746865207a65726f2061646472\n        /* \"#utility.yul\":28285:28286   */\n      0x00\n        /* \"#utility.yul\":28277:28283   */\n      dup3\n        /* \"#utility.yul\":28273:28287   */\n      add\n        /* \"#utility.yul\":28266:28324   */\n      mstore\n        /* \"#utility.yul\":28358:28363   */\n      0x6573730000000000000000000000000000000000000000000000000000000000\n        /* \"#utility.yul\":28353:28355   */\n      0x20\n        /* \"#utility.yul\":28345:28351   */\n      dup3\n        /* \"#utility.yul\":28341:28356   */\n      add\n        /* \"#utility.yul\":28334:28364   */\n      mstore\n        /* \"#utility.yul\":28255:28371   */\n      pop\n      jump\t// out\n        /* \"#utility.yul\":28377:28547   */\n    tag_458:\n        /* \"#utility.yul\":28517:28539   */\n      0x5061757361626c653a206e6f7420706175736564000000000000000000000000\n        /* \"#utility.yul\":28513:28514   */\n      0x00\n        /* \"#utility.yul\":28505:28511   */\n      dup3\n        /* \"#utility.yul\":28501:28515   */\n      add\n        /* \"#utility.yul\":28494:28540   */\n      mstore\n        /* \"#utility.yul\":28483:28547   */\n      pop\n      jump\t// out\n        /* \"#utility.yul\":28553:28774   */\n    tag_463:\n        /* \"#utility.yul\":28693:28727   */\n      0x45524332303a206275726e20616d6f756e7420657863656564732062616c616e\n        /* \"#utility.yul\":28689:28690   */\n      0x00\n        /* \"#utility.yul\":28681:28687   */\n      dup3\n        /* \"#utility.yul\":28677:28691   */\n      add\n        /* \"#utility.yul\":28670:28728   */\n      mstore\n        /* \"#utility.yul\":28762:28766   */\n      0x6365000000000000000000000000000000000000000000000000000000000000\n        /* \"#utility.yul\":28757:28759   */\n      0x20\n        /* \"#utility.yul\":28749:28755   */\n      dup3\n        /* \"#utility.yul\":28745:28760   */\n      add\n        /* \"#utility.yul\":28738:28767   */\n      mstore\n        /* \"#utility.yul\":28659:28774   */\n      pop\n      jump\t// out\n        /* \"#utility.yul\":28780:28961   */\n    tag_468:\n        /* \"#utility.yul\":28920:28953   */\n      0x45434453413a20696e76616c6964207369676e6174757265206c656e67746800\n        /* \"#utility.yul\":28916:28917   */\n      0x00\n        /* \"#utility.yul\":28908:28914   */\n      dup3\n        /* \"#utility.yul\":28904:28918   */\n      add\n        /* \"#utility.yul\":28897:28954   */\n      mstore\n        /* \"#utility.yul\":28886:28961   */\n      pop\n      jump\t// out\n        /* \"#utility.yul\":28967:29192   */\n    tag_473:\n        /* \"#utility.yul\":29107:29141   */\n      0x4f776e61626c653a206e6577206f776e657220697320746865207a65726f2061\n        /* \"#utility.yul\":29103:29104   */\n      0x00\n        /* \"#utility.yul\":29095:29101   */\n      dup3\n        /* \"#utility.yul\":29091:29105   */\n      add\n        /* \"#utility.yul\":29084:29142   */\n      mstore\n        /* \"#utility.yul\":29176:29184   */\n      0x6464726573730000000000000000000000000000000000000000000000000000\n        /* \"#utility.yul\":29171:29173   */\n      0x20\n        /* \"#utility.yul\":29163:29169   */\n      dup3\n        /* \"#utility.yul\":29159:29174   */\n      add\n        /* \"#utility.yul\":29152:29185   */\n      mstore\n        /* \"#utility.yul\":29073:29192   */\n      pop\n      jump\t// out\n        /* \"#utility.yul\":29198:29419   */\n    tag_478:\n        /* \"#utility.yul\":29338:29372   */\n      0x45524332303a20617070726f766520746f20746865207a65726f206164647265\n        /* \"#utility.yul\":29334:29335   */\n      0x00\n        /* \"#utility.yul\":29326:29332   */\n      dup3\n        /* \"#utility.yul\":29322:29336   */\n      add\n        /* \"#utility.yul\":29315:29373   */\n      mstore\n        /* \"#utility.yul\":29407:29411   */\n      0x7373000000000000000000000000000000000000000000000000000000000000\n        /* \"#utility.yul\":29402:29404   */\n      0x20\n        /* \"#utility.yul\":29394:29400   */\n      dup3\n        /* \"#utility.yul\":29390:29405   */\n      add\n        /* \"#utility.yul\":29383:29412   */\n      mstore\n        /* \"#utility.yul\":29304:29419   */\n      pop\n      jump\t// out\n        /* \"#utility.yul\":29425:29639   */\n    tag_484:\n        /* \"#utility.yul\":29565:29631   */\n      0x1901000000000000000000000000000000000000000000000000000000000000\n        /* \"#utility.yul\":29561:29562   */\n      0x00\n        /* \"#utility.yul\":29553:29559   */\n      dup3\n        /* \"#utility.yul\":29549:29563   */\n      add\n        /* \"#utility.yul\":29542:29632   */\n      mstore\n        /* \"#utility.yul\":29531:29639   */\n      pop\n      jump\t// out\n        /* \"#utility.yul\":29645:29824   */\n    tag_489:\n        /* \"#utility.yul\":29785:29816   */\n      0x45524332303a20696e73756666696369656e7420616c6c6f77616e6365000000\n        /* \"#utility.yul\":29781:29782   */\n      0x00\n        /* \"#utility.yul\":29773:29779   */\n      dup3\n        /* \"#utility.yul\":29769:29783   */\n      add\n        /* \"#utility.yul\":29762:29817   */\n      mstore\n        /* \"#utility.yul\":29751:29824   */\n      pop\n      jump\t// out\n        /* \"#utility.yul\":29830:30009   */\n    tag_494:\n        /* \"#utility.yul\":29970:30001   */\n      0x45524332305065726d69743a206578706972656420646561646c696e65000000\n        /* \"#utility.yul\":29966:29967   */\n      0x00\n        /* \"#utility.yul\":29958:29964   */\n      dup3\n        /* \"#utility.yul\":29954:29968   */\n      add\n        /* \"#utility.yul\":29947:30002   */\n      mstore\n        /* \"#utility.yul\":29936:30009   */\n      pop\n      jump\t// out\n        /* \"#utility.yul\":30015:30240   */\n    tag_499:\n        /* \"#utility.yul\":30155:30189   */\n      0x45524332303a207472616e7366657220616d6f756e7420657863656564732062\n        /* \"#utility.yul\":30151:30152   */\n      0x00\n        /* \"#utility.yul\":30143:30149   */\n      dup3\n        /* \"#utility.yul\":30139:30153   */\n      add\n        /* \"#utility.yul\":30132:30190   */\n      mstore\n        /* \"#utility.yul\":30224:30232   */\n      0x616c616e63650000000000000000000000000000000000000000000000000000\n        /* \"#utility.yul\":30219:30221   */\n      0x20\n        /* \"#utility.yul\":30211:30217   */\n      dup3\n        /* \"#utility.yul\":30207:30222   */\n      add\n        /* \"#utility.yul\":30200:30233   */\n      mstore\n        /* \"#utility.yul\":30121:30240   */\n      pop\n      jump\t// out\n        /* \"#utility.yul\":30246:30467   */\n    tag_504:\n        /* \"#utility.yul\":30386:30420   */\n      0x45434453413a20696e76616c6964207369676e6174757265202773272076616c\n        /* \"#utility.yul\":30382:30383   */\n      0x00\n        /* \"#utility.yul\":30374:30380   */\n      dup3\n        /* \"#utility.yul\":30370:30384   */\n      add\n        /* \"#utility.yul\":30363:30421   */\n      mstore\n        /* \"#utility.yul\":30455:30459   */\n      0x7565000000000000000000000000000000000000000000000000000000000000\n        /* \"#utility.yul\":30450:30452   */\n      0x20\n        /* \"#utility.yul\":30442:30448   */\n      dup3\n        /* \"#utility.yul\":30438:30453   */\n      add\n        /* \"#utility.yul\":30431:30460   */\n      mstore\n        /* \"#utility.yul\":30352:30467   */\n      pop\n      jump\t// out\n        /* \"#utility.yul\":30473:30639   */\n    tag_509:\n        /* \"#utility.yul\":30613:30631   */\n      0x5061757361626c653a2070617573656400000000000000000000000000000000\n        /* \"#utility.yul\":30609:30610   */\n      0x00\n        /* \"#utility.yul\":30601:30607   */\n      dup3\n        /* \"#utility.yul\":30597:30611   */\n      add\n        /* \"#utility.yul\":30590:30632   */\n      mstore\n        /* \"#utility.yul\":30579:30639   */\n      pop\n      jump\t// out\n        /* \"#utility.yul\":30645:30866   */\n    tag_514:\n        /* \"#utility.yul\":30785:30819   */\n      0x45434453413a20696e76616c6964207369676e6174757265202776272076616c\n        /* \"#utility.yul\":30781:30782   */\n      0x00\n        /* \"#utility.yul\":30773:30779   */\n      dup3\n        /* \"#utility.yul\":30769:30783   */\n      add\n        /* \"#utility.yul\":30762:30820   */\n      mstore\n        /* \"#utility.yul\":30854:30858   */\n      0x7565000000000000000000000000000000000000000000000000000000000000\n        /* \"#utility.yul\":30849:30851   */\n      0x20\n        /* \"#utility.yul\":30841:30847   */\n      dup3\n        /* \"#utility.yul\":30837:30852   */\n      add\n        /* \"#utility.yul\":30830:30859   */\n      mstore\n        /* \"#utility.yul\":30751:30866   */\n      pop\n      jump\t// out\n        /* \"#utility.yul\":30872:31052   */\n    tag_519:\n        /* \"#utility.yul\":31012:31044   */\n      0x45524332305065726d69743a20696e76616c6964207369676e61747572650000\n        /* \"#utility.yul\":31008:31009   */\n      0x00\n        /* \"#utility.yul\":31000:31006   */\n      dup3\n        /* \"#utility.yul\":30996:31010   */\n      add\n        /* \"#utility.yul\":30989:31045   */\n      mstore\n        /* \"#utility.yul\":30978:31052   */\n      pop\n      jump\t// out\n        /* \"#utility.yul\":31058:31240   */\n    tag_524:\n        /* \"#utility.yul\":31198:31232   */\n      0x4f776e61626c653a2063616c6c6572206973206e6f7420746865206f776e6572\n        /* \"#utility.yul\":31194:31195   */\n      0x00\n        /* \"#utility.yul\":31186:31192   */\n      dup3\n        /* \"#utility.yul\":31182:31196   */\n      add\n        /* \"#utility.yul\":31175:31233   */\n      mstore\n        /* \"#utility.yul\":31164:31240   */\n      pop\n      jump\t// out\n        /* \"#utility.yul\":31246:31466   */\n    tag_529:\n        /* \"#utility.yul\":31386:31420   */\n      0x45524332303a206275726e2066726f6d20746865207a65726f20616464726573\n        /* \"#utility.yul\":31382:31383   */\n      0x00\n        /* \"#utility.yul\":31374:31380   */\n      dup3\n        /* \"#utility.yul\":31370:31384   */\n      add\n        /* \"#utility.yul\":31363:31421   */\n      mstore\n        /* \"#utility.yul\":31455:31458   */\n      0x7300000000000000000000000000000000000000000000000000000000000000\n        /* \"#utility.yul\":31450:31452   */\n      0x20\n        /* \"#utility.yul\":31442:31448   */\n      dup3\n        /* \"#utility.yul\":31438:31453   */\n      add\n        /* \"#utility.yul\":31431:31459   */\n      mstore\n        /* \"#utility.yul\":31352:31466   */\n      pop\n      jump\t// out\n        /* \"#utility.yul\":31472:31696   */\n    tag_534:\n        /* \"#utility.yul\":31612:31646   */\n      0x45524332303a207472616e736665722066726f6d20746865207a65726f206164\n        /* \"#utility.yul\":31608:31609   */\n      0x00\n        /* \"#utility.yul\":31600:31606   */\n      dup3\n        /* \"#utility.yul\":31596:31610   */\n      add\n        /* \"#utility.yul\":31589:31647   */\n      mstore\n        /* \"#utility.yul\":31681:31688   */\n      0x6472657373000000000000000000000000000000000000000000000000000000\n        /* \"#utility.yul\":31676:31678   */\n      0x20\n        /* \"#utility.yul\":31668:31674   */\n      dup3\n        /* \"#utility.yul\":31664:31679   */\n      add\n        /* \"#utility.yul\":31657:31689   */\n      mstore\n        /* \"#utility.yul\":31578:31696   */\n      pop\n      jump\t// out\n        /* \"#utility.yul\":31702:31925   */\n    tag_539:\n        /* \"#utility.yul\":31842:31876   */\n      0x45524332303a20617070726f76652066726f6d20746865207a65726f20616464\n        /* \"#utility.yul\":31838:31839   */\n      0x00\n        /* \"#utility.yul\":31830:31836   */\n      dup3\n        /* \"#utility.yul\":31826:31840   */\n      add\n        /* \"#utility.yul\":31819:31877   */\n      mstore\n        /* \"#utility.yul\":31911:31917   */\n      0x7265737300000000000000000000000000000000000000000000000000000000\n        /* \"#utility.yul\":31906:31908   */\n      0x20\n        /* \"#utility.yul\":31898:31904   */\n      dup3\n        /* \"#utility.yul\":31894:31909   */\n      add\n        /* \"#utility.yul\":31887:31918   */\n      mstore\n        /* \"#utility.yul\":31808:31925   */\n      pop\n      jump\t// out\n        /* \"#utility.yul\":31931:32155   */\n    tag_544:\n        /* \"#utility.yul\":32071:32105   */\n      0x45524332303a2064656372656173656420616c6c6f77616e63652062656c6f77\n        /* \"#utility.yul\":32067:32068   */\n      0x00\n        /* \"#utility.yul\":32059:32065   */\n      dup3\n        /* \"#utility.yul\":32055:32069   */\n      add\n        /* \"#utility.yul\":32048:32106   */\n      mstore\n        /* \"#utility.yul\":32140:32147   */\n      0x207a65726f000000000000000000000000000000000000000000000000000000\n        /* \"#utility.yul\":32135:32137   */\n      0x20\n        /* \"#utility.yul\":32127:32133   */\n      dup3\n        /* \"#utility.yul\":32123:32138   */\n      add\n        /* \"#utility.yul\":32116:32148   */\n      mstore\n        /* \"#utility.yul\":32037:32155   */\n      pop\n      jump\t// out\n        /* \"#utility.yul\":32161:32342   */\n    tag_549:\n        /* \"#utility.yul\":32301:32334   */\n      0x45524332303a206d696e7420746f20746865207a65726f206164647265737300\n        /* \"#utility.yul\":32297:32298   */\n      0x00\n        /* \"#utility.yul\":32289:32295   */\n      dup3\n        /* \"#utility.yul\":32285:32299   */\n      add\n        /* \"#utility.yul\":32278:32335   */\n      mstore\n        /* \"#utility.yul\":32267:32342   */\n      pop\n      jump\t// out\n        /* \"#utility.yul\":32348:32470   */\n    tag_376:\n        /* \"#utility.yul\":32421:32445   */\n      tag_690\n        /* \"#utility.yul\":32439:32444   */\n      dup2\n        /* \"#utility.yul\":32421:32445   */\n      tag_420\n      jump\t// in\n    tag_690:\n        /* \"#utility.yul\":32414:32419   */\n      dup2\n        /* \"#utility.yul\":32411:32446   */\n      eq\n        /* \"#utility.yul\":32401:32403   */\n      tag_691\n      jumpi\n        /* \"#utility.yul\":32460:32461   */\n      0x00\n        /* \"#utility.yul\":32457:32458   */\n      dup1\n        /* \"#utility.yul\":32450:32462   */\n      revert\n        /* \"#utility.yul\":32401:32403   */\n    tag_691:\n        /* \"#utility.yul\":32391:32470   */\n      pop\n      jump\t// out\n        /* \"#utility.yul\":32476:32598   */\n    tag_380:\n        /* \"#utility.yul\":32549:32573   */\n      tag_693\n        /* \"#utility.yul\":32567:32572   */\n      dup2\n        /* \"#utility.yul\":32549:32573   */\n      tag_428\n      jump\t// in\n    tag_693:\n        /* \"#utility.yul\":32542:32547   */\n      dup2\n        /* \"#utility.yul\":32539:32574   */\n      eq\n        /* \"#utility.yul\":32529:32531   */\n      tag_694\n      jumpi\n        /* \"#utility.yul\":32588:32589   */\n      0x00\n        /* \"#utility.yul\":32585:32586   */\n      dup1\n        /* \"#utility.yul\":32578:32590   */\n      revert\n        /* \"#utility.yul\":32529:32531   */\n    tag_694:\n        /* \"#utility.yul\":32519:32598   */\n      pop\n      jump\t// out\n        /* \"#utility.yul\":32604:32726   */\n    tag_384:\n        /* \"#utility.yul\":32677:32701   */\n      tag_696\n        /* \"#utility.yul\":32695:32700   */\n      dup2\n        /* \"#utility.yul\":32677:32701   */\n      tag_553\n      jump\t// in\n    tag_696:\n        /* \"#utility.yul\":32670:32675   */\n      dup2\n        /* \"#utility.yul\":32667:32702   */\n      eq\n        /* \"#utility.yul\":32657:32659   */\n      tag_697\n      jumpi\n        /* \"#utility.yul\":32716:32717   */\n      0x00\n        /* \"#utility.yul\":32713:32714   */\n      dup1\n        /* \"#utility.yul\":32706:32718   */\n      revert\n        /* \"#utility.yul\":32657:32659   */\n    tag_697:\n        /* \"#utility.yul\":32647:32726   */\n      pop\n      jump\t// out\n        /* \"#utility.yul\":32732:32850   */\n    tag_388:\n        /* \"#utility.yul\":32803:32825   */\n      tag_699\n        /* \"#utility.yul\":32819:32824   */\n      dup2\n        /* \"#utility.yul\":32803:32825   */\n      tag_557\n      jump\t// in\n    tag_699:\n        /* \"#utility.yul\":32796:32801   */\n      dup2\n        /* \"#utility.yul\":32793:32826   */\n      eq\n        /* \"#utility.yul\":32783:32785   */\n      tag_700\n      jumpi\n        /* \"#utility.yul\":32840:32841   */\n      0x00\n        /* \"#utility.yul\":32837:32838   */\n      dup1\n        /* \"#utility.yul\":32830:32842   */\n      revert\n        /* \"#utility.yul\":32783:32785   */\n    tag_700:\n        /* \"#utility.yul\":32773:32850   */\n      pop\n      jump\t// out\n\n    auxdata: 0xa2646970667358221220105be19fa854f61c8caab5422440ed099652457e074d33e80f1eea914a0ddf1664736f6c63430008040033\n}\n",
				"bytecode": {
					"linkReferences": {},
					"object": "6101406040523480156200001257600080fd5b506040518060400160405280600781526020017f53725a79676f6e00000000000000000000000000000000000000000000000000815250806040518060400160405280600181526020017f31000000000000000000000000000000000000000000000000000000000000008152506040518060400160405280600781526020017f53725a79676f6e000000000000000000000000000000000000000000000000008152506040518060400160405280600381526020017f53725a000000000000000000000000000000000000000000000000000000000081525081600390805190602001906200010492919062000584565b5080600490805190602001906200011d92919062000584565b5050506000600560006101000a81548160ff0219169083151502179055506200015b6200014f6200025560201b60201c565b6200025d60201b60201c565b60008280519060200120905060008280519060200120905060007f8b73c3c69bb8fe3d512ecc4cf759cc79239f7b179b0ffacaa9a75d522b39400f90508260e081815250508161010081815250504660a08181525050620001c48184846200032360201b60201c565b608081815250503073ffffffffffffffffffffffffffffffffffffffff1660c08173ffffffffffffffffffffffffffffffffffffffff1660601b815250508061012081815250505050505050506200024f33620002266200035f60201b60201c565b600a6200023491906200083c565b61271062000243919062000979565b6200036860201b60201c565b62000b22565b600033905090565b6000600560019054906101000a900473ffffffffffffffffffffffffffffffffffffffff16905081600560016101000a81548173ffffffffffffffffffffffffffffffffffffffff021916908373ffffffffffffffffffffffffffffffffffffffff1602179055508173ffffffffffffffffffffffffffffffffffffffff168173ffffffffffffffffffffffffffffffffffffffff167f8be0079c531659141344cd1fd0a4f28419497f9722a3daafe3b4186f6b6457e060405160405180910390a35050565b6000838383463060405160200162000340959493929190620006b5565b6040516020818303038152906040528051906020012090509392505050565b60006012905090565b600073ffffffffffffffffffffffffffffffffffffffff168273ffffffffffffffffffffffffffffffffffffffff161415620003db576040517f08c379a0000000000000000000000000000000000000000000000000000000008152600401620003d29062000734565b60405180910390fd5b620003ef60008383620004e160201b60201c565b806002600082825462000403919062000784565b92505081905550806000808473ffffffffffffffffffffffffffffffffffffffff1673ffffffffffffffffffffffffffffffffffffffff16815260200190815260200160002060008282546200045a919062000784565b925050819055508173ffffffffffffffffffffffffffffffffffffffff16600073ffffffffffffffffffffffffffffffffffffffff167fddf252ad1be2c89b69c2b068fc378daa952ba7f163c4a11628f55a4df523b3ef83604051620004c1919062000756565b60405180910390a3620004dd600083836200050e60201b60201c565b5050565b620004f16200051360201b60201c565b620005098383836200056860201b62000a5f1760201c565b505050565b505050565b620005236200056d60201b60201c565b1562000566576040517f08c379a00000000000000000000000000000000000000000000000000000000081526004016200055d9062000712565b60405180910390fd5b565b505050565b6000600560009054906101000a900460ff16905090565b828054620005929062000a2f565b90600052602060002090601f016020900481019282620005b6576000855562000602565b82601f10620005d157805160ff191683800117855562000602565b8280016001018555821562000602579182015b8281111562000601578251825591602001919060010190620005e4565b5b50905062000611919062000615565b5090565b5b808211156200063057600081600090555060010162000616565b5090565b6200063f81620009da565b82525050565b6200065081620009ee565b82525050565b60006200066560108362000773565b9150620006728262000ad0565b602082019050919050565b60006200068c601f8362000773565b9150620006998262000af9565b602082019050919050565b620006af8162000a18565b82525050565b600060a082019050620006cc600083018862000645565b620006db602083018762000645565b620006ea604083018662000645565b620006f96060830185620006a4565b62000708608083018462000634565b9695505050505050565b600060208201905081810360008301526200072d8162000656565b9050919050565b600060208201905081810360008301526200074f816200067d565b9050919050565b60006020820190506200076d6000830184620006a4565b92915050565b600082825260208201905092915050565b6000620007918262000a18565b91506200079e8362000a18565b9250827fffffffffffffffffffffffffffffffffffffffffffffffffffffffffffffffff03821115620007d657620007d562000a65565b5b828201905092915050565b6000808291508390505b600185111562000833578086048111156200080b576200080a62000a65565b5b60018516156200081b5780820291505b80810290506200082b8562000ac3565b9450620007eb565b94509492505050565b6000620008498262000a18565b9150620008568362000a22565b9250620008857fffffffffffffffffffffffffffffffffffffffffffffffffffffffffffffffff84846200088d565b905092915050565b6000826200089f576001905062000972565b81620008af576000905062000972565b8160018114620008c85760028114620008d35762000909565b600191505062000972565b60ff841115620008e857620008e762000a65565b5b8360020a91508482111562000902576200090162000a65565b5b5062000972565b5060208310610133831016604e8410600b8410161715620009435782820a9050838111156200093d576200093c62000a65565b5b62000972565b620009528484846001620007e1565b925090508184048111156200096c576200096b62000a65565b5b81810290505b9392505050565b6000620009868262000a18565b9150620009938362000a18565b9250817fffffffffffffffffffffffffffffffffffffffffffffffffffffffffffffffff0483118215151615620009cf57620009ce62000a65565b5b828202905092915050565b6000620009e782620009f8565b9050919050565b6000819050919050565b600073ffffffffffffffffffffffffffffffffffffffff82169050919050565b6000819050919050565b600060ff82169050919050565b6000600282049050600182168062000a4857607f821691505b6020821081141562000a5f5762000a5e62000a94565b5b50919050565b7f4e487b7100000000000000000000000000000000000000000000000000000000600052601160045260246000fd5b7f4e487b7100000000000000000000000000000000000000000000000000000000600052602260045260246000fd5b60008160011c9050919050565b7f5061757361626c653a2070617573656400000000000000000000000000000000600082015250565b7f45524332303a206d696e7420746f20746865207a65726f206164647265737300600082015250565b60805160a05160c05160601c60e0516101005161012051612d3e62000b756000396000610ff2015260006110340152600061101301526000610f4801526000610f9e01526000610fc70152612d3e6000f3fe608060405234801561001057600080fd5b506004361061014d5760003560e01c806370a08231116100c357806395d89b411161007c57806395d89b4114610368578063a457c2d714610386578063a9059cbb146103b6578063d505accf146103e6578063dd62ed3e14610402578063f2fde38b146104325761014d565b806370a08231146102ba578063715018a6146102ea57806379cc6790146102f45780637ecebe00146103105780638456cb59146103405780638da5cb5b1461034a5761014d565b80633644e515116101155780633644e5151461020c578063395093511461022a5780633f4ba83a1461025a57806340c10f191461026457806342966c68146102805780635c975abb1461029c5761014d565b806306fdde0314610152578063095ea7b31461017057806318160ddd146101a057806323b872dd146101be578063313ce567146101ee575b600080fd5b61015a61044e565b60405161016791906122e7565b60405180910390f35b61018a60048036038101906101859190611d87565b6104e0565b60405161019791906121b8565b60405180910390f35b6101a8610503565b6040516101b59190612589565b60405180910390f35b6101d860048036038101906101d39190611c9a565b61050d565b6040516101e591906121b8565b60405180910390f35b6101f661053c565b60405161020391906125a4565b60405180910390f35b610214610545565b60405161022191906121d3565b60405180910390f35b610244600480360381019061023f9190611d87565b610554565b60405161025191906121b8565b60405180910390f35b61026261058b565b005b61027e60048036038101906102799190611d87565b61059d565b005b61029a60048036038101906102959190611dc3565b6105b3565b005b6102a46105c7565b6040516102b191906121b8565b60405180910390f35b6102d460048036038101906102cf9190611c35565b6105de565b6040516102e19190612589565b60405180910390f35b6102f2610626565b005b61030e60048036038101906103099190611d87565b61063a565b005b61032a60048036038101906103259190611c35565b61065a565b6040516103379190612589565b60405180910390f35b6103486106aa565b005b6103526106bc565b60405161035f919061219d565b60405180910390f35b6103706106e6565b60405161037d91906122e7565b60405180910390f35b6103a0600480360381019061039b9190611d87565b610778565b6040516103ad91906121b8565b60405180910390f35b6103d060048036038101906103cb9190611d87565b6107ef565b6040516103dd91906121b8565b60405180910390f35b61040060048036038101906103fb9190611ce9565b610812565b005b61041c60048036038101906104179190611c5e565b610954565b6040516104299190612589565b60405180910390f35b61044c60048036038101906104479190611c35565b6109db565b005b60606003805461045d90612702565b80601f016020809104026020016040519081016040528092919081815260200182805461048990612702565b80156104d65780601f106104ab576101008083540402835291602001916104d6565b820191906000526020600020905b8154815290600101906020018083116104b957829003601f168201915b5050505050905090565b6000806104eb610a64565b90506104f8818585610a6c565b600191505092915050565b6000600254905090565b600080610518610a64565b9050610525858285610c37565b610530858585610cc3565b60019150509392505050565b60006012905090565b600061054f610f44565b905090565b60008061055f610a64565b90506105808185856105718589610954565b61057b91906125e6565b610a6c565b600191505092915050565b61059361105e565b61059b6110dc565b565b6105a561105e565b6105af828261113f565b5050565b6105c46105be610a64565b8261129f565b50565b6000600560009054906101000a900460ff16905090565b60008060008373ffffffffffffffffffffffffffffffffffffffff1673ffffffffffffffffffffffffffffffffffffffff168152602001908152602001600020549050919050565b61062e61105e565b6106386000611476565b565b61064c82610646610a64565b83610c37565b610656828261129f565b5050565b60006106a3600660008473ffffffffffffffffffffffffffffffffffffffff1673ffffffffffffffffffffffffffffffffffffffff16815260200190815260200160002061153c565b9050919050565b6106b261105e565b6106ba61154a565b565b6000600560019054906101000a900473ffffffffffffffffffffffffffffffffffffffff16905090565b6060600480546106f590612702565b80601f016020809104026020016040519081016040528092919081815260200182805461072190612702565b801561076e5780601f106107435761010080835404028352916020019161076e565b820191906000526020600020905b81548152906001019060200180831161075157829003601f168201915b5050505050905090565b600080610783610a64565b905060006107918286610954565b9050838110156107d6576040517f08c379a00000000000000000000000000000000000000000000000000000000081526004016107cd90612549565b60405180910390fd5b6107e38286868403610a6c565b60019250505092915050565b6000806107fa610a64565b9050610807818585610cc3565b600191505092915050565b83421115610855576040517f08c379a000000000000000000000000000000000000000000000000000000000815260040161084c90612409565b60405180910390fd5b60007f6e71edae12b1b97f4d1f60370fef10105fa2faae0126114a169c64845d6126c98888886108848c6115ad565b8960405160200161089a969594939291906121ee565b60405160208183030381529060405280519060200120905060006108bd8261160b565b905060006108cd82878787611625565b90508973ffffffffffffffffffffffffffffffffffffffff168173ffffffffffffffffffffffffffffffffffffffff161461093d576040517f08c379a0000000000000000000000000000000000000000000000000000000008152600401610934906124a9565b60405180910390fd5b6109488a8a8a610a6c565b50505050505050505050565b6000600160008473ffffffffffffffffffffffffffffffffffffffff1673ffffffffffffffffffffffffffffffffffffffff16815260200190815260200160002060008373ffffffffffffffffffffffffffffffffffffffff1673ffffffffffffffffffffffffffffffffffffffff16815260200190815260200160002054905092915050565b6109e361105e565b600073ffffffffffffffffffffffffffffffffffffffff168173ffffffffffffffffffffffffffffffffffffffff161415610a53576040517f08c379a0000000000000000000000000000000000000000000000000000000008152600401610a4a906123a9565b60405180910390fd5b610a5c81611476565b50565b505050565b600033905090565b600073ffffffffffffffffffffffffffffffffffffffff168373ffffffffffffffffffffffffffffffffffffffff161415610adc576040517f08c379a0000000000000000000000000000000000000000000000000000000008152600401610ad390612529565b60405180910390fd5b600073ffffffffffffffffffffffffffffffffffffffff168273ffffffffffffffffffffffffffffffffffffffff161415610b4c576040517f08c379a0000000000000000000000000000000000000000000000000000000008152600401610b43906123c9565b60405180910390fd5b80600160008573ffffffffffffffffffffffffffffffffffffffff1673ffffffffffffffffffffffffffffffffffffffff16815260200190815260200160002060008473ffffffffffffffffffffffffffffffffffffffff1673ffffffffffffffffffffffffffffffffffffffff168152602001908152602001600020819055508173ffffffffffffffffffffffffffffffffffffffff168373ffffffffffffffffffffffffffffffffffffffff167f8c5be1e5ebec7d5bd14f71427d1e84f3dd0314c0f7b2291e5b200ac8c7c3b92583604051610c2a9190612589565b60405180910390a3505050565b6000610c438484610954565b90507fffffffffffffffffffffffffffffffffffffffffffffffffffffffffffffffff8114610cbd5781811015610caf576040517f08c379a0000000000000000000000000000000000000000000000000000000008152600401610ca6906123e9565b60405180910390fd5b610cbc8484848403610a6c565b5b50505050565b600073ffffffffffffffffffffffffffffffffffffffff168373ffffffffffffffffffffffffffffffffffffffff161415610d33576040517f08c379a0000000000000000000000000000000000000000000000000000000008152600401610d2a90612509565b60405180910390fd5b600073ffffffffffffffffffffffffffffffffffffffff168273ffffffffffffffffffffffffffffffffffffffff161415610da3576040517f08c379a0000000000000000000000000000000000000000000000000000000008152600401610d9a90612329565b60405180910390fd5b610dae838383611650565b60008060008573ffffffffffffffffffffffffffffffffffffffff1673ffffffffffffffffffffffffffffffffffffffff16815260200190815260200160002054905081811015610e34576040517f08c379a0000000000000000000000000000000000000000000000000000000008152600401610e2b90612429565b60405180910390fd5b8181036000808673ffffffffffffffffffffffffffffffffffffffff1673ffffffffffffffffffffffffffffffffffffffff16815260200190815260200160002081905550816000808573ffffffffffffffffffffffffffffffffffffffff1673ffffffffffffffffffffffffffffffffffffffff1681526020019081526020016000206000828254610ec791906125e6565b925050819055508273ffffffffffffffffffffffffffffffffffffffff168473ffffffffffffffffffffffffffffffffffffffff167fddf252ad1be2c89b69c2b068fc378daa952ba7f163c4a11628f55a4df523b3ef84604051610f2b9190612589565b60405180910390a3610f3e848484611668565b50505050565b60007f000000000000000000000000000000000000000000000000000000000000000073ffffffffffffffffffffffffffffffffffffffff163073ffffffffffffffffffffffffffffffffffffffff16148015610fc057507f000000000000000000000000000000000000000000000000000000000000000046145b15610fed577f0000000000000000000000000000000000000000000000000000000000000000905061105b565b6110587f00000000000000000000000000000000000000000000000000000000000000007f00000000000000000000000000000000000000000000000000000000000000007f000000000000000000000000000000000000000000000000000000000000000061166d565b90505b90565b611066610a64565b73ffffffffffffffffffffffffffffffffffffffff166110846106bc565b73ffffffffffffffffffffffffffffffffffffffff16146110da576040517f08c379a00000000000000000000000000000000000000000000000000000000081526004016110d1906124c9565b60405180910390fd5b565b6110e46116a7565b6000600560006101000a81548160ff0219169083151502179055507f5db9ee0a495bf2e6ff9c91a7834c1ba4fdd244a5e8aa4e537bd38aeae4b073aa611128610a64565b604051611135919061219d565b60405180910390a1565b600073ffffffffffffffffffffffffffffffffffffffff168273ffffffffffffffffffffffffffffffffffffffff1614156111af576040517f08c379a00000000000000000000000000000000000000000000000000000000081526004016111a690612569565b60405180910390fd5b6111bb60008383611650565b80600260008282546111cd91906125e6565b92505081905550806000808473ffffffffffffffffffffffffffffffffffffffff1673ffffffffffffffffffffffffffffffffffffffff168152602001908152602001600020600082825461122291906125e6565b925050819055508173ffffffffffffffffffffffffffffffffffffffff16600073ffffffffffffffffffffffffffffffffffffffff167fddf252ad1be2c89b69c2b068fc378daa952ba7f163c4a11628f55a4df523b3ef836040516112879190612589565b60405180910390a361129b60008383611668565b5050565b600073ffffffffffffffffffffffffffffffffffffffff168273ffffffffffffffffffffffffffffffffffffffff16141561130f576040517f08c379a0000000000000000000000000000000000000000000000000000000008152600401611306906124e9565b60405180910390fd5b61131b82600083611650565b60008060008473ffffffffffffffffffffffffffffffffffffffff1673ffffffffffffffffffffffffffffffffffffffff168152602001908152602001600020549050818110156113a1576040517f08c379a000000000000000000000000000000000000000000000000000000000815260040161139890612369565b60405180910390fd5b8181036000808573ffffffffffffffffffffffffffffffffffffffff1673ffffffffffffffffffffffffffffffffffffffff1681526020019081526020016000208190555081600260008282546113f8919061263c565b92505081905550600073ffffffffffffffffffffffffffffffffffffffff168373ffffffffffffffffffffffffffffffffffffffff167fddf252ad1be2c89b69c2b068fc378daa952ba7f163c4a11628f55a4df523b3ef8460405161145d9190612589565b60405180910390a361147183600084611668565b505050565b6000600560019054906101000a900473ffffffffffffffffffffffffffffffffffffffff16905081600560016101000a81548173ffffffffffffffffffffffffffffffffffffffff021916908373ffffffffffffffffffffffffffffffffffffffff1602179055508173ffffffffffffffffffffffffffffffffffffffff168173ffffffffffffffffffffffffffffffffffffffff167f8be0079c531659141344cd1fd0a4f28419497f9722a3daafe3b4186f6b6457e060405160405180910390a35050565b600081600001549050919050565b6115526116f0565b6001600560006101000a81548160ff0219169083151502179055507f62e78cea01bee320cd4e420270b5ea74000d11b0c9f74754ebdbfc544b05a258611596610a64565b6040516115a3919061219d565b60405180910390a1565b600080600660008473ffffffffffffffffffffffffffffffffffffffff1673ffffffffffffffffffffffffffffffffffffffff16815260200190815260200160002090506115fa8161153c565b91506116058161173a565b50919050565b600061161e611618610f44565b83611750565b9050919050565b600080600061163687878787611783565b9150915061164381611890565b8192505050949350505050565b6116586116f0565b611663838383610a5f565b505050565b505050565b6000838383463060405160200161168895949392919061224f565b6040516020818303038152906040528051906020012090509392505050565b6116af6105c7565b6116ee576040517f08c379a00000000000000000000000000000000000000000000000000000000081526004016116e590612349565b60405180910390fd5b565b6116f86105c7565b15611738576040517f08c379a000000000000000000000000000000000000000000000000000000000815260040161172f90612469565b60405180910390fd5b565b6001816000016000828254019250508190555050565b60008282604051602001611765929190612166565b60405160208183030381529060405280519060200120905092915050565b6000807f7fffffffffffffffffffffffffffffff5d576e7357a4501ddfe92f46681b20a08360001c11156117be576000600391509150611887565b601b8560ff16141580156117d65750601c8560ff1614155b156117e8576000600491509150611887565b60006001878787876040516000815260200160405260405161180d94939291906122a2565b6020604051602081039080840390855afa15801561182f573d6000803e3d6000fd5b505050602060405103519050600073ffffffffffffffffffffffffffffffffffffffff168173ffffffffffffffffffffffffffffffffffffffff16141561187e57600060019250925050611887565b80600092509250505b94509492505050565b600060048111156118ca577f4e487b7100000000000000000000000000000000000000000000000000000000600052602160045260246000fd5b816004811115611903577f4e487b7100000000000000000000000000000000000000000000000000000000600052602160045260246000fd5b141561190e57611bde565b60016004811115611948577f4e487b7100000000000000000000000000000000000000000000000000000000600052602160045260246000fd5b816004811115611981577f4e487b7100000000000000000000000000000000000000000000000000000000600052602160045260246000fd5b14156119c2576040517f08c379a00000000000000000000000000000000000000000000000000000000081526004016119b990612309565b60405180910390fd5b600260048111156119fc577f4e487b7100000000000000000000000000000000000000000000000000000000600052602160045260246000fd5b816004811115611a35577f4e487b7100000000000000000000000000000000000000000000000000000000600052602160045260246000fd5b1415611a76576040517f08c379a0000000000000000000000000000000000000000000000000000000008152600401611a6d90612389565b60405180910390fd5b60036004811115611ab0577f4e487b7100000000000000000000000000000000000000000000000000000000600052602160045260246000fd5b816004811115611ae9577f4e487b7100000000000000000000000000000000000000000000000000000000600052602160045260246000fd5b1415611b2a576040517f08c379a0000000000000000000000000000000000000000000000000000000008152600401611b2190612449565b60405180910390fd5b600480811115611b63577f4e487b7100000000000000000000000000000000000000000000000000000000600052602160045260246000fd5b816004811115611b9c577f4e487b7100000000000000000000000000000000000000000000000000000000600052602160045260246000fd5b1415611bdd576040517f08c379a0000000000000000000000000000000000000000000000000000000008152600401611bd490612489565b60405180910390fd5b5b50565b600081359050611bf081612cac565b92915050565b600081359050611c0581612cc3565b92915050565b600081359050611c1a81612cda565b92915050565b600081359050611c2f81612cf1565b92915050565b600060208284031215611c4757600080fd5b6000611c5584828501611be1565b91505092915050565b60008060408385031215611c7157600080fd5b6000611c7f85828601611be1565b9250506020611c9085828601611be1565b9150509250929050565b600080600060608486031215611caf57600080fd5b6000611cbd86828701611be1565b9350506020611cce86828701611be1565b9250506040611cdf86828701611c0b565b9150509250925092565b600080600080600080600060e0888a031215611d0457600080fd5b6000611d128a828b01611be1565b9750506020611d238a828b01611be1565b9650506040611d348a828b01611c0b565b9550506060611d458a828b01611c0b565b9450506080611d568a828b01611c20565b93505060a0611d678a828b01611bf6565b92505060c0611d788a828b01611bf6565b91505092959891949750929550565b60008060408385031215611d9a57600080fd5b6000611da885828601611be1565b9250506020611db985828601611c0b565b9150509250929050565b600060208284031215611dd557600080fd5b6000611de384828501611c0b565b91505092915050565b611df581612670565b82525050565b611e0481612682565b82525050565b611e138161268e565b82525050565b611e2a611e258261268e565b612734565b82525050565b6000611e3b826125bf565b611e4581856125ca565b9350611e558185602086016126cf565b611e5e8161279c565b840191505092915050565b6000611e766018836125ca565b9150611e81826127ad565b602082019050919050565b6000611e996023836125ca565b9150611ea4826127d6565b604082019050919050565b6000611ebc6014836125ca565b9150611ec782612825565b602082019050919050565b6000611edf6022836125ca565b9150611eea8261284e565b604082019050919050565b6000611f02601f836125ca565b9150611f0d8261289d565b602082019050919050565b6000611f256026836125ca565b9150611f30826128c6565b604082019050919050565b6000611f486022836125ca565b9150611f5382612915565b604082019050919050565b6000611f6b6002836125db565b9150611f7682612964565b600282019050919050565b6000611f8e601d836125ca565b9150611f998261298d565b602082019050919050565b6000611fb1601d836125ca565b9150611fbc826129b6565b602082019050919050565b6000611fd46026836125ca565b9150611fdf826129df565b604082019050919050565b6000611ff76022836125ca565b915061200282612a2e565b604082019050919050565b600061201a6010836125ca565b915061202582612a7d565b602082019050919050565b600061203d6022836125ca565b915061204882612aa6565b604082019050919050565b6000612060601e836125ca565b915061206b82612af5565b602082019050919050565b60006120836020836125ca565b915061208e82612b1e565b602082019050919050565b60006120a66021836125ca565b91506120b182612b47565b604082019050919050565b60006120c96025836125ca565b91506120d482612b96565b604082019050919050565b60006120ec6024836125ca565b91506120f782612be5565b604082019050919050565b600061210f6025836125ca565b915061211a82612c34565b604082019050919050565b6000612132601f836125ca565b915061213d82612c83565b602082019050919050565b612151816126b8565b82525050565b612160816126c2565b82525050565b600061217182611f5e565b915061217d8285611e19565b60208201915061218d8284611e19565b6020820191508190509392505050565b60006020820190506121b26000830184611dec565b92915050565b60006020820190506121cd6000830184611dfb565b92915050565b60006020820190506121e86000830184611e0a565b92915050565b600060c0820190506122036000830189611e0a565b6122106020830188611dec565b61221d6040830187611dec565b61222a6060830186612148565b6122376080830185612148565b61224460a0830184612148565b979650505050505050565b600060a0820190506122646000830188611e0a565b6122716020830187611e0a565b61227e6040830186611e0a565b61228b6060830185612148565b6122986080830184611dec565b9695505050505050565b60006080820190506122b76000830187611e0a565b6122c46020830186612157565b6122d16040830185611e0a565b6122de6060830184611e0a565b95945050505050565b600060208201905081810360008301526123018184611e30565b905092915050565b6000602082019050818103600083015261232281611e69565b9050919050565b6000602082019050818103600083015261234281611e8c565b9050919050565b6000602082019050818103600083015261236281611eaf565b9050919050565b6000602082019050818103600083015261238281611ed2565b9050919050565b600060208201905081810360008301526123a281611ef5565b9050919050565b600060208201905081810360008301526123c281611f18565b9050919050565b600060208201905081810360008301526123e281611f3b565b9050919050565b6000602082019050818103600083015261240281611f81565b9050919050565b6000602082019050818103600083015261242281611fa4565b9050919050565b6000602082019050818103600083015261244281611fc7565b9050919050565b6000602082019050818103600083015261246281611fea565b9050919050565b600060208201905081810360008301526124828161200d565b9050919050565b600060208201905081810360008301526124a281612030565b9050919050565b600060208201905081810360008301526124c281612053565b9050919050565b600060208201905081810360008301526124e281612076565b9050919050565b6000602082019050818103600083015261250281612099565b9050919050565b60006020820190508181036000830152612522816120bc565b9050919050565b60006020820190508181036000830152612542816120df565b9050919050565b6000602082019050818103600083015261256281612102565b9050919050565b6000602082019050818103600083015261258281612125565b9050919050565b600060208201905061259e6000830184612148565b92915050565b60006020820190506125b96000830184612157565b92915050565b600081519050919050565b600082825260208201905092915050565b600081905092915050565b60006125f1826126b8565b91506125fc836126b8565b9250827fffffffffffffffffffffffffffffffffffffffffffffffffffffffffffffffff038211156126315761263061273e565b5b828201905092915050565b6000612647826126b8565b9150612652836126b8565b9250828210156126655761266461273e565b5b828203905092915050565b600061267b82612698565b9050919050565b60008115159050919050565b6000819050919050565b600073ffffffffffffffffffffffffffffffffffffffff82169050919050565b6000819050919050565b600060ff82169050919050565b60005b838110156126ed5780820151818401526020810190506126d2565b838111156126fc576000848401525b50505050565b6000600282049050600182168061271a57607f821691505b6020821081141561272e5761272d61276d565b5b50919050565b6000819050919050565b7f4e487b7100000000000000000000000000000000000000000000000000000000600052601160045260246000fd5b7f4e487b7100000000000000000000000000000000000000000000000000000000600052602260045260246000fd5b6000601f19601f8301169050919050565b7f45434453413a20696e76616c6964207369676e61747572650000000000000000600082015250565b7f45524332303a207472616e7366657220746f20746865207a65726f206164647260008201527f6573730000000000000000000000000000000000000000000000000000000000602082015250565b7f5061757361626c653a206e6f7420706175736564000000000000000000000000600082015250565b7f45524332303a206275726e20616d6f756e7420657863656564732062616c616e60008201527f6365000000000000000000000000000000000000000000000000000000000000602082015250565b7f45434453413a20696e76616c6964207369676e6174757265206c656e67746800600082015250565b7f4f776e61626c653a206e6577206f776e657220697320746865207a65726f206160008201527f6464726573730000000000000000000000000000000000000000000000000000602082015250565b7f45524332303a20617070726f766520746f20746865207a65726f20616464726560008201527f7373000000000000000000000000000000000000000000000000000000000000602082015250565b7f1901000000000000000000000000000000000000000000000000000000000000600082015250565b7f45524332303a20696e73756666696369656e7420616c6c6f77616e6365000000600082015250565b7f45524332305065726d69743a206578706972656420646561646c696e65000000600082015250565b7f45524332303a207472616e7366657220616d6f756e742065786365656473206260008201527f616c616e63650000000000000000000000000000000000000000000000000000602082015250565b7f45434453413a20696e76616c6964207369676e6174757265202773272076616c60008201527f7565000000000000000000000000000000000000000000000000000000000000602082015250565b7f5061757361626c653a2070617573656400000000000000000000000000000000600082015250565b7f45434453413a20696e76616c6964207369676e6174757265202776272076616c60008201527f7565000000000000000000000000000000000000000000000000000000000000602082015250565b7f45524332305065726d69743a20696e76616c6964207369676e61747572650000600082015250565b7f4f776e61626c653a2063616c6c6572206973206e6f7420746865206f776e6572600082015250565b7f45524332303a206275726e2066726f6d20746865207a65726f2061646472657360008201527f7300000000000000000000000000000000000000000000000000000000000000602082015250565b7f45524332303a207472616e736665722066726f6d20746865207a65726f20616460008201527f6472657373000000000000000000000000000000000000000000000000000000602082015250565b7f45524332303a20617070726f76652066726f6d20746865207a65726f2061646460008201527f7265737300000000000000000000000000000000000000000000000000000000602082015250565b7f45524332303a2064656372656173656420616c6c6f77616e63652062656c6f7760008201527f207a65726f000000000000000000000000000000000000000000000000000000602082015250565b7f45524332303a206d696e7420746f20746865207a65726f206164647265737300600082015250565b612cb581612670565b8114612cc057600080fd5b50565b612ccc8161268e565b8114612cd757600080fd5b50565b612ce3816126b8565b8114612cee57600080fd5b50565b612cfa816126c2565b8114612d0557600080fd5b5056fea2646970667358221220105be19fa854f61c8caab5422440ed099652457e074d33e80f1eea914a0ddf1664736f6c63430008040033",
					"opcodes": "PUSH2 0x140 PUSH1 0x40 MSTORE CALLVALUE DUP1 ISZERO PUSH3 0x12 JUMPI PUSH1 0x0 DUP1 REVERT JUMPDEST POP PUSH1 0x40 MLOAD DUP1 PUSH1 0x40 ADD PUSH1 0x40 MSTORE DUP1 PUSH1 0x7 DUP2 MSTORE PUSH1 0x20 ADD PUSH32 0x53725A79676F6E00000000000000000000000000000000000000000000000000 DUP2 MSTORE POP DUP1 PUSH1 0x40 MLOAD DUP1 PUSH1 0x40 ADD PUSH1 0x40 MSTORE DUP1 PUSH1 0x1 DUP2 MSTORE PUSH1 0x20 ADD PUSH32 0x3100000000000000000000000000000000000000000000000000000000000000 DUP2 MSTORE POP PUSH1 0x40 MLOAD DUP1 PUSH1 0x40 ADD PUSH1 0x40 MSTORE DUP1 PUSH1 0x7 DUP2 MSTORE PUSH1 0x20 ADD PUSH32 0x53725A79676F6E00000000000000000000000000000000000000000000000000 DUP2 MSTORE POP PUSH1 0x40 MLOAD DUP1 PUSH1 0x40 ADD PUSH1 0x40 MSTORE DUP1 PUSH1 0x3 DUP2 MSTORE PUSH1 0x20 ADD PUSH32 0x53725A0000000000000000000000000000000000000000000000000000000000 DUP2 MSTORE POP DUP2 PUSH1 0x3 SWAP1 DUP1 MLOAD SWAP1 PUSH1 0x20 ADD SWAP1 PUSH3 0x104 SWAP3 SWAP2 SWAP1 PUSH3 0x584 JUMP JUMPDEST POP DUP1 PUSH1 0x4 SWAP1 DUP1 MLOAD SWAP1 PUSH1 0x20 ADD SWAP1 PUSH3 0x11D SWAP3 SWAP2 SWAP1 PUSH3 0x584 JUMP JUMPDEST POP POP POP PUSH1 0x0 PUSH1 0x5 PUSH1 0x0 PUSH2 0x100 EXP DUP2 SLOAD DUP2 PUSH1 0xFF MUL NOT AND SWAP1 DUP4 ISZERO ISZERO MUL OR SWAP1 SSTORE POP PUSH3 0x15B PUSH3 0x14F PUSH3 0x255 PUSH1 0x20 SHL PUSH1 0x20 SHR JUMP JUMPDEST PUSH3 0x25D PUSH1 0x20 SHL PUSH1 0x20 SHR JUMP JUMPDEST PUSH1 0x0 DUP3 DUP1 MLOAD SWAP1 PUSH1 0x20 ADD KECCAK256 SWAP1 POP PUSH1 0x0 DUP3 DUP1 MLOAD SWAP1 PUSH1 0x20 ADD KECCAK256 SWAP1 POP PUSH1 0x0 PUSH32 0x8B73C3C69BB8FE3D512ECC4CF759CC79239F7B179B0FFACAA9A75D522B39400F SWAP1 POP DUP3 PUSH1 0xE0 DUP2 DUP2 MSTORE POP POP DUP2 PUSH2 0x100 DUP2 DUP2 MSTORE POP POP CHAINID PUSH1 0xA0 DUP2 DUP2 MSTORE POP POP PUSH3 0x1C4 DUP2 DUP5 DUP5 PUSH3 0x323 PUSH1 0x20 SHL PUSH1 0x20 SHR JUMP JUMPDEST PUSH1 0x80 DUP2 DUP2 MSTORE POP POP ADDRESS PUSH20 0xFFFFFFFFFFFFFFFFFFFFFFFFFFFFFFFFFFFFFFFF AND PUSH1 0xC0 DUP2 PUSH20 0xFFFFFFFFFFFFFFFFFFFFFFFFFFFFFFFFFFFFFFFF AND PUSH1 0x60 SHL DUP2 MSTORE POP POP DUP1 PUSH2 0x120 DUP2 DUP2 MSTORE POP POP POP POP POP POP POP POP PUSH3 0x24F CALLER PUSH3 0x226 PUSH3 0x35F PUSH1 0x20 SHL PUSH1 0x20 SHR JUMP JUMPDEST PUSH1 0xA PUSH3 0x234 SWAP2 SWAP1 PUSH3 0x83C JUMP JUMPDEST PUSH2 0x2710 PUSH3 0x243 SWAP2 SWAP1 PUSH3 0x979 JUMP JUMPDEST PUSH3 0x368 PUSH1 0x20 SHL PUSH1 0x20 SHR JUMP JUMPDEST PUSH3 0xB22 JUMP JUMPDEST PUSH1 0x0 CALLER SWAP1 POP SWAP1 JUMP JUMPDEST PUSH1 0x0 PUSH1 0x5 PUSH1 0x1 SWAP1 SLOAD SWAP1 PUSH2 0x100 EXP SWAP1 DIV PUSH20 0xFFFFFFFFFFFFFFFFFFFFFFFFFFFFFFFFFFFFFFFF AND SWAP1 POP DUP2 PUSH1 0x5 PUSH1 0x1 PUSH2 0x100 EXP DUP2 SLOAD DUP2 PUSH20 0xFFFFFFFFFFFFFFFFFFFFFFFFFFFFFFFFFFFFFFFF MUL NOT AND SWAP1 DUP4 PUSH20 0xFFFFFFFFFFFFFFFFFFFFFFFFFFFFFFFFFFFFFFFF AND MUL OR SWAP1 SSTORE POP DUP2 PUSH20 0xFFFFFFFFFFFFFFFFFFFFFFFFFFFFFFFFFFFFFFFF AND DUP2 PUSH20 0xFFFFFFFFFFFFFFFFFFFFFFFFFFFFFFFFFFFFFFFF AND PUSH32 0x8BE0079C531659141344CD1FD0A4F28419497F9722A3DAAFE3B4186F6B6457E0 PUSH1 0x40 MLOAD PUSH1 0x40 MLOAD DUP1 SWAP2 SUB SWAP1 LOG3 POP POP JUMP JUMPDEST PUSH1 0x0 DUP4 DUP4 DUP4 CHAINID ADDRESS PUSH1 0x40 MLOAD PUSH1 0x20 ADD PUSH3 0x340 SWAP6 SWAP5 SWAP4 SWAP3 SWAP2 SWAP1 PUSH3 0x6B5 JUMP JUMPDEST PUSH1 0x40 MLOAD PUSH1 0x20 DUP2 DUP4 SUB SUB DUP2 MSTORE SWAP1 PUSH1 0x40 MSTORE DUP1 MLOAD SWAP1 PUSH1 0x20 ADD KECCAK256 SWAP1 POP SWAP4 SWAP3 POP POP POP JUMP JUMPDEST PUSH1 0x0 PUSH1 0x12 SWAP1 POP SWAP1 JUMP JUMPDEST PUSH1 0x0 PUSH20 0xFFFFFFFFFFFFFFFFFFFFFFFFFFFFFFFFFFFFFFFF AND DUP3 PUSH20 0xFFFFFFFFFFFFFFFFFFFFFFFFFFFFFFFFFFFFFFFF AND EQ ISZERO PUSH3 0x3DB JUMPI PUSH1 0x40 MLOAD PUSH32 0x8C379A000000000000000000000000000000000000000000000000000000000 DUP2 MSTORE PUSH1 0x4 ADD PUSH3 0x3D2 SWAP1 PUSH3 0x734 JUMP JUMPDEST PUSH1 0x40 MLOAD DUP1 SWAP2 SUB SWAP1 REVERT JUMPDEST PUSH3 0x3EF PUSH1 0x0 DUP4 DUP4 PUSH3 0x4E1 PUSH1 0x20 SHL PUSH1 0x20 SHR JUMP JUMPDEST DUP1 PUSH1 0x2 PUSH1 0x0 DUP3 DUP3 SLOAD PUSH3 0x403 SWAP2 SWAP1 PUSH3 0x784 JUMP JUMPDEST SWAP3 POP POP DUP2 SWAP1 SSTORE POP DUP1 PUSH1 0x0 DUP1 DUP5 PUSH20 0xFFFFFFFFFFFFFFFFFFFFFFFFFFFFFFFFFFFFFFFF AND PUSH20 0xFFFFFFFFFFFFFFFFFFFFFFFFFFFFFFFFFFFFFFFF AND DUP2 MSTORE PUSH1 0x20 ADD SWAP1 DUP2 MSTORE PUSH1 0x20 ADD PUSH1 0x0 KECCAK256 PUSH1 0x0 DUP3 DUP3 SLOAD PUSH3 0x45A SWAP2 SWAP1 PUSH3 0x784 JUMP JUMPDEST SWAP3 POP POP DUP2 SWAP1 SSTORE POP DUP2 PUSH20 0xFFFFFFFFFFFFFFFFFFFFFFFFFFFFFFFFFFFFFFFF AND PUSH1 0x0 PUSH20 0xFFFFFFFFFFFFFFFFFFFFFFFFFFFFFFFFFFFFFFFF AND PUSH32 0xDDF252AD1BE2C89B69C2B068FC378DAA952BA7F163C4A11628F55A4DF523B3EF DUP4 PUSH1 0x40 MLOAD PUSH3 0x4C1 SWAP2 SWAP1 PUSH3 0x756 JUMP JUMPDEST PUSH1 0x40 MLOAD DUP1 SWAP2 SUB SWAP1 LOG3 PUSH3 0x4DD PUSH1 0x0 DUP4 DUP4 PUSH3 0x50E PUSH1 0x20 SHL PUSH1 0x20 SHR JUMP JUMPDEST POP POP JUMP JUMPDEST PUSH3 0x4F1 PUSH3 0x513 PUSH1 0x20 SHL PUSH1 0x20 SHR JUMP JUMPDEST PUSH3 0x509 DUP4 DUP4 DUP4 PUSH3 0x568 PUSH1 0x20 SHL PUSH3 0xA5F OR PUSH1 0x20 SHR JUMP JUMPDEST POP POP POP JUMP JUMPDEST POP POP POP JUMP JUMPDEST PUSH3 0x523 PUSH3 0x56D PUSH1 0x20 SHL PUSH1 0x20 SHR JUMP JUMPDEST ISZERO PUSH3 0x566 JUMPI PUSH1 0x40 MLOAD PUSH32 0x8C379A000000000000000000000000000000000000000000000000000000000 DUP2 MSTORE PUSH1 0x4 ADD PUSH3 0x55D SWAP1 PUSH3 0x712 JUMP JUMPDEST PUSH1 0x40 MLOAD DUP1 SWAP2 SUB SWAP1 REVERT JUMPDEST JUMP JUMPDEST POP POP POP JUMP JUMPDEST PUSH1 0x0 PUSH1 0x5 PUSH1 0x0 SWAP1 SLOAD SWAP1 PUSH2 0x100 EXP SWAP1 DIV PUSH1 0xFF AND SWAP1 POP SWAP1 JUMP JUMPDEST DUP3 DUP1 SLOAD PUSH3 0x592 SWAP1 PUSH3 0xA2F JUMP JUMPDEST SWAP1 PUSH1 0x0 MSTORE PUSH1 0x20 PUSH1 0x0 KECCAK256 SWAP1 PUSH1 0x1F ADD PUSH1 0x20 SWAP1 DIV DUP2 ADD SWAP3 DUP3 PUSH3 0x5B6 JUMPI PUSH1 0x0 DUP6 SSTORE PUSH3 0x602 JUMP JUMPDEST DUP3 PUSH1 0x1F LT PUSH3 0x5D1 JUMPI DUP1 MLOAD PUSH1 0xFF NOT AND DUP4 DUP1 ADD OR DUP6 SSTORE PUSH3 0x602 JUMP JUMPDEST DUP3 DUP1 ADD PUSH1 0x1 ADD DUP6 SSTORE DUP3 ISZERO PUSH3 0x602 JUMPI SWAP2 DUP3 ADD JUMPDEST DUP3 DUP2 GT ISZERO PUSH3 0x601 JUMPI DUP3 MLOAD DUP3 SSTORE SWAP2 PUSH1 0x20 ADD SWAP2 SWAP1 PUSH1 0x1 ADD SWAP1 PUSH3 0x5E4 JUMP JUMPDEST JUMPDEST POP SWAP1 POP PUSH3 0x611 SWAP2 SWAP1 PUSH3 0x615 JUMP JUMPDEST POP SWAP1 JUMP JUMPDEST JUMPDEST DUP1 DUP3 GT ISZERO PUSH3 0x630 JUMPI PUSH1 0x0 DUP2 PUSH1 0x0 SWAP1 SSTORE POP PUSH1 0x1 ADD PUSH3 0x616 JUMP JUMPDEST POP SWAP1 JUMP JUMPDEST PUSH3 0x63F DUP2 PUSH3 0x9DA JUMP JUMPDEST DUP3 MSTORE POP POP JUMP JUMPDEST PUSH3 0x650 DUP2 PUSH3 0x9EE JUMP JUMPDEST DUP3 MSTORE POP POP JUMP JUMPDEST PUSH1 0x0 PUSH3 0x665 PUSH1 0x10 DUP4 PUSH3 0x773 JUMP JUMPDEST SWAP2 POP PUSH3 0x672 DUP3 PUSH3 0xAD0 JUMP JUMPDEST PUSH1 0x20 DUP3 ADD SWAP1 POP SWAP2 SWAP1 POP JUMP JUMPDEST PUSH1 0x0 PUSH3 0x68C PUSH1 0x1F DUP4 PUSH3 0x773 JUMP JUMPDEST SWAP2 POP PUSH3 0x699 DUP3 PUSH3 0xAF9 JUMP JUMPDEST PUSH1 0x20 DUP3 ADD SWAP1 POP SWAP2 SWAP1 POP JUMP JUMPDEST PUSH3 0x6AF DUP2 PUSH3 0xA18 JUMP JUMPDEST DUP3 MSTORE POP POP JUMP JUMPDEST PUSH1 0x0 PUSH1 0xA0 DUP3 ADD SWAP1 POP PUSH3 0x6CC PUSH1 0x0 DUP4 ADD DUP9 PUSH3 0x645 JUMP JUMPDEST PUSH3 0x6DB PUSH1 0x20 DUP4 ADD DUP8 PUSH3 0x645 JUMP JUMPDEST PUSH3 0x6EA PUSH1 0x40 DUP4 ADD DUP7 PUSH3 0x645 JUMP JUMPDEST PUSH3 0x6F9 PUSH1 0x60 DUP4 ADD DUP6 PUSH3 0x6A4 JUMP JUMPDEST PUSH3 0x708 PUSH1 0x80 DUP4 ADD DUP5 PUSH3 0x634 JUMP JUMPDEST SWAP7 SWAP6 POP POP POP POP POP POP JUMP JUMPDEST PUSH1 0x0 PUSH1 0x20 DUP3 ADD SWAP1 POP DUP2 DUP2 SUB PUSH1 0x0 DUP4 ADD MSTORE PUSH3 0x72D DUP2 PUSH3 0x656 JUMP JUMPDEST SWAP1 POP SWAP2 SWAP1 POP JUMP JUMPDEST PUSH1 0x0 PUSH1 0x20 DUP3 ADD SWAP1 POP DUP2 DUP2 SUB PUSH1 0x0 DUP4 ADD MSTORE PUSH3 0x74F DUP2 PUSH3 0x67D JUMP JUMPDEST SWAP1 POP SWAP2 SWAP1 POP JUMP JUMPDEST PUSH1 0x0 PUSH1 0x20 DUP3 ADD SWAP1 POP PUSH3 0x76D PUSH1 0x0 DUP4 ADD DUP5 PUSH3 0x6A4 JUMP JUMPDEST SWAP3 SWAP2 POP POP JUMP JUMPDEST PUSH1 0x0 DUP3 DUP3 MSTORE PUSH1 0x20 DUP3 ADD SWAP1 POP SWAP3 SWAP2 POP POP JUMP JUMPDEST PUSH1 0x0 PUSH3 0x791 DUP3 PUSH3 0xA18 JUMP JUMPDEST SWAP2 POP PUSH3 0x79E DUP4 PUSH3 0xA18 JUMP JUMPDEST SWAP3 POP DUP3 PUSH32 0xFFFFFFFFFFFFFFFFFFFFFFFFFFFFFFFFFFFFFFFFFFFFFFFFFFFFFFFFFFFFFFFF SUB DUP3 GT ISZERO PUSH3 0x7D6 JUMPI PUSH3 0x7D5 PUSH3 0xA65 JUMP JUMPDEST JUMPDEST DUP3 DUP3 ADD SWAP1 POP SWAP3 SWAP2 POP POP JUMP JUMPDEST PUSH1 0x0 DUP1 DUP3 SWAP2 POP DUP4 SWAP1 POP JUMPDEST PUSH1 0x1 DUP6 GT ISZERO PUSH3 0x833 JUMPI DUP1 DUP7 DIV DUP2 GT ISZERO PUSH3 0x80B JUMPI PUSH3 0x80A PUSH3 0xA65 JUMP JUMPDEST JUMPDEST PUSH1 0x1 DUP6 AND ISZERO PUSH3 0x81B JUMPI DUP1 DUP3 MUL SWAP2 POP JUMPDEST DUP1 DUP2 MUL SWAP1 POP PUSH3 0x82B DUP6 PUSH3 0xAC3 JUMP JUMPDEST SWAP5 POP PUSH3 0x7EB JUMP JUMPDEST SWAP5 POP SWAP5 SWAP3 POP POP POP JUMP JUMPDEST PUSH1 0x0 PUSH3 0x849 DUP3 PUSH3 0xA18 JUMP JUMPDEST SWAP2 POP PUSH3 0x856 DUP4 PUSH3 0xA22 JUMP JUMPDEST SWAP3 POP PUSH3 0x885 PUSH32 0xFFFFFFFFFFFFFFFFFFFFFFFFFFFFFFFFFFFFFFFFFFFFFFFFFFFFFFFFFFFFFFFF DUP5 DUP5 PUSH3 0x88D JUMP JUMPDEST SWAP1 POP SWAP3 SWAP2 POP POP JUMP JUMPDEST PUSH1 0x0 DUP3 PUSH3 0x89F JUMPI PUSH1 0x1 SWAP1 POP PUSH3 0x972 JUMP JUMPDEST DUP2 PUSH3 0x8AF JUMPI PUSH1 0x0 SWAP1 POP PUSH3 0x972 JUMP JUMPDEST DUP2 PUSH1 0x1 DUP2 EQ PUSH3 0x8C8 JUMPI PUSH1 0x2 DUP2 EQ PUSH3 0x8D3 JUMPI PUSH3 0x909 JUMP JUMPDEST PUSH1 0x1 SWAP2 POP POP PUSH3 0x972 JUMP JUMPDEST PUSH1 0xFF DUP5 GT ISZERO PUSH3 0x8E8 JUMPI PUSH3 0x8E7 PUSH3 0xA65 JUMP JUMPDEST JUMPDEST DUP4 PUSH1 0x2 EXP SWAP2 POP DUP5 DUP3 GT ISZERO PUSH3 0x902 JUMPI PUSH3 0x901 PUSH3 0xA65 JUMP JUMPDEST JUMPDEST POP PUSH3 0x972 JUMP JUMPDEST POP PUSH1 0x20 DUP4 LT PUSH2 0x133 DUP4 LT AND PUSH1 0x4E DUP5 LT PUSH1 0xB DUP5 LT AND OR ISZERO PUSH3 0x943 JUMPI DUP3 DUP3 EXP SWAP1 POP DUP4 DUP2 GT ISZERO PUSH3 0x93D JUMPI PUSH3 0x93C PUSH3 0xA65 JUMP JUMPDEST JUMPDEST PUSH3 0x972 JUMP JUMPDEST PUSH3 0x952 DUP5 DUP5 DUP5 PUSH1 0x1 PUSH3 0x7E1 JUMP JUMPDEST SWAP3 POP SWAP1 POP DUP2 DUP5 DIV DUP2 GT ISZERO PUSH3 0x96C JUMPI PUSH3 0x96B PUSH3 0xA65 JUMP JUMPDEST JUMPDEST DUP2 DUP2 MUL SWAP1 POP JUMPDEST SWAP4 SWAP3 POP POP POP JUMP JUMPDEST PUSH1 0x0 PUSH3 0x986 DUP3 PUSH3 0xA18 JUMP JUMPDEST SWAP2 POP PUSH3 0x993 DUP4 PUSH3 0xA18 JUMP JUMPDEST SWAP3 POP DUP2 PUSH32 0xFFFFFFFFFFFFFFFFFFFFFFFFFFFFFFFFFFFFFFFFFFFFFFFFFFFFFFFFFFFFFFFF DIV DUP4 GT DUP3 ISZERO ISZERO AND ISZERO PUSH3 0x9CF JUMPI PUSH3 0x9CE PUSH3 0xA65 JUMP JUMPDEST JUMPDEST DUP3 DUP3 MUL SWAP1 POP SWAP3 SWAP2 POP POP JUMP JUMPDEST PUSH1 0x0 PUSH3 0x9E7 DUP3 PUSH3 0x9F8 JUMP JUMPDEST SWAP1 POP SWAP2 SWAP1 POP JUMP JUMPDEST PUSH1 0x0 DUP2 SWAP1 POP SWAP2 SWAP1 POP JUMP JUMPDEST PUSH1 0x0 PUSH20 0xFFFFFFFFFFFFFFFFFFFFFFFFFFFFFFFFFFFFFFFF DUP3 AND SWAP1 POP SWAP2 SWAP1 POP JUMP JUMPDEST PUSH1 0x0 DUP2 SWAP1 POP SWAP2 SWAP1 POP JUMP JUMPDEST PUSH1 0x0 PUSH1 0xFF DUP3 AND SWAP1 POP SWAP2 SWAP1 POP JUMP JUMPDEST PUSH1 0x0 PUSH1 0x2 DUP3 DIV SWAP1 POP PUSH1 0x1 DUP3 AND DUP1 PUSH3 0xA48 JUMPI PUSH1 0x7F DUP3 AND SWAP2 POP JUMPDEST PUSH1 0x20 DUP3 LT DUP2 EQ ISZERO PUSH3 0xA5F JUMPI PUSH3 0xA5E PUSH3 0xA94 JUMP JUMPDEST JUMPDEST POP SWAP2 SWAP1 POP JUMP JUMPDEST PUSH32 0x4E487B7100000000000000000000000000000000000000000000000000000000 PUSH1 0x0 MSTORE PUSH1 0x11 PUSH1 0x4 MSTORE PUSH1 0x24 PUSH1 0x0 REVERT JUMPDEST PUSH32 0x4E487B7100000000000000000000000000000000000000000000000000000000 PUSH1 0x0 MSTORE PUSH1 0x22 PUSH1 0x4 MSTORE PUSH1 0x24 PUSH1 0x0 REVERT JUMPDEST PUSH1 0x0 DUP2 PUSH1 0x1 SHR SWAP1 POP SWAP2 SWAP1 POP JUMP JUMPDEST PUSH32 0x5061757361626C653A2070617573656400000000000000000000000000000000 PUSH1 0x0 DUP3 ADD MSTORE POP JUMP JUMPDEST PUSH32 0x45524332303A206D696E7420746F20746865207A65726F206164647265737300 PUSH1 0x0 DUP3 ADD MSTORE POP JUMP JUMPDEST PUSH1 0x80 MLOAD PUSH1 0xA0 MLOAD PUSH1 0xC0 MLOAD PUSH1 0x60 SHR PUSH1 0xE0 MLOAD PUSH2 0x100 MLOAD PUSH2 0x120 MLOAD PUSH2 0x2D3E PUSH3 0xB75 PUSH1 0x0 CODECOPY PUSH1 0x0 PUSH2 0xFF2 ADD MSTORE PUSH1 0x0 PUSH2 0x1034 ADD MSTORE PUSH1 0x0 PUSH2 0x1013 ADD MSTORE PUSH1 0x0 PUSH2 0xF48 ADD MSTORE PUSH1 0x0 PUSH2 0xF9E ADD MSTORE PUSH1 0x0 PUSH2 0xFC7 ADD MSTORE PUSH2 0x2D3E PUSH1 0x0 RETURN INVALID PUSH1 0x80 PUSH1 0x40 MSTORE CALLVALUE DUP1 ISZERO PUSH2 0x10 JUMPI PUSH1 0x0 DUP1 REVERT JUMPDEST POP PUSH1 0x4 CALLDATASIZE LT PUSH2 0x14D JUMPI PUSH1 0x0 CALLDATALOAD PUSH1 0xE0 SHR DUP1 PUSH4 0x70A08231 GT PUSH2 0xC3 JUMPI DUP1 PUSH4 0x95D89B41 GT PUSH2 0x7C JUMPI DUP1 PUSH4 0x95D89B41 EQ PUSH2 0x368 JUMPI DUP1 PUSH4 0xA457C2D7 EQ PUSH2 0x386 JUMPI DUP1 PUSH4 0xA9059CBB EQ PUSH2 0x3B6 JUMPI DUP1 PUSH4 0xD505ACCF EQ PUSH2 0x3E6 JUMPI DUP1 PUSH4 0xDD62ED3E EQ PUSH2 0x402 JUMPI DUP1 PUSH4 0xF2FDE38B EQ PUSH2 0x432 JUMPI PUSH2 0x14D JUMP JUMPDEST DUP1 PUSH4 0x70A08231 EQ PUSH2 0x2BA JUMPI DUP1 PUSH4 0x715018A6 EQ PUSH2 0x2EA JUMPI DUP1 PUSH4 0x79CC6790 EQ PUSH2 0x2F4 JUMPI DUP1 PUSH4 0x7ECEBE00 EQ PUSH2 0x310 JUMPI DUP1 PUSH4 0x8456CB59 EQ PUSH2 0x340 JUMPI DUP1 PUSH4 0x8DA5CB5B EQ PUSH2 0x34A JUMPI PUSH2 0x14D JUMP JUMPDEST DUP1 PUSH4 0x3644E515 GT PUSH2 0x115 JUMPI DUP1 PUSH4 0x3644E515 EQ PUSH2 0x20C JUMPI DUP1 PUSH4 0x39509351 EQ PUSH2 0x22A JUMPI DUP1 PUSH4 0x3F4BA83A EQ PUSH2 0x25A JUMPI DUP1 PUSH4 0x40C10F19 EQ PUSH2 0x264 JUMPI DUP1 PUSH4 0x42966C68 EQ PUSH2 0x280 JUMPI DUP1 PUSH4 0x5C975ABB EQ PUSH2 0x29C JUMPI PUSH2 0x14D JUMP JUMPDEST DUP1 PUSH4 0x6FDDE03 EQ PUSH2 0x152 JUMPI DUP1 PUSH4 0x95EA7B3 EQ PUSH2 0x170 JUMPI DUP1 PUSH4 0x18160DDD EQ PUSH2 0x1A0 JUMPI DUP1 PUSH4 0x23B872DD EQ PUSH2 0x1BE JUMPI DUP1 PUSH4 0x313CE567 EQ PUSH2 0x1EE JUMPI JUMPDEST PUSH1 0x0 DUP1 REVERT JUMPDEST PUSH2 0x15A PUSH2 0x44E JUMP JUMPDEST PUSH1 0x40 MLOAD PUSH2 0x167 SWAP2 SWAP1 PUSH2 0x22E7 JUMP JUMPDEST PUSH1 0x40 MLOAD DUP1 SWAP2 SUB SWAP1 RETURN JUMPDEST PUSH2 0x18A PUSH1 0x4 DUP1 CALLDATASIZE SUB DUP2 ADD SWAP1 PUSH2 0x185 SWAP2 SWAP1 PUSH2 0x1D87 JUMP JUMPDEST PUSH2 0x4E0 JUMP JUMPDEST PUSH1 0x40 MLOAD PUSH2 0x197 SWAP2 SWAP1 PUSH2 0x21B8 JUMP JUMPDEST PUSH1 0x40 MLOAD DUP1 SWAP2 SUB SWAP1 RETURN JUMPDEST PUSH2 0x1A8 PUSH2 0x503 JUMP JUMPDEST PUSH1 0x40 MLOAD PUSH2 0x1B5 SWAP2 SWAP1 PUSH2 0x2589 JUMP JUMPDEST PUSH1 0x40 MLOAD DUP1 SWAP2 SUB SWAP1 RETURN JUMPDEST PUSH2 0x1D8 PUSH1 0x4 DUP1 CALLDATASIZE SUB DUP2 ADD SWAP1 PUSH2 0x1D3 SWAP2 SWAP1 PUSH2 0x1C9A JUMP JUMPDEST PUSH2 0x50D JUMP JUMPDEST PUSH1 0x40 MLOAD PUSH2 0x1E5 SWAP2 SWAP1 PUSH2 0x21B8 JUMP JUMPDEST PUSH1 0x40 MLOAD DUP1 SWAP2 SUB SWAP1 RETURN JUMPDEST PUSH2 0x1F6 PUSH2 0x53C JUMP JUMPDEST PUSH1 0x40 MLOAD PUSH2 0x203 SWAP2 SWAP1 PUSH2 0x25A4 JUMP JUMPDEST PUSH1 0x40 MLOAD DUP1 SWAP2 SUB SWAP1 RETURN JUMPDEST PUSH2 0x214 PUSH2 0x545 JUMP JUMPDEST PUSH1 0x40 MLOAD PUSH2 0x221 SWAP2 SWAP1 PUSH2 0x21D3 JUMP JUMPDEST PUSH1 0x40 MLOAD DUP1 SWAP2 SUB SWAP1 RETURN JUMPDEST PUSH2 0x244 PUSH1 0x4 DUP1 CALLDATASIZE SUB DUP2 ADD SWAP1 PUSH2 0x23F SWAP2 SWAP1 PUSH2 0x1D87 JUMP JUMPDEST PUSH2 0x554 JUMP JUMPDEST PUSH1 0x40 MLOAD PUSH2 0x251 SWAP2 SWAP1 PUSH2 0x21B8 JUMP JUMPDEST PUSH1 0x40 MLOAD DUP1 SWAP2 SUB SWAP1 RETURN JUMPDEST PUSH2 0x262 PUSH2 0x58B JUMP JUMPDEST STOP JUMPDEST PUSH2 0x27E PUSH1 0x4 DUP1 CALLDATASIZE SUB DUP2 ADD SWAP1 PUSH2 0x279 SWAP2 SWAP1 PUSH2 0x1D87 JUMP JUMPDEST PUSH2 0x59D JUMP JUMPDEST STOP JUMPDEST PUSH2 0x29A PUSH1 0x4 DUP1 CALLDATASIZE SUB DUP2 ADD SWAP1 PUSH2 0x295 SWAP2 SWAP1 PUSH2 0x1DC3 JUMP JUMPDEST PUSH2 0x5B3 JUMP JUMPDEST STOP JUMPDEST PUSH2 0x2A4 PUSH2 0x5C7 JUMP JUMPDEST PUSH1 0x40 MLOAD PUSH2 0x2B1 SWAP2 SWAP1 PUSH2 0x21B8 JUMP JUMPDEST PUSH1 0x40 MLOAD DUP1 SWAP2 SUB SWAP1 RETURN JUMPDEST PUSH2 0x2D4 PUSH1 0x4 DUP1 CALLDATASIZE SUB DUP2 ADD SWAP1 PUSH2 0x2CF SWAP2 SWAP1 PUSH2 0x1C35 JUMP JUMPDEST PUSH2 0x5DE JUMP JUMPDEST PUSH1 0x40 MLOAD PUSH2 0x2E1 SWAP2 SWAP1 PUSH2 0x2589 JUMP JUMPDEST PUSH1 0x40 MLOAD DUP1 SWAP2 SUB SWAP1 RETURN JUMPDEST PUSH2 0x2F2 PUSH2 0x626 JUMP JUMPDEST STOP JUMPDEST PUSH2 0x30E PUSH1 0x4 DUP1 CALLDATASIZE SUB DUP2 ADD SWAP1 PUSH2 0x309 SWAP2 SWAP1 PUSH2 0x1D87 JUMP JUMPDEST PUSH2 0x63A JUMP JUMPDEST STOP JUMPDEST PUSH2 0x32A PUSH1 0x4 DUP1 CALLDATASIZE SUB DUP2 ADD SWAP1 PUSH2 0x325 SWAP2 SWAP1 PUSH2 0x1C35 JUMP JUMPDEST PUSH2 0x65A JUMP JUMPDEST PUSH1 0x40 MLOAD PUSH2 0x337 SWAP2 SWAP1 PUSH2 0x2589 JUMP JUMPDEST PUSH1 0x40 MLOAD DUP1 SWAP2 SUB SWAP1 RETURN JUMPDEST PUSH2 0x348 PUSH2 0x6AA JUMP JUMPDEST STOP JUMPDEST PUSH2 0x352 PUSH2 0x6BC JUMP JUMPDEST PUSH1 0x40 MLOAD PUSH2 0x35F SWAP2 SWAP1 PUSH2 0x219D JUMP JUMPDEST PUSH1 0x40 MLOAD DUP1 SWAP2 SUB SWAP1 RETURN JUMPDEST PUSH2 0x370 PUSH2 0x6E6 JUMP JUMPDEST PUSH1 0x40 MLOAD PUSH2 0x37D SWAP2 SWAP1 PUSH2 0x22E7 JUMP JUMPDEST PUSH1 0x40 MLOAD DUP1 SWAP2 SUB SWAP1 RETURN JUMPDEST PUSH2 0x3A0 PUSH1 0x4 DUP1 CALLDATASIZE SUB DUP2 ADD SWAP1 PUSH2 0x39B SWAP2 SWAP1 PUSH2 0x1D87 JUMP JUMPDEST PUSH2 0x778 JUMP JUMPDEST PUSH1 0x40 MLOAD PUSH2 0x3AD SWAP2 SWAP1 PUSH2 0x21B8 JUMP JUMPDEST PUSH1 0x40 MLOAD DUP1 SWAP2 SUB SWAP1 RETURN JUMPDEST PUSH2 0x3D0 PUSH1 0x4 DUP1 CALLDATASIZE SUB DUP2 ADD SWAP1 PUSH2 0x3CB SWAP2 SWAP1 PUSH2 0x1D87 JUMP JUMPDEST PUSH2 0x7EF JUMP JUMPDEST PUSH1 0x40 MLOAD PUSH2 0x3DD SWAP2 SWAP1 PUSH2 0x21B8 JUMP JUMPDEST PUSH1 0x40 MLOAD DUP1 SWAP2 SUB SWAP1 RETURN JUMPDEST PUSH2 0x400 PUSH1 0x4 DUP1 CALLDATASIZE SUB DUP2 ADD SWAP1 PUSH2 0x3FB SWAP2 SWAP1 PUSH2 0x1CE9 JUMP JUMPDEST PUSH2 0x812 JUMP JUMPDEST STOP JUMPDEST PUSH2 0x41C PUSH1 0x4 DUP1 CALLDATASIZE SUB DUP2 ADD SWAP1 PUSH2 0x417 SWAP2 SWAP1 PUSH2 0x1C5E JUMP JUMPDEST PUSH2 0x954 JUMP JUMPDEST PUSH1 0x40 MLOAD PUSH2 0x429 SWAP2 SWAP1 PUSH2 0x2589 JUMP JUMPDEST PUSH1 0x40 MLOAD DUP1 SWAP2 SUB SWAP1 RETURN JUMPDEST PUSH2 0x44C PUSH1 0x4 DUP1 CALLDATASIZE SUB DUP2 ADD SWAP1 PUSH2 0x447 SWAP2 SWAP1 PUSH2 0x1C35 JUMP JUMPDEST PUSH2 0x9DB JUMP JUMPDEST STOP JUMPDEST PUSH1 0x60 PUSH1 0x3 DUP1 SLOAD PUSH2 0x45D SWAP1 PUSH2 0x2702 JUMP JUMPDEST DUP1 PUSH1 0x1F ADD PUSH1 0x20 DUP1 SWAP2 DIV MUL PUSH1 0x20 ADD PUSH1 0x40 MLOAD SWAP1 DUP2 ADD PUSH1 0x40 MSTORE DUP1 SWAP3 SWAP2 SWAP1 DUP2 DUP2 MSTORE PUSH1 0x20 ADD DUP3 DUP1 SLOAD PUSH2 0x489 SWAP1 PUSH2 0x2702 JUMP JUMPDEST DUP1 ISZERO PUSH2 0x4D6 JUMPI DUP1 PUSH1 0x1F LT PUSH2 0x4AB JUMPI PUSH2 0x100 DUP1 DUP4 SLOAD DIV MUL DUP4 MSTORE SWAP2 PUSH1 0x20 ADD SWAP2 PUSH2 0x4D6 JUMP JUMPDEST DUP3 ADD SWAP2 SWAP1 PUSH1 0x0 MSTORE PUSH1 0x20 PUSH1 0x0 KECCAK256 SWAP1 JUMPDEST DUP2 SLOAD DUP2 MSTORE SWAP1 PUSH1 0x1 ADD SWAP1 PUSH1 0x20 ADD DUP1 DUP4 GT PUSH2 0x4B9 JUMPI DUP3 SWAP1 SUB PUSH1 0x1F AND DUP3 ADD SWAP2 JUMPDEST POP POP POP POP POP SWAP1 POP SWAP1 JUMP JUMPDEST PUSH1 0x0 DUP1 PUSH2 0x4EB PUSH2 0xA64 JUMP JUMPDEST SWAP1 POP PUSH2 0x4F8 DUP2 DUP6 DUP6 PUSH2 0xA6C JUMP JUMPDEST PUSH1 0x1 SWAP2 POP POP SWAP3 SWAP2 POP POP JUMP JUMPDEST PUSH1 0x0 PUSH1 0x2 SLOAD SWAP1 POP SWAP1 JUMP JUMPDEST PUSH1 0x0 DUP1 PUSH2 0x518 PUSH2 0xA64 JUMP JUMPDEST SWAP1 POP PUSH2 0x525 DUP6 DUP3 DUP6 PUSH2 0xC37 JUMP JUMPDEST PUSH2 0x530 DUP6 DUP6 DUP6 PUSH2 0xCC3 JUMP JUMPDEST PUSH1 0x1 SWAP2 POP POP SWAP4 SWAP3 POP POP POP JUMP JUMPDEST PUSH1 0x0 PUSH1 0x12 SWAP1 POP SWAP1 JUMP JUMPDEST PUSH1 0x0 PUSH2 0x54F PUSH2 0xF44 JUMP JUMPDEST SWAP1 POP SWAP1 JUMP JUMPDEST PUSH1 0x0 DUP1 PUSH2 0x55F PUSH2 0xA64 JUMP JUMPDEST SWAP1 POP PUSH2 0x580 DUP2 DUP6 DUP6 PUSH2 0x571 DUP6 DUP10 PUSH2 0x954 JUMP JUMPDEST PUSH2 0x57B SWAP2 SWAP1 PUSH2 0x25E6 JUMP JUMPDEST PUSH2 0xA6C JUMP JUMPDEST PUSH1 0x1 SWAP2 POP POP SWAP3 SWAP2 POP POP JUMP JUMPDEST PUSH2 0x593 PUSH2 0x105E JUMP JUMPDEST PUSH2 0x59B PUSH2 0x10DC JUMP JUMPDEST JUMP JUMPDEST PUSH2 0x5A5 PUSH2 0x105E JUMP JUMPDEST PUSH2 0x5AF DUP3 DUP3 PUSH2 0x113F JUMP JUMPDEST POP POP JUMP JUMPDEST PUSH2 0x5C4 PUSH2 0x5BE PUSH2 0xA64 JUMP JUMPDEST DUP3 PUSH2 0x129F JUMP JUMPDEST POP JUMP JUMPDEST PUSH1 0x0 PUSH1 0x5 PUSH1 0x0 SWAP1 SLOAD SWAP1 PUSH2 0x100 EXP SWAP1 DIV PUSH1 0xFF AND SWAP1 POP SWAP1 JUMP JUMPDEST PUSH1 0x0 DUP1 PUSH1 0x0 DUP4 PUSH20 0xFFFFFFFFFFFFFFFFFFFFFFFFFFFFFFFFFFFFFFFF AND PUSH20 0xFFFFFFFFFFFFFFFFFFFFFFFFFFFFFFFFFFFFFFFF AND DUP2 MSTORE PUSH1 0x20 ADD SWAP1 DUP2 MSTORE PUSH1 0x20 ADD PUSH1 0x0 KECCAK256 SLOAD SWAP1 POP SWAP2 SWAP1 POP JUMP JUMPDEST PUSH2 0x62E PUSH2 0x105E JUMP JUMPDEST PUSH2 0x638 PUSH1 0x0 PUSH2 0x1476 JUMP JUMPDEST JUMP JUMPDEST PUSH2 0x64C DUP3 PUSH2 0x646 PUSH2 0xA64 JUMP JUMPDEST DUP4 PUSH2 0xC37 JUMP JUMPDEST PUSH2 0x656 DUP3 DUP3 PUSH2 0x129F JUMP JUMPDEST POP POP JUMP JUMPDEST PUSH1 0x0 PUSH2 0x6A3 PUSH1 0x6 PUSH1 0x0 DUP5 PUSH20 0xFFFFFFFFFFFFFFFFFFFFFFFFFFFFFFFFFFFFFFFF AND PUSH20 0xFFFFFFFFFFFFFFFFFFFFFFFFFFFFFFFFFFFFFFFF AND DUP2 MSTORE PUSH1 0x20 ADD SWAP1 DUP2 MSTORE PUSH1 0x20 ADD PUSH1 0x0 KECCAK256 PUSH2 0x153C JUMP JUMPDEST SWAP1 POP SWAP2 SWAP1 POP JUMP JUMPDEST PUSH2 0x6B2 PUSH2 0x105E JUMP JUMPDEST PUSH2 0x6BA PUSH2 0x154A JUMP JUMPDEST JUMP JUMPDEST PUSH1 0x0 PUSH1 0x5 PUSH1 0x1 SWAP1 SLOAD SWAP1 PUSH2 0x100 EXP SWAP1 DIV PUSH20 0xFFFFFFFFFFFFFFFFFFFFFFFFFFFFFFFFFFFFFFFF AND SWAP1 POP SWAP1 JUMP JUMPDEST PUSH1 0x60 PUSH1 0x4 DUP1 SLOAD PUSH2 0x6F5 SWAP1 PUSH2 0x2702 JUMP JUMPDEST DUP1 PUSH1 0x1F ADD PUSH1 0x20 DUP1 SWAP2 DIV MUL PUSH1 0x20 ADD PUSH1 0x40 MLOAD SWAP1 DUP2 ADD PUSH1 0x40 MSTORE DUP1 SWAP3 SWAP2 SWAP1 DUP2 DUP2 MSTORE PUSH1 0x20 ADD DUP3 DUP1 SLOAD PUSH2 0x721 SWAP1 PUSH2 0x2702 JUMP JUMPDEST DUP1 ISZERO PUSH2 0x76E JUMPI DUP1 PUSH1 0x1F LT PUSH2 0x743 JUMPI PUSH2 0x100 DUP1 DUP4 SLOAD DIV MUL DUP4 MSTORE SWAP2 PUSH1 0x20 ADD SWAP2 PUSH2 0x76E JUMP JUMPDEST DUP3 ADD SWAP2 SWAP1 PUSH1 0x0 MSTORE PUSH1 0x20 PUSH1 0x0 KECCAK256 SWAP1 JUMPDEST DUP2 SLOAD DUP2 MSTORE SWAP1 PUSH1 0x1 ADD SWAP1 PUSH1 0x20 ADD DUP1 DUP4 GT PUSH2 0x751 JUMPI DUP3 SWAP1 SUB PUSH1 0x1F AND DUP3 ADD SWAP2 JUMPDEST POP POP POP POP POP SWAP1 POP SWAP1 JUMP JUMPDEST PUSH1 0x0 DUP1 PUSH2 0x783 PUSH2 0xA64 JUMP JUMPDEST SWAP1 POP PUSH1 0x0 PUSH2 0x791 DUP3 DUP7 PUSH2 0x954 JUMP JUMPDEST SWAP1 POP DUP4 DUP2 LT ISZERO PUSH2 0x7D6 JUMPI PUSH1 0x40 MLOAD PUSH32 0x8C379A000000000000000000000000000000000000000000000000000000000 DUP2 MSTORE PUSH1 0x4 ADD PUSH2 0x7CD SWAP1 PUSH2 0x2549 JUMP JUMPDEST PUSH1 0x40 MLOAD DUP1 SWAP2 SUB SWAP1 REVERT JUMPDEST PUSH2 0x7E3 DUP3 DUP7 DUP7 DUP5 SUB PUSH2 0xA6C JUMP JUMPDEST PUSH1 0x1 SWAP3 POP POP POP SWAP3 SWAP2 POP POP JUMP JUMPDEST PUSH1 0x0 DUP1 PUSH2 0x7FA PUSH2 0xA64 JUMP JUMPDEST SWAP1 POP PUSH2 0x807 DUP2 DUP6 DUP6 PUSH2 0xCC3 JUMP JUMPDEST PUSH1 0x1 SWAP2 POP POP SWAP3 SWAP2 POP POP JUMP JUMPDEST DUP4 TIMESTAMP GT ISZERO PUSH2 0x855 JUMPI PUSH1 0x40 MLOAD PUSH32 0x8C379A000000000000000000000000000000000000000000000000000000000 DUP2 MSTORE PUSH1 0x4 ADD PUSH2 0x84C SWAP1 PUSH2 0x2409 JUMP JUMPDEST PUSH1 0x40 MLOAD DUP1 SWAP2 SUB SWAP1 REVERT JUMPDEST PUSH1 0x0 PUSH32 0x6E71EDAE12B1B97F4D1F60370FEF10105FA2FAAE0126114A169C64845D6126C9 DUP9 DUP9 DUP9 PUSH2 0x884 DUP13 PUSH2 0x15AD JUMP JUMPDEST DUP10 PUSH1 0x40 MLOAD PUSH1 0x20 ADD PUSH2 0x89A SWAP7 SWAP6 SWAP5 SWAP4 SWAP3 SWAP2 SWAP1 PUSH2 0x21EE JUMP JUMPDEST PUSH1 0x40 MLOAD PUSH1 0x20 DUP2 DUP4 SUB SUB DUP2 MSTORE SWAP1 PUSH1 0x40 MSTORE DUP1 MLOAD SWAP1 PUSH1 0x20 ADD KECCAK256 SWAP1 POP PUSH1 0x0 PUSH2 0x8BD DUP3 PUSH2 0x160B JUMP JUMPDEST SWAP1 POP PUSH1 0x0 PUSH2 0x8CD DUP3 DUP8 DUP8 DUP8 PUSH2 0x1625 JUMP JUMPDEST SWAP1 POP DUP10 PUSH20 0xFFFFFFFFFFFFFFFFFFFFFFFFFFFFFFFFFFFFFFFF AND DUP2 PUSH20 0xFFFFFFFFFFFFFFFFFFFFFFFFFFFFFFFFFFFFFFFF AND EQ PUSH2 0x93D JUMPI PUSH1 0x40 MLOAD PUSH32 0x8C379A000000000000000000000000000000000000000000000000000000000 DUP2 MSTORE PUSH1 0x4 ADD PUSH2 0x934 SWAP1 PUSH2 0x24A9 JUMP JUMPDEST PUSH1 0x40 MLOAD DUP1 SWAP2 SUB SWAP1 REVERT JUMPDEST PUSH2 0x948 DUP11 DUP11 DUP11 PUSH2 0xA6C JUMP JUMPDEST POP POP POP POP POP POP POP POP POP POP JUMP JUMPDEST PUSH1 0x0 PUSH1 0x1 PUSH1 0x0 DUP5 PUSH20 0xFFFFFFFFFFFFFFFFFFFFFFFFFFFFFFFFFFFFFFFF AND PUSH20 0xFFFFFFFFFFFFFFFFFFFFFFFFFFFFFFFFFFFFFFFF AND DUP2 MSTORE PUSH1 0x20 ADD SWAP1 DUP2 MSTORE PUSH1 0x20 ADD PUSH1 0x0 KECCAK256 PUSH1 0x0 DUP4 PUSH20 0xFFFFFFFFFFFFFFFFFFFFFFFFFFFFFFFFFFFFFFFF AND PUSH20 0xFFFFFFFFFFFFFFFFFFFFFFFFFFFFFFFFFFFFFFFF AND DUP2 MSTORE PUSH1 0x20 ADD SWAP1 DUP2 MSTORE PUSH1 0x20 ADD PUSH1 0x0 KECCAK256 SLOAD SWAP1 POP SWAP3 SWAP2 POP POP JUMP JUMPDEST PUSH2 0x9E3 PUSH2 0x105E JUMP JUMPDEST PUSH1 0x0 PUSH20 0xFFFFFFFFFFFFFFFFFFFFFFFFFFFFFFFFFFFFFFFF AND DUP2 PUSH20 0xFFFFFFFFFFFFFFFFFFFFFFFFFFFFFFFFFFFFFFFF AND EQ ISZERO PUSH2 0xA53 JUMPI PUSH1 0x40 MLOAD PUSH32 0x8C379A000000000000000000000000000000000000000000000000000000000 DUP2 MSTORE PUSH1 0x4 ADD PUSH2 0xA4A SWAP1 PUSH2 0x23A9 JUMP JUMPDEST PUSH1 0x40 MLOAD DUP1 SWAP2 SUB SWAP1 REVERT JUMPDEST PUSH2 0xA5C DUP2 PUSH2 0x1476 JUMP JUMPDEST POP JUMP JUMPDEST POP POP POP JUMP JUMPDEST PUSH1 0x0 CALLER SWAP1 POP SWAP1 JUMP JUMPDEST PUSH1 0x0 PUSH20 0xFFFFFFFFFFFFFFFFFFFFFFFFFFFFFFFFFFFFFFFF AND DUP4 PUSH20 0xFFFFFFFFFFFFFFFFFFFFFFFFFFFFFFFFFFFFFFFF AND EQ ISZERO PUSH2 0xADC JUMPI PUSH1 0x40 MLOAD PUSH32 0x8C379A000000000000000000000000000000000000000000000000000000000 DUP2 MSTORE PUSH1 0x4 ADD PUSH2 0xAD3 SWAP1 PUSH2 0x2529 JUMP JUMPDEST PUSH1 0x40 MLOAD DUP1 SWAP2 SUB SWAP1 REVERT JUMPDEST PUSH1 0x0 PUSH20 0xFFFFFFFFFFFFFFFFFFFFFFFFFFFFFFFFFFFFFFFF AND DUP3 PUSH20 0xFFFFFFFFFFFFFFFFFFFFFFFFFFFFFFFFFFFFFFFF AND EQ ISZERO PUSH2 0xB4C JUMPI PUSH1 0x40 MLOAD PUSH32 0x8C379A000000000000000000000000000000000000000000000000000000000 DUP2 MSTORE PUSH1 0x4 ADD PUSH2 0xB43 SWAP1 PUSH2 0x23C9 JUMP JUMPDEST PUSH1 0x40 MLOAD DUP1 SWAP2 SUB SWAP1 REVERT JUMPDEST DUP1 PUSH1 0x1 PUSH1 0x0 DUP6 PUSH20 0xFFFFFFFFFFFFFFFFFFFFFFFFFFFFFFFFFFFFFFFF AND PUSH20 0xFFFFFFFFFFFFFFFFFFFFFFFFFFFFFFFFFFFFFFFF AND DUP2 MSTORE PUSH1 0x20 ADD SWAP1 DUP2 MSTORE PUSH1 0x20 ADD PUSH1 0x0 KECCAK256 PUSH1 0x0 DUP5 PUSH20 0xFFFFFFFFFFFFFFFFFFFFFFFFFFFFFFFFFFFFFFFF AND PUSH20 0xFFFFFFFFFFFFFFFFFFFFFFFFFFFFFFFFFFFFFFFF AND DUP2 MSTORE PUSH1 0x20 ADD SWAP1 DUP2 MSTORE PUSH1 0x20 ADD PUSH1 0x0 KECCAK256 DUP2 SWAP1 SSTORE POP DUP2 PUSH20 0xFFFFFFFFFFFFFFFFFFFFFFFFFFFFFFFFFFFFFFFF AND DUP4 PUSH20 0xFFFFFFFFFFFFFFFFFFFFFFFFFFFFFFFFFFFFFFFF AND PUSH32 0x8C5BE1E5EBEC7D5BD14F71427D1E84F3DD0314C0F7B2291E5B200AC8C7C3B925 DUP4 PUSH1 0x40 MLOAD PUSH2 0xC2A SWAP2 SWAP1 PUSH2 0x2589 JUMP JUMPDEST PUSH1 0x40 MLOAD DUP1 SWAP2 SUB SWAP1 LOG3 POP POP POP JUMP JUMPDEST PUSH1 0x0 PUSH2 0xC43 DUP5 DUP5 PUSH2 0x954 JUMP JUMPDEST SWAP1 POP PUSH32 0xFFFFFFFFFFFFFFFFFFFFFFFFFFFFFFFFFFFFFFFFFFFFFFFFFFFFFFFFFFFFFFFF DUP2 EQ PUSH2 0xCBD JUMPI DUP2 DUP2 LT ISZERO PUSH2 0xCAF JUMPI PUSH1 0x40 MLOAD PUSH32 0x8C379A000000000000000000000000000000000000000000000000000000000 DUP2 MSTORE PUSH1 0x4 ADD PUSH2 0xCA6 SWAP1 PUSH2 0x23E9 JUMP JUMPDEST PUSH1 0x40 MLOAD DUP1 SWAP2 SUB SWAP1 REVERT JUMPDEST PUSH2 0xCBC DUP5 DUP5 DUP5 DUP5 SUB PUSH2 0xA6C JUMP JUMPDEST JUMPDEST POP POP POP POP JUMP JUMPDEST PUSH1 0x0 PUSH20 0xFFFFFFFFFFFFFFFFFFFFFFFFFFFFFFFFFFFFFFFF AND DUP4 PUSH20 0xFFFFFFFFFFFFFFFFFFFFFFFFFFFFFFFFFFFFFFFF AND EQ ISZERO PUSH2 0xD33 JUMPI PUSH1 0x40 MLOAD PUSH32 0x8C379A000000000000000000000000000000000000000000000000000000000 DUP2 MSTORE PUSH1 0x4 ADD PUSH2 0xD2A SWAP1 PUSH2 0x2509 JUMP JUMPDEST PUSH1 0x40 MLOAD DUP1 SWAP2 SUB SWAP1 REVERT JUMPDEST PUSH1 0x0 PUSH20 0xFFFFFFFFFFFFFFFFFFFFFFFFFFFFFFFFFFFFFFFF AND DUP3 PUSH20 0xFFFFFFFFFFFFFFFFFFFFFFFFFFFFFFFFFFFFFFFF AND EQ ISZERO PUSH2 0xDA3 JUMPI PUSH1 0x40 MLOAD PUSH32 0x8C379A000000000000000000000000000000000000000000000000000000000 DUP2 MSTORE PUSH1 0x4 ADD PUSH2 0xD9A SWAP1 PUSH2 0x2329 JUMP JUMPDEST PUSH1 0x40 MLOAD DUP1 SWAP2 SUB SWAP1 REVERT JUMPDEST PUSH2 0xDAE DUP4 DUP4 DUP4 PUSH2 0x1650 JUMP JUMPDEST PUSH1 0x0 DUP1 PUSH1 0x0 DUP6 PUSH20 0xFFFFFFFFFFFFFFFFFFFFFFFFFFFFFFFFFFFFFFFF AND PUSH20 0xFFFFFFFFFFFFFFFFFFFFFFFFFFFFFFFFFFFFFFFF AND DUP2 MSTORE PUSH1 0x20 ADD SWAP1 DUP2 MSTORE PUSH1 0x20 ADD PUSH1 0x0 KECCAK256 SLOAD SWAP1 POP DUP2 DUP2 LT ISZERO PUSH2 0xE34 JUMPI PUSH1 0x40 MLOAD PUSH32 0x8C379A000000000000000000000000000000000000000000000000000000000 DUP2 MSTORE PUSH1 0x4 ADD PUSH2 0xE2B SWAP1 PUSH2 0x2429 JUMP JUMPDEST PUSH1 0x40 MLOAD DUP1 SWAP2 SUB SWAP1 REVERT JUMPDEST DUP2 DUP2 SUB PUSH1 0x0 DUP1 DUP7 PUSH20 0xFFFFFFFFFFFFFFFFFFFFFFFFFFFFFFFFFFFFFFFF AND PUSH20 0xFFFFFFFFFFFFFFFFFFFFFFFFFFFFFFFFFFFFFFFF AND DUP2 MSTORE PUSH1 0x20 ADD SWAP1 DUP2 MSTORE PUSH1 0x20 ADD PUSH1 0x0 KECCAK256 DUP2 SWAP1 SSTORE POP DUP2 PUSH1 0x0 DUP1 DUP6 PUSH20 0xFFFFFFFFFFFFFFFFFFFFFFFFFFFFFFFFFFFFFFFF AND PUSH20 0xFFFFFFFFFFFFFFFFFFFFFFFFFFFFFFFFFFFFFFFF AND DUP2 MSTORE PUSH1 0x20 ADD SWAP1 DUP2 MSTORE PUSH1 0x20 ADD PUSH1 0x0 KECCAK256 PUSH1 0x0 DUP3 DUP3 SLOAD PUSH2 0xEC7 SWAP2 SWAP1 PUSH2 0x25E6 JUMP JUMPDEST SWAP3 POP POP DUP2 SWAP1 SSTORE POP DUP3 PUSH20 0xFFFFFFFFFFFFFFFFFFFFFFFFFFFFFFFFFFFFFFFF AND DUP5 PUSH20 0xFFFFFFFFFFFFFFFFFFFFFFFFFFFFFFFFFFFFFFFF AND PUSH32 0xDDF252AD1BE2C89B69C2B068FC378DAA952BA7F163C4A11628F55A4DF523B3EF DUP5 PUSH1 0x40 MLOAD PUSH2 0xF2B SWAP2 SWAP1 PUSH2 0x2589 JUMP JUMPDEST PUSH1 0x40 MLOAD DUP1 SWAP2 SUB SWAP1 LOG3 PUSH2 0xF3E DUP5 DUP5 DUP5 PUSH2 0x1668 JUMP JUMPDEST POP POP POP POP JUMP JUMPDEST PUSH1 0x0 PUSH32 0x0 PUSH20 0xFFFFFFFFFFFFFFFFFFFFFFFFFFFFFFFFFFFFFFFF AND ADDRESS PUSH20 0xFFFFFFFFFFFFFFFFFFFFFFFFFFFFFFFFFFFFFFFF AND EQ DUP1 ISZERO PUSH2 0xFC0 JUMPI POP PUSH32 0x0 CHAINID EQ JUMPDEST ISZERO PUSH2 0xFED JUMPI PUSH32 0x0 SWAP1 POP PUSH2 0x105B JUMP JUMPDEST PUSH2 0x1058 PUSH32 0x0 PUSH32 0x0 PUSH32 0x0 PUSH2 0x166D JUMP JUMPDEST SWAP1 POP JUMPDEST SWAP1 JUMP JUMPDEST PUSH2 0x1066 PUSH2 0xA64 JUMP JUMPDEST PUSH20 0xFFFFFFFFFFFFFFFFFFFFFFFFFFFFFFFFFFFFFFFF AND PUSH2 0x1084 PUSH2 0x6BC JUMP JUMPDEST PUSH20 0xFFFFFFFFFFFFFFFFFFFFFFFFFFFFFFFFFFFFFFFF AND EQ PUSH2 0x10DA JUMPI PUSH1 0x40 MLOAD PUSH32 0x8C379A000000000000000000000000000000000000000000000000000000000 DUP2 MSTORE PUSH1 0x4 ADD PUSH2 0x10D1 SWAP1 PUSH2 0x24C9 JUMP JUMPDEST PUSH1 0x40 MLOAD DUP1 SWAP2 SUB SWAP1 REVERT JUMPDEST JUMP JUMPDEST PUSH2 0x10E4 PUSH2 0x16A7 JUMP JUMPDEST PUSH1 0x0 PUSH1 0x5 PUSH1 0x0 PUSH2 0x100 EXP DUP2 SLOAD DUP2 PUSH1 0xFF MUL NOT AND SWAP1 DUP4 ISZERO ISZERO MUL OR SWAP1 SSTORE POP PUSH32 0x5DB9EE0A495BF2E6FF9C91A7834C1BA4FDD244A5E8AA4E537BD38AEAE4B073AA PUSH2 0x1128 PUSH2 0xA64 JUMP JUMPDEST PUSH1 0x40 MLOAD PUSH2 0x1135 SWAP2 SWAP1 PUSH2 0x219D JUMP JUMPDEST PUSH1 0x40 MLOAD DUP1 SWAP2 SUB SWAP1 LOG1 JUMP JUMPDEST PUSH1 0x0 PUSH20 0xFFFFFFFFFFFFFFFFFFFFFFFFFFFFFFFFFFFFFFFF AND DUP3 PUSH20 0xFFFFFFFFFFFFFFFFFFFFFFFFFFFFFFFFFFFFFFFF AND EQ ISZERO PUSH2 0x11AF JUMPI PUSH1 0x40 MLOAD PUSH32 0x8C379A000000000000000000000000000000000000000000000000000000000 DUP2 MSTORE PUSH1 0x4 ADD PUSH2 0x11A6 SWAP1 PUSH2 0x2569 JUMP JUMPDEST PUSH1 0x40 MLOAD DUP1 SWAP2 SUB SWAP1 REVERT JUMPDEST PUSH2 0x11BB PUSH1 0x0 DUP4 DUP4 PUSH2 0x1650 JUMP JUMPDEST DUP1 PUSH1 0x2 PUSH1 0x0 DUP3 DUP3 SLOAD PUSH2 0x11CD SWAP2 SWAP1 PUSH2 0x25E6 JUMP JUMPDEST SWAP3 POP POP DUP2 SWAP1 SSTORE POP DUP1 PUSH1 0x0 DUP1 DUP5 PUSH20 0xFFFFFFFFFFFFFFFFFFFFFFFFFFFFFFFFFFFFFFFF AND PUSH20 0xFFFFFFFFFFFFFFFFFFFFFFFFFFFFFFFFFFFFFFFF AND DUP2 MSTORE PUSH1 0x20 ADD SWAP1 DUP2 MSTORE PUSH1 0x20 ADD PUSH1 0x0 KECCAK256 PUSH1 0x0 DUP3 DUP3 SLOAD PUSH2 0x1222 SWAP2 SWAP1 PUSH2 0x25E6 JUMP JUMPDEST SWAP3 POP POP DUP2 SWAP1 SSTORE POP DUP2 PUSH20 0xFFFFFFFFFFFFFFFFFFFFFFFFFFFFFFFFFFFFFFFF AND PUSH1 0x0 PUSH20 0xFFFFFFFFFFFFFFFFFFFFFFFFFFFFFFFFFFFFFFFF AND PUSH32 0xDDF252AD1BE2C89B69C2B068FC378DAA952BA7F163C4A11628F55A4DF523B3EF DUP4 PUSH1 0x40 MLOAD PUSH2 0x1287 SWAP2 SWAP1 PUSH2 0x2589 JUMP JUMPDEST PUSH1 0x40 MLOAD DUP1 SWAP2 SUB SWAP1 LOG3 PUSH2 0x129B PUSH1 0x0 DUP4 DUP4 PUSH2 0x1668 JUMP JUMPDEST POP POP JUMP JUMPDEST PUSH1 0x0 PUSH20 0xFFFFFFFFFFFFFFFFFFFFFFFFFFFFFFFFFFFFFFFF AND DUP3 PUSH20 0xFFFFFFFFFFFFFFFFFFFFFFFFFFFFFFFFFFFFFFFF AND EQ ISZERO PUSH2 0x130F JUMPI PUSH1 0x40 MLOAD PUSH32 0x8C379A000000000000000000000000000000000000000000000000000000000 DUP2 MSTORE PUSH1 0x4 ADD PUSH2 0x1306 SWAP1 PUSH2 0x24E9 JUMP JUMPDEST PUSH1 0x40 MLOAD DUP1 SWAP2 SUB SWAP1 REVERT JUMPDEST PUSH2 0x131B DUP3 PUSH1 0x0 DUP4 PUSH2 0x1650 JUMP JUMPDEST PUSH1 0x0 DUP1 PUSH1 0x0 DUP5 PUSH20 0xFFFFFFFFFFFFFFFFFFFFFFFFFFFFFFFFFFFFFFFF AND PUSH20 0xFFFFFFFFFFFFFFFFFFFFFFFFFFFFFFFFFFFFFFFF AND DUP2 MSTORE PUSH1 0x20 ADD SWAP1 DUP2 MSTORE PUSH1 0x20 ADD PUSH1 0x0 KECCAK256 SLOAD SWAP1 POP DUP2 DUP2 LT ISZERO PUSH2 0x13A1 JUMPI PUSH1 0x40 MLOAD PUSH32 0x8C379A000000000000000000000000000000000000000000000000000000000 DUP2 MSTORE PUSH1 0x4 ADD PUSH2 0x1398 SWAP1 PUSH2 0x2369 JUMP JUMPDEST PUSH1 0x40 MLOAD DUP1 SWAP2 SUB SWAP1 REVERT JUMPDEST DUP2 DUP2 SUB PUSH1 0x0 DUP1 DUP6 PUSH20 0xFFFFFFFFFFFFFFFFFFFFFFFFFFFFFFFFFFFFFFFF AND PUSH20 0xFFFFFFFFFFFFFFFFFFFFFFFFFFFFFFFFFFFFFFFF AND DUP2 MSTORE PUSH1 0x20 ADD SWAP1 DUP2 MSTORE PUSH1 0x20 ADD PUSH1 0x0 KECCAK256 DUP2 SWAP1 SSTORE POP DUP2 PUSH1 0x2 PUSH1 0x0 DUP3 DUP3 SLOAD PUSH2 0x13F8 SWAP2 SWAP1 PUSH2 0x263C JUMP JUMPDEST SWAP3 POP POP DUP2 SWAP1 SSTORE POP PUSH1 0x0 PUSH20 0xFFFFFFFFFFFFFFFFFFFFFFFFFFFFFFFFFFFFFFFF AND DUP4 PUSH20 0xFFFFFFFFFFFFFFFFFFFFFFFFFFFFFFFFFFFFFFFF AND PUSH32 0xDDF252AD1BE2C89B69C2B068FC378DAA952BA7F163C4A11628F55A4DF523B3EF DUP5 PUSH1 0x40 MLOAD PUSH2 0x145D SWAP2 SWAP1 PUSH2 0x2589 JUMP JUMPDEST PUSH1 0x40 MLOAD DUP1 SWAP2 SUB SWAP1 LOG3 PUSH2 0x1471 DUP4 PUSH1 0x0 DUP5 PUSH2 0x1668 JUMP JUMPDEST POP POP POP JUMP JUMPDEST PUSH1 0x0 PUSH1 0x5 PUSH1 0x1 SWAP1 SLOAD SWAP1 PUSH2 0x100 EXP SWAP1 DIV PUSH20 0xFFFFFFFFFFFFFFFFFFFFFFFFFFFFFFFFFFFFFFFF AND SWAP1 POP DUP2 PUSH1 0x5 PUSH1 0x1 PUSH2 0x100 EXP DUP2 SLOAD DUP2 PUSH20 0xFFFFFFFFFFFFFFFFFFFFFFFFFFFFFFFFFFFFFFFF MUL NOT AND SWAP1 DUP4 PUSH20 0xFFFFFFFFFFFFFFFFFFFFFFFFFFFFFFFFFFFFFFFF AND MUL OR SWAP1 SSTORE POP DUP2 PUSH20 0xFFFFFFFFFFFFFFFFFFFFFFFFFFFFFFFFFFFFFFFF AND DUP2 PUSH20 0xFFFFFFFFFFFFFFFFFFFFFFFFFFFFFFFFFFFFFFFF AND PUSH32 0x8BE0079C531659141344CD1FD0A4F28419497F9722A3DAAFE3B4186F6B6457E0 PUSH1 0x40 MLOAD PUSH1 0x40 MLOAD DUP1 SWAP2 SUB SWAP1 LOG3 POP POP JUMP JUMPDEST PUSH1 0x0 DUP2 PUSH1 0x0 ADD SLOAD SWAP1 POP SWAP2 SWAP1 POP JUMP JUMPDEST PUSH2 0x1552 PUSH2 0x16F0 JUMP JUMPDEST PUSH1 0x1 PUSH1 0x5 PUSH1 0x0 PUSH2 0x100 EXP DUP2 SLOAD DUP2 PUSH1 0xFF MUL NOT AND SWAP1 DUP4 ISZERO ISZERO MUL OR SWAP1 SSTORE POP PUSH32 0x62E78CEA01BEE320CD4E420270B5EA74000D11B0C9F74754EBDBFC544B05A258 PUSH2 0x1596 PUSH2 0xA64 JUMP JUMPDEST PUSH1 0x40 MLOAD PUSH2 0x15A3 SWAP2 SWAP1 PUSH2 0x219D JUMP JUMPDEST PUSH1 0x40 MLOAD DUP1 SWAP2 SUB SWAP1 LOG1 JUMP JUMPDEST PUSH1 0x0 DUP1 PUSH1 0x6 PUSH1 0x0 DUP5 PUSH20 0xFFFFFFFFFFFFFFFFFFFFFFFFFFFFFFFFFFFFFFFF AND PUSH20 0xFFFFFFFFFFFFFFFFFFFFFFFFFFFFFFFFFFFFFFFF AND DUP2 MSTORE PUSH1 0x20 ADD SWAP1 DUP2 MSTORE PUSH1 0x20 ADD PUSH1 0x0 KECCAK256 SWAP1 POP PUSH2 0x15FA DUP2 PUSH2 0x153C JUMP JUMPDEST SWAP2 POP PUSH2 0x1605 DUP2 PUSH2 0x173A JUMP JUMPDEST POP SWAP2 SWAP1 POP JUMP JUMPDEST PUSH1 0x0 PUSH2 0x161E PUSH2 0x1618 PUSH2 0xF44 JUMP JUMPDEST DUP4 PUSH2 0x1750 JUMP JUMPDEST SWAP1 POP SWAP2 SWAP1 POP JUMP JUMPDEST PUSH1 0x0 DUP1 PUSH1 0x0 PUSH2 0x1636 DUP8 DUP8 DUP8 DUP8 PUSH2 0x1783 JUMP JUMPDEST SWAP2 POP SWAP2 POP PUSH2 0x1643 DUP2 PUSH2 0x1890 JUMP JUMPDEST DUP2 SWAP3 POP POP POP SWAP5 SWAP4 POP POP POP POP JUMP JUMPDEST PUSH2 0x1658 PUSH2 0x16F0 JUMP JUMPDEST PUSH2 0x1663 DUP4 DUP4 DUP4 PUSH2 0xA5F JUMP JUMPDEST POP POP POP JUMP JUMPDEST POP POP POP JUMP JUMPDEST PUSH1 0x0 DUP4 DUP4 DUP4 CHAINID ADDRESS PUSH1 0x40 MLOAD PUSH1 0x20 ADD PUSH2 0x1688 SWAP6 SWAP5 SWAP4 SWAP3 SWAP2 SWAP1 PUSH2 0x224F JUMP JUMPDEST PUSH1 0x40 MLOAD PUSH1 0x20 DUP2 DUP4 SUB SUB DUP2 MSTORE SWAP1 PUSH1 0x40 MSTORE DUP1 MLOAD SWAP1 PUSH1 0x20 ADD KECCAK256 SWAP1 POP SWAP4 SWAP3 POP POP POP JUMP JUMPDEST PUSH2 0x16AF PUSH2 0x5C7 JUMP JUMPDEST PUSH2 0x16EE JUMPI PUSH1 0x40 MLOAD PUSH32 0x8C379A000000000000000000000000000000000000000000000000000000000 DUP2 MSTORE PUSH1 0x4 ADD PUSH2 0x16E5 SWAP1 PUSH2 0x2349 JUMP JUMPDEST PUSH1 0x40 MLOAD DUP1 SWAP2 SUB SWAP1 REVERT JUMPDEST JUMP JUMPDEST PUSH2 0x16F8 PUSH2 0x5C7 JUMP JUMPDEST ISZERO PUSH2 0x1738 JUMPI PUSH1 0x40 MLOAD PUSH32 0x8C379A000000000000000000000000000000000000000000000000000000000 DUP2 MSTORE PUSH1 0x4 ADD PUSH2 0x172F SWAP1 PUSH2 0x2469 JUMP JUMPDEST PUSH1 0x40 MLOAD DUP1 SWAP2 SUB SWAP1 REVERT JUMPDEST JUMP JUMPDEST PUSH1 0x1 DUP2 PUSH1 0x0 ADD PUSH1 0x0 DUP3 DUP3 SLOAD ADD SWAP3 POP POP DUP2 SWAP1 SSTORE POP POP JUMP JUMPDEST PUSH1 0x0 DUP3 DUP3 PUSH1 0x40 MLOAD PUSH1 0x20 ADD PUSH2 0x1765 SWAP3 SWAP2 SWAP1 PUSH2 0x2166 JUMP JUMPDEST PUSH1 0x40 MLOAD PUSH1 0x20 DUP2 DUP4 SUB SUB DUP2 MSTORE SWAP1 PUSH1 0x40 MSTORE DUP1 MLOAD SWAP1 PUSH1 0x20 ADD KECCAK256 SWAP1 POP SWAP3 SWAP2 POP POP JUMP JUMPDEST PUSH1 0x0 DUP1 PUSH32 0x7FFFFFFFFFFFFFFFFFFFFFFFFFFFFFFF5D576E7357A4501DDFE92F46681B20A0 DUP4 PUSH1 0x0 SHR GT ISZERO PUSH2 0x17BE JUMPI PUSH1 0x0 PUSH1 0x3 SWAP2 POP SWAP2 POP PUSH2 0x1887 JUMP JUMPDEST PUSH1 0x1B DUP6 PUSH1 0xFF AND EQ ISZERO DUP1 ISZERO PUSH2 0x17D6 JUMPI POP PUSH1 0x1C DUP6 PUSH1 0xFF AND EQ ISZERO JUMPDEST ISZERO PUSH2 0x17E8 JUMPI PUSH1 0x0 PUSH1 0x4 SWAP2 POP SWAP2 POP PUSH2 0x1887 JUMP JUMPDEST PUSH1 0x0 PUSH1 0x1 DUP8 DUP8 DUP8 DUP8 PUSH1 0x40 MLOAD PUSH1 0x0 DUP2 MSTORE PUSH1 0x20 ADD PUSH1 0x40 MSTORE PUSH1 0x40 MLOAD PUSH2 0x180D SWAP5 SWAP4 SWAP3 SWAP2 SWAP1 PUSH2 0x22A2 JUMP JUMPDEST PUSH1 0x20 PUSH1 0x40 MLOAD PUSH1 0x20 DUP2 SUB SWAP1 DUP1 DUP5 SUB SWAP1 DUP6 GAS STATICCALL ISZERO DUP1 ISZERO PUSH2 0x182F JUMPI RETURNDATASIZE PUSH1 0x0 DUP1 RETURNDATACOPY RETURNDATASIZE PUSH1 0x0 REVERT JUMPDEST POP POP POP PUSH1 0x20 PUSH1 0x40 MLOAD SUB MLOAD SWAP1 POP PUSH1 0x0 PUSH20 0xFFFFFFFFFFFFFFFFFFFFFFFFFFFFFFFFFFFFFFFF AND DUP2 PUSH20 0xFFFFFFFFFFFFFFFFFFFFFFFFFFFFFFFFFFFFFFFF AND EQ ISZERO PUSH2 0x187E JUMPI PUSH1 0x0 PUSH1 0x1 SWAP3 POP SWAP3 POP POP PUSH2 0x1887 JUMP JUMPDEST DUP1 PUSH1 0x0 SWAP3 POP SWAP3 POP POP JUMPDEST SWAP5 POP SWAP5 SWAP3 POP POP POP JUMP JUMPDEST PUSH1 0x0 PUSH1 0x4 DUP2 GT ISZERO PUSH2 0x18CA JUMPI PUSH32 0x4E487B7100000000000000000000000000000000000000000000000000000000 PUSH1 0x0 MSTORE PUSH1 0x21 PUSH1 0x4 MSTORE PUSH1 0x24 PUSH1 0x0 REVERT JUMPDEST DUP2 PUSH1 0x4 DUP2 GT ISZERO PUSH2 0x1903 JUMPI PUSH32 0x4E487B7100000000000000000000000000000000000000000000000000000000 PUSH1 0x0 MSTORE PUSH1 0x21 PUSH1 0x4 MSTORE PUSH1 0x24 PUSH1 0x0 REVERT JUMPDEST EQ ISZERO PUSH2 0x190E JUMPI PUSH2 0x1BDE JUMP JUMPDEST PUSH1 0x1 PUSH1 0x4 DUP2 GT ISZERO PUSH2 0x1948 JUMPI PUSH32 0x4E487B7100000000000000000000000000000000000000000000000000000000 PUSH1 0x0 MSTORE PUSH1 0x21 PUSH1 0x4 MSTORE PUSH1 0x24 PUSH1 0x0 REVERT JUMPDEST DUP2 PUSH1 0x4 DUP2 GT ISZERO PUSH2 0x1981 JUMPI PUSH32 0x4E487B7100000000000000000000000000000000000000000000000000000000 PUSH1 0x0 MSTORE PUSH1 0x21 PUSH1 0x4 MSTORE PUSH1 0x24 PUSH1 0x0 REVERT JUMPDEST EQ ISZERO PUSH2 0x19C2 JUMPI PUSH1 0x40 MLOAD PUSH32 0x8C379A000000000000000000000000000000000000000000000000000000000 DUP2 MSTORE PUSH1 0x4 ADD PUSH2 0x19B9 SWAP1 PUSH2 0x2309 JUMP JUMPDEST PUSH1 0x40 MLOAD DUP1 SWAP2 SUB SWAP1 REVERT JUMPDEST PUSH1 0x2 PUSH1 0x4 DUP2 GT ISZERO PUSH2 0x19FC JUMPI PUSH32 0x4E487B7100000000000000000000000000000000000000000000000000000000 PUSH1 0x0 MSTORE PUSH1 0x21 PUSH1 0x4 MSTORE PUSH1 0x24 PUSH1 0x0 REVERT JUMPDEST DUP2 PUSH1 0x4 DUP2 GT ISZERO PUSH2 0x1A35 JUMPI PUSH32 0x4E487B7100000000000000000000000000000000000000000000000000000000 PUSH1 0x0 MSTORE PUSH1 0x21 PUSH1 0x4 MSTORE PUSH1 0x24 PUSH1 0x0 REVERT JUMPDEST EQ ISZERO PUSH2 0x1A76 JUMPI PUSH1 0x40 MLOAD PUSH32 0x8C379A000000000000000000000000000000000000000000000000000000000 DUP2 MSTORE PUSH1 0x4 ADD PUSH2 0x1A6D SWAP1 PUSH2 0x2389 JUMP JUMPDEST PUSH1 0x40 MLOAD DUP1 SWAP2 SUB SWAP1 REVERT JUMPDEST PUSH1 0x3 PUSH1 0x4 DUP2 GT ISZERO PUSH2 0x1AB0 JUMPI PUSH32 0x4E487B7100000000000000000000000000000000000000000000000000000000 PUSH1 0x0 MSTORE PUSH1 0x21 PUSH1 0x4 MSTORE PUSH1 0x24 PUSH1 0x0 REVERT JUMPDEST DUP2 PUSH1 0x4 DUP2 GT ISZERO PUSH2 0x1AE9 JUMPI PUSH32 0x4E487B7100000000000000000000000000000000000000000000000000000000 PUSH1 0x0 MSTORE PUSH1 0x21 PUSH1 0x4 MSTORE PUSH1 0x24 PUSH1 0x0 REVERT JUMPDEST EQ ISZERO PUSH2 0x1B2A JUMPI PUSH1 0x40 MLOAD PUSH32 0x8C379A000000000000000000000000000000000000000000000000000000000 DUP2 MSTORE PUSH1 0x4 ADD PUSH2 0x1B21 SWAP1 PUSH2 0x2449 JUMP JUMPDEST PUSH1 0x40 MLOAD DUP1 SWAP2 SUB SWAP1 REVERT JUMPDEST PUSH1 0x4 DUP1 DUP2 GT ISZERO PUSH2 0x1B63 JUMPI PUSH32 0x4E487B7100000000000000000000000000000000000000000000000000000000 PUSH1 0x0 MSTORE PUSH1 0x21 PUSH1 0x4 MSTORE PUSH1 0x24 PUSH1 0x0 REVERT JUMPDEST DUP2 PUSH1 0x4 DUP2 GT ISZERO PUSH2 0x1B9C JUMPI PUSH32 0x4E487B7100000000000000000000000000000000000000000000000000000000 PUSH1 0x0 MSTORE PUSH1 0x21 PUSH1 0x4 MSTORE PUSH1 0x24 PUSH1 0x0 REVERT JUMPDEST EQ ISZERO PUSH2 0x1BDD JUMPI PUSH1 0x40 MLOAD PUSH32 0x8C379A000000000000000000000000000000000000000000000000000000000 DUP2 MSTORE PUSH1 0x4 ADD PUSH2 0x1BD4 SWAP1 PUSH2 0x2489 JUMP JUMPDEST PUSH1 0x40 MLOAD DUP1 SWAP2 SUB SWAP1 REVERT JUMPDEST JUMPDEST POP JUMP JUMPDEST PUSH1 0x0 DUP2 CALLDATALOAD SWAP1 POP PUSH2 0x1BF0 DUP2 PUSH2 0x2CAC JUMP JUMPDEST SWAP3 SWAP2 POP POP JUMP JUMPDEST PUSH1 0x0 DUP2 CALLDATALOAD SWAP1 POP PUSH2 0x1C05 DUP2 PUSH2 0x2CC3 JUMP JUMPDEST SWAP3 SWAP2 POP POP JUMP JUMPDEST PUSH1 0x0 DUP2 CALLDATALOAD SWAP1 POP PUSH2 0x1C1A DUP2 PUSH2 0x2CDA JUMP JUMPDEST SWAP3 SWAP2 POP POP JUMP JUMPDEST PUSH1 0x0 DUP2 CALLDATALOAD SWAP1 POP PUSH2 0x1C2F DUP2 PUSH2 0x2CF1 JUMP JUMPDEST SWAP3 SWAP2 POP POP JUMP JUMPDEST PUSH1 0x0 PUSH1 0x20 DUP3 DUP5 SUB SLT ISZERO PUSH2 0x1C47 JUMPI PUSH1 0x0 DUP1 REVERT JUMPDEST PUSH1 0x0 PUSH2 0x1C55 DUP5 DUP3 DUP6 ADD PUSH2 0x1BE1 JUMP JUMPDEST SWAP2 POP POP SWAP3 SWAP2 POP POP JUMP JUMPDEST PUSH1 0x0 DUP1 PUSH1 0x40 DUP4 DUP6 SUB SLT ISZERO PUSH2 0x1C71 JUMPI PUSH1 0x0 DUP1 REVERT JUMPDEST PUSH1 0x0 PUSH2 0x1C7F DUP6 DUP3 DUP7 ADD PUSH2 0x1BE1 JUMP JUMPDEST SWAP3 POP POP PUSH1 0x20 PUSH2 0x1C90 DUP6 DUP3 DUP7 ADD PUSH2 0x1BE1 JUMP JUMPDEST SWAP2 POP POP SWAP3 POP SWAP3 SWAP1 POP JUMP JUMPDEST PUSH1 0x0 DUP1 PUSH1 0x0 PUSH1 0x60 DUP5 DUP7 SUB SLT ISZERO PUSH2 0x1CAF JUMPI PUSH1 0x0 DUP1 REVERT JUMPDEST PUSH1 0x0 PUSH2 0x1CBD DUP7 DUP3 DUP8 ADD PUSH2 0x1BE1 JUMP JUMPDEST SWAP4 POP POP PUSH1 0x20 PUSH2 0x1CCE DUP7 DUP3 DUP8 ADD PUSH2 0x1BE1 JUMP JUMPDEST SWAP3 POP POP PUSH1 0x40 PUSH2 0x1CDF DUP7 DUP3 DUP8 ADD PUSH2 0x1C0B JUMP JUMPDEST SWAP2 POP POP SWAP3 POP SWAP3 POP SWAP3 JUMP JUMPDEST PUSH1 0x0 DUP1 PUSH1 0x0 DUP1 PUSH1 0x0 DUP1 PUSH1 0x0 PUSH1 0xE0 DUP9 DUP11 SUB SLT ISZERO PUSH2 0x1D04 JUMPI PUSH1 0x0 DUP1 REVERT JUMPDEST PUSH1 0x0 PUSH2 0x1D12 DUP11 DUP3 DUP12 ADD PUSH2 0x1BE1 JUMP JUMPDEST SWAP8 POP POP PUSH1 0x20 PUSH2 0x1D23 DUP11 DUP3 DUP12 ADD PUSH2 0x1BE1 JUMP JUMPDEST SWAP7 POP POP PUSH1 0x40 PUSH2 0x1D34 DUP11 DUP3 DUP12 ADD PUSH2 0x1C0B JUMP JUMPDEST SWAP6 POP POP PUSH1 0x60 PUSH2 0x1D45 DUP11 DUP3 DUP12 ADD PUSH2 0x1C0B JUMP JUMPDEST SWAP5 POP POP PUSH1 0x80 PUSH2 0x1D56 DUP11 DUP3 DUP12 ADD PUSH2 0x1C20 JUMP JUMPDEST SWAP4 POP POP PUSH1 0xA0 PUSH2 0x1D67 DUP11 DUP3 DUP12 ADD PUSH2 0x1BF6 JUMP JUMPDEST SWAP3 POP POP PUSH1 0xC0 PUSH2 0x1D78 DUP11 DUP3 DUP12 ADD PUSH2 0x1BF6 JUMP JUMPDEST SWAP2 POP POP SWAP3 SWAP6 SWAP9 SWAP2 SWAP5 SWAP8 POP SWAP3 SWAP6 POP JUMP JUMPDEST PUSH1 0x0 DUP1 PUSH1 0x40 DUP4 DUP6 SUB SLT ISZERO PUSH2 0x1D9A JUMPI PUSH1 0x0 DUP1 REVERT JUMPDEST PUSH1 0x0 PUSH2 0x1DA8 DUP6 DUP3 DUP7 ADD PUSH2 0x1BE1 JUMP JUMPDEST SWAP3 POP POP PUSH1 0x20 PUSH2 0x1DB9 DUP6 DUP3 DUP7 ADD PUSH2 0x1C0B JUMP JUMPDEST SWAP2 POP POP SWAP3 POP SWAP3 SWAP1 POP JUMP JUMPDEST PUSH1 0x0 PUSH1 0x20 DUP3 DUP5 SUB SLT ISZERO PUSH2 0x1DD5 JUMPI PUSH1 0x0 DUP1 REVERT JUMPDEST PUSH1 0x0 PUSH2 0x1DE3 DUP5 DUP3 DUP6 ADD PUSH2 0x1C0B JUMP JUMPDEST SWAP2 POP POP SWAP3 SWAP2 POP POP JUMP JUMPDEST PUSH2 0x1DF5 DUP2 PUSH2 0x2670 JUMP JUMPDEST DUP3 MSTORE POP POP JUMP JUMPDEST PUSH2 0x1E04 DUP2 PUSH2 0x2682 JUMP JUMPDEST DUP3 MSTORE POP POP JUMP JUMPDEST PUSH2 0x1E13 DUP2 PUSH2 0x268E JUMP JUMPDEST DUP3 MSTORE POP POP JUMP JUMPDEST PUSH2 0x1E2A PUSH2 0x1E25 DUP3 PUSH2 0x268E JUMP JUMPDEST PUSH2 0x2734 JUMP JUMPDEST DUP3 MSTORE POP POP JUMP JUMPDEST PUSH1 0x0 PUSH2 0x1E3B DUP3 PUSH2 0x25BF JUMP JUMPDEST PUSH2 0x1E45 DUP2 DUP6 PUSH2 0x25CA JUMP JUMPDEST SWAP4 POP PUSH2 0x1E55 DUP2 DUP6 PUSH1 0x20 DUP7 ADD PUSH2 0x26CF JUMP JUMPDEST PUSH2 0x1E5E DUP2 PUSH2 0x279C JUMP JUMPDEST DUP5 ADD SWAP2 POP POP SWAP3 SWAP2 POP POP JUMP JUMPDEST PUSH1 0x0 PUSH2 0x1E76 PUSH1 0x18 DUP4 PUSH2 0x25CA JUMP JUMPDEST SWAP2 POP PUSH2 0x1E81 DUP3 PUSH2 0x27AD JUMP JUMPDEST PUSH1 0x20 DUP3 ADD SWAP1 POP SWAP2 SWAP1 POP JUMP JUMPDEST PUSH1 0x0 PUSH2 0x1E99 PUSH1 0x23 DUP4 PUSH2 0x25CA JUMP JUMPDEST SWAP2 POP PUSH2 0x1EA4 DUP3 PUSH2 0x27D6 JUMP JUMPDEST PUSH1 0x40 DUP3 ADD SWAP1 POP SWAP2 SWAP1 POP JUMP JUMPDEST PUSH1 0x0 PUSH2 0x1EBC PUSH1 0x14 DUP4 PUSH2 0x25CA JUMP JUMPDEST SWAP2 POP PUSH2 0x1EC7 DUP3 PUSH2 0x2825 JUMP JUMPDEST PUSH1 0x20 DUP3 ADD SWAP1 POP SWAP2 SWAP1 POP JUMP JUMPDEST PUSH1 0x0 PUSH2 0x1EDF PUSH1 0x22 DUP4 PUSH2 0x25CA JUMP JUMPDEST SWAP2 POP PUSH2 0x1EEA DUP3 PUSH2 0x284E JUMP JUMPDEST PUSH1 0x40 DUP3 ADD SWAP1 POP SWAP2 SWAP1 POP JUMP JUMPDEST PUSH1 0x0 PUSH2 0x1F02 PUSH1 0x1F DUP4 PUSH2 0x25CA JUMP JUMPDEST SWAP2 POP PUSH2 0x1F0D DUP3 PUSH2 0x289D JUMP JUMPDEST PUSH1 0x20 DUP3 ADD SWAP1 POP SWAP2 SWAP1 POP JUMP JUMPDEST PUSH1 0x0 PUSH2 0x1F25 PUSH1 0x26 DUP4 PUSH2 0x25CA JUMP JUMPDEST SWAP2 POP PUSH2 0x1F30 DUP3 PUSH2 0x28C6 JUMP JUMPDEST PUSH1 0x40 DUP3 ADD SWAP1 POP SWAP2 SWAP1 POP JUMP JUMPDEST PUSH1 0x0 PUSH2 0x1F48 PUSH1 0x22 DUP4 PUSH2 0x25CA JUMP JUMPDEST SWAP2 POP PUSH2 0x1F53 DUP3 PUSH2 0x2915 JUMP JUMPDEST PUSH1 0x40 DUP3 ADD SWAP1 POP SWAP2 SWAP1 POP JUMP JUMPDEST PUSH1 0x0 PUSH2 0x1F6B PUSH1 0x2 DUP4 PUSH2 0x25DB JUMP JUMPDEST SWAP2 POP PUSH2 0x1F76 DUP3 PUSH2 0x2964 JUMP JUMPDEST PUSH1 0x2 DUP3 ADD SWAP1 POP SWAP2 SWAP1 POP JUMP JUMPDEST PUSH1 0x0 PUSH2 0x1F8E PUSH1 0x1D DUP4 PUSH2 0x25CA JUMP JUMPDEST SWAP2 POP PUSH2 0x1F99 DUP3 PUSH2 0x298D JUMP JUMPDEST PUSH1 0x20 DUP3 ADD SWAP1 POP SWAP2 SWAP1 POP JUMP JUMPDEST PUSH1 0x0 PUSH2 0x1FB1 PUSH1 0x1D DUP4 PUSH2 0x25CA JUMP JUMPDEST SWAP2 POP PUSH2 0x1FBC DUP3 PUSH2 0x29B6 JUMP JUMPDEST PUSH1 0x20 DUP3 ADD SWAP1 POP SWAP2 SWAP1 POP JUMP JUMPDEST PUSH1 0x0 PUSH2 0x1FD4 PUSH1 0x26 DUP4 PUSH2 0x25CA JUMP JUMPDEST SWAP2 POP PUSH2 0x1FDF DUP3 PUSH2 0x29DF JUMP JUMPDEST PUSH1 0x40 DUP3 ADD SWAP1 POP SWAP2 SWAP1 POP JUMP JUMPDEST PUSH1 0x0 PUSH2 0x1FF7 PUSH1 0x22 DUP4 PUSH2 0x25CA JUMP JUMPDEST SWAP2 POP PUSH2 0x2002 DUP3 PUSH2 0x2A2E JUMP JUMPDEST PUSH1 0x40 DUP3 ADD SWAP1 POP SWAP2 SWAP1 POP JUMP JUMPDEST PUSH1 0x0 PUSH2 0x201A PUSH1 0x10 DUP4 PUSH2 0x25CA JUMP JUMPDEST SWAP2 POP PUSH2 0x2025 DUP3 PUSH2 0x2A7D JUMP JUMPDEST PUSH1 0x20 DUP3 ADD SWAP1 POP SWAP2 SWAP1 POP JUMP JUMPDEST PUSH1 0x0 PUSH2 0x203D PUSH1 0x22 DUP4 PUSH2 0x25CA JUMP JUMPDEST SWAP2 POP PUSH2 0x2048 DUP3 PUSH2 0x2AA6 JUMP JUMPDEST PUSH1 0x40 DUP3 ADD SWAP1 POP SWAP2 SWAP1 POP JUMP JUMPDEST PUSH1 0x0 PUSH2 0x2060 PUSH1 0x1E DUP4 PUSH2 0x25CA JUMP JUMPDEST SWAP2 POP PUSH2 0x206B DUP3 PUSH2 0x2AF5 JUMP JUMPDEST PUSH1 0x20 DUP3 ADD SWAP1 POP SWAP2 SWAP1 POP JUMP JUMPDEST PUSH1 0x0 PUSH2 0x2083 PUSH1 0x20 DUP4 PUSH2 0x25CA JUMP JUMPDEST SWAP2 POP PUSH2 0x208E DUP3 PUSH2 0x2B1E JUMP JUMPDEST PUSH1 0x20 DUP3 ADD SWAP1 POP SWAP2 SWAP1 POP JUMP JUMPDEST PUSH1 0x0 PUSH2 0x20A6 PUSH1 0x21 DUP4 PUSH2 0x25CA JUMP JUMPDEST SWAP2 POP PUSH2 0x20B1 DUP3 PUSH2 0x2B47 JUMP JUMPDEST PUSH1 0x40 DUP3 ADD SWAP1 POP SWAP2 SWAP1 POP JUMP JUMPDEST PUSH1 0x0 PUSH2 0x20C9 PUSH1 0x25 DUP4 PUSH2 0x25CA JUMP JUMPDEST SWAP2 POP PUSH2 0x20D4 DUP3 PUSH2 0x2B96 JUMP JUMPDEST PUSH1 0x40 DUP3 ADD SWAP1 POP SWAP2 SWAP1 POP JUMP JUMPDEST PUSH1 0x0 PUSH2 0x20EC PUSH1 0x24 DUP4 PUSH2 0x25CA JUMP JUMPDEST SWAP2 POP PUSH2 0x20F7 DUP3 PUSH2 0x2BE5 JUMP JUMPDEST PUSH1 0x40 DUP3 ADD SWAP1 POP SWAP2 SWAP1 POP JUMP JUMPDEST PUSH1 0x0 PUSH2 0x210F PUSH1 0x25 DUP4 PUSH2 0x25CA JUMP JUMPDEST SWAP2 POP PUSH2 0x211A DUP3 PUSH2 0x2C34 JUMP JUMPDEST PUSH1 0x40 DUP3 ADD SWAP1 POP SWAP2 SWAP1 POP JUMP JUMPDEST PUSH1 0x0 PUSH2 0x2132 PUSH1 0x1F DUP4 PUSH2 0x25CA JUMP JUMPDEST SWAP2 POP PUSH2 0x213D DUP3 PUSH2 0x2C83 JUMP JUMPDEST PUSH1 0x20 DUP3 ADD SWAP1 POP SWAP2 SWAP1 POP JUMP JUMPDEST PUSH2 0x2151 DUP2 PUSH2 0x26B8 JUMP JUMPDEST DUP3 MSTORE POP POP JUMP JUMPDEST PUSH2 0x2160 DUP2 PUSH2 0x26C2 JUMP JUMPDEST DUP3 MSTORE POP POP JUMP JUMPDEST PUSH1 0x0 PUSH2 0x2171 DUP3 PUSH2 0x1F5E JUMP JUMPDEST SWAP2 POP PUSH2 0x217D DUP3 DUP6 PUSH2 0x1E19 JUMP JUMPDEST PUSH1 0x20 DUP3 ADD SWAP2 POP PUSH2 0x218D DUP3 DUP5 PUSH2 0x1E19 JUMP JUMPDEST PUSH1 0x20 DUP3 ADD SWAP2 POP DUP2 SWAP1 POP SWAP4 SWAP3 POP POP POP JUMP JUMPDEST PUSH1 0x0 PUSH1 0x20 DUP3 ADD SWAP1 POP PUSH2 0x21B2 PUSH1 0x0 DUP4 ADD DUP5 PUSH2 0x1DEC JUMP JUMPDEST SWAP3 SWAP2 POP POP JUMP JUMPDEST PUSH1 0x0 PUSH1 0x20 DUP3 ADD SWAP1 POP PUSH2 0x21CD PUSH1 0x0 DUP4 ADD DUP5 PUSH2 0x1DFB JUMP JUMPDEST SWAP3 SWAP2 POP POP JUMP JUMPDEST PUSH1 0x0 PUSH1 0x20 DUP3 ADD SWAP1 POP PUSH2 0x21E8 PUSH1 0x0 DUP4 ADD DUP5 PUSH2 0x1E0A JUMP JUMPDEST SWAP3 SWAP2 POP POP JUMP JUMPDEST PUSH1 0x0 PUSH1 0xC0 DUP3 ADD SWAP1 POP PUSH2 0x2203 PUSH1 0x0 DUP4 ADD DUP10 PUSH2 0x1E0A JUMP JUMPDEST PUSH2 0x2210 PUSH1 0x20 DUP4 ADD DUP9 PUSH2 0x1DEC JUMP JUMPDEST PUSH2 0x221D PUSH1 0x40 DUP4 ADD DUP8 PUSH2 0x1DEC JUMP JUMPDEST PUSH2 0x222A PUSH1 0x60 DUP4 ADD DUP7 PUSH2 0x2148 JUMP JUMPDEST PUSH2 0x2237 PUSH1 0x80 DUP4 ADD DUP6 PUSH2 0x2148 JUMP JUMPDEST PUSH2 0x2244 PUSH1 0xA0 DUP4 ADD DUP5 PUSH2 0x2148 JUMP JUMPDEST SWAP8 SWAP7 POP POP POP POP POP POP POP JUMP JUMPDEST PUSH1 0x0 PUSH1 0xA0 DUP3 ADD SWAP1 POP PUSH2 0x2264 PUSH1 0x0 DUP4 ADD DUP9 PUSH2 0x1E0A JUMP JUMPDEST PUSH2 0x2271 PUSH1 0x20 DUP4 ADD DUP8 PUSH2 0x1E0A JUMP JUMPDEST PUSH2 0x227E PUSH1 0x40 DUP4 ADD DUP7 PUSH2 0x1E0A JUMP JUMPDEST PUSH2 0x228B PUSH1 0x60 DUP4 ADD DUP6 PUSH2 0x2148 JUMP JUMPDEST PUSH2 0x2298 PUSH1 0x80 DUP4 ADD DUP5 PUSH2 0x1DEC JUMP JUMPDEST SWAP7 SWAP6 POP POP POP POP POP POP JUMP JUMPDEST PUSH1 0x0 PUSH1 0x80 DUP3 ADD SWAP1 POP PUSH2 0x22B7 PUSH1 0x0 DUP4 ADD DUP8 PUSH2 0x1E0A JUMP JUMPDEST PUSH2 0x22C4 PUSH1 0x20 DUP4 ADD DUP7 PUSH2 0x2157 JUMP JUMPDEST PUSH2 0x22D1 PUSH1 0x40 DUP4 ADD DUP6 PUSH2 0x1E0A JUMP JUMPDEST PUSH2 0x22DE PUSH1 0x60 DUP4 ADD DUP5 PUSH2 0x1E0A JUMP JUMPDEST SWAP6 SWAP5 POP POP POP POP POP JUMP JUMPDEST PUSH1 0x0 PUSH1 0x20 DUP3 ADD SWAP1 POP DUP2 DUP2 SUB PUSH1 0x0 DUP4 ADD MSTORE PUSH2 0x2301 DUP2 DUP5 PUSH2 0x1E30 JUMP JUMPDEST SWAP1 POP SWAP3 SWAP2 POP POP JUMP JUMPDEST PUSH1 0x0 PUSH1 0x20 DUP3 ADD SWAP1 POP DUP2 DUP2 SUB PUSH1 0x0 DUP4 ADD MSTORE PUSH2 0x2322 DUP2 PUSH2 0x1E69 JUMP JUMPDEST SWAP1 POP SWAP2 SWAP1 POP JUMP JUMPDEST PUSH1 0x0 PUSH1 0x20 DUP3 ADD SWAP1 POP DUP2 DUP2 SUB PUSH1 0x0 DUP4 ADD MSTORE PUSH2 0x2342 DUP2 PUSH2 0x1E8C JUMP JUMPDEST SWAP1 POP SWAP2 SWAP1 POP JUMP JUMPDEST PUSH1 0x0 PUSH1 0x20 DUP3 ADD SWAP1 POP DUP2 DUP2 SUB PUSH1 0x0 DUP4 ADD MSTORE PUSH2 0x2362 DUP2 PUSH2 0x1EAF JUMP JUMPDEST SWAP1 POP SWAP2 SWAP1 POP JUMP JUMPDEST PUSH1 0x0 PUSH1 0x20 DUP3 ADD SWAP1 POP DUP2 DUP2 SUB PUSH1 0x0 DUP4 ADD MSTORE PUSH2 0x2382 DUP2 PUSH2 0x1ED2 JUMP JUMPDEST SWAP1 POP SWAP2 SWAP1 POP JUMP JUMPDEST PUSH1 0x0 PUSH1 0x20 DUP3 ADD SWAP1 POP DUP2 DUP2 SUB PUSH1 0x0 DUP4 ADD MSTORE PUSH2 0x23A2 DUP2 PUSH2 0x1EF5 JUMP JUMPDEST SWAP1 POP SWAP2 SWAP1 POP JUMP JUMPDEST PUSH1 0x0 PUSH1 0x20 DUP3 ADD SWAP1 POP DUP2 DUP2 SUB PUSH1 0x0 DUP4 ADD MSTORE PUSH2 0x23C2 DUP2 PUSH2 0x1F18 JUMP JUMPDEST SWAP1 POP SWAP2 SWAP1 POP JUMP JUMPDEST PUSH1 0x0 PUSH1 0x20 DUP3 ADD SWAP1 POP DUP2 DUP2 SUB PUSH1 0x0 DUP4 ADD MSTORE PUSH2 0x23E2 DUP2 PUSH2 0x1F3B JUMP JUMPDEST SWAP1 POP SWAP2 SWAP1 POP JUMP JUMPDEST PUSH1 0x0 PUSH1 0x20 DUP3 ADD SWAP1 POP DUP2 DUP2 SUB PUSH1 0x0 DUP4 ADD MSTORE PUSH2 0x2402 DUP2 PUSH2 0x1F81 JUMP JUMPDEST SWAP1 POP SWAP2 SWAP1 POP JUMP JUMPDEST PUSH1 0x0 PUSH1 0x20 DUP3 ADD SWAP1 POP DUP2 DUP2 SUB PUSH1 0x0 DUP4 ADD MSTORE PUSH2 0x2422 DUP2 PUSH2 0x1FA4 JUMP JUMPDEST SWAP1 POP SWAP2 SWAP1 POP JUMP JUMPDEST PUSH1 0x0 PUSH1 0x20 DUP3 ADD SWAP1 POP DUP2 DUP2 SUB PUSH1 0x0 DUP4 ADD MSTORE PUSH2 0x2442 DUP2 PUSH2 0x1FC7 JUMP JUMPDEST SWAP1 POP SWAP2 SWAP1 POP JUMP JUMPDEST PUSH1 0x0 PUSH1 0x20 DUP3 ADD SWAP1 POP DUP2 DUP2 SUB PUSH1 0x0 DUP4 ADD MSTORE PUSH2 0x2462 DUP2 PUSH2 0x1FEA JUMP JUMPDEST SWAP1 POP SWAP2 SWAP1 POP JUMP JUMPDEST PUSH1 0x0 PUSH1 0x20 DUP3 ADD SWAP1 POP DUP2 DUP2 SUB PUSH1 0x0 DUP4 ADD MSTORE PUSH2 0x2482 DUP2 PUSH2 0x200D JUMP JUMPDEST SWAP1 POP SWAP2 SWAP1 POP JUMP JUMPDEST PUSH1 0x0 PUSH1 0x20 DUP3 ADD SWAP1 POP DUP2 DUP2 SUB PUSH1 0x0 DUP4 ADD MSTORE PUSH2 0x24A2 DUP2 PUSH2 0x2030 JUMP JUMPDEST SWAP1 POP SWAP2 SWAP1 POP JUMP JUMPDEST PUSH1 0x0 PUSH1 0x20 DUP3 ADD SWAP1 POP DUP2 DUP2 SUB PUSH1 0x0 DUP4 ADD MSTORE PUSH2 0x24C2 DUP2 PUSH2 0x2053 JUMP JUMPDEST SWAP1 POP SWAP2 SWAP1 POP JUMP JUMPDEST PUSH1 0x0 PUSH1 0x20 DUP3 ADD SWAP1 POP DUP2 DUP2 SUB PUSH1 0x0 DUP4 ADD MSTORE PUSH2 0x24E2 DUP2 PUSH2 0x2076 JUMP JUMPDEST SWAP1 POP SWAP2 SWAP1 POP JUMP JUMPDEST PUSH1 0x0 PUSH1 0x20 DUP3 ADD SWAP1 POP DUP2 DUP2 SUB PUSH1 0x0 DUP4 ADD MSTORE PUSH2 0x2502 DUP2 PUSH2 0x2099 JUMP JUMPDEST SWAP1 POP SWAP2 SWAP1 POP JUMP JUMPDEST PUSH1 0x0 PUSH1 0x20 DUP3 ADD SWAP1 POP DUP2 DUP2 SUB PUSH1 0x0 DUP4 ADD MSTORE PUSH2 0x2522 DUP2 PUSH2 0x20BC JUMP JUMPDEST SWAP1 POP SWAP2 SWAP1 POP JUMP JUMPDEST PUSH1 0x0 PUSH1 0x20 DUP3 ADD SWAP1 POP DUP2 DUP2 SUB PUSH1 0x0 DUP4 ADD MSTORE PUSH2 0x2542 DUP2 PUSH2 0x20DF JUMP JUMPDEST SWAP1 POP SWAP2 SWAP1 POP JUMP JUMPDEST PUSH1 0x0 PUSH1 0x20 DUP3 ADD SWAP1 POP DUP2 DUP2 SUB PUSH1 0x0 DUP4 ADD MSTORE PUSH2 0x2562 DUP2 PUSH2 0x2102 JUMP JUMPDEST SWAP1 POP SWAP2 SWAP1 POP JUMP JUMPDEST PUSH1 0x0 PUSH1 0x20 DUP3 ADD SWAP1 POP DUP2 DUP2 SUB PUSH1 0x0 DUP4 ADD MSTORE PUSH2 0x2582 DUP2 PUSH2 0x2125 JUMP JUMPDEST SWAP1 POP SWAP2 SWAP1 POP JUMP JUMPDEST PUSH1 0x0 PUSH1 0x20 DUP3 ADD SWAP1 POP PUSH2 0x259E PUSH1 0x0 DUP4 ADD DUP5 PUSH2 0x2148 JUMP JUMPDEST SWAP3 SWAP2 POP POP JUMP JUMPDEST PUSH1 0x0 PUSH1 0x20 DUP3 ADD SWAP1 POP PUSH2 0x25B9 PUSH1 0x0 DUP4 ADD DUP5 PUSH2 0x2157 JUMP JUMPDEST SWAP3 SWAP2 POP POP JUMP JUMPDEST PUSH1 0x0 DUP2 MLOAD SWAP1 POP SWAP2 SWAP1 POP JUMP JUMPDEST PUSH1 0x0 DUP3 DUP3 MSTORE PUSH1 0x20 DUP3 ADD SWAP1 POP SWAP3 SWAP2 POP POP JUMP JUMPDEST PUSH1 0x0 DUP2 SWAP1 POP SWAP3 SWAP2 POP POP JUMP JUMPDEST PUSH1 0x0 PUSH2 0x25F1 DUP3 PUSH2 0x26B8 JUMP JUMPDEST SWAP2 POP PUSH2 0x25FC DUP4 PUSH2 0x26B8 JUMP JUMPDEST SWAP3 POP DUP3 PUSH32 0xFFFFFFFFFFFFFFFFFFFFFFFFFFFFFFFFFFFFFFFFFFFFFFFFFFFFFFFFFFFFFFFF SUB DUP3 GT ISZERO PUSH2 0x2631 JUMPI PUSH2 0x2630 PUSH2 0x273E JUMP JUMPDEST JUMPDEST DUP3 DUP3 ADD SWAP1 POP SWAP3 SWAP2 POP POP JUMP JUMPDEST PUSH1 0x0 PUSH2 0x2647 DUP3 PUSH2 0x26B8 JUMP JUMPDEST SWAP2 POP PUSH2 0x2652 DUP4 PUSH2 0x26B8 JUMP JUMPDEST SWAP3 POP DUP3 DUP3 LT ISZERO PUSH2 0x2665 JUMPI PUSH2 0x2664 PUSH2 0x273E JUMP JUMPDEST JUMPDEST DUP3 DUP3 SUB SWAP1 POP SWAP3 SWAP2 POP POP JUMP JUMPDEST PUSH1 0x0 PUSH2 0x267B DUP3 PUSH2 0x2698 JUMP JUMPDEST SWAP1 POP SWAP2 SWAP1 POP JUMP JUMPDEST PUSH1 0x0 DUP2 ISZERO ISZERO SWAP1 POP SWAP2 SWAP1 POP JUMP JUMPDEST PUSH1 0x0 DUP2 SWAP1 POP SWAP2 SWAP1 POP JUMP JUMPDEST PUSH1 0x0 PUSH20 0xFFFFFFFFFFFFFFFFFFFFFFFFFFFFFFFFFFFFFFFF DUP3 AND SWAP1 POP SWAP2 SWAP1 POP JUMP JUMPDEST PUSH1 0x0 DUP2 SWAP1 POP SWAP2 SWAP1 POP JUMP JUMPDEST PUSH1 0x0 PUSH1 0xFF DUP3 AND SWAP1 POP SWAP2 SWAP1 POP JUMP JUMPDEST PUSH1 0x0 JUMPDEST DUP4 DUP2 LT ISZERO PUSH2 0x26ED JUMPI DUP1 DUP3 ADD MLOAD DUP2 DUP5 ADD MSTORE PUSH1 0x20 DUP2 ADD SWAP1 POP PUSH2 0x26D2 JUMP JUMPDEST DUP4 DUP2 GT ISZERO PUSH2 0x26FC JUMPI PUSH1 0x0 DUP5 DUP5 ADD MSTORE JUMPDEST POP POP POP POP JUMP JUMPDEST PUSH1 0x0 PUSH1 0x2 DUP3 DIV SWAP1 POP PUSH1 0x1 DUP3 AND DUP1 PUSH2 0x271A JUMPI PUSH1 0x7F DUP3 AND SWAP2 POP JUMPDEST PUSH1 0x20 DUP3 LT DUP2 EQ ISZERO PUSH2 0x272E JUMPI PUSH2 0x272D PUSH2 0x276D JUMP JUMPDEST JUMPDEST POP SWAP2 SWAP1 POP JUMP JUMPDEST PUSH1 0x0 DUP2 SWAP1 POP SWAP2 SWAP1 POP JUMP JUMPDEST PUSH32 0x4E487B7100000000000000000000000000000000000000000000000000000000 PUSH1 0x0 MSTORE PUSH1 0x11 PUSH1 0x4 MSTORE PUSH1 0x24 PUSH1 0x0 REVERT JUMPDEST PUSH32 0x4E487B7100000000000000000000000000000000000000000000000000000000 PUSH1 0x0 MSTORE PUSH1 0x22 PUSH1 0x4 MSTORE PUSH1 0x24 PUSH1 0x0 REVERT JUMPDEST PUSH1 0x0 PUSH1 0x1F NOT PUSH1 0x1F DUP4 ADD AND SWAP1 POP SWAP2 SWAP1 POP JUMP JUMPDEST PUSH32 0x45434453413A20696E76616C6964207369676E61747572650000000000000000 PUSH1 0x0 DUP3 ADD MSTORE POP JUMP JUMPDEST PUSH32 0x45524332303A207472616E7366657220746F20746865207A65726F2061646472 PUSH1 0x0 DUP3 ADD MSTORE PUSH32 0x6573730000000000000000000000000000000000000000000000000000000000 PUSH1 0x20 DUP3 ADD MSTORE POP JUMP JUMPDEST PUSH32 0x5061757361626C653A206E6F7420706175736564000000000000000000000000 PUSH1 0x0 DUP3 ADD MSTORE POP JUMP JUMPDEST PUSH32 0x45524332303A206275726E20616D6F756E7420657863656564732062616C616E PUSH1 0x0 DUP3 ADD MSTORE PUSH32 0x6365000000000000000000000000000000000000000000000000000000000000 PUSH1 0x20 DUP3 ADD MSTORE POP JUMP JUMPDEST PUSH32 0x45434453413A20696E76616C6964207369676E6174757265206C656E67746800 PUSH1 0x0 DUP3 ADD MSTORE POP JUMP JUMPDEST PUSH32 0x4F776E61626C653A206E6577206F776E657220697320746865207A65726F2061 PUSH1 0x0 DUP3 ADD MSTORE PUSH32 0x6464726573730000000000000000000000000000000000000000000000000000 PUSH1 0x20 DUP3 ADD MSTORE POP JUMP JUMPDEST PUSH32 0x45524332303A20617070726F766520746F20746865207A65726F206164647265 PUSH1 0x0 DUP3 ADD MSTORE PUSH32 0x7373000000000000000000000000000000000000000000000000000000000000 PUSH1 0x20 DUP3 ADD MSTORE POP JUMP JUMPDEST PUSH32 0x1901000000000000000000000000000000000000000000000000000000000000 PUSH1 0x0 DUP3 ADD MSTORE POP JUMP JUMPDEST PUSH32 0x45524332303A20696E73756666696369656E7420616C6C6F77616E6365000000 PUSH1 0x0 DUP3 ADD MSTORE POP JUMP JUMPDEST PUSH32 0x45524332305065726D69743A206578706972656420646561646C696E65000000 PUSH1 0x0 DUP3 ADD MSTORE POP JUMP JUMPDEST PUSH32 0x45524332303A207472616E7366657220616D6F756E7420657863656564732062 PUSH1 0x0 DUP3 ADD MSTORE PUSH32 0x616C616E63650000000000000000000000000000000000000000000000000000 PUSH1 0x20 DUP3 ADD MSTORE POP JUMP JUMPDEST PUSH32 0x45434453413A20696E76616C6964207369676E6174757265202773272076616C PUSH1 0x0 DUP3 ADD MSTORE PUSH32 0x7565000000000000000000000000000000000000000000000000000000000000 PUSH1 0x20 DUP3 ADD MSTORE POP JUMP JUMPDEST PUSH32 0x5061757361626C653A2070617573656400000000000000000000000000000000 PUSH1 0x0 DUP3 ADD MSTORE POP JUMP JUMPDEST PUSH32 0x45434453413A20696E76616C6964207369676E6174757265202776272076616C PUSH1 0x0 DUP3 ADD MSTORE PUSH32 0x7565000000000000000000000000000000000000000000000000000000000000 PUSH1 0x20 DUP3 ADD MSTORE POP JUMP JUMPDEST PUSH32 0x45524332305065726D69743A20696E76616C6964207369676E61747572650000 PUSH1 0x0 DUP3 ADD MSTORE POP JUMP JUMPDEST PUSH32 0x4F776E61626C653A2063616C6C6572206973206E6F7420746865206F776E6572 PUSH1 0x0 DUP3 ADD MSTORE POP JUMP JUMPDEST PUSH32 0x45524332303A206275726E2066726F6D20746865207A65726F20616464726573 PUSH1 0x0 DUP3 ADD MSTORE PUSH32 0x7300000000000000000000000000000000000000000000000000000000000000 PUSH1 0x20 DUP3 ADD MSTORE POP JUMP JUMPDEST PUSH32 0x45524332303A207472616E736665722066726F6D20746865207A65726F206164 PUSH1 0x0 DUP3 ADD MSTORE PUSH32 0x6472657373000000000000000000000000000000000000000000000000000000 PUSH1 0x20 DUP3 ADD MSTORE POP JUMP JUMPDEST PUSH32 0x45524332303A20617070726F76652066726F6D20746865207A65726F20616464 PUSH1 0x0 DUP3 ADD MSTORE PUSH32 0x7265737300000000000000000000000000000000000000000000000000000000 PUSH1 0x20 DUP3 ADD MSTORE POP JUMP JUMPDEST PUSH32 0x45524332303A2064656372656173656420616C6C6F77616E63652062656C6F77 PUSH1 0x0 DUP3 ADD MSTORE PUSH32 0x207A65726F000000000000000000000000000000000000000000000000000000 PUSH1 0x20 DUP3 ADD MSTORE POP JUMP JUMPDEST PUSH32 0x45524332303A206D696E7420746F20746865207A65726F206164647265737300 PUSH1 0x0 DUP3 ADD MSTORE POP JUMP JUMPDEST PUSH2 0x2CB5 DUP2 PUSH2 0x2670 JUMP JUMPDEST DUP2 EQ PUSH2 0x2CC0 JUMPI PUSH1 0x0 DUP1 REVERT JUMPDEST POP JUMP JUMPDEST PUSH2 0x2CCC DUP2 PUSH2 0x268E JUMP JUMPDEST DUP2 EQ PUSH2 0x2CD7 JUMPI PUSH1 0x0 DUP1 REVERT JUMPDEST POP JUMP JUMPDEST PUSH2 0x2CE3 DUP2 PUSH2 0x26B8 JUMP JUMPDEST DUP2 EQ PUSH2 0x2CEE JUMPI PUSH1 0x0 DUP1 REVERT JUMPDEST POP JUMP JUMPDEST PUSH2 0x2CFA DUP2 PUSH2 0x26C2 JUMP JUMPDEST DUP2 EQ PUSH2 0x2D05 JUMPI PUSH1 0x0 DUP1 REVERT JUMPDEST POP JUMP INVALID LOG2 PUSH5 0x6970667358 0x22 SLT KECCAK256 LT JUMPDEST 0xE1 SWAP16 0xA8 SLOAD 0xF6 SHR DUP13 0xAA 0xB5 TIMESTAMP 0x24 BLOCKHASH 0xED MULMOD SWAP7 MSTORE GASLIMIT PUSH31 0x74D33E80F1EEA914A0DDF1664736F6C634300080400330000000000000000 "
				},
				"gasEstimates": {
					"creation": {
						"codeDepositCost": "2316400",
						"executionCost": "infinite",
						"totalCost": "infinite"
					},
					"external": {
						"DOMAIN_SEPARATOR()": "infinite",
						"allowance(address,address)": "infinite",
						"approve(address,uint256)": "infinite",
						"balanceOf(address)": "1564",
						"burn(uint256)": "infinite",
						"burnFrom(address,uint256)": "infinite",
						"decimals()": "455",
						"decreaseAllowance(address,uint256)": "infinite",
						"increaseAllowance(address,uint256)": "infinite",
						"mint(address,uint256)": "infinite",
						"name()": "infinite",
						"nonces(address)": "1679",
						"owner()": "1405",
						"pause()": "infinite",
						"paused()": "1312",
						"permit(address,address,uint256,uint256,uint8,bytes32,bytes32)": "infinite",
						"renounceOwnership()": "24593",
						"symbol()": "infinite",
						"totalSupply()": "1205",
						"transfer(address,uint256)": "infinite",
						"transferFrom(address,address,uint256)": "infinite",
						"transferOwnership(address)": "25029",
						"unpause()": "infinite"
					},
					"internal": {
						"_beforeTokenTransfer(address,address,uint256)": "infinite"
					}
				},
				"methodIdentifiers": {
					"DOMAIN_SEPARATOR()": "3644e515",
					"allowance(address,address)": "dd62ed3e",
					"approve(address,uint256)": "095ea7b3",
					"balanceOf(address)": "70a08231",
					"burn(uint256)": "42966c68",
					"burnFrom(address,uint256)": "79cc6790",
					"decimals()": "313ce567",
					"decreaseAllowance(address,uint256)": "a457c2d7",
					"increaseAllowance(address,uint256)": "39509351",
					"mint(address,uint256)": "40c10f19",
					"name()": "06fdde03",
					"nonces(address)": "7ecebe00",
					"owner()": "8da5cb5b",
					"pause()": "8456cb59",
					"paused()": "5c975abb",
					"permit(address,address,uint256,uint256,uint8,bytes32,bytes32)": "d505accf",
					"renounceOwnership()": "715018a6",
					"symbol()": "95d89b41",
					"totalSupply()": "18160ddd",
					"transfer(address,uint256)": "a9059cbb",
					"transferFrom(address,address,uint256)": "23b872dd",
					"transferOwnership(address)": "f2fde38b",
					"unpause()": "3f4ba83a"
				}
			},
			"storageLayout": {
				"storage": [
					{
						"astId": 236,
						"contract": "contract-526c5b12e7.sol:SrZygon",
						"label": "_balances",
						"offset": 0,
						"slot": "0",
						"type": "t_mapping(t_address,t_uint256)"
					},
					{
						"astId": 242,
						"contract": "contract-526c5b12e7.sol:SrZygon",
						"label": "_allowances",
						"offset": 0,
						"slot": "1",
						"type": "t_mapping(t_address,t_mapping(t_address,t_uint256))"
					},
					{
						"astId": 244,
						"contract": "contract-526c5b12e7.sol:SrZygon",
						"label": "_totalSupply",
						"offset": 0,
						"slot": "2",
						"type": "t_uint256"
					},
					{
						"astId": 246,
						"contract": "contract-526c5b12e7.sol:SrZygon",
						"label": "_name",
						"offset": 0,
						"slot": "3",
						"type": "t_string_storage"
					},
					{
						"astId": 248,
						"contract": "contract-526c5b12e7.sol:SrZygon",
						"label": "_symbol",
						"offset": 0,
						"slot": "4",
						"type": "t_string_storage"
					},
					{
						"astId": 130,
						"contract": "contract-526c5b12e7.sol:SrZygon",
						"label": "_paused",
						"offset": 0,
						"slot": "5",
						"type": "t_bool"
					},
					{
						"astId": 7,
						"contract": "contract-526c5b12e7.sol:SrZygon",
						"label": "_owner",
						"offset": 1,
						"slot": "5",
						"type": "t_address"
					},
					{
						"astId": 976,
						"contract": "contract-526c5b12e7.sol:SrZygon",
						"label": "_nonces",
						"offset": 0,
						"slot": "6",
						"type": "t_mapping(t_address,t_struct(Counter)1189_storage)"
					},
					{
						"astId": 984,
						"contract": "contract-526c5b12e7.sol:SrZygon",
						"label": "_PERMIT_TYPEHASH_DEPRECATED_SLOT",
						"offset": 0,
						"slot": "7",
						"type": "t_bytes32"
					}
				],
				"types": {
					"t_address": {
						"encoding": "inplace",
						"label": "address",
						"numberOfBytes": "20"
					},
					"t_bool": {
						"encoding": "inplace",
						"label": "bool",
						"numberOfBytes": "1"
					},
					"t_bytes32": {
						"encoding": "inplace",
						"label": "bytes32",
						"numberOfBytes": "32"
					},
					"t_mapping(t_address,t_mapping(t_address,t_uint256))": {
						"encoding": "mapping",
						"key": "t_address",
						"label": "mapping(address => mapping(address => uint256))",
						"numberOfBytes": "32",
						"value": "t_mapping(t_address,t_uint256)"
					},
					"t_mapping(t_address,t_struct(Counter)1189_storage)": {
						"encoding": "mapping",
						"key": "t_address",
						"label": "mapping(address => struct Counters.Counter)",
						"numberOfBytes": "32",
						"value": "t_struct(Counter)1189_storage"
					},
					"t_mapping(t_address,t_uint256)": {
						"encoding": "mapping",
						"key": "t_address",
						"label": "mapping(address => uint256)",
						"numberOfBytes": "32",
						"value": "t_uint256"
					},
					"t_string_storage": {
						"encoding": "bytes",
						"label": "string",
						"numberOfBytes": "32"
					},
					"t_struct(Counter)1189_storage": {
						"encoding": "inplace",
						"label": "struct Counters.Counter",
						"members": [
							{
								"astId": 1188,
								"contract": "contract-526c5b12e7.sol:SrZygon",
								"label": "_value",
								"offset": 0,
								"slot": "0",
								"type": "t_uint256"
							}
						],
						"numberOfBytes": "32"
					},
					"t_uint256": {
						"encoding": "inplace",
						"label": "uint256",
						"numberOfBytes": "32"
					}
				}
			},
			"userdoc": {
				"kind": "user",
				"methods": {},
				"version": 1
			}
		}
	}
}